{
  "_format": "hh-sol-artifact-1",
  "contractName": "Payfluence",
  "sourceName": "contracts/Payfluence.sol",
  "abi": [
    {
      "inputs": [
        {
          "internalType": "address",
          "name": "_adminAddress",
          "type": "address"
        }
      ],
      "stateMutability": "nonpayable",
      "type": "constructor"
    },
    {
      "inputs": [],
      "name": "AirdropAlreadyClaimed",
      "type": "error"
    },
    {
      "inputs": [
        {
          "internalType": "string",
          "name": "id",
          "type": "string"
        },
        {
          "internalType": "address",
          "name": "token",
          "type": "address"
        }
      ],
      "name": "AssetNotFound",
      "type": "error"
    },
    {
      "inputs": [
        {
          "internalType": "address",
          "name": "token",
          "type": "address"
        }
      ],
      "name": "AssetTypeNotFoundForToken",
      "type": "error"
    },
    {
      "inputs": [],
      "name": "ECDSAInvalidSignature",
      "type": "error"
    },
    {
      "inputs": [
        {
          "internalType": "uint256",
          "name": "length",
          "type": "uint256"
        }
      ],
      "name": "ECDSAInvalidSignatureLength",
      "type": "error"
    },
    {
      "inputs": [
        {
          "internalType": "bytes32",
          "name": "s",
          "type": "bytes32"
        }
      ],
      "name": "ECDSAInvalidSignatureS",
      "type": "error"
    },
    {
      "inputs": [
        {
          "internalType": "enum TokenReceiver.AssetType",
          "name": "assetType",
          "type": "uint8"
        }
      ],
      "name": "InvalidAssetType",
      "type": "error"
    },
    {
      "inputs": [],
      "name": "InvalidShortString",
      "type": "error"
    },
    {
      "inputs": [],
      "name": "InvalidSigner",
      "type": "error"
    },
    {
      "inputs": [
        {
          "internalType": "string",
          "name": "id",
          "type": "string"
        },
        {
          "internalType": "enum TokenReceiver.AssetType",
          "name": "assetType",
          "type": "uint8"
        },
        {
          "internalType": "address",
          "name": "token",
          "type": "address"
        },
        {
          "internalType": "uint256",
          "name": "tokenId",
          "type": "uint256"
        },
        {
          "internalType": "uint256",
          "name": "amount",
          "type": "uint256"
        }
      ],
      "name": "NotEnoughFunds",
      "type": "error"
    },
    {
      "inputs": [],
      "name": "OnlyAirdropOwner",
      "type": "error"
    },
    {
      "inputs": [],
      "name": "OnlyTokenOwner",
      "type": "error"
    },
    {
      "inputs": [
        {
          "internalType": "address",
          "name": "owner",
          "type": "address"
        }
      ],
      "name": "OwnableInvalidOwner",
      "type": "error"
    },
    {
      "inputs": [
        {
          "internalType": "address",
          "name": "account",
          "type": "address"
        }
      ],
      "name": "OwnableUnauthorizedAccount",
      "type": "error"
    },
    {
      "inputs": [],
      "name": "ReentrancyGuardReentrantCall",
      "type": "error"
    },
    {
      "inputs": [
        {
          "internalType": "string",
          "name": "str",
          "type": "string"
        }
      ],
      "name": "StringTooLong",
      "type": "error"
    },
    {
      "inputs": [],
      "name": "TransferFailed",
      "type": "error"
    },
    {
      "inputs": [
        {
          "internalType": "string",
          "name": "id",
          "type": "string"
        },
        {
          "internalType": "address",
          "name": "to",
          "type": "address"
        },
        {
          "internalType": "uint256",
          "name": "amount",
          "type": "uint256"
        }
      ],
      "name": "TransferNativeFailed",
      "type": "error"
    },
    {
      "anonymous": false,
      "inputs": [],
      "name": "EIP712DomainChanged",
      "type": "event"
    },
    {
      "anonymous": false,
      "inputs": [
        {
          "indexed": false,
          "internalType": "string",
          "name": "id",
          "type": "string"
        },
        {
          "indexed": false,
          "internalType": "address",
          "name": "operator",
          "type": "address"
        },
        {
          "indexed": false,
          "internalType": "address",
          "name": "from",
          "type": "address"
        },
        {
          "indexed": false,
          "internalType": "uint256[]",
          "name": "tokenIds",
          "type": "uint256[]"
        },
        {
          "indexed": false,
          "internalType": "uint256[]",
          "name": "amounts",
          "type": "uint256[]"
        }
      ],
      "name": "ERC1155BatchReceived",
      "type": "event"
    },
    {
      "anonymous": false,
      "inputs": [
        {
          "indexed": false,
          "internalType": "string",
          "name": "id",
          "type": "string"
        },
        {
          "indexed": false,
          "internalType": "address",
          "name": "operator",
          "type": "address"
        },
        {
          "indexed": false,
          "internalType": "address",
          "name": "from",
          "type": "address"
        },
        {
          "indexed": false,
          "internalType": "uint256",
          "name": "tokenIds",
          "type": "uint256"
        },
        {
          "indexed": false,
          "internalType": "uint256",
          "name": "amounts",
          "type": "uint256"
        }
      ],
      "name": "ERC1155Received",
      "type": "event"
    },
    {
      "anonymous": false,
      "inputs": [
        {
          "indexed": false,
          "internalType": "string",
          "name": "id",
          "type": "string"
        },
        {
          "indexed": false,
          "internalType": "address",
          "name": "from",
          "type": "address"
        },
        {
          "indexed": false,
          "internalType": "address",
          "name": "token",
          "type": "address"
        },
        {
          "indexed": false,
          "internalType": "uint256",
          "name": "amount",
          "type": "uint256"
        }
      ],
      "name": "ERC20Received",
      "type": "event"
    },
    {
      "anonymous": false,
      "inputs": [
        {
          "indexed": false,
          "internalType": "string",
          "name": "id",
          "type": "string"
        },
        {
          "indexed": false,
          "internalType": "address",
          "name": "operator",
          "type": "address"
        },
        {
          "indexed": false,
          "internalType": "address",
          "name": "from",
          "type": "address"
        },
        {
          "indexed": false,
          "internalType": "uint256",
          "name": "tokenId",
          "type": "uint256"
        }
      ],
      "name": "ERC721Received",
      "type": "event"
    },
    {
      "anonymous": false,
      "inputs": [
        {
          "indexed": false,
          "internalType": "string",
          "name": "id",
          "type": "string"
        },
        {
          "indexed": false,
          "internalType": "address",
          "name": "from",
          "type": "address"
        },
        {
          "indexed": false,
          "internalType": "uint256",
          "name": "amount",
          "type": "uint256"
        }
      ],
      "name": "NativeReceived",
      "type": "event"
    },
    {
      "anonymous": false,
      "inputs": [
        {
          "indexed": true,
          "internalType": "address",
          "name": "previousOwner",
          "type": "address"
        },
        {
          "indexed": true,
          "internalType": "address",
          "name": "newOwner",
          "type": "address"
        }
      ],
      "name": "OwnershipTransferStarted",
      "type": "event"
    },
    {
      "anonymous": false,
      "inputs": [
        {
          "indexed": true,
          "internalType": "address",
          "name": "previousOwner",
          "type": "address"
        },
        {
          "indexed": true,
          "internalType": "address",
          "name": "newOwner",
          "type": "address"
        }
      ],
      "name": "OwnershipTransferred",
      "type": "event"
    },
    {
      "inputs": [],
      "name": "acceptOwnership",
      "outputs": [],
      "stateMutability": "nonpayable",
      "type": "function"
    },
    {
      "inputs": [
        {
          "internalType": "string",
          "name": "_airdropId",
          "type": "string"
        },
        {
          "internalType": "address",
          "name": "_newOwner",
          "type": "address"
        }
      ],
      "name": "adminTransferAirdropOwnership",
      "outputs": [],
      "stateMutability": "nonpayable",
      "type": "function"
    },
    {
      "inputs": [
        {
          "internalType": "address",
          "name": "_to",
          "type": "address"
        },
        {
          "internalType": "string",
          "name": "_airdropId",
          "type": "string"
        },
        {
          "internalType": "address",
          "name": "_token",
          "type": "address"
        },
        {
          "internalType": "uint256",
          "name": "_amount",
          "type": "uint256"
        }
      ],
      "name": "adminWithdrawERC20",
      "outputs": [],
      "stateMutability": "nonpayable",
      "type": "function"
    },
    {
      "inputs": [
        {
          "internalType": "address",
          "name": "_to",
          "type": "address"
        }
      ],
      "name": "adminWithdrawNative",
      "outputs": [],
      "stateMutability": "nonpayable",
      "type": "function"
    },
    {
      "inputs": [
        {
          "internalType": "string",
          "name": "airdropId",
          "type": "string"
        },
        {
          "internalType": "address",
          "name": "recipient",
          "type": "address"
        }
      ],
      "name": "airdropClaimedAmounts",
      "outputs": [
        {
          "internalType": "uint256",
          "name": "amountClaimed",
          "type": "uint256"
        }
      ],
      "stateMutability": "view",
      "type": "function"
    },
    {
      "inputs": [
        {
          "internalType": "string",
          "name": "airdropId",
          "type": "string"
        }
      ],
      "name": "airdropOwners",
      "outputs": [
        {
          "internalType": "address",
          "name": "owner",
          "type": "address"
        }
      ],
      "stateMutability": "view",
      "type": "function"
    },
    {
      "inputs": [
        {
          "components": [
            {
              "internalType": "string",
              "name": "airdropId",
              "type": "string"
            },
            {
              "internalType": "address",
              "name": "token",
              "type": "address"
            },
            {
              "internalType": "address",
              "name": "owner",
              "type": "address"
            },
            {
              "internalType": "address",
              "name": "recipient",
              "type": "address"
            },
            {
              "internalType": "uint256",
              "name": "amountClaimable",
              "type": "uint256"
            }
          ],
          "internalType": "struct Payfluence.AirdropMessage",
          "name": "airdropMessage",
          "type": "tuple"
        },
        {
          "internalType": "bytes",
          "name": "signature",
          "type": "bytes"
        }
      ],
      "name": "claimAirdrop",
      "outputs": [],
      "stateMutability": "nonpayable",
      "type": "function"
    },
    {
      "inputs": [
        {
          "internalType": "string",
          "name": "id",
          "type": "string"
        }
      ],
      "name": "contractBalance",
      "outputs": [
        {
          "internalType": "uint256",
          "name": "native",
          "type": "uint256"
        }
      ],
      "stateMutability": "view",
      "type": "function"
    },
    {
      "inputs": [],
      "name": "eip712Domain",
      "outputs": [
        {
          "internalType": "bytes1",
          "name": "fields",
          "type": "bytes1"
        },
        {
          "internalType": "string",
          "name": "name",
          "type": "string"
        },
        {
          "internalType": "string",
          "name": "version",
          "type": "string"
        },
        {
          "internalType": "uint256",
          "name": "chainId",
          "type": "uint256"
        },
        {
          "internalType": "address",
          "name": "verifyingContract",
          "type": "address"
        },
        {
          "internalType": "bytes32",
          "name": "salt",
          "type": "bytes32"
        },
        {
          "internalType": "uint256[]",
          "name": "extensions",
          "type": "uint256[]"
        }
      ],
      "stateMutability": "view",
      "type": "function"
    },
    {
      "inputs": [
        {
          "internalType": "string",
          "name": "_airdropId",
          "type": "string"
        },
        {
          "internalType": "address",
          "name": "_owner",
          "type": "address"
        },
        {
          "internalType": "address",
          "name": "_token",
          "type": "address"
        },
        {
          "internalType": "uint256",
          "name": "_amount",
          "type": "uint256"
        }
      ],
      "name": "fundERC20",
      "outputs": [],
      "stateMutability": "nonpayable",
      "type": "function"
    },
    {
      "inputs": [],
      "name": "fundNative",
      "outputs": [],
      "stateMutability": "payable",
      "type": "function"
    },
    {
      "inputs": [],
      "name": "getChainId",
      "outputs": [
        {
          "internalType": "uint256",
          "name": "",
          "type": "uint256"
        }
      ],
      "stateMutability": "view",
      "type": "function"
    },
    {
      "inputs": [
        {
          "internalType": "address",
          "name": "",
          "type": "address"
        },
        {
          "internalType": "address",
          "name": "",
          "type": "address"
        },
        {
          "internalType": "uint256[]",
          "name": "",
          "type": "uint256[]"
        },
        {
          "internalType": "uint256[]",
          "name": "",
          "type": "uint256[]"
        },
        {
          "internalType": "bytes",
          "name": "",
          "type": "bytes"
        }
      ],
      "name": "onERC1155BatchReceived",
      "outputs": [
        {
          "internalType": "bytes4",
          "name": "",
          "type": "bytes4"
        }
      ],
      "stateMutability": "nonpayable",
      "type": "function"
    },
    {
      "inputs": [
        {
          "internalType": "address",
          "name": "",
          "type": "address"
        },
        {
          "internalType": "address",
          "name": "",
          "type": "address"
        },
        {
          "internalType": "uint256",
          "name": "",
          "type": "uint256"
        },
        {
          "internalType": "uint256",
          "name": "",
          "type": "uint256"
        },
        {
          "internalType": "bytes",
          "name": "",
          "type": "bytes"
        }
      ],
      "name": "onERC1155Received",
      "outputs": [
        {
          "internalType": "bytes4",
          "name": "",
          "type": "bytes4"
        }
      ],
      "stateMutability": "nonpayable",
      "type": "function"
    },
    {
      "inputs": [
        {
          "internalType": "address",
          "name": "",
          "type": "address"
        },
        {
          "internalType": "address",
          "name": "",
          "type": "address"
        },
        {
          "internalType": "uint256",
          "name": "",
          "type": "uint256"
        },
        {
          "internalType": "bytes",
          "name": "",
          "type": "bytes"
        }
      ],
      "name": "onERC721Received",
      "outputs": [
        {
          "internalType": "bytes4",
          "name": "",
          "type": "bytes4"
        }
      ],
      "stateMutability": "nonpayable",
      "type": "function"
    },
    {
      "inputs": [],
      "name": "owner",
      "outputs": [
        {
          "internalType": "address",
          "name": "",
          "type": "address"
        }
      ],
      "stateMutability": "view",
      "type": "function"
    },
    {
      "inputs": [],
      "name": "pendingOwner",
      "outputs": [
        {
          "internalType": "address",
          "name": "",
          "type": "address"
        }
      ],
      "stateMutability": "view",
      "type": "function"
    },
    {
      "inputs": [],
      "name": "renounceOwnership",
      "outputs": [],
      "stateMutability": "nonpayable",
      "type": "function"
    },
    {
      "inputs": [
        {
          "internalType": "address",
          "name": "_adminAddress",
          "type": "address"
        }
      ],
      "name": "setAdminAddress",
      "outputs": [],
      "stateMutability": "nonpayable",
      "type": "function"
    },
    {
      "inputs": [
        {
          "internalType": "bytes4",
          "name": "interfaceId",
          "type": "bytes4"
        }
      ],
      "name": "supportsInterface",
      "outputs": [
        {
          "internalType": "bool",
          "name": "",
          "type": "bool"
        }
      ],
      "stateMutability": "view",
      "type": "function"
    },
    {
      "inputs": [
        {
          "internalType": "address",
          "name": "newOwner",
          "type": "address"
        }
      ],
      "name": "transferOwnership",
      "outputs": [],
      "stateMutability": "nonpayable",
      "type": "function"
    },
    {
      "inputs": [
        {
          "internalType": "bytes",
          "name": "signature",
          "type": "bytes"
        },
        {
          "internalType": "address",
          "name": "signer",
          "type": "address"
        },
        {
          "components": [
            {
              "internalType": "string",
              "name": "airdropId",
              "type": "string"
            },
            {
              "internalType": "address",
              "name": "token",
              "type": "address"
            },
            {
              "internalType": "address",
              "name": "owner",
              "type": "address"
            },
            {
              "internalType": "address",
              "name": "recipient",
              "type": "address"
            },
            {
              "internalType": "uint256",
              "name": "amountClaimable",
              "type": "uint256"
            }
          ],
          "internalType": "struct Payfluence.AirdropMessage",
          "name": "airdropMessage",
          "type": "tuple"
        }
      ],
      "name": "verify",
      "outputs": [],
      "stateMutability": "view",
      "type": "function"
    },
    {
      "inputs": [
        {
          "internalType": "string",
          "name": "_airdropId",
          "type": "string"
        },
        {
          "internalType": "address",
          "name": "_to",
          "type": "address"
        },
        {
          "internalType": "address",
          "name": "_token",
          "type": "address"
        },
        {
          "internalType": "uint256",
          "name": "_amount",
          "type": "uint256"
        }
      ],
      "name": "withdrawERC20",
      "outputs": [],
      "stateMutability": "nonpayable",
      "type": "function"
    },
    {
      "stateMutability": "payable",
      "type": "receive"
    }
  ],
  "bytecode": "0x61016060405260006005553480156200001757600080fd5b50604051620038993803806200389983398181016040528101906200003d9190620004c4565b6040518060400160405280600a81526020017f506179666c75656e6365000000000000000000000000000000000000000000008152506040518060400160405280600181526020017f310000000000000000000000000000000000000000000000000000000000000081525033600073ffffffffffffffffffffffffffffffffffffffff168173ffffffffffffffffffffffffffffffffffffffff16036200011f5760006040517f1e4fbdf700000000000000000000000000000000000000000000000000000000815260040162000116919062000507565b60405180910390fd5b62000130816200023160201b60201c565b5060016002819055506200014f6003836200026a60201b90919060201c565b61012081815250506200016d6004826200026a60201b90919060201c565b6101408181525050818051906020012060e08181525050808051906020012061010081815250504660a08181525050620001ac620002c260201b60201c565b608081815250503073ffffffffffffffffffffffffffffffffffffffff1660c08173ffffffffffffffffffffffffffffffffffffffff1681525050505080600860006101000a81548173ffffffffffffffffffffffffffffffffffffffff021916908373ffffffffffffffffffffffffffffffffffffffff1602179055505062000a63565b600160006101000a81549073ffffffffffffffffffffffffffffffffffffffff021916905562000267816200031f60201b60201c565b50565b600060208351101562000290576200028883620003e360201b60201c565b9050620002bc565b82620002a2836200045060201b60201c565b6000019081620002b391906200079e565b5060ff60001b90505b92915050565b60007f8b73c3c69bb8fe3d512ecc4cf759cc79239f7b179b0ffacaa9a75d522b39400f60e05161010051463060405160200162000304959493929190620008b1565b60405160208183030381529060405280519060200120905090565b60008060009054906101000a900473ffffffffffffffffffffffffffffffffffffffff169050816000806101000a81548173ffffffffffffffffffffffffffffffffffffffff021916908373ffffffffffffffffffffffffffffffffffffffff1602179055508173ffffffffffffffffffffffffffffffffffffffff168173ffffffffffffffffffffffffffffffffffffffff167f8be0079c531659141344cd1fd0a4f28419497f9722a3daafe3b4186f6b6457e060405160405180910390a35050565b600080829050601f815111156200043357826040517f305a27a90000000000000000000000000000000000000000000000000000000081526004016200042a91906200099d565b60405180910390fd5b8051816200044190620009f3565b60001c1760001b915050919050565b6000819050919050565b600080fd5b600073ffffffffffffffffffffffffffffffffffffffff82169050919050565b60006200048c826200045f565b9050919050565b6200049e816200047f565b8114620004aa57600080fd5b50565b600081519050620004be8162000493565b92915050565b600060208284031215620004dd57620004dc6200045a565b5b6000620004ed84828501620004ad565b91505092915050565b62000501816200047f565b82525050565b60006020820190506200051e6000830184620004f6565b92915050565b600081519050919050565b7f4e487b7100000000000000000000000000000000000000000000000000000000600052604160045260246000fd5b7f4e487b7100000000000000000000000000000000000000000000000000000000600052602260045260246000fd5b60006002820490506001821680620005a657607f821691505b602082108103620005bc57620005bb6200055e565b5b50919050565b60008190508160005260206000209050919050565b60006020601f8301049050919050565b600082821b905092915050565b600060088302620006267fffffffffffffffffffffffffffffffffffffffffffffffffffffffffffffffff82620005e7565b620006328683620005e7565b95508019841693508086168417925050509392505050565b6000819050919050565b6000819050919050565b60006200067f6200067962000673846200064a565b62000654565b6200064a565b9050919050565b6000819050919050565b6200069b836200065e565b620006b3620006aa8262000686565b848454620005f4565b825550505050565b600090565b620006ca620006bb565b620006d781848462000690565b505050565b5b81811015620006ff57620006f3600082620006c0565b600181019050620006dd565b5050565b601f8211156200074e576200071881620005c2565b6200072384620005d7565b8101602085101562000733578190505b6200074b6200074285620005d7565b830182620006dc565b50505b505050565b600082821c905092915050565b6000620007736000198460080262000753565b1980831691505092915050565b60006200078e838362000760565b9150826002028217905092915050565b620007a98262000524565b67ffffffffffffffff811115620007c557620007c46200052f565b5b620007d182546200058d565b620007de82828562000703565b600060209050601f83116001811462000816576000841562000801578287015190505b6200080d858262000780565b8655506200087d565b601f1984166200082686620005c2565b60005b82811015620008505784890151825560018201915060208501945060208101905062000829565b868310156200087057848901516200086c601f89168262000760565b8355505b6001600288020188555050505b505050505050565b6000819050919050565b6200089a8162000885565b82525050565b620008ab816200064a565b82525050565b600060a082019050620008c860008301886200088f565b620008d760208301876200088f565b620008e660408301866200088f565b620008f56060830185620008a0565b620009046080830184620004f6565b9695505050505050565b600082825260208201905092915050565b60005b838110156200093f57808201518184015260208101905062000922565b60008484015250505050565b6000601f19601f8301169050919050565b6000620009698262000524565b6200097581856200090e565b9350620009878185602086016200091f565b62000992816200094b565b840191505092915050565b60006020820190508181036000830152620009b981846200095c565b905092915050565b600081519050919050565b6000819050602082019050919050565b6000620009ea825162000885565b80915050919050565b600062000a0082620009c1565b8262000a0c84620009cc565b905062000a1981620009dc565b9250602082101562000a5c5762000a577fffffffffffffffffffffffffffffffffffffffffffffffffffffffffffffffff83602003600802620005e7565b831692505b5050919050565b60805160a05160c05160e051610100516101205161014051612ddb62000abe6000396000611502015260006114c701526000611b1801526000611af7015260006117aa01526000611800015260006118290152612ddb6000f3fe6080604052600436106101445760003560e01c8063bc197c81116100b6578063eb47e0111161006f578063eb47e01114610424578063f23a6e6114610461578063f2fde38b1461049e578063f4fb1849146104c7578063fe1fddaa146104f0578063ffb1500e146105195761014b565b8063bc197c8114610323578063c4385d7614610360578063c8b5773d14610389578063c9c61eab146103b2578063e30c3978146103bc578063ea13689f146103e75761014b565b80633408e470116101085780633408e470146102455780634f18868a14610270578063715018a61461029957806379ba5097146102b057806384b0196e146102c75780638da5cb5b146102f85761014b565b806301ffc9a714610150578063150b7a021461018d5780631dcd3af9146101ca5780632394c348146101f35780632c1e816d1461021c5761014b565b3661014b57005b600080fd5b34801561015c57600080fd5b5061017760048036038101906101729190611d18565b610556565b6040516101849190611d60565b60405180910390f35b34801561019957600080fd5b506101b460048036038101906101af9190611e74565b610690565b6040516101c19190611f0b565b60405180910390f35b3480156101d657600080fd5b506101f160048036038101906101ec91906121ba565b6106a5565b005b3480156101ff57600080fd5b5061021a60048036038101906102159190612232565b61080e565b005b34801561022857600080fd5b50610243600480360381019061023e919061228e565b610877565b005b34801561025157600080fd5b5061025a6108c3565b60405161026791906122ca565b60405180910390f35b34801561027c57600080fd5b50610297600480360381019061029291906122e5565b6108cb565b005b3480156102a557600080fd5b506102ae610a0b565b005b3480156102bc57600080fd5b506102c5610a1f565b005b3480156102d357600080fd5b506102dc610aae565b6040516102ef9796959493929190612508565b60405180910390f35b34801561030457600080fd5b5061030d610b58565b60405161031a919061258c565b60405180910390f35b34801561032f57600080fd5b5061034a600480360381019061034591906125fd565b610b81565b6040516103579190611f0b565b60405180910390f35b34801561036c57600080fd5b50610387600480360381019061038291906122e5565b610b99565b005b34801561039557600080fd5b506103b060048036038101906103ab919061228e565b610e91565b005b6103ba610f46565b005b3480156103c857600080fd5b506103d1610f48565b6040516103de919061258c565b60405180910390f35b3480156103f357600080fd5b5061040e600480360381019061040991906126d9565b610f72565b60405161041b919061258c565b60405180910390f35b34801561043057600080fd5b5061044b60048036038101906104469190612232565b610fbb565b60405161045891906122ca565b60405180910390f35b34801561046d57600080fd5b5061048860048036038101906104839190612722565b610ff6565b6040516104959190611f0b565b60405180910390f35b3480156104aa57600080fd5b506104c560048036038101906104c0919061228e565b61100c565b005b3480156104d357600080fd5b506104ee60048036038101906104e991906127bc565b6110b9565b005b3480156104fc57600080fd5b5061051760048036038101906105129190612847565b6110c9565b005b34801561052557600080fd5b50610540600480360381019061053b91906126d9565b6110e3565b60405161054d91906122ca565b60405180910390f35b60007f4e2312e0000000000000000000000000000000000000000000000000000000007bffffffffffffffffffffffffffffffffffffffffffffffffffffffff1916827bffffffffffffffffffffffffffffffffffffffffffffffffffffffff1916148061062157507f150b7a02000000000000000000000000000000000000000000000000000000007bffffffffffffffffffffffffffffffffffffffffffffffffffffffff1916827bffffffffffffffffffffffffffffffffffffffffffffffffffffffff1916145b8061068957507f01ffc9a7000000000000000000000000000000000000000000000000000000007bffffffffffffffffffffffffffffffffffffffffffffffffffffffff1916827bffffffffffffffffffffffffffffffffffffffffffffffffffffffff1916145b9050919050565b600063150b7a0260e01b905095945050505050565b6106ad611117565b6106da81600860009054906101000a900473ffffffffffffffffffffffffffffffffffffffff168461115b565b8160800151600a83600001516040516106f39190612906565b90815260200160405180910390206000846060015173ffffffffffffffffffffffffffffffffffffffff1673ffffffffffffffffffffffffffffffffffffffff168152602001908152602001600020541061077a576040517fe4ca4c0b00000000000000000000000000000000000000000000000000000000815260040160405180910390fd5b8160800151600a83600001516040516107939190612906565b90815260200160405180910390206000846060015173ffffffffffffffffffffffffffffffffffffffff1673ffffffffffffffffffffffffffffffffffffffff16815260200190815260200160002081905550610802826000015183606001518460200151856080015161124d565b61080a6113f4565b5050565b6108166113fe565b806009836040516108279190612906565b908152602001604051809103902060006101000a81548173ffffffffffffffffffffffffffffffffffffffff021916908373ffffffffffffffffffffffffffffffffffffffff1602179055505050565b61087f6113fe565b80600860006101000a81548173ffffffffffffffffffffffffffffffffffffffff021916908373ffffffffffffffffffffffffffffffffffffffff16021790555050565b600046905090565b6108d3611117565b83600073ffffffffffffffffffffffffffffffffffffffff166009826040516108fc9190612906565b908152602001604051809103902060009054906101000a900473ffffffffffffffffffffffffffffffffffffffff1673ffffffffffffffffffffffffffffffffffffffff16141580156109b9575060098160405161095a9190612906565b908152602001604051809103902060009054906101000a900473ffffffffffffffffffffffffffffffffffffffff1673ffffffffffffffffffffffffffffffffffffffff163373ffffffffffffffffffffffffffffffffffffffff1614155b156109f0576040517f08062d7400000000000000000000000000000000000000000000000000000000815260040160405180910390fd5b6109fc8585858561124d565b50610a056113f4565b50505050565b610a136113fe565b610a1d6000611485565b565b6000610a296114b6565b90508073ffffffffffffffffffffffffffffffffffffffff16610a4a610f48565b73ffffffffffffffffffffffffffffffffffffffff1614610aa257806040517f118cdaa7000000000000000000000000000000000000000000000000000000008152600401610a99919061258c565b60405180910390fd5b610aab81611485565b50565b600060608060008060006060610ac26114be565b610aca6114f9565b46306000801b600067ffffffffffffffff811115610aeb57610aea611f3c565b5b604051908082528060200260200182016040528015610b195781602001602082028036833780820191505090505b507f0f00000000000000000000000000000000000000000000000000000000000000959493929190965096509650965096509650965090919293949596565b60008060009054906101000a900473ffffffffffffffffffffffffffffffffffffffff16905090565b600063bc197c8160e01b905098975050505050505050565b610ba1611117565b83600073ffffffffffffffffffffffffffffffffffffffff16600982604051610bca9190612906565b908152602001604051809103902060009054906101000a900473ffffffffffffffffffffffffffffffffffffffff1673ffffffffffffffffffffffffffffffffffffffff1614158015610c875750600981604051610c289190612906565b908152602001604051809103902060009054906101000a900473ffffffffffffffffffffffffffffffffffffffff1673ffffffffffffffffffffffffffffffffffffffff163373ffffffffffffffffffffffffffffffffffffffff1614155b15610cbe576040517f08062d7400000000000000000000000000000000000000000000000000000000815260040160405180910390fd5b838073ffffffffffffffffffffffffffffffffffffffff163373ffffffffffffffffffffffffffffffffffffffff1614610d24576040517fcdf1f8f900000000000000000000000000000000000000000000000000000000815260040160405180910390fd5b600073ffffffffffffffffffffffffffffffffffffffff16600987604051610d4c9190612906565b908152602001604051809103902060009054906101000a900473ffffffffffffffffffffffffffffffffffffffff1673ffffffffffffffffffffffffffffffffffffffff1603610df45784600987604051610da79190612906565b908152602001604051809103902060006101000a81548173ffffffffffffffffffffffffffffffffffffffff021916908373ffffffffffffffffffffffffffffffffffffffff1602179055505b8373ffffffffffffffffffffffffffffffffffffffff166323b872dd8630866040518463ffffffff1660e01b8152600401610e319392919061291d565b6020604051808303816000875af1158015610e50573d6000803e3d6000fd5b505050506040513d601f19601f82011682018060405250810190610e749190612980565b50610e8186868686611534565b5050610e8b6113f4565b50505050565b610e996113fe565b600047905060008273ffffffffffffffffffffffffffffffffffffffff1682604051610ec4906129de565b60006040518083038185875af1925050503d8060008114610f01576040519150601f19603f3d011682016040523d82523d6000602084013e610f06565b606091505b5050905080610f41576040517f90b8ec1800000000000000000000000000000000000000000000000000000000815260040160405180910390fd5b505050565b565b6000600160009054906101000a900473ffffffffffffffffffffffffffffffffffffffff16905090565b6009818051602081018201805184825260208301602085012081835280955050505050506000915054906101000a900473ffffffffffffffffffffffffffffffffffffffff1681565b600a82805160208101820180518482526020830160208501208183528095505050505050602052806000526040600020600091509150505481565b600063f23a6e6160e01b90509695505050505050565b6110146113fe565b80600160006101000a81548173ffffffffffffffffffffffffffffffffffffffff021916908373ffffffffffffffffffffffffffffffffffffffff1602179055508073ffffffffffffffffffffffffffffffffffffffff16611074610b58565b73ffffffffffffffffffffffffffffffffffffffff167f38d16b8cac22d99fc7c124b9cd0de2d3fa1faef420bfe791d8c362d765e2270060405160405180910390a350565b6110c483838361115b565b505050565b6110d16113fe565b6110dd8385848461124d565b50505050565b6006818051602081018201805184825260208301602085012081835280955050505050506000915090508060000154905081565b6002805403611152576040517f3ee5aeb500000000000000000000000000000000000000000000000000000000815260040160405180910390fd5b60028081905550565b60006111d17fa3b140137dde1ec8f85da0fadac4c5d6c5410186ca811cbe1e3d5fb737dfb2f683600001518051906020012084602001518560400151866060015187608001516040516020016111b6969594939291906129f3565b604051602081830303815290604052805190602001206115ec565b905060006111df8286611606565b90508373ffffffffffffffffffffffffffffffffffffffff168173ffffffffffffffffffffffffffffffffffffffff1614611246576040517f815e1d6400000000000000000000000000000000000000000000000000000000815260040160405180910390fd5b5050505050565b8060068560405161125e9190612906565b908152602001604051809103902060010160008473ffffffffffffffffffffffffffffffffffffffff1673ffffffffffffffffffffffffffffffffffffffff1681526020019081526020016000205410156112fa57836002836000846040517f3ff3e6f20000000000000000000000000000000000000000000000000000000081526004016112f1959493929190612b10565b60405180910390fd5b8060068560405161130b9190612906565b908152602001604051809103902060010160008473ffffffffffffffffffffffffffffffffffffffff1673ffffffffffffffffffffffffffffffffffffffff16815260200190815260200160002060008282546113689190612b99565b925050819055508173ffffffffffffffffffffffffffffffffffffffff1663a9059cbb84836040518363ffffffff1660e01b81526004016113aa929190612bcd565b6020604051808303816000875af11580156113c9573d6000803e3d6000fd5b505050506040513d601f19601f820116820180604052508101906113ed9190612980565b5050505050565b6001600281905550565b6114066114b6565b73ffffffffffffffffffffffffffffffffffffffff16611424610b58565b73ffffffffffffffffffffffffffffffffffffffff1614611483576114476114b6565b6040517f118cdaa700000000000000000000000000000000000000000000000000000000815260040161147a919061258c565b60405180910390fd5b565b600160006101000a81549073ffffffffffffffffffffffffffffffffffffffff02191690556114b381611632565b50565b600033905090565b60606114f460037f00000000000000000000000000000000000000000000000000000000000000006116f690919063ffffffff16565b905090565b606061152f60047f00000000000000000000000000000000000000000000000000000000000000006116f690919063ffffffff16565b905090565b806006856040516115459190612906565b908152602001604051809103902060010160008473ffffffffffffffffffffffffffffffffffffffff1673ffffffffffffffffffffffffffffffffffffffff16815260200190815260200160002060008282546115a29190612bf6565b925050819055507f80b0529195f12df0318651d4b36ffc81b7b3cb429033916c20d71e8d2e219ae3848484846040516115de9493929190612c2a565b60405180910390a150505050565b60006115ff6115f96117a6565b8361185d565b9050919050565b600080600080611616868661189e565b92509250925061162682826118fa565b82935050505092915050565b60008060009054906101000a900473ffffffffffffffffffffffffffffffffffffffff169050816000806101000a81548173ffffffffffffffffffffffffffffffffffffffff021916908373ffffffffffffffffffffffffffffffffffffffff1602179055508173ffffffffffffffffffffffffffffffffffffffff168173ffffffffffffffffffffffffffffffffffffffff167f8be0079c531659141344cd1fd0a4f28419497f9722a3daafe3b4186f6b6457e060405160405180910390a35050565b606060ff60001b83146117135761170c83611a5e565b90506117a0565b81805461171f90612ca5565b80601f016020809104026020016040519081016040528092919081815260200182805461174b90612ca5565b80156117985780601f1061176d57610100808354040283529160200191611798565b820191906000526020600020905b81548152906001019060200180831161177b57829003601f168201915b505050505090505b92915050565b60007f000000000000000000000000000000000000000000000000000000000000000073ffffffffffffffffffffffffffffffffffffffff163073ffffffffffffffffffffffffffffffffffffffff1614801561182257507f000000000000000000000000000000000000000000000000000000000000000046145b1561184f577f0000000000000000000000000000000000000000000000000000000000000000905061185a565b611857611ad2565b90505b90565b60006040517f190100000000000000000000000000000000000000000000000000000000000081528360028201528260228201526042812091505092915050565b600080600060418451036118e35760008060006020870151925060408701519150606087015160001a90506118d588828585611b68565b9550955095505050506118f3565b60006002855160001b9250925092505b9250925092565b6000600381111561190e5761190d612a54565b5b82600381111561192157611920612a54565b5b0315611a5a576001600381111561193b5761193a612a54565b5b82600381111561194e5761194d612a54565b5b03611985576040517ff645eedf00000000000000000000000000000000000000000000000000000000815260040160405180910390fd5b6002600381111561199957611998612a54565b5b8260038111156119ac576119ab612a54565b5b036119f1578060001c6040517ffce698f70000000000000000000000000000000000000000000000000000000081526004016119e891906122ca565b60405180910390fd5b600380811115611a0457611a03612a54565b5b826003811115611a1757611a16612a54565b5b03611a5957806040517fd78bce0c000000000000000000000000000000000000000000000000000000008152600401611a509190612cd6565b60405180910390fd5b5b5050565b60606000611a6b83611c5c565b90506000602067ffffffffffffffff811115611a8a57611a89611f3c565b5b6040519080825280601f01601f191660200182016040528015611abc5781602001600182028036833780820191505090505b5090508181528360208201528092505050919050565b60007f8b73c3c69bb8fe3d512ecc4cf759cc79239f7b179b0ffacaa9a75d522b39400f7f00000000000000000000000000000000000000000000000000000000000000007f00000000000000000000000000000000000000000000000000000000000000004630604051602001611b4d959493929190612cf1565b60405160208183030381529060405280519060200120905090565b60008060007f7fffffffffffffffffffffffffffffff5d576e7357a4501ddfe92f46681b20a08460001c1115611ba8576000600385925092509250611c52565b600060018888888860405160008152602001604052604051611bcd9493929190612d60565b6020604051602081039080840390855afa158015611bef573d6000803e3d6000fd5b505050602060405103519050600073ffffffffffffffffffffffffffffffffffffffff168173ffffffffffffffffffffffffffffffffffffffff1603611c4357600060016000801b93509350935050611c52565b8060008060001b935093509350505b9450945094915050565b60008060ff8360001c169050601f811115611ca3576040517fb3512b0c00000000000000000000000000000000000000000000000000000000815260040160405180910390fd5b80915050919050565b6000604051905090565b600080fd5b600080fd5b60007fffffffff0000000000000000000000000000000000000000000000000000000082169050919050565b611cf581611cc0565b8114611d0057600080fd5b50565b600081359050611d1281611cec565b92915050565b600060208284031215611d2e57611d2d611cb6565b5b6000611d3c84828501611d03565b91505092915050565b60008115159050919050565b611d5a81611d45565b82525050565b6000602082019050611d756000830184611d51565b92915050565b600073ffffffffffffffffffffffffffffffffffffffff82169050919050565b6000611da682611d7b565b9050919050565b611db681611d9b565b8114611dc157600080fd5b50565b600081359050611dd381611dad565b92915050565b6000819050919050565b611dec81611dd9565b8114611df757600080fd5b50565b600081359050611e0981611de3565b92915050565b600080fd5b600080fd5b600080fd5b60008083601f840112611e3457611e33611e0f565b5b8235905067ffffffffffffffff811115611e5157611e50611e14565b5b602083019150836001820283011115611e6d57611e6c611e19565b5b9250929050565b600080600080600060808688031215611e9057611e8f611cb6565b5b6000611e9e88828901611dc4565b9550506020611eaf88828901611dc4565b9450506040611ec088828901611dfa565b935050606086013567ffffffffffffffff811115611ee157611ee0611cbb565b5b611eed88828901611e1e565b92509250509295509295909350565b611f0581611cc0565b82525050565b6000602082019050611f206000830184611efc565b92915050565b600080fd5b6000601f19601f8301169050919050565b7f4e487b7100000000000000000000000000000000000000000000000000000000600052604160045260246000fd5b611f7482611f2b565b810181811067ffffffffffffffff82111715611f9357611f92611f3c565b5b80604052505050565b6000611fa6611cac565b9050611fb28282611f6b565b919050565b600080fd5b600080fd5b600067ffffffffffffffff821115611fdc57611fdb611f3c565b5b611fe582611f2b565b9050602081019050919050565b82818337600083830152505050565b600061201461200f84611fc1565b611f9c565b9050828152602081018484840111156120305761202f611fbc565b5b61203b848285611ff2565b509392505050565b600082601f83011261205857612057611e0f565b5b8135612068848260208601612001565b91505092915050565b600060a0828403121561208757612086611f26565b5b61209160a0611f9c565b9050600082013567ffffffffffffffff8111156120b1576120b0611fb7565b5b6120bd84828501612043565b60008301525060206120d184828501611dc4565b60208301525060406120e584828501611dc4565b60408301525060606120f984828501611dc4565b606083015250608061210d84828501611dfa565b60808301525092915050565b600067ffffffffffffffff82111561213457612133611f3c565b5b61213d82611f2b565b9050602081019050919050565b600061215d61215884612119565b611f9c565b90508281526020810184848401111561217957612178611fbc565b5b612184848285611ff2565b509392505050565b600082601f8301126121a1576121a0611e0f565b5b81356121b184826020860161214a565b91505092915050565b600080604083850312156121d1576121d0611cb6565b5b600083013567ffffffffffffffff8111156121ef576121ee611cbb565b5b6121fb85828601612071565b925050602083013567ffffffffffffffff81111561221c5761221b611cbb565b5b6122288582860161218c565b9150509250929050565b6000806040838503121561224957612248611cb6565b5b600083013567ffffffffffffffff81111561226757612266611cbb565b5b61227385828601612043565b925050602061228485828601611dc4565b9150509250929050565b6000602082840312156122a4576122a3611cb6565b5b60006122b284828501611dc4565b91505092915050565b6122c481611dd9565b82525050565b60006020820190506122df60008301846122bb565b92915050565b600080600080608085870312156122ff576122fe611cb6565b5b600085013567ffffffffffffffff81111561231d5761231c611cbb565b5b61232987828801612043565b945050602061233a87828801611dc4565b935050604061234b87828801611dc4565b925050606061235c87828801611dfa565b91505092959194509250565b60007fff0000000000000000000000000000000000000000000000000000000000000082169050919050565b61239d81612368565b82525050565b600081519050919050565b600082825260208201905092915050565b60005b838110156123dd5780820151818401526020810190506123c2565b60008484015250505050565b60006123f4826123a3565b6123fe81856123ae565b935061240e8185602086016123bf565b61241781611f2b565b840191505092915050565b61242b81611d9b565b82525050565b6000819050919050565b61244481612431565b82525050565b600081519050919050565b600082825260208201905092915050565b6000819050602082019050919050565b61247f81611dd9565b82525050565b60006124918383612476565b60208301905092915050565b6000602082019050919050565b60006124b58261244a565b6124bf8185612455565b93506124ca83612466565b8060005b838110156124fb5781516124e28882612485565b97506124ed8361249d565b9250506001810190506124ce565b5085935050505092915050565b600060e08201905061251d600083018a612394565b818103602083015261252f81896123e9565b9050818103604083015261254381886123e9565b905061255260608301876122bb565b61255f6080830186612422565b61256c60a083018561243b565b81810360c083015261257e81846124aa565b905098975050505050505050565b60006020820190506125a16000830184612422565b92915050565b60008083601f8401126125bd576125bc611e0f565b5b8235905067ffffffffffffffff8111156125da576125d9611e14565b5b6020830191508360208202830111156125f6576125f5611e19565b5b9250929050565b60008060008060008060008060a0898b03121561261d5761261c611cb6565b5b600061262b8b828c01611dc4565b985050602061263c8b828c01611dc4565b975050604089013567ffffffffffffffff81111561265d5761265c611cbb565b5b6126698b828c016125a7565b9650965050606089013567ffffffffffffffff81111561268c5761268b611cbb565b5b6126988b828c016125a7565b9450945050608089013567ffffffffffffffff8111156126bb576126ba611cbb565b5b6126c78b828c01611e1e565b92509250509295985092959890939650565b6000602082840312156126ef576126ee611cb6565b5b600082013567ffffffffffffffff81111561270d5761270c611cbb565b5b61271984828501612043565b91505092915050565b60008060008060008060a0878903121561273f5761273e611cb6565b5b600061274d89828a01611dc4565b965050602061275e89828a01611dc4565b955050604061276f89828a01611dfa565b945050606061278089828a01611dfa565b935050608087013567ffffffffffffffff8111156127a1576127a0611cbb565b5b6127ad89828a01611e1e565b92509250509295509295509295565b6000806000606084860312156127d5576127d4611cb6565b5b600084013567ffffffffffffffff8111156127f3576127f2611cbb565b5b6127ff8682870161218c565b935050602061281086828701611dc4565b925050604084013567ffffffffffffffff81111561283157612830611cbb565b5b61283d86828701612071565b9150509250925092565b6000806000806080858703121561286157612860611cb6565b5b600061286f87828801611dc4565b945050602085013567ffffffffffffffff8111156128905761288f611cbb565b5b61289c87828801612043565b93505060406128ad87828801611dc4565b92505060606128be87828801611dfa565b91505092959194509250565b600081905092915050565b60006128e0826123a3565b6128ea81856128ca565b93506128fa8185602086016123bf565b80840191505092915050565b600061291282846128d5565b915081905092915050565b60006060820190506129326000830186612422565b61293f6020830185612422565b61294c60408301846122bb565b949350505050565b61295d81611d45565b811461296857600080fd5b50565b60008151905061297a81612954565b92915050565b60006020828403121561299657612995611cb6565b5b60006129a48482850161296b565b91505092915050565b600081905092915050565b50565b60006129c86000836129ad565b91506129d3826129b8565b600082019050919050565b60006129e9826129bb565b9150819050919050565b600060c082019050612a08600083018961243b565b612a15602083018861243b565b612a226040830187612422565b612a2f6060830186612422565b612a3c6080830185612422565b612a4960a08301846122bb565b979650505050505050565b7f4e487b7100000000000000000000000000000000000000000000000000000000600052602160045260246000fd5b60058110612a9457612a93612a54565b5b50565b6000819050612aa582612a83565b919050565b6000612ab582612a97565b9050919050565b612ac581612aaa565b82525050565b6000819050919050565b6000819050919050565b6000612afa612af5612af084612acb565b612ad5565b611dd9565b9050919050565b612b0a81612adf565b82525050565b600060a0820190508181036000830152612b2a81886123e9565b9050612b396020830187612abc565b612b466040830186612422565b612b536060830185612b01565b612b6060808301846122bb565b9695505050505050565b7f4e487b7100000000000000000000000000000000000000000000000000000000600052601160045260246000fd5b6000612ba482611dd9565b9150612baf83611dd9565b9250828203905081811115612bc757612bc6612b6a565b5b92915050565b6000604082019050612be26000830185612422565b612bef60208301846122bb565b9392505050565b6000612c0182611dd9565b9150612c0c83611dd9565b9250828201905080821115612c2457612c23612b6a565b5b92915050565b60006080820190508181036000830152612c4481876123e9565b9050612c536020830186612422565b612c606040830185612422565b612c6d60608301846122bb565b95945050505050565b7f4e487b7100000000000000000000000000000000000000000000000000000000600052602260045260246000fd5b60006002820490506001821680612cbd57607f821691505b602082108103612cd057612ccf612c76565b5b50919050565b6000602082019050612ceb600083018461243b565b92915050565b600060a082019050612d06600083018861243b565b612d13602083018761243b565b612d20604083018661243b565b612d2d60608301856122bb565b612d3a6080830184612422565b9695505050505050565b600060ff82169050919050565b612d5a81612d44565b82525050565b6000608082019050612d75600083018761243b565b612d826020830186612d51565b612d8f604083018561243b565b612d9c606083018461243b565b9594505050505056fea2646970667358221220c47702b10630b0ec695fe69646656be2b4a8635e3d14733b5b33aa23b49f75e964736f6c63430008180033",
  "linkReferences": {},
  "deployedLinkReferences": {}
}