{
  "_format": "hh-sol-artifact-1",
  "contractName": "Payfluence",
  "sourceName": "contracts/Payfluence.sol",
  "abi": [
    {
      "inputs": [
        {
          "internalType": "address",
          "name": "_adminAddress",
          "type": "address"
        }
      ],
      "stateMutability": "nonpayable",
      "type": "constructor"
    },
    {
      "inputs": [],
      "name": "AirdropAlreadyClaimed",
      "type": "error"
    },
    {
      "inputs": [
        {
          "internalType": "string",
          "name": "id",
          "type": "string"
        },
        {
          "internalType": "address",
          "name": "token",
          "type": "address"
        }
      ],
      "name": "AssetNotFound",
      "type": "error"
    },
    {
      "inputs": [
        {
          "internalType": "address",
          "name": "token",
          "type": "address"
        }
      ],
      "name": "AssetTypeNotFoundForToken",
      "type": "error"
    },
    {
      "inputs": [],
      "name": "ECDSAInvalidSignature",
      "type": "error"
    },
    {
      "inputs": [
        {
          "internalType": "uint256",
          "name": "length",
          "type": "uint256"
        }
      ],
      "name": "ECDSAInvalidSignatureLength",
      "type": "error"
    },
    {
      "inputs": [
        {
          "internalType": "bytes32",
          "name": "s",
          "type": "bytes32"
        }
      ],
      "name": "ECDSAInvalidSignatureS",
      "type": "error"
    },
    {
      "inputs": [
        {
          "internalType": "enum TokenReceiver.AssetType",
          "name": "assetType",
          "type": "uint8"
        }
      ],
      "name": "InvalidAssetType",
      "type": "error"
    },
    {
      "inputs": [],
      "name": "InvalidShortString",
      "type": "error"
    },
    {
      "inputs": [],
      "name": "InvalidSigner",
      "type": "error"
    },
    {
      "inputs": [
        {
          "internalType": "string",
          "name": "id",
          "type": "string"
        },
        {
          "internalType": "enum TokenReceiver.AssetType",
          "name": "assetType",
          "type": "uint8"
        },
        {
          "internalType": "address",
          "name": "token",
          "type": "address"
        },
        {
          "internalType": "uint256",
          "name": "tokenId",
          "type": "uint256"
        },
        {
          "internalType": "uint256",
          "name": "amount",
          "type": "uint256"
        }
      ],
      "name": "NotEnoughFunds",
      "type": "error"
    },
    {
      "inputs": [],
      "name": "OnlyAirdropOwner",
      "type": "error"
    },
    {
      "inputs": [],
      "name": "OnlyTokenOwner",
      "type": "error"
    },
    {
      "inputs": [
        {
          "internalType": "address",
          "name": "owner",
          "type": "address"
        }
      ],
      "name": "OwnableInvalidOwner",
      "type": "error"
    },
    {
      "inputs": [
        {
          "internalType": "address",
          "name": "account",
          "type": "address"
        }
      ],
      "name": "OwnableUnauthorizedAccount",
      "type": "error"
    },
    {
      "inputs": [],
      "name": "ReentrancyGuardReentrantCall",
      "type": "error"
    },
    {
      "inputs": [
        {
          "internalType": "string",
          "name": "str",
          "type": "string"
        }
      ],
      "name": "StringTooLong",
      "type": "error"
    },
    {
      "inputs": [],
      "name": "TransferFailed",
      "type": "error"
    },
    {
      "inputs": [
        {
          "internalType": "string",
          "name": "id",
          "type": "string"
        },
        {
          "internalType": "address",
          "name": "to",
          "type": "address"
        },
        {
          "internalType": "uint256",
          "name": "amount",
          "type": "uint256"
        }
      ],
      "name": "TransferNativeFailed",
      "type": "error"
    },
    {
      "anonymous": false,
      "inputs": [],
      "name": "EIP712DomainChanged",
      "type": "event"
    },
    {
      "anonymous": false,
      "inputs": [
        {
          "indexed": false,
          "internalType": "string",
          "name": "id",
          "type": "string"
        },
        {
          "indexed": false,
          "internalType": "address",
          "name": "operator",
          "type": "address"
        },
        {
          "indexed": false,
          "internalType": "address",
          "name": "from",
          "type": "address"
        },
        {
          "indexed": false,
          "internalType": "uint256[]",
          "name": "tokenIds",
          "type": "uint256[]"
        },
        {
          "indexed": false,
          "internalType": "uint256[]",
          "name": "amounts",
          "type": "uint256[]"
        }
      ],
      "name": "ERC1155BatchReceived",
      "type": "event"
    },
    {
      "anonymous": false,
      "inputs": [
        {
          "indexed": false,
          "internalType": "string",
          "name": "id",
          "type": "string"
        },
        {
          "indexed": false,
          "internalType": "address",
          "name": "operator",
          "type": "address"
        },
        {
          "indexed": false,
          "internalType": "address",
          "name": "from",
          "type": "address"
        },
        {
          "indexed": false,
          "internalType": "uint256",
          "name": "tokenIds",
          "type": "uint256"
        },
        {
          "indexed": false,
          "internalType": "uint256",
          "name": "amounts",
          "type": "uint256"
        }
      ],
      "name": "ERC1155Received",
      "type": "event"
    },
    {
      "anonymous": false,
      "inputs": [
        {
          "indexed": false,
          "internalType": "string",
          "name": "id",
          "type": "string"
        },
        {
          "indexed": false,
          "internalType": "address",
          "name": "from",
          "type": "address"
        },
        {
          "indexed": false,
          "internalType": "address",
          "name": "token",
          "type": "address"
        },
        {
          "indexed": false,
          "internalType": "uint256",
          "name": "amount",
          "type": "uint256"
        }
      ],
      "name": "ERC20Received",
      "type": "event"
    },
    {
      "anonymous": false,
      "inputs": [
        {
          "indexed": false,
          "internalType": "string",
          "name": "id",
          "type": "string"
        },
        {
          "indexed": false,
          "internalType": "address",
          "name": "operator",
          "type": "address"
        },
        {
          "indexed": false,
          "internalType": "address",
          "name": "from",
          "type": "address"
        },
        {
          "indexed": false,
          "internalType": "uint256",
          "name": "tokenId",
          "type": "uint256"
        }
      ],
      "name": "ERC721Received",
      "type": "event"
    },
    {
      "anonymous": false,
      "inputs": [
        {
          "indexed": false,
          "internalType": "string",
          "name": "id",
          "type": "string"
        },
        {
          "indexed": false,
          "internalType": "address",
          "name": "from",
          "type": "address"
        },
        {
          "indexed": false,
          "internalType": "uint256",
          "name": "amount",
          "type": "uint256"
        }
      ],
      "name": "NativeReceived",
      "type": "event"
    },
    {
      "anonymous": false,
      "inputs": [
        {
          "indexed": true,
          "internalType": "address",
          "name": "previousOwner",
          "type": "address"
        },
        {
          "indexed": true,
          "internalType": "address",
          "name": "newOwner",
          "type": "address"
        }
      ],
      "name": "OwnershipTransferStarted",
      "type": "event"
    },
    {
      "anonymous": false,
      "inputs": [
        {
          "indexed": true,
          "internalType": "address",
          "name": "previousOwner",
          "type": "address"
        },
        {
          "indexed": true,
          "internalType": "address",
          "name": "newOwner",
          "type": "address"
        }
      ],
      "name": "OwnershipTransferred",
      "type": "event"
    },
    {
      "inputs": [],
      "name": "acceptOwnership",
      "outputs": [],
      "stateMutability": "nonpayable",
      "type": "function"
    },
    {
      "inputs": [
        {
          "internalType": "string",
          "name": "_airdropId",
          "type": "string"
        },
        {
          "internalType": "address",
          "name": "_newOwner",
          "type": "address"
        }
      ],
      "name": "adminTransferAirdropOwnership",
      "outputs": [],
      "stateMutability": "nonpayable",
      "type": "function"
    },
    {
      "inputs": [
        {
          "internalType": "address",
          "name": "_to",
          "type": "address"
        },
        {
          "internalType": "string",
          "name": "_airdropId",
          "type": "string"
        },
        {
          "internalType": "address",
          "name": "_token",
          "type": "address"
        },
        {
          "internalType": "uint256",
          "name": "_amount",
          "type": "uint256"
        }
      ],
      "name": "adminWithdrawERC20",
      "outputs": [],
      "stateMutability": "nonpayable",
      "type": "function"
    },
    {
      "inputs": [
        {
          "internalType": "address",
          "name": "_to",
          "type": "address"
        }
      ],
      "name": "adminWithdrawNative",
      "outputs": [],
      "stateMutability": "nonpayable",
      "type": "function"
    },
    {
      "inputs": [
        {
          "internalType": "string",
          "name": "airdropId",
          "type": "string"
        },
        {
          "internalType": "address",
          "name": "recipient",
          "type": "address"
        }
      ],
      "name": "airdropClaimedAmounts",
      "outputs": [
        {
          "internalType": "uint256",
          "name": "amountClaimed",
          "type": "uint256"
        }
      ],
      "stateMutability": "view",
      "type": "function"
    },
    {
      "inputs": [
        {
          "internalType": "string",
          "name": "airdropId",
          "type": "string"
        }
      ],
      "name": "airdropOwners",
      "outputs": [
        {
          "internalType": "address",
          "name": "owner",
          "type": "address"
        }
      ],
      "stateMutability": "view",
      "type": "function"
    },
    {
      "inputs": [
        {
          "internalType": "bytes",
          "name": "signature",
          "type": "bytes"
        },
        {
          "components": [
            {
              "internalType": "string",
              "name": "airdropId",
              "type": "string"
            },
            {
              "internalType": "address",
              "name": "token",
              "type": "address"
            },
            {
              "internalType": "address",
              "name": "owner",
              "type": "address"
            },
            {
              "internalType": "address",
              "name": "recipient",
              "type": "address"
            },
            {
              "internalType": "uint256",
              "name": "amountClaimable",
              "type": "uint256"
            }
          ],
          "internalType": "struct Payfluence.AirdropMessage",
          "name": "airdropMessage",
          "type": "tuple"
        }
      ],
      "name": "claimAirdrop",
      "outputs": [],
      "stateMutability": "nonpayable",
      "type": "function"
    },
    {
      "inputs": [
        {
          "internalType": "string",
          "name": "id",
          "type": "string"
        }
      ],
      "name": "contractBalance",
      "outputs": [
        {
          "internalType": "uint256",
          "name": "native",
          "type": "uint256"
        }
      ],
      "stateMutability": "view",
      "type": "function"
    },
    {
      "inputs": [],
      "name": "eip712Domain",
      "outputs": [
        {
          "internalType": "bytes1",
          "name": "fields",
          "type": "bytes1"
        },
        {
          "internalType": "string",
          "name": "name",
          "type": "string"
        },
        {
          "internalType": "string",
          "name": "version",
          "type": "string"
        },
        {
          "internalType": "uint256",
          "name": "chainId",
          "type": "uint256"
        },
        {
          "internalType": "address",
          "name": "verifyingContract",
          "type": "address"
        },
        {
          "internalType": "bytes32",
          "name": "salt",
          "type": "bytes32"
        },
        {
          "internalType": "uint256[]",
          "name": "extensions",
          "type": "uint256[]"
        }
      ],
      "stateMutability": "view",
      "type": "function"
    },
    {
      "inputs": [
        {
          "internalType": "string",
          "name": "_airdropId",
          "type": "string"
        },
        {
          "internalType": "address",
          "name": "_owner",
          "type": "address"
        },
        {
          "internalType": "address",
          "name": "_token",
          "type": "address"
        },
        {
          "internalType": "uint256",
          "name": "_amount",
          "type": "uint256"
        }
      ],
      "name": "fundERC20",
      "outputs": [],
      "stateMutability": "nonpayable",
      "type": "function"
    },
    {
      "inputs": [],
      "name": "fundNative",
      "outputs": [],
      "stateMutability": "payable",
      "type": "function"
    },
    {
      "inputs": [],
      "name": "getChainId",
      "outputs": [
        {
          "internalType": "uint256",
          "name": "",
          "type": "uint256"
        }
      ],
      "stateMutability": "view",
      "type": "function"
    },
    {
      "inputs": [
        {
          "internalType": "address",
          "name": "",
          "type": "address"
        },
        {
          "internalType": "address",
          "name": "",
          "type": "address"
        },
        {
          "internalType": "uint256[]",
          "name": "",
          "type": "uint256[]"
        },
        {
          "internalType": "uint256[]",
          "name": "",
          "type": "uint256[]"
        },
        {
          "internalType": "bytes",
          "name": "",
          "type": "bytes"
        }
      ],
      "name": "onERC1155BatchReceived",
      "outputs": [
        {
          "internalType": "bytes4",
          "name": "",
          "type": "bytes4"
        }
      ],
      "stateMutability": "nonpayable",
      "type": "function"
    },
    {
      "inputs": [
        {
          "internalType": "address",
          "name": "",
          "type": "address"
        },
        {
          "internalType": "address",
          "name": "",
          "type": "address"
        },
        {
          "internalType": "uint256",
          "name": "",
          "type": "uint256"
        },
        {
          "internalType": "uint256",
          "name": "",
          "type": "uint256"
        },
        {
          "internalType": "bytes",
          "name": "",
          "type": "bytes"
        }
      ],
      "name": "onERC1155Received",
      "outputs": [
        {
          "internalType": "bytes4",
          "name": "",
          "type": "bytes4"
        }
      ],
      "stateMutability": "nonpayable",
      "type": "function"
    },
    {
      "inputs": [
        {
          "internalType": "address",
          "name": "",
          "type": "address"
        },
        {
          "internalType": "address",
          "name": "",
          "type": "address"
        },
        {
          "internalType": "uint256",
          "name": "",
          "type": "uint256"
        },
        {
          "internalType": "bytes",
          "name": "",
          "type": "bytes"
        }
      ],
      "name": "onERC721Received",
      "outputs": [
        {
          "internalType": "bytes4",
          "name": "",
          "type": "bytes4"
        }
      ],
      "stateMutability": "nonpayable",
      "type": "function"
    },
    {
      "inputs": [],
      "name": "owner",
      "outputs": [
        {
          "internalType": "address",
          "name": "",
          "type": "address"
        }
      ],
      "stateMutability": "view",
      "type": "function"
    },
    {
      "inputs": [],
      "name": "pendingOwner",
      "outputs": [
        {
          "internalType": "address",
          "name": "",
          "type": "address"
        }
      ],
      "stateMutability": "view",
      "type": "function"
    },
    {
      "inputs": [],
      "name": "renounceOwnership",
      "outputs": [],
      "stateMutability": "nonpayable",
      "type": "function"
    },
    {
      "inputs": [
        {
          "internalType": "address",
          "name": "_adminAddress",
          "type": "address"
        }
      ],
      "name": "setAdminAddress",
      "outputs": [],
      "stateMutability": "nonpayable",
      "type": "function"
    },
    {
      "inputs": [
        {
          "internalType": "bytes4",
          "name": "interfaceId",
          "type": "bytes4"
        }
      ],
      "name": "supportsInterface",
      "outputs": [
        {
          "internalType": "bool",
          "name": "",
          "type": "bool"
        }
      ],
      "stateMutability": "view",
      "type": "function"
    },
    {
      "inputs": [
        {
          "internalType": "address",
          "name": "newOwner",
          "type": "address"
        }
      ],
      "name": "transferOwnership",
      "outputs": [],
      "stateMutability": "nonpayable",
      "type": "function"
    },
    {
      "inputs": [
        {
          "internalType": "bytes",
          "name": "signature",
          "type": "bytes"
        },
        {
          "components": [
            {
              "internalType": "string",
              "name": "airdropId",
              "type": "string"
            },
            {
              "internalType": "address",
              "name": "token",
              "type": "address"
            },
            {
              "internalType": "address",
              "name": "owner",
              "type": "address"
            },
            {
              "internalType": "address",
              "name": "recipient",
              "type": "address"
            },
            {
              "internalType": "uint256",
              "name": "amountClaimable",
              "type": "uint256"
            }
          ],
          "internalType": "struct Payfluence.AirdropMessage",
          "name": "airdropMessage",
          "type": "tuple"
        }
      ],
      "name": "verify",
      "outputs": [],
      "stateMutability": "view",
      "type": "function"
    },
    {
      "inputs": [
        {
          "internalType": "string",
          "name": "_airdropId",
          "type": "string"
        },
        {
          "internalType": "address",
          "name": "_to",
          "type": "address"
        },
        {
          "internalType": "address",
          "name": "_token",
          "type": "address"
        },
        {
          "internalType": "uint256",
          "name": "_amount",
          "type": "uint256"
        }
      ],
      "name": "withdrawERC20",
      "outputs": [],
      "stateMutability": "nonpayable",
      "type": "function"
    },
    {
      "stateMutability": "payable",
      "type": "receive"
    }
  ],
  "bytecode": "0x61016060405260006005553480156200001757600080fd5b506040516200380a3803806200380a83398181016040528101906200003d9190620004c4565b6040518060400160405280600a81526020017f506179666c75656e6365000000000000000000000000000000000000000000008152506040518060400160405280600181526020017f310000000000000000000000000000000000000000000000000000000000000081525033600073ffffffffffffffffffffffffffffffffffffffff168173ffffffffffffffffffffffffffffffffffffffff16036200011f5760006040517f1e4fbdf700000000000000000000000000000000000000000000000000000000815260040162000116919062000507565b60405180910390fd5b62000130816200023160201b60201c565b5060016002819055506200014f6003836200026a60201b90919060201c565b61012081815250506200016d6004826200026a60201b90919060201c565b6101408181525050818051906020012060e08181525050808051906020012061010081815250504660a08181525050620001ac620002c260201b60201c565b608081815250503073ffffffffffffffffffffffffffffffffffffffff1660c08173ffffffffffffffffffffffffffffffffffffffff1681525050505080600860006101000a81548173ffffffffffffffffffffffffffffffffffffffff021916908373ffffffffffffffffffffffffffffffffffffffff1602179055505062000a63565b600160006101000a81549073ffffffffffffffffffffffffffffffffffffffff021916905562000267816200031f60201b60201c565b50565b600060208351101562000290576200028883620003e360201b60201c565b9050620002bc565b82620002a2836200045060201b60201c565b6000019081620002b391906200079e565b5060ff60001b90505b92915050565b60007f8b73c3c69bb8fe3d512ecc4cf759cc79239f7b179b0ffacaa9a75d522b39400f60e05161010051463060405160200162000304959493929190620008b1565b60405160208183030381529060405280519060200120905090565b60008060009054906101000a900473ffffffffffffffffffffffffffffffffffffffff169050816000806101000a81548173ffffffffffffffffffffffffffffffffffffffff021916908373ffffffffffffffffffffffffffffffffffffffff1602179055508173ffffffffffffffffffffffffffffffffffffffff168173ffffffffffffffffffffffffffffffffffffffff167f8be0079c531659141344cd1fd0a4f28419497f9722a3daafe3b4186f6b6457e060405160405180910390a35050565b600080829050601f815111156200043357826040517f305a27a90000000000000000000000000000000000000000000000000000000081526004016200042a91906200099d565b60405180910390fd5b8051816200044190620009f3565b60001c1760001b915050919050565b6000819050919050565b600080fd5b600073ffffffffffffffffffffffffffffffffffffffff82169050919050565b60006200048c826200045f565b9050919050565b6200049e816200047f565b8114620004aa57600080fd5b50565b600081519050620004be8162000493565b92915050565b600060208284031215620004dd57620004dc6200045a565b5b6000620004ed84828501620004ad565b91505092915050565b62000501816200047f565b82525050565b60006020820190506200051e6000830184620004f6565b92915050565b600081519050919050565b7f4e487b7100000000000000000000000000000000000000000000000000000000600052604160045260246000fd5b7f4e487b7100000000000000000000000000000000000000000000000000000000600052602260045260246000fd5b60006002820490506001821680620005a657607f821691505b602082108103620005bc57620005bb6200055e565b5b50919050565b60008190508160005260206000209050919050565b60006020601f8301049050919050565b600082821b905092915050565b600060088302620006267fffffffffffffffffffffffffffffffffffffffffffffffffffffffffffffffff82620005e7565b620006328683620005e7565b95508019841693508086168417925050509392505050565b6000819050919050565b6000819050919050565b60006200067f6200067962000673846200064a565b62000654565b6200064a565b9050919050565b6000819050919050565b6200069b836200065e565b620006b3620006aa8262000686565b848454620005f4565b825550505050565b600090565b620006ca620006bb565b620006d781848462000690565b505050565b5b81811015620006ff57620006f3600082620006c0565b600181019050620006dd565b5050565b601f8211156200074e576200071881620005c2565b6200072384620005d7565b8101602085101562000733578190505b6200074b6200074285620005d7565b830182620006dc565b50505b505050565b600082821c905092915050565b6000620007736000198460080262000753565b1980831691505092915050565b60006200078e838362000760565b9150826002028217905092915050565b620007a98262000524565b67ffffffffffffffff811115620007c557620007c46200052f565b5b620007d182546200058d565b620007de82828562000703565b600060209050601f83116001811462000816576000841562000801578287015190505b6200080d858262000780565b8655506200087d565b601f1984166200082686620005c2565b60005b82811015620008505784890151825560018201915060208501945060208101905062000829565b868310156200087057848901516200086c601f89168262000760565b8355505b6001600288020188555050505b505050505050565b6000819050919050565b6200089a8162000885565b82525050565b620008ab816200064a565b82525050565b600060a082019050620008c860008301886200088f565b620008d760208301876200088f565b620008e660408301866200088f565b620008f56060830185620008a0565b620009046080830184620004f6565b9695505050505050565b600082825260208201905092915050565b60005b838110156200093f57808201518184015260208101905062000922565b60008484015250505050565b6000601f19601f8301169050919050565b6000620009698262000524565b6200097581856200090e565b9350620009878185602086016200091f565b62000992816200094b565b840191505092915050565b60006020820190508181036000830152620009b981846200095c565b905092915050565b600081519050919050565b6000819050602082019050919050565b6000620009ea825162000885565b80915050919050565b600062000a0082620009c1565b8262000a0c84620009cc565b905062000a1981620009dc565b9250602082101562000a5c5762000a577fffffffffffffffffffffffffffffffffffffffffffffffffffffffffffffffff83602003600802620005e7565b831692505b5050919050565b60805160a05160c05160e051610100516101205161014051612d4c62000abe60003960006114fe015260006114c301526000611b1401526000611af3015260006117a6015260006117fc015260006118250152612d4c6000f3fe6080604052600436106101445760003560e01c80638da5cb5b116100b6578063ea13689f1161006f578063ea13689f14610410578063eb47e0111461044d578063f23a6e611461048a578063f2fde38b146104c7578063fe1fddaa146104f0578063ffb1500e146105195761014b565b80638da5cb5b14610321578063bc197c811461034c578063c4385d7614610389578063c8b5773d146103b2578063c9c61eab146103db578063e30c3978146103e55761014b565b80633408e470116101085780633408e470146102455780634f18868a14610270578063715018a61461029957806379ba5097146102b057806380c4020c146102c757806384b0196e146102f05761014b565b806301ffc9a7146101505780631090bafa1461018d578063150b7a02146101b65780632394c348146101f35780632c1e816d1461021c5761014b565b3661014b57005b600080fd5b34801561015c57600080fd5b5061017760048036038101906101729190611d14565b610556565b6040516101849190611d5c565b60405180910390f35b34801561019957600080fd5b506101b460048036038101906101af91906120a4565b610690565b005b3480156101c257600080fd5b506101dd60048036038101906101d8919061217c565b61069e565b6040516101ea9190612213565b60405180910390f35b3480156101ff57600080fd5b5061021a6004803603810190610215919061222e565b6106b3565b005b34801561022857600080fd5b50610243600480360381019061023e919061228a565b61071c565b005b34801561025157600080fd5b5061025a610768565b60405161026791906122c6565b60405180910390f35b34801561027c57600080fd5b50610297600480360381019061029291906122e1565b610770565b005b3480156102a557600080fd5b506102ae6108b0565b005b3480156102bc57600080fd5b506102c56108c4565b005b3480156102d357600080fd5b506102ee60048036038101906102e991906120a4565b610953565b005b3480156102fc57600080fd5b50610305610a99565b6040516103189796959493929190612504565b60405180910390f35b34801561032d57600080fd5b50610336610b43565b6040516103439190612588565b60405180910390f35b34801561035857600080fd5b50610373600480360381019061036e91906125f9565b610b6c565b6040516103809190612213565b60405180910390f35b34801561039557600080fd5b506103b060048036038101906103ab91906122e1565b610b84565b005b3480156103be57600080fd5b506103d960048036038101906103d4919061228a565b610e7c565b005b6103e3610f31565b005b3480156103f157600080fd5b506103fa610f33565b6040516104079190612588565b60405180910390f35b34801561041c57600080fd5b50610437600480360381019061043291906126d5565b610f5d565b6040516104449190612588565b60405180910390f35b34801561045957600080fd5b50610474600480360381019061046f919061222e565b610fa6565b60405161048191906122c6565b60405180910390f35b34801561049657600080fd5b506104b160048036038101906104ac919061271e565b610fe1565b6040516104be9190612213565b60405180910390f35b3480156104d357600080fd5b506104ee60048036038101906104e9919061228a565b610ff7565b005b3480156104fc57600080fd5b50610517600480360381019061051291906127b8565b6110a4565b005b34801561052557600080fd5b50610540600480360381019061053b91906126d5565b6110be565b60405161054d91906122c6565b60405180910390f35b60007f4e2312e0000000000000000000000000000000000000000000000000000000007bffffffffffffffffffffffffffffffffffffffffffffffffffffffff1916827bffffffffffffffffffffffffffffffffffffffffffffffffffffffff1916148061062157507f150b7a02000000000000000000000000000000000000000000000000000000007bffffffffffffffffffffffffffffffffffffffffffffffffffffffff1916827bffffffffffffffffffffffffffffffffffffffffffffffffffffffff1916145b8061068957507f01ffc9a7000000000000000000000000000000000000000000000000000000007bffffffffffffffffffffffffffffffffffffffffffffffffffffffff1916827bffffffffffffffffffffffffffffffffffffffffffffffffffffffff1916145b9050919050565b61069a82826110f2565b5050565b600063150b7a0260e01b905095945050505050565b6106bb611205565b806009836040516106cc9190612877565b908152602001604051809103902060006101000a81548173ffffffffffffffffffffffffffffffffffffffff021916908373ffffffffffffffffffffffffffffffffffffffff1602179055505050565b610724611205565b80600860006101000a81548173ffffffffffffffffffffffffffffffffffffffff021916908373ffffffffffffffffffffffffffffffffffffffff16021790555050565b600046905090565b61077861128c565b83600073ffffffffffffffffffffffffffffffffffffffff166009826040516107a19190612877565b908152602001604051809103902060009054906101000a900473ffffffffffffffffffffffffffffffffffffffff1673ffffffffffffffffffffffffffffffffffffffff161415801561085e57506009816040516107ff9190612877565b908152602001604051809103902060009054906101000a900473ffffffffffffffffffffffffffffffffffffffff1673ffffffffffffffffffffffffffffffffffffffff163373ffffffffffffffffffffffffffffffffffffffff1614155b15610895576040517f08062d7400000000000000000000000000000000000000000000000000000000815260040160405180910390fd5b6108a1858585856112d0565b506108aa611477565b50505050565b6108b8611205565b6108c26000611481565b565b60006108ce6114b2565b90508073ffffffffffffffffffffffffffffffffffffffff166108ef610f33565b73ffffffffffffffffffffffffffffffffffffffff161461094757806040517f118cdaa700000000000000000000000000000000000000000000000000000000815260040161093e9190612588565b60405180910390fd5b61095081611481565b50565b61095b61128c565b61096582826110f2565b8060800151600a826000015160405161097e9190612877565b90815260200160405180910390206000836060015173ffffffffffffffffffffffffffffffffffffffff1673ffffffffffffffffffffffffffffffffffffffff1681526020019081526020016000205410610a05576040517fe4ca4c0b00000000000000000000000000000000000000000000000000000000815260040160405180910390fd5b8060800151600a8260000151604051610a1e9190612877565b90815260200160405180910390206000836060015173ffffffffffffffffffffffffffffffffffffffff1673ffffffffffffffffffffffffffffffffffffffff16815260200190815260200160002081905550610a8d81600001518260600151836020015184608001516112d0565b610a95611477565b5050565b600060608060008060006060610aad6114ba565b610ab56114f5565b46306000801b600067ffffffffffffffff811115610ad657610ad5611d92565b5b604051908082528060200260200182016040528015610b045781602001602082028036833780820191505090505b507f0f00000000000000000000000000000000000000000000000000000000000000959493929190965096509650965096509650965090919293949596565b60008060009054906101000a900473ffffffffffffffffffffffffffffffffffffffff16905090565b600063bc197c8160e01b905098975050505050505050565b610b8c61128c565b83600073ffffffffffffffffffffffffffffffffffffffff16600982604051610bb59190612877565b908152602001604051809103902060009054906101000a900473ffffffffffffffffffffffffffffffffffffffff1673ffffffffffffffffffffffffffffffffffffffff1614158015610c725750600981604051610c139190612877565b908152602001604051809103902060009054906101000a900473ffffffffffffffffffffffffffffffffffffffff1673ffffffffffffffffffffffffffffffffffffffff163373ffffffffffffffffffffffffffffffffffffffff1614155b15610ca9576040517f08062d7400000000000000000000000000000000000000000000000000000000815260040160405180910390fd5b838073ffffffffffffffffffffffffffffffffffffffff163373ffffffffffffffffffffffffffffffffffffffff1614610d0f576040517fcdf1f8f900000000000000000000000000000000000000000000000000000000815260040160405180910390fd5b600073ffffffffffffffffffffffffffffffffffffffff16600987604051610d379190612877565b908152602001604051809103902060009054906101000a900473ffffffffffffffffffffffffffffffffffffffff1673ffffffffffffffffffffffffffffffffffffffff1603610ddf5784600987604051610d929190612877565b908152602001604051809103902060006101000a81548173ffffffffffffffffffffffffffffffffffffffff021916908373ffffffffffffffffffffffffffffffffffffffff1602179055505b8373ffffffffffffffffffffffffffffffffffffffff166323b872dd8630866040518463ffffffff1660e01b8152600401610e1c9392919061288e565b6020604051808303816000875af1158015610e3b573d6000803e3d6000fd5b505050506040513d601f19601f82011682018060405250810190610e5f91906128f1565b50610e6c86868686611530565b5050610e76611477565b50505050565b610e84611205565b600047905060008273ffffffffffffffffffffffffffffffffffffffff1682604051610eaf9061294f565b60006040518083038185875af1925050503d8060008114610eec576040519150601f19603f3d011682016040523d82523d6000602084013e610ef1565b606091505b5050905080610f2c576040517f90b8ec1800000000000000000000000000000000000000000000000000000000815260040160405180910390fd5b505050565b565b6000600160009054906101000a900473ffffffffffffffffffffffffffffffffffffffff16905090565b6009818051602081018201805184825260208301602085012081835280955050505050506000915054906101000a900473ffffffffffffffffffffffffffffffffffffffff1681565b600a82805160208101820180518482526020830160208501208183528095505050505050602052806000526040600020600091509150505481565b600063f23a6e6160e01b90509695505050505050565b610fff611205565b80600160006101000a81548173ffffffffffffffffffffffffffffffffffffffff021916908373ffffffffffffffffffffffffffffffffffffffff1602179055508073ffffffffffffffffffffffffffffffffffffffff1661105f610b43565b73ffffffffffffffffffffffffffffffffffffffff167f38d16b8cac22d99fc7c124b9cd0de2d3fa1faef420bfe791d8c362d765e2270060405160405180910390a350565b6110ac611205565b6110b8838584846112d0565b50505050565b6006818051602081018201805184825260208301602085012081835280955050505050506000915090508060000154905081565b60006111687fa3b140137dde1ec8f85da0fadac4c5d6c5410186ca811cbe1e3d5fb737dfb2f6836000015180519060200120846020015185604001518660600151876080015160405160200161114d96959493929190612964565b604051602081830303815290604052805190602001206115e8565b905060006111768285611602565b9050600860009054906101000a900473ffffffffffffffffffffffffffffffffffffffff1673ffffffffffffffffffffffffffffffffffffffff168173ffffffffffffffffffffffffffffffffffffffff16146111ff576040517f815e1d6400000000000000000000000000000000000000000000000000000000815260040160405180910390fd5b50505050565b61120d6114b2565b73ffffffffffffffffffffffffffffffffffffffff1661122b610b43565b73ffffffffffffffffffffffffffffffffffffffff161461128a5761124e6114b2565b6040517f118cdaa70000000000000000000000000000000000000000000000000000000081526004016112819190612588565b60405180910390fd5b565b60028054036112c7576040517f3ee5aeb500000000000000000000000000000000000000000000000000000000815260040160405180910390fd5b60028081905550565b806006856040516112e19190612877565b908152602001604051809103902060010160008473ffffffffffffffffffffffffffffffffffffffff1673ffffffffffffffffffffffffffffffffffffffff16815260200190815260200160002054101561137d57836002836000846040517f3ff3e6f2000000000000000000000000000000000000000000000000000000008152600401611374959493929190612a81565b60405180910390fd5b8060068560405161138e9190612877565b908152602001604051809103902060010160008473ffffffffffffffffffffffffffffffffffffffff1673ffffffffffffffffffffffffffffffffffffffff16815260200190815260200160002060008282546113eb9190612b0a565b925050819055508173ffffffffffffffffffffffffffffffffffffffff1663a9059cbb84836040518363ffffffff1660e01b815260040161142d929190612b3e565b6020604051808303816000875af115801561144c573d6000803e3d6000fd5b505050506040513d601f19601f8201168201806040525081019061147091906128f1565b5050505050565b6001600281905550565b600160006101000a81549073ffffffffffffffffffffffffffffffffffffffff02191690556114af8161162e565b50565b600033905090565b60606114f060037f00000000000000000000000000000000000000000000000000000000000000006116f290919063ffffffff16565b905090565b606061152b60047f00000000000000000000000000000000000000000000000000000000000000006116f290919063ffffffff16565b905090565b806006856040516115419190612877565b908152602001604051809103902060010160008473ffffffffffffffffffffffffffffffffffffffff1673ffffffffffffffffffffffffffffffffffffffff168152602001908152602001600020600082825461159e9190612b67565b925050819055507f80b0529195f12df0318651d4b36ffc81b7b3cb429033916c20d71e8d2e219ae3848484846040516115da9493929190612b9b565b60405180910390a150505050565b60006115fb6115f56117a2565b83611859565b9050919050565b600080600080611612868661189a565b92509250925061162282826118f6565b82935050505092915050565b60008060009054906101000a900473ffffffffffffffffffffffffffffffffffffffff169050816000806101000a81548173ffffffffffffffffffffffffffffffffffffffff021916908373ffffffffffffffffffffffffffffffffffffffff1602179055508173ffffffffffffffffffffffffffffffffffffffff168173ffffffffffffffffffffffffffffffffffffffff167f8be0079c531659141344cd1fd0a4f28419497f9722a3daafe3b4186f6b6457e060405160405180910390a35050565b606060ff60001b831461170f5761170883611a5a565b905061179c565b81805461171b90612c16565b80601f016020809104026020016040519081016040528092919081815260200182805461174790612c16565b80156117945780601f1061176957610100808354040283529160200191611794565b820191906000526020600020905b81548152906001019060200180831161177757829003601f168201915b505050505090505b92915050565b60007f000000000000000000000000000000000000000000000000000000000000000073ffffffffffffffffffffffffffffffffffffffff163073ffffffffffffffffffffffffffffffffffffffff1614801561181e57507f000000000000000000000000000000000000000000000000000000000000000046145b1561184b577f00000000000000000000000000000000000000000000000000000000000000009050611856565b611853611ace565b90505b90565b60006040517f190100000000000000000000000000000000000000000000000000000000000081528360028201528260228201526042812091505092915050565b600080600060418451036118df5760008060006020870151925060408701519150606087015160001a90506118d188828585611b64565b9550955095505050506118ef565b60006002855160001b9250925092505b9250925092565b6000600381111561190a576119096129c5565b5b82600381111561191d5761191c6129c5565b5b0315611a565760016003811115611937576119366129c5565b5b82600381111561194a576119496129c5565b5b03611981576040517ff645eedf00000000000000000000000000000000000000000000000000000000815260040160405180910390fd5b60026003811115611995576119946129c5565b5b8260038111156119a8576119a76129c5565b5b036119ed578060001c6040517ffce698f70000000000000000000000000000000000000000000000000000000081526004016119e491906122c6565b60405180910390fd5b600380811115611a00576119ff6129c5565b5b826003811115611a1357611a126129c5565b5b03611a5557806040517fd78bce0c000000000000000000000000000000000000000000000000000000008152600401611a4c9190612c47565b60405180910390fd5b5b5050565b60606000611a6783611c58565b90506000602067ffffffffffffffff811115611a8657611a85611d92565b5b6040519080825280601f01601f191660200182016040528015611ab85781602001600182028036833780820191505090505b5090508181528360208201528092505050919050565b60007f8b73c3c69bb8fe3d512ecc4cf759cc79239f7b179b0ffacaa9a75d522b39400f7f00000000000000000000000000000000000000000000000000000000000000007f00000000000000000000000000000000000000000000000000000000000000004630604051602001611b49959493929190612c62565b60405160208183030381529060405280519060200120905090565b60008060007f7fffffffffffffffffffffffffffffff5d576e7357a4501ddfe92f46681b20a08460001c1115611ba4576000600385925092509250611c4e565b600060018888888860405160008152602001604052604051611bc99493929190612cd1565b6020604051602081039080840390855afa158015611beb573d6000803e3d6000fd5b505050602060405103519050600073ffffffffffffffffffffffffffffffffffffffff168173ffffffffffffffffffffffffffffffffffffffff1603611c3f57600060016000801b93509350935050611c4e565b8060008060001b935093509350505b9450945094915050565b60008060ff8360001c169050601f811115611c9f576040517fb3512b0c00000000000000000000000000000000000000000000000000000000815260040160405180910390fd5b80915050919050565b6000604051905090565b600080fd5b600080fd5b60007fffffffff0000000000000000000000000000000000000000000000000000000082169050919050565b611cf181611cbc565b8114611cfc57600080fd5b50565b600081359050611d0e81611ce8565b92915050565b600060208284031215611d2a57611d29611cb2565b5b6000611d3884828501611cff565b91505092915050565b60008115159050919050565b611d5681611d41565b82525050565b6000602082019050611d716000830184611d4d565b92915050565b600080fd5b600080fd5b6000601f19601f8301169050919050565b7f4e487b7100000000000000000000000000000000000000000000000000000000600052604160045260246000fd5b611dca82611d81565b810181811067ffffffffffffffff82111715611de957611de8611d92565b5b80604052505050565b6000611dfc611ca8565b9050611e088282611dc1565b919050565b600067ffffffffffffffff821115611e2857611e27611d92565b5b611e3182611d81565b9050602081019050919050565b82818337600083830152505050565b6000611e60611e5b84611e0d565b611df2565b905082815260208101848484011115611e7c57611e7b611d7c565b5b611e87848285611e3e565b509392505050565b600082601f830112611ea457611ea3611d77565b5b8135611eb4848260208601611e4d565b91505092915050565b600080fd5b600080fd5b600067ffffffffffffffff821115611ee257611ee1611d92565b5b611eeb82611d81565b9050602081019050919050565b6000611f0b611f0684611ec7565b611df2565b905082815260208101848484011115611f2757611f26611d7c565b5b611f32848285611e3e565b509392505050565b600082601f830112611f4f57611f4e611d77565b5b8135611f5f848260208601611ef8565b91505092915050565b600073ffffffffffffffffffffffffffffffffffffffff82169050919050565b6000611f9382611f68565b9050919050565b611fa381611f88565b8114611fae57600080fd5b50565b600081359050611fc081611f9a565b92915050565b6000819050919050565b611fd981611fc6565b8114611fe457600080fd5b50565b600081359050611ff681611fd0565b92915050565b600060a0828403121561201257612011611ebd565b5b61201c60a0611df2565b9050600082013567ffffffffffffffff81111561203c5761203b611ec2565b5b61204884828501611f3a565b600083015250602061205c84828501611fb1565b602083015250604061207084828501611fb1565b604083015250606061208484828501611fb1565b606083015250608061209884828501611fe7565b60808301525092915050565b600080604083850312156120bb576120ba611cb2565b5b600083013567ffffffffffffffff8111156120d9576120d8611cb7565b5b6120e585828601611e8f565b925050602083013567ffffffffffffffff81111561210657612105611cb7565b5b61211285828601611ffc565b9150509250929050565b600080fd5b600080fd5b60008083601f84011261213c5761213b611d77565b5b8235905067ffffffffffffffff8111156121595761215861211c565b5b60208301915083600182028301111561217557612174612121565b5b9250929050565b60008060008060006080868803121561219857612197611cb2565b5b60006121a688828901611fb1565b95505060206121b788828901611fb1565b94505060406121c888828901611fe7565b935050606086013567ffffffffffffffff8111156121e9576121e8611cb7565b5b6121f588828901612126565b92509250509295509295909350565b61220d81611cbc565b82525050565b60006020820190506122286000830184612204565b92915050565b6000806040838503121561224557612244611cb2565b5b600083013567ffffffffffffffff81111561226357612262611cb7565b5b61226f85828601611f3a565b925050602061228085828601611fb1565b9150509250929050565b6000602082840312156122a05761229f611cb2565b5b60006122ae84828501611fb1565b91505092915050565b6122c081611fc6565b82525050565b60006020820190506122db60008301846122b7565b92915050565b600080600080608085870312156122fb576122fa611cb2565b5b600085013567ffffffffffffffff81111561231957612318611cb7565b5b61232587828801611f3a565b945050602061233687828801611fb1565b935050604061234787828801611fb1565b925050606061235887828801611fe7565b91505092959194509250565b60007fff0000000000000000000000000000000000000000000000000000000000000082169050919050565b61239981612364565b82525050565b600081519050919050565b600082825260208201905092915050565b60005b838110156123d95780820151818401526020810190506123be565b60008484015250505050565b60006123f08261239f565b6123fa81856123aa565b935061240a8185602086016123bb565b61241381611d81565b840191505092915050565b61242781611f88565b82525050565b6000819050919050565b6124408161242d565b82525050565b600081519050919050565b600082825260208201905092915050565b6000819050602082019050919050565b61247b81611fc6565b82525050565b600061248d8383612472565b60208301905092915050565b6000602082019050919050565b60006124b182612446565b6124bb8185612451565b93506124c683612462565b8060005b838110156124f75781516124de8882612481565b97506124e983612499565b9250506001810190506124ca565b5085935050505092915050565b600060e082019050612519600083018a612390565b818103602083015261252b81896123e5565b9050818103604083015261253f81886123e5565b905061254e60608301876122b7565b61255b608083018661241e565b61256860a0830185612437565b81810360c083015261257a81846124a6565b905098975050505050505050565b600060208201905061259d600083018461241e565b92915050565b60008083601f8401126125b9576125b8611d77565b5b8235905067ffffffffffffffff8111156125d6576125d561211c565b5b6020830191508360208202830111156125f2576125f1612121565b5b9250929050565b60008060008060008060008060a0898b03121561261957612618611cb2565b5b60006126278b828c01611fb1565b98505060206126388b828c01611fb1565b975050604089013567ffffffffffffffff81111561265957612658611cb7565b5b6126658b828c016125a3565b9650965050606089013567ffffffffffffffff81111561268857612687611cb7565b5b6126948b828c016125a3565b9450945050608089013567ffffffffffffffff8111156126b7576126b6611cb7565b5b6126c38b828c01612126565b92509250509295985092959890939650565b6000602082840312156126eb576126ea611cb2565b5b600082013567ffffffffffffffff81111561270957612708611cb7565b5b61271584828501611f3a565b91505092915050565b60008060008060008060a0878903121561273b5761273a611cb2565b5b600061274989828a01611fb1565b965050602061275a89828a01611fb1565b955050604061276b89828a01611fe7565b945050606061277c89828a01611fe7565b935050608087013567ffffffffffffffff81111561279d5761279c611cb7565b5b6127a989828a01612126565b92509250509295509295509295565b600080600080608085870312156127d2576127d1611cb2565b5b60006127e087828801611fb1565b945050602085013567ffffffffffffffff81111561280157612800611cb7565b5b61280d87828801611f3a565b935050604061281e87828801611fb1565b925050606061282f87828801611fe7565b91505092959194509250565b600081905092915050565b60006128518261239f565b61285b818561283b565b935061286b8185602086016123bb565b80840191505092915050565b60006128838284612846565b915081905092915050565b60006060820190506128a3600083018661241e565b6128b0602083018561241e565b6128bd60408301846122b7565b949350505050565b6128ce81611d41565b81146128d957600080fd5b50565b6000815190506128eb816128c5565b92915050565b60006020828403121561290757612906611cb2565b5b6000612915848285016128dc565b91505092915050565b600081905092915050565b50565b600061293960008361291e565b915061294482612929565b600082019050919050565b600061295a8261292c565b9150819050919050565b600060c0820190506129796000830189612437565b6129866020830188612437565b612993604083018761241e565b6129a0606083018661241e565b6129ad608083018561241e565b6129ba60a08301846122b7565b979650505050505050565b7f4e487b7100000000000000000000000000000000000000000000000000000000600052602160045260246000fd5b60058110612a0557612a046129c5565b5b50565b6000819050612a16826129f4565b919050565b6000612a2682612a08565b9050919050565b612a3681612a1b565b82525050565b6000819050919050565b6000819050919050565b6000612a6b612a66612a6184612a3c565b612a46565b611fc6565b9050919050565b612a7b81612a50565b82525050565b600060a0820190508181036000830152612a9b81886123e5565b9050612aaa6020830187612a2d565b612ab7604083018661241e565b612ac46060830185612a72565b612ad160808301846122b7565b9695505050505050565b7f4e487b7100000000000000000000000000000000000000000000000000000000600052601160045260246000fd5b6000612b1582611fc6565b9150612b2083611fc6565b9250828203905081811115612b3857612b37612adb565b5b92915050565b6000604082019050612b53600083018561241e565b612b6060208301846122b7565b9392505050565b6000612b7282611fc6565b9150612b7d83611fc6565b9250828201905080821115612b9557612b94612adb565b5b92915050565b60006080820190508181036000830152612bb581876123e5565b9050612bc4602083018661241e565b612bd1604083018561241e565b612bde60608301846122b7565b95945050505050565b7f4e487b7100000000000000000000000000000000000000000000000000000000600052602260045260246000fd5b60006002820490506001821680612c2e57607f821691505b602082108103612c4157612c40612be7565b5b50919050565b6000602082019050612c5c6000830184612437565b92915050565b600060a082019050612c776000830188612437565b612c846020830187612437565b612c916040830186612437565b612c9e60608301856122b7565b612cab608083018461241e565b9695505050505050565b600060ff82169050919050565b612ccb81612cb5565b82525050565b6000608082019050612ce66000830187612437565b612cf36020830186612cc2565b612d006040830185612437565b612d0d6060830184612437565b9594505050505056fea2646970667358221220223a0ff33b018b0f2fc36f9c1d34ad2bc2af4281746126e6c538629fbc75e5b364736f6c63430008180033",
  "linkReferences": {},
  "deployedLinkReferences": {}
}