{
  "_format": "hh-sol-artifact-1",
  "contractName": "Payfluence",
  "sourceName": "contracts/Payfluence.sol",
  "abi": [
    {
      "inputs": [
        {
          "internalType": "address",
          "name": "_adminAddress",
          "type": "address"
        }
      ],
      "stateMutability": "nonpayable",
      "type": "constructor"
    },
    {
      "inputs": [],
      "name": "AirdropAlreadyClaimed",
      "type": "error"
    },
    {
      "inputs": [
        {
          "internalType": "string",
          "name": "id",
          "type": "string"
        },
        {
          "internalType": "address",
          "name": "token",
          "type": "address"
        }
      ],
      "name": "AssetNotFound",
      "type": "error"
    },
    {
      "inputs": [
        {
          "internalType": "address",
          "name": "token",
          "type": "address"
        }
      ],
      "name": "AssetTypeNotFoundForToken",
      "type": "error"
    },
    {
      "inputs": [],
      "name": "ECDSAInvalidSignature",
      "type": "error"
    },
    {
      "inputs": [
        {
          "internalType": "uint256",
          "name": "length",
          "type": "uint256"
        }
      ],
      "name": "ECDSAInvalidSignatureLength",
      "type": "error"
    },
    {
      "inputs": [
        {
          "internalType": "bytes32",
          "name": "s",
          "type": "bytes32"
        }
      ],
      "name": "ECDSAInvalidSignatureS",
      "type": "error"
    },
    {
      "inputs": [
        {
          "internalType": "enum TokenReceiver.AssetType",
          "name": "assetType",
          "type": "uint8"
        }
      ],
      "name": "InvalidAssetType",
      "type": "error"
    },
    {
      "inputs": [],
      "name": "InvalidShortString",
      "type": "error"
    },
    {
      "inputs": [],
      "name": "InvalidSigner",
      "type": "error"
    },
    {
      "inputs": [
        {
          "internalType": "string",
          "name": "id",
          "type": "string"
        },
        {
          "internalType": "enum TokenReceiver.AssetType",
          "name": "assetType",
          "type": "uint8"
        },
        {
          "internalType": "address",
          "name": "token",
          "type": "address"
        },
        {
          "internalType": "uint256",
          "name": "tokenId",
          "type": "uint256"
        },
        {
          "internalType": "uint256",
          "name": "amount",
          "type": "uint256"
        }
      ],
      "name": "NotEnoughFunds",
      "type": "error"
    },
    {
      "inputs": [],
      "name": "OnlyAirdropOwner",
      "type": "error"
    },
    {
      "inputs": [],
      "name": "OnlyTokenOwner",
      "type": "error"
    },
    {
      "inputs": [
        {
          "internalType": "address",
          "name": "owner",
          "type": "address"
        }
      ],
      "name": "OwnableInvalidOwner",
      "type": "error"
    },
    {
      "inputs": [
        {
          "internalType": "address",
          "name": "account",
          "type": "address"
        }
      ],
      "name": "OwnableUnauthorizedAccount",
      "type": "error"
    },
    {
      "inputs": [],
      "name": "ReentrancyGuardReentrantCall",
      "type": "error"
    },
    {
      "inputs": [
        {
          "internalType": "string",
          "name": "str",
          "type": "string"
        }
      ],
      "name": "StringTooLong",
      "type": "error"
    },
    {
      "inputs": [],
      "name": "TransferFailed",
      "type": "error"
    },
    {
      "inputs": [
        {
          "internalType": "string",
          "name": "id",
          "type": "string"
        },
        {
          "internalType": "address",
          "name": "to",
          "type": "address"
        },
        {
          "internalType": "uint256",
          "name": "amount",
          "type": "uint256"
        }
      ],
      "name": "TransferNativeFailed",
      "type": "error"
    },
    {
      "anonymous": false,
      "inputs": [],
      "name": "EIP712DomainChanged",
      "type": "event"
    },
    {
      "anonymous": false,
      "inputs": [
        {
          "indexed": false,
          "internalType": "string",
          "name": "id",
          "type": "string"
        },
        {
          "indexed": false,
          "internalType": "address",
          "name": "operator",
          "type": "address"
        },
        {
          "indexed": false,
          "internalType": "address",
          "name": "from",
          "type": "address"
        },
        {
          "indexed": false,
          "internalType": "uint256[]",
          "name": "tokenIds",
          "type": "uint256[]"
        },
        {
          "indexed": false,
          "internalType": "uint256[]",
          "name": "amounts",
          "type": "uint256[]"
        }
      ],
      "name": "ERC1155BatchReceived",
      "type": "event"
    },
    {
      "anonymous": false,
      "inputs": [
        {
          "indexed": false,
          "internalType": "string",
          "name": "id",
          "type": "string"
        },
        {
          "indexed": false,
          "internalType": "address",
          "name": "operator",
          "type": "address"
        },
        {
          "indexed": false,
          "internalType": "address",
          "name": "from",
          "type": "address"
        },
        {
          "indexed": false,
          "internalType": "uint256",
          "name": "tokenIds",
          "type": "uint256"
        },
        {
          "indexed": false,
          "internalType": "uint256",
          "name": "amounts",
          "type": "uint256"
        }
      ],
      "name": "ERC1155Received",
      "type": "event"
    },
    {
      "anonymous": false,
      "inputs": [
        {
          "indexed": false,
          "internalType": "string",
          "name": "id",
          "type": "string"
        },
        {
          "indexed": false,
          "internalType": "address",
          "name": "from",
          "type": "address"
        },
        {
          "indexed": false,
          "internalType": "address",
          "name": "token",
          "type": "address"
        },
        {
          "indexed": false,
          "internalType": "uint256",
          "name": "amount",
          "type": "uint256"
        }
      ],
      "name": "ERC20Received",
      "type": "event"
    },
    {
      "anonymous": false,
      "inputs": [
        {
          "indexed": false,
          "internalType": "string",
          "name": "id",
          "type": "string"
        },
        {
          "indexed": false,
          "internalType": "address",
          "name": "operator",
          "type": "address"
        },
        {
          "indexed": false,
          "internalType": "address",
          "name": "from",
          "type": "address"
        },
        {
          "indexed": false,
          "internalType": "uint256",
          "name": "tokenId",
          "type": "uint256"
        }
      ],
      "name": "ERC721Received",
      "type": "event"
    },
    {
      "anonymous": false,
      "inputs": [
        {
          "indexed": false,
          "internalType": "string",
          "name": "id",
          "type": "string"
        },
        {
          "indexed": false,
          "internalType": "address",
          "name": "from",
          "type": "address"
        },
        {
          "indexed": false,
          "internalType": "uint256",
          "name": "amount",
          "type": "uint256"
        }
      ],
      "name": "NativeReceived",
      "type": "event"
    },
    {
      "anonymous": false,
      "inputs": [
        {
          "indexed": true,
          "internalType": "address",
          "name": "previousOwner",
          "type": "address"
        },
        {
          "indexed": true,
          "internalType": "address",
          "name": "newOwner",
          "type": "address"
        }
      ],
      "name": "OwnershipTransferStarted",
      "type": "event"
    },
    {
      "anonymous": false,
      "inputs": [
        {
          "indexed": true,
          "internalType": "address",
          "name": "previousOwner",
          "type": "address"
        },
        {
          "indexed": true,
          "internalType": "address",
          "name": "newOwner",
          "type": "address"
        }
      ],
      "name": "OwnershipTransferred",
      "type": "event"
    },
    {
      "inputs": [],
      "name": "acceptOwnership",
      "outputs": [],
      "stateMutability": "nonpayable",
      "type": "function"
    },
    {
      "inputs": [
        {
          "internalType": "string",
          "name": "_airdropId",
          "type": "string"
        },
        {
          "internalType": "address",
          "name": "_newOwner",
          "type": "address"
        }
      ],
      "name": "adminTransferAirdropOwnership",
      "outputs": [],
      "stateMutability": "nonpayable",
      "type": "function"
    },
    {
      "inputs": [
        {
          "internalType": "address",
          "name": "_to",
          "type": "address"
        },
        {
          "internalType": "string",
          "name": "_airdropId",
          "type": "string"
        },
        {
          "internalType": "address",
          "name": "_token",
          "type": "address"
        },
        {
          "internalType": "uint256",
          "name": "_amount",
          "type": "uint256"
        }
      ],
      "name": "adminWithdrawERC20",
      "outputs": [],
      "stateMutability": "nonpayable",
      "type": "function"
    },
    {
      "inputs": [
        {
          "internalType": "address",
          "name": "_to",
          "type": "address"
        }
      ],
      "name": "adminWithdrawNative",
      "outputs": [],
      "stateMutability": "nonpayable",
      "type": "function"
    },
    {
      "inputs": [
        {
          "internalType": "string",
          "name": "airdropId",
          "type": "string"
        },
        {
          "internalType": "address",
          "name": "recipient",
          "type": "address"
        }
      ],
      "name": "airdropClaimedAmounts",
      "outputs": [
        {
          "internalType": "uint256",
          "name": "amountClaimed",
          "type": "uint256"
        }
      ],
      "stateMutability": "view",
      "type": "function"
    },
    {
      "inputs": [
        {
          "internalType": "string",
          "name": "airdropId",
          "type": "string"
        }
      ],
      "name": "airdropOwners",
      "outputs": [
        {
          "internalType": "address",
          "name": "owner",
          "type": "address"
        }
      ],
      "stateMutability": "view",
      "type": "function"
    },
    {
      "inputs": [
        {
          "internalType": "bytes",
          "name": "signature",
          "type": "bytes"
        },
        {
          "components": [
            {
              "internalType": "string",
              "name": "airdropId",
              "type": "string"
            },
            {
              "internalType": "address",
              "name": "token",
              "type": "address"
            },
            {
              "internalType": "address",
              "name": "owner",
              "type": "address"
            },
            {
              "internalType": "address",
              "name": "recipient",
              "type": "address"
            },
            {
              "internalType": "uint256",
              "name": "amountClaimable",
              "type": "uint256"
            }
          ],
          "internalType": "struct Payfluence.AirdropMessage",
          "name": "airdropMessage",
          "type": "tuple"
        }
      ],
      "name": "claimAirdrop",
      "outputs": [],
      "stateMutability": "nonpayable",
      "type": "function"
    },
    {
      "inputs": [
        {
          "internalType": "string",
          "name": "id",
          "type": "string"
        }
      ],
      "name": "contractBalance",
      "outputs": [
        {
          "internalType": "uint256",
          "name": "native",
          "type": "uint256"
        }
      ],
      "stateMutability": "view",
      "type": "function"
    },
    {
      "inputs": [],
      "name": "eip712Domain",
      "outputs": [
        {
          "internalType": "bytes1",
          "name": "fields",
          "type": "bytes1"
        },
        {
          "internalType": "string",
          "name": "name",
          "type": "string"
        },
        {
          "internalType": "string",
          "name": "version",
          "type": "string"
        },
        {
          "internalType": "uint256",
          "name": "chainId",
          "type": "uint256"
        },
        {
          "internalType": "address",
          "name": "verifyingContract",
          "type": "address"
        },
        {
          "internalType": "bytes32",
          "name": "salt",
          "type": "bytes32"
        },
        {
          "internalType": "uint256[]",
          "name": "extensions",
          "type": "uint256[]"
        }
      ],
      "stateMutability": "view",
      "type": "function"
    },
    {
      "inputs": [
        {
          "internalType": "string",
          "name": "_airdropId",
          "type": "string"
        },
        {
          "internalType": "address",
          "name": "_owner",
          "type": "address"
        },
        {
          "internalType": "address",
          "name": "_token",
          "type": "address"
        },
        {
          "internalType": "uint256",
          "name": "_amount",
          "type": "uint256"
        }
      ],
      "name": "fundERC20",
      "outputs": [],
      "stateMutability": "nonpayable",
      "type": "function"
    },
    {
      "inputs": [],
      "name": "fundNative",
      "outputs": [],
      "stateMutability": "payable",
      "type": "function"
    },
    {
      "inputs": [
        {
          "internalType": "string",
          "name": "id",
          "type": "string"
        },
        {
          "internalType": "address",
          "name": "token",
          "type": "address"
        }
      ],
      "name": "getBalance",
      "outputs": [
        {
          "internalType": "uint256",
          "name": "",
          "type": "uint256"
        }
      ],
      "stateMutability": "view",
      "type": "function"
    },
    {
      "inputs": [],
      "name": "getChainId",
      "outputs": [
        {
          "internalType": "uint256",
          "name": "",
          "type": "uint256"
        }
      ],
      "stateMutability": "view",
      "type": "function"
    },
    {
      "inputs": [
        {
          "internalType": "address",
          "name": "",
          "type": "address"
        },
        {
          "internalType": "address",
          "name": "",
          "type": "address"
        },
        {
          "internalType": "uint256[]",
          "name": "",
          "type": "uint256[]"
        },
        {
          "internalType": "uint256[]",
          "name": "",
          "type": "uint256[]"
        },
        {
          "internalType": "bytes",
          "name": "",
          "type": "bytes"
        }
      ],
      "name": "onERC1155BatchReceived",
      "outputs": [
        {
          "internalType": "bytes4",
          "name": "",
          "type": "bytes4"
        }
      ],
      "stateMutability": "nonpayable",
      "type": "function"
    },
    {
      "inputs": [
        {
          "internalType": "address",
          "name": "",
          "type": "address"
        },
        {
          "internalType": "address",
          "name": "",
          "type": "address"
        },
        {
          "internalType": "uint256",
          "name": "",
          "type": "uint256"
        },
        {
          "internalType": "uint256",
          "name": "",
          "type": "uint256"
        },
        {
          "internalType": "bytes",
          "name": "",
          "type": "bytes"
        }
      ],
      "name": "onERC1155Received",
      "outputs": [
        {
          "internalType": "bytes4",
          "name": "",
          "type": "bytes4"
        }
      ],
      "stateMutability": "nonpayable",
      "type": "function"
    },
    {
      "inputs": [
        {
          "internalType": "address",
          "name": "",
          "type": "address"
        },
        {
          "internalType": "address",
          "name": "",
          "type": "address"
        },
        {
          "internalType": "uint256",
          "name": "",
          "type": "uint256"
        },
        {
          "internalType": "bytes",
          "name": "",
          "type": "bytes"
        }
      ],
      "name": "onERC721Received",
      "outputs": [
        {
          "internalType": "bytes4",
          "name": "",
          "type": "bytes4"
        }
      ],
      "stateMutability": "nonpayable",
      "type": "function"
    },
    {
      "inputs": [],
      "name": "owner",
      "outputs": [
        {
          "internalType": "address",
          "name": "",
          "type": "address"
        }
      ],
      "stateMutability": "view",
      "type": "function"
    },
    {
      "inputs": [],
      "name": "pendingOwner",
      "outputs": [
        {
          "internalType": "address",
          "name": "",
          "type": "address"
        }
      ],
      "stateMutability": "view",
      "type": "function"
    },
    {
      "inputs": [],
      "name": "renounceOwnership",
      "outputs": [],
      "stateMutability": "nonpayable",
      "type": "function"
    },
    {
      "inputs": [
        {
          "internalType": "address",
          "name": "_adminAddress",
          "type": "address"
        }
      ],
      "name": "setAdminAddress",
      "outputs": [],
      "stateMutability": "nonpayable",
      "type": "function"
    },
    {
      "inputs": [
        {
          "internalType": "bytes4",
          "name": "interfaceId",
          "type": "bytes4"
        }
      ],
      "name": "supportsInterface",
      "outputs": [
        {
          "internalType": "bool",
          "name": "",
          "type": "bool"
        }
      ],
      "stateMutability": "view",
      "type": "function"
    },
    {
      "inputs": [
        {
          "internalType": "address",
          "name": "newOwner",
          "type": "address"
        }
      ],
      "name": "transferOwnership",
      "outputs": [],
      "stateMutability": "nonpayable",
      "type": "function"
    },
    {
      "inputs": [
        {
          "internalType": "bytes",
          "name": "signature",
          "type": "bytes"
        },
        {
          "components": [
            {
              "internalType": "string",
              "name": "airdropId",
              "type": "string"
            },
            {
              "internalType": "address",
              "name": "token",
              "type": "address"
            },
            {
              "internalType": "address",
              "name": "owner",
              "type": "address"
            },
            {
              "internalType": "address",
              "name": "recipient",
              "type": "address"
            },
            {
              "internalType": "uint256",
              "name": "amountClaimable",
              "type": "uint256"
            }
          ],
          "internalType": "struct Payfluence.AirdropMessage",
          "name": "airdropMessage",
          "type": "tuple"
        }
      ],
      "name": "verify",
      "outputs": [
        {
          "internalType": "bool",
          "name": "",
          "type": "bool"
        }
      ],
      "stateMutability": "view",
      "type": "function"
    },
    {
      "inputs": [
        {
          "internalType": "string",
          "name": "_airdropId",
          "type": "string"
        },
        {
          "internalType": "address",
          "name": "_to",
          "type": "address"
        },
        {
          "internalType": "address",
          "name": "_token",
          "type": "address"
        },
        {
          "internalType": "uint256",
          "name": "_amount",
          "type": "uint256"
        }
      ],
      "name": "withdrawERC20",
      "outputs": [],
      "stateMutability": "nonpayable",
      "type": "function"
    },
    {
      "stateMutability": "payable",
      "type": "receive"
    }
  ],
  "bytecode": "0x61016060405260006005553480156200001757600080fd5b50604051620038d7380380620038d783398181016040528101906200003d9190620004c4565b6040518060400160405280600a81526020017f506179666c75656e6365000000000000000000000000000000000000000000008152506040518060400160405280600181526020017f310000000000000000000000000000000000000000000000000000000000000081525033600073ffffffffffffffffffffffffffffffffffffffff168173ffffffffffffffffffffffffffffffffffffffff16036200011f5760006040517f1e4fbdf700000000000000000000000000000000000000000000000000000000815260040162000116919062000507565b60405180910390fd5b62000130816200023160201b60201c565b5060016002819055506200014f6003836200026a60201b90919060201c565b61012081815250506200016d6004826200026a60201b90919060201c565b6101408181525050818051906020012060e08181525050808051906020012061010081815250504660a08181525050620001ac620002c260201b60201c565b608081815250503073ffffffffffffffffffffffffffffffffffffffff1660c08173ffffffffffffffffffffffffffffffffffffffff1681525050505080600860006101000a81548173ffffffffffffffffffffffffffffffffffffffff021916908373ffffffffffffffffffffffffffffffffffffffff1602179055505062000a63565b600160006101000a81549073ffffffffffffffffffffffffffffffffffffffff021916905562000267816200031f60201b60201c565b50565b600060208351101562000290576200028883620003e360201b60201c565b9050620002bc565b82620002a2836200045060201b60201c565b6000019081620002b391906200079e565b5060ff60001b90505b92915050565b60007f8b73c3c69bb8fe3d512ecc4cf759cc79239f7b179b0ffacaa9a75d522b39400f60e05161010051463060405160200162000304959493929190620008b1565b60405160208183030381529060405280519060200120905090565b60008060009054906101000a900473ffffffffffffffffffffffffffffffffffffffff169050816000806101000a81548173ffffffffffffffffffffffffffffffffffffffff021916908373ffffffffffffffffffffffffffffffffffffffff1602179055508173ffffffffffffffffffffffffffffffffffffffff168173ffffffffffffffffffffffffffffffffffffffff167f8be0079c531659141344cd1fd0a4f28419497f9722a3daafe3b4186f6b6457e060405160405180910390a35050565b600080829050601f815111156200043357826040517f305a27a90000000000000000000000000000000000000000000000000000000081526004016200042a91906200099d565b60405180910390fd5b8051816200044190620009f3565b60001c1760001b915050919050565b6000819050919050565b600080fd5b600073ffffffffffffffffffffffffffffffffffffffff82169050919050565b60006200048c826200045f565b9050919050565b6200049e816200047f565b8114620004aa57600080fd5b50565b600081519050620004be8162000493565b92915050565b600060208284031215620004dd57620004dc6200045a565b5b6000620004ed84828501620004ad565b91505092915050565b62000501816200047f565b82525050565b60006020820190506200051e6000830184620004f6565b92915050565b600081519050919050565b7f4e487b7100000000000000000000000000000000000000000000000000000000600052604160045260246000fd5b7f4e487b7100000000000000000000000000000000000000000000000000000000600052602260045260246000fd5b60006002820490506001821680620005a657607f821691505b602082108103620005bc57620005bb6200055e565b5b50919050565b60008190508160005260206000209050919050565b60006020601f8301049050919050565b600082821b905092915050565b600060088302620006267fffffffffffffffffffffffffffffffffffffffffffffffffffffffffffffffff82620005e7565b620006328683620005e7565b95508019841693508086168417925050509392505050565b6000819050919050565b6000819050919050565b60006200067f6200067962000673846200064a565b62000654565b6200064a565b9050919050565b6000819050919050565b6200069b836200065e565b620006b3620006aa8262000686565b848454620005f4565b825550505050565b600090565b620006ca620006bb565b620006d781848462000690565b505050565b5b81811015620006ff57620006f3600082620006c0565b600181019050620006dd565b5050565b601f8211156200074e576200071881620005c2565b6200072384620005d7565b8101602085101562000733578190505b6200074b6200074285620005d7565b830182620006dc565b50505b505050565b600082821c905092915050565b6000620007736000198460080262000753565b1980831691505092915050565b60006200078e838362000760565b9150826002028217905092915050565b620007a98262000524565b67ffffffffffffffff811115620007c557620007c46200052f565b5b620007d182546200058d565b620007de82828562000703565b600060209050601f83116001811462000816576000841562000801578287015190505b6200080d858262000780565b8655506200087d565b601f1984166200082686620005c2565b60005b82811015620008505784890151825560018201915060208501945060208101905062000829565b868310156200087057848901516200086c601f89168262000760565b8355505b6001600288020188555050505b505050505050565b6000819050919050565b6200089a8162000885565b82525050565b620008ab816200064a565b82525050565b600060a082019050620008c860008301886200088f565b620008d760208301876200088f565b620008e660408301866200088f565b620008f56060830185620008a0565b620009046080830184620004f6565b9695505050505050565b600082825260208201905092915050565b60005b838110156200093f57808201518184015260208101905062000922565b60008484015250505050565b6000601f19601f8301169050919050565b6000620009698262000524565b6200097581856200090e565b9350620009878185602086016200091f565b62000992816200094b565b840191505092915050565b60006020820190508181036000830152620009b981846200095c565b905092915050565b600081519050919050565b6000819050602082019050919050565b6000620009ea825162000885565b80915050919050565b600062000a0082620009c1565b8262000a0c84620009cc565b905062000a1981620009dc565b9250602082101562000a5c5762000a577fffffffffffffffffffffffffffffffffffffffffffffffffffffffffffffffff83602003600802620005e7565b831692505b5050919050565b60805160a05160c05160e051610100516101205161014051612e1962000abe60003960006115cb0152600061159001526000611be101526000611bc001526000611873015260006118c9015260006118f20152612e196000f3fe60806040526004361061014f5760003560e01c80638da5cb5b116100b6578063ea13689f1161006f578063ea13689f1461046c578063eb47e011146104a9578063f23a6e61146104e6578063f2fde38b14610523578063fe1fddaa1461054c578063ffb1500e1461057557610156565b80638da5cb5b1461037d578063bc197c81146103a8578063c4385d76146103e5578063c8b5773d1461040e578063c9c61eab14610437578063e30c39781461044157610156565b80634f18868a116101085780634f18868a1461028f578063715018a6146102b857806379ba5097146102cf57806380c4020c146102e657806384b0196e1461030f57806389f4b3171461034057610156565b806301ffc9a71461015b5780631090bafa14610198578063150b7a02146101d55780632394c348146102125780632c1e816d1461023b5780633408e4701461026457610156565b3661015657005b600080fd5b34801561016757600080fd5b50610182600480360381019061017d9190611de1565b6105b2565b60405161018f9190611e29565b60405180910390f35b3480156101a457600080fd5b506101bf60048036038101906101ba9190612171565b6106ec565b6040516101cc9190611e29565b60405180910390f35b3480156101e157600080fd5b506101fc60048036038101906101f79190612249565b610702565b60405161020991906122e0565b60405180910390f35b34801561021e57600080fd5b50610239600480360381019061023491906122fb565b610717565b005b34801561024757600080fd5b50610262600480360381019061025d9190612357565b610780565b005b34801561027057600080fd5b506102796107cc565b6040516102869190612393565b60405180910390f35b34801561029b57600080fd5b506102b660048036038101906102b191906123ae565b6107d4565b005b3480156102c457600080fd5b506102cd610914565b005b3480156102db57600080fd5b506102e4610928565b005b3480156102f257600080fd5b5061030d60048036038101906103089190612171565b6109b7565b005b34801561031b57600080fd5b50610324610afd565b60405161033797969594939291906125d1565b60405180910390f35b34801561034c57600080fd5b50610367600480360381019061036291906122fb565b610ba7565b6040516103749190612393565b60405180910390f35b34801561038957600080fd5b50610392610c10565b60405161039f9190612655565b60405180910390f35b3480156103b457600080fd5b506103cf60048036038101906103ca91906126c6565b610c39565b6040516103dc91906122e0565b60405180910390f35b3480156103f157600080fd5b5061040c600480360381019061040791906123ae565b610c51565b005b34801561041a57600080fd5b5061043560048036038101906104309190612357565b610f49565b005b61043f610ffe565b005b34801561044d57600080fd5b50610456611000565b6040516104639190612655565b60405180910390f35b34801561047857600080fd5b50610493600480360381019061048e91906127a2565b61102a565b6040516104a09190612655565b60405180910390f35b3480156104b557600080fd5b506104d060048036038101906104cb91906122fb565b611073565b6040516104dd9190612393565b60405180910390f35b3480156104f257600080fd5b5061050d600480360381019061050891906127eb565b6110ae565b60405161051a91906122e0565b60405180910390f35b34801561052f57600080fd5b5061054a60048036038101906105459190612357565b6110c4565b005b34801561055857600080fd5b50610573600480360381019061056e9190612885565b611171565b005b34801561058157600080fd5b5061059c600480360381019061059791906127a2565b61118b565b6040516105a99190612393565b60405180910390f35b60007f4e2312e0000000000000000000000000000000000000000000000000000000007bffffffffffffffffffffffffffffffffffffffffffffffffffffffff1916827bffffffffffffffffffffffffffffffffffffffffffffffffffffffff1916148061067d57507f150b7a02000000000000000000000000000000000000000000000000000000007bffffffffffffffffffffffffffffffffffffffffffffffffffffffff1916827bffffffffffffffffffffffffffffffffffffffffffffffffffffffff1916145b806106e557507f01ffc9a7000000000000000000000000000000000000000000000000000000007bffffffffffffffffffffffffffffffffffffffffffffffffffffffff1916827bffffffffffffffffffffffffffffffffffffffffffffffffffffffff1916145b9050919050565b60006106f883836111bf565b6001905092915050565b600063150b7a0260e01b905095945050505050565b61071f6112d2565b806009836040516107309190612944565b908152602001604051809103902060006101000a81548173ffffffffffffffffffffffffffffffffffffffff021916908373ffffffffffffffffffffffffffffffffffffffff1602179055505050565b6107886112d2565b80600860006101000a81548173ffffffffffffffffffffffffffffffffffffffff021916908373ffffffffffffffffffffffffffffffffffffffff16021790555050565b600046905090565b6107dc611359565b83600073ffffffffffffffffffffffffffffffffffffffff166009826040516108059190612944565b908152602001604051809103902060009054906101000a900473ffffffffffffffffffffffffffffffffffffffff1673ffffffffffffffffffffffffffffffffffffffff16141580156108c257506009816040516108639190612944565b908152602001604051809103902060009054906101000a900473ffffffffffffffffffffffffffffffffffffffff1673ffffffffffffffffffffffffffffffffffffffff163373ffffffffffffffffffffffffffffffffffffffff1614155b156108f9576040517f08062d7400000000000000000000000000000000000000000000000000000000815260040160405180910390fd5b6109058585858561139d565b5061090e611544565b50505050565b61091c6112d2565b610926600061154e565b565b600061093261157f565b90508073ffffffffffffffffffffffffffffffffffffffff16610953611000565b73ffffffffffffffffffffffffffffffffffffffff16146109ab57806040517f118cdaa70000000000000000000000000000000000000000000000000000000081526004016109a29190612655565b60405180910390fd5b6109b48161154e565b50565b6109bf611359565b6109c982826111bf565b8060800151600a82600001516040516109e29190612944565b90815260200160405180910390206000836060015173ffffffffffffffffffffffffffffffffffffffff1673ffffffffffffffffffffffffffffffffffffffff1681526020019081526020016000205410610a69576040517fe4ca4c0b00000000000000000000000000000000000000000000000000000000815260040160405180910390fd5b8060800151600a8260000151604051610a829190612944565b90815260200160405180910390206000836060015173ffffffffffffffffffffffffffffffffffffffff1673ffffffffffffffffffffffffffffffffffffffff16815260200190815260200160002081905550610af1816000015182606001518360200151846080015161139d565b610af9611544565b5050565b600060608060008060006060610b11611587565b610b196115c2565b46306000801b600067ffffffffffffffff811115610b3a57610b39611e5f565b5b604051908082528060200260200182016040528015610b685781602001602082028036833780820191505090505b507f0f00000000000000000000000000000000000000000000000000000000000000959493929190965096509650965096509650965090919293949596565b6000600683604051610bb99190612944565b908152602001604051809103902060010160008373ffffffffffffffffffffffffffffffffffffffff1673ffffffffffffffffffffffffffffffffffffffff16815260200190815260200160002054905092915050565b60008060009054906101000a900473ffffffffffffffffffffffffffffffffffffffff16905090565b600063bc197c8160e01b905098975050505050505050565b610c59611359565b83600073ffffffffffffffffffffffffffffffffffffffff16600982604051610c829190612944565b908152602001604051809103902060009054906101000a900473ffffffffffffffffffffffffffffffffffffffff1673ffffffffffffffffffffffffffffffffffffffff1614158015610d3f5750600981604051610ce09190612944565b908152602001604051809103902060009054906101000a900473ffffffffffffffffffffffffffffffffffffffff1673ffffffffffffffffffffffffffffffffffffffff163373ffffffffffffffffffffffffffffffffffffffff1614155b15610d76576040517f08062d7400000000000000000000000000000000000000000000000000000000815260040160405180910390fd5b838073ffffffffffffffffffffffffffffffffffffffff163373ffffffffffffffffffffffffffffffffffffffff1614610ddc576040517fcdf1f8f900000000000000000000000000000000000000000000000000000000815260040160405180910390fd5b600073ffffffffffffffffffffffffffffffffffffffff16600987604051610e049190612944565b908152602001604051809103902060009054906101000a900473ffffffffffffffffffffffffffffffffffffffff1673ffffffffffffffffffffffffffffffffffffffff1603610eac5784600987604051610e5f9190612944565b908152602001604051809103902060006101000a81548173ffffffffffffffffffffffffffffffffffffffff021916908373ffffffffffffffffffffffffffffffffffffffff1602179055505b8373ffffffffffffffffffffffffffffffffffffffff166323b872dd8630866040518463ffffffff1660e01b8152600401610ee99392919061295b565b6020604051808303816000875af1158015610f08573d6000803e3d6000fd5b505050506040513d601f19601f82011682018060405250810190610f2c91906129be565b50610f39868686866115fd565b5050610f43611544565b50505050565b610f516112d2565b600047905060008273ffffffffffffffffffffffffffffffffffffffff1682604051610f7c90612a1c565b60006040518083038185875af1925050503d8060008114610fb9576040519150601f19603f3d011682016040523d82523d6000602084013e610fbe565b606091505b5050905080610ff9576040517f90b8ec1800000000000000000000000000000000000000000000000000000000815260040160405180910390fd5b505050565b565b6000600160009054906101000a900473ffffffffffffffffffffffffffffffffffffffff16905090565b6009818051602081018201805184825260208301602085012081835280955050505050506000915054906101000a900473ffffffffffffffffffffffffffffffffffffffff1681565b600a82805160208101820180518482526020830160208501208183528095505050505050602052806000526040600020600091509150505481565b600063f23a6e6160e01b90509695505050505050565b6110cc6112d2565b80600160006101000a81548173ffffffffffffffffffffffffffffffffffffffff021916908373ffffffffffffffffffffffffffffffffffffffff1602179055508073ffffffffffffffffffffffffffffffffffffffff1661112c610c10565b73ffffffffffffffffffffffffffffffffffffffff167f38d16b8cac22d99fc7c124b9cd0de2d3fa1faef420bfe791d8c362d765e2270060405160405180910390a350565b6111796112d2565b6111858385848461139d565b50505050565b6006818051602081018201805184825260208301602085012081835280955050505050506000915090508060000154905081565b60006112357fa3b140137dde1ec8f85da0fadac4c5d6c5410186ca811cbe1e3d5fb737dfb2f6836000015180519060200120846020015185604001518660600151876080015160405160200161121a96959493929190612a31565b604051602081830303815290604052805190602001206116b5565b9050600061124382856116cf565b9050600860009054906101000a900473ffffffffffffffffffffffffffffffffffffffff1673ffffffffffffffffffffffffffffffffffffffff168173ffffffffffffffffffffffffffffffffffffffff16146112cc576040517f815e1d6400000000000000000000000000000000000000000000000000000000815260040160405180910390fd5b50505050565b6112da61157f565b73ffffffffffffffffffffffffffffffffffffffff166112f8610c10565b73ffffffffffffffffffffffffffffffffffffffff16146113575761131b61157f565b6040517f118cdaa700000000000000000000000000000000000000000000000000000000815260040161134e9190612655565b60405180910390fd5b565b6002805403611394576040517f3ee5aeb500000000000000000000000000000000000000000000000000000000815260040160405180910390fd5b60028081905550565b806006856040516113ae9190612944565b908152602001604051809103902060010160008473ffffffffffffffffffffffffffffffffffffffff1673ffffffffffffffffffffffffffffffffffffffff16815260200190815260200160002054101561144a57836002836000846040517f3ff3e6f2000000000000000000000000000000000000000000000000000000008152600401611441959493929190612b4e565b60405180910390fd5b8060068560405161145b9190612944565b908152602001604051809103902060010160008473ffffffffffffffffffffffffffffffffffffffff1673ffffffffffffffffffffffffffffffffffffffff16815260200190815260200160002060008282546114b89190612bd7565b925050819055508173ffffffffffffffffffffffffffffffffffffffff1663a9059cbb84836040518363ffffffff1660e01b81526004016114fa929190612c0b565b6020604051808303816000875af1158015611519573d6000803e3d6000fd5b505050506040513d601f19601f8201168201806040525081019061153d91906129be565b5050505050565b6001600281905550565b600160006101000a81549073ffffffffffffffffffffffffffffffffffffffff021916905561157c816116fb565b50565b600033905090565b60606115bd60037f00000000000000000000000000000000000000000000000000000000000000006117bf90919063ffffffff16565b905090565b60606115f860047f00000000000000000000000000000000000000000000000000000000000000006117bf90919063ffffffff16565b905090565b8060068560405161160e9190612944565b908152602001604051809103902060010160008473ffffffffffffffffffffffffffffffffffffffff1673ffffffffffffffffffffffffffffffffffffffff168152602001908152602001600020600082825461166b9190612c34565b925050819055507f80b0529195f12df0318651d4b36ffc81b7b3cb429033916c20d71e8d2e219ae3848484846040516116a79493929190612c68565b60405180910390a150505050565b60006116c86116c261186f565b83611926565b9050919050565b6000806000806116df8686611967565b9250925092506116ef82826119c3565b82935050505092915050565b60008060009054906101000a900473ffffffffffffffffffffffffffffffffffffffff169050816000806101000a81548173ffffffffffffffffffffffffffffffffffffffff021916908373ffffffffffffffffffffffffffffffffffffffff1602179055508173ffffffffffffffffffffffffffffffffffffffff168173ffffffffffffffffffffffffffffffffffffffff167f8be0079c531659141344cd1fd0a4f28419497f9722a3daafe3b4186f6b6457e060405160405180910390a35050565b606060ff60001b83146117dc576117d583611b27565b9050611869565b8180546117e890612ce3565b80601f016020809104026020016040519081016040528092919081815260200182805461181490612ce3565b80156118615780601f1061183657610100808354040283529160200191611861565b820191906000526020600020905b81548152906001019060200180831161184457829003601f168201915b505050505090505b92915050565b60007f000000000000000000000000000000000000000000000000000000000000000073ffffffffffffffffffffffffffffffffffffffff163073ffffffffffffffffffffffffffffffffffffffff161480156118eb57507f000000000000000000000000000000000000000000000000000000000000000046145b15611918577f00000000000000000000000000000000000000000000000000000000000000009050611923565b611920611b9b565b90505b90565b60006040517f190100000000000000000000000000000000000000000000000000000000000081528360028201528260228201526042812091505092915050565b600080600060418451036119ac5760008060006020870151925060408701519150606087015160001a905061199e88828585611c31565b9550955095505050506119bc565b60006002855160001b9250925092505b9250925092565b600060038111156119d7576119d6612a92565b5b8260038111156119ea576119e9612a92565b5b0315611b235760016003811115611a0457611a03612a92565b5b826003811115611a1757611a16612a92565b5b03611a4e576040517ff645eedf00000000000000000000000000000000000000000000000000000000815260040160405180910390fd5b60026003811115611a6257611a61612a92565b5b826003811115611a7557611a74612a92565b5b03611aba578060001c6040517ffce698f7000000000000000000000000000000000000000000000000000000008152600401611ab19190612393565b60405180910390fd5b600380811115611acd57611acc612a92565b5b826003811115611ae057611adf612a92565b5b03611b2257806040517fd78bce0c000000000000000000000000000000000000000000000000000000008152600401611b199190612d14565b60405180910390fd5b5b5050565b60606000611b3483611d25565b90506000602067ffffffffffffffff811115611b5357611b52611e5f565b5b6040519080825280601f01601f191660200182016040528015611b855781602001600182028036833780820191505090505b5090508181528360208201528092505050919050565b60007f8b73c3c69bb8fe3d512ecc4cf759cc79239f7b179b0ffacaa9a75d522b39400f7f00000000000000000000000000000000000000000000000000000000000000007f00000000000000000000000000000000000000000000000000000000000000004630604051602001611c16959493929190612d2f565b60405160208183030381529060405280519060200120905090565b60008060007f7fffffffffffffffffffffffffffffff5d576e7357a4501ddfe92f46681b20a08460001c1115611c71576000600385925092509250611d1b565b600060018888888860405160008152602001604052604051611c969493929190612d9e565b6020604051602081039080840390855afa158015611cb8573d6000803e3d6000fd5b505050602060405103519050600073ffffffffffffffffffffffffffffffffffffffff168173ffffffffffffffffffffffffffffffffffffffff1603611d0c57600060016000801b93509350935050611d1b565b8060008060001b935093509350505b9450945094915050565b60008060ff8360001c169050601f811115611d6c576040517fb3512b0c00000000000000000000000000000000000000000000000000000000815260040160405180910390fd5b80915050919050565b6000604051905090565b600080fd5b600080fd5b60007fffffffff0000000000000000000000000000000000000000000000000000000082169050919050565b611dbe81611d89565b8114611dc957600080fd5b50565b600081359050611ddb81611db5565b92915050565b600060208284031215611df757611df6611d7f565b5b6000611e0584828501611dcc565b91505092915050565b60008115159050919050565b611e2381611e0e565b82525050565b6000602082019050611e3e6000830184611e1a565b92915050565b600080fd5b600080fd5b6000601f19601f8301169050919050565b7f4e487b7100000000000000000000000000000000000000000000000000000000600052604160045260246000fd5b611e9782611e4e565b810181811067ffffffffffffffff82111715611eb657611eb5611e5f565b5b80604052505050565b6000611ec9611d75565b9050611ed58282611e8e565b919050565b600067ffffffffffffffff821115611ef557611ef4611e5f565b5b611efe82611e4e565b9050602081019050919050565b82818337600083830152505050565b6000611f2d611f2884611eda565b611ebf565b905082815260208101848484011115611f4957611f48611e49565b5b611f54848285611f0b565b509392505050565b600082601f830112611f7157611f70611e44565b5b8135611f81848260208601611f1a565b91505092915050565b600080fd5b600080fd5b600067ffffffffffffffff821115611faf57611fae611e5f565b5b611fb882611e4e565b9050602081019050919050565b6000611fd8611fd384611f94565b611ebf565b905082815260208101848484011115611ff457611ff3611e49565b5b611fff848285611f0b565b509392505050565b600082601f83011261201c5761201b611e44565b5b813561202c848260208601611fc5565b91505092915050565b600073ffffffffffffffffffffffffffffffffffffffff82169050919050565b600061206082612035565b9050919050565b61207081612055565b811461207b57600080fd5b50565b60008135905061208d81612067565b92915050565b6000819050919050565b6120a681612093565b81146120b157600080fd5b50565b6000813590506120c38161209d565b92915050565b600060a082840312156120df576120de611f8a565b5b6120e960a0611ebf565b9050600082013567ffffffffffffffff81111561210957612108611f8f565b5b61211584828501612007565b60008301525060206121298482850161207e565b602083015250604061213d8482850161207e565b60408301525060606121518482850161207e565b6060830152506080612165848285016120b4565b60808301525092915050565b6000806040838503121561218857612187611d7f565b5b600083013567ffffffffffffffff8111156121a6576121a5611d84565b5b6121b285828601611f5c565b925050602083013567ffffffffffffffff8111156121d3576121d2611d84565b5b6121df858286016120c9565b9150509250929050565b600080fd5b600080fd5b60008083601f84011261220957612208611e44565b5b8235905067ffffffffffffffff811115612226576122256121e9565b5b602083019150836001820283011115612242576122416121ee565b5b9250929050565b60008060008060006080868803121561226557612264611d7f565b5b60006122738882890161207e565b95505060206122848882890161207e565b9450506040612295888289016120b4565b935050606086013567ffffffffffffffff8111156122b6576122b5611d84565b5b6122c2888289016121f3565b92509250509295509295909350565b6122da81611d89565b82525050565b60006020820190506122f560008301846122d1565b92915050565b6000806040838503121561231257612311611d7f565b5b600083013567ffffffffffffffff8111156123305761232f611d84565b5b61233c85828601612007565b925050602061234d8582860161207e565b9150509250929050565b60006020828403121561236d5761236c611d7f565b5b600061237b8482850161207e565b91505092915050565b61238d81612093565b82525050565b60006020820190506123a86000830184612384565b92915050565b600080600080608085870312156123c8576123c7611d7f565b5b600085013567ffffffffffffffff8111156123e6576123e5611d84565b5b6123f287828801612007565b94505060206124038782880161207e565b93505060406124148782880161207e565b9250506060612425878288016120b4565b91505092959194509250565b60007fff0000000000000000000000000000000000000000000000000000000000000082169050919050565b61246681612431565b82525050565b600081519050919050565b600082825260208201905092915050565b60005b838110156124a657808201518184015260208101905061248b565b60008484015250505050565b60006124bd8261246c565b6124c78185612477565b93506124d7818560208601612488565b6124e081611e4e565b840191505092915050565b6124f481612055565b82525050565b6000819050919050565b61250d816124fa565b82525050565b600081519050919050565b600082825260208201905092915050565b6000819050602082019050919050565b61254881612093565b82525050565b600061255a838361253f565b60208301905092915050565b6000602082019050919050565b600061257e82612513565b612588818561251e565b93506125938361252f565b8060005b838110156125c45781516125ab888261254e565b97506125b683612566565b925050600181019050612597565b5085935050505092915050565b600060e0820190506125e6600083018a61245d565b81810360208301526125f881896124b2565b9050818103604083015261260c81886124b2565b905061261b6060830187612384565b61262860808301866124eb565b61263560a0830185612504565b81810360c08301526126478184612573565b905098975050505050505050565b600060208201905061266a60008301846124eb565b92915050565b60008083601f84011261268657612685611e44565b5b8235905067ffffffffffffffff8111156126a3576126a26121e9565b5b6020830191508360208202830111156126bf576126be6121ee565b5b9250929050565b60008060008060008060008060a0898b0312156126e6576126e5611d7f565b5b60006126f48b828c0161207e565b98505060206127058b828c0161207e565b975050604089013567ffffffffffffffff81111561272657612725611d84565b5b6127328b828c01612670565b9650965050606089013567ffffffffffffffff81111561275557612754611d84565b5b6127618b828c01612670565b9450945050608089013567ffffffffffffffff81111561278457612783611d84565b5b6127908b828c016121f3565b92509250509295985092959890939650565b6000602082840312156127b8576127b7611d7f565b5b600082013567ffffffffffffffff8111156127d6576127d5611d84565b5b6127e284828501612007565b91505092915050565b60008060008060008060a0878903121561280857612807611d7f565b5b600061281689828a0161207e565b965050602061282789828a0161207e565b955050604061283889828a016120b4565b945050606061284989828a016120b4565b935050608087013567ffffffffffffffff81111561286a57612869611d84565b5b61287689828a016121f3565b92509250509295509295509295565b6000806000806080858703121561289f5761289e611d7f565b5b60006128ad8782880161207e565b945050602085013567ffffffffffffffff8111156128ce576128cd611d84565b5b6128da87828801612007565b93505060406128eb8782880161207e565b92505060606128fc878288016120b4565b91505092959194509250565b600081905092915050565b600061291e8261246c565b6129288185612908565b9350612938818560208601612488565b80840191505092915050565b60006129508284612913565b915081905092915050565b600060608201905061297060008301866124eb565b61297d60208301856124eb565b61298a6040830184612384565b949350505050565b61299b81611e0e565b81146129a657600080fd5b50565b6000815190506129b881612992565b92915050565b6000602082840312156129d4576129d3611d7f565b5b60006129e2848285016129a9565b91505092915050565b600081905092915050565b50565b6000612a066000836129eb565b9150612a11826129f6565b600082019050919050565b6000612a27826129f9565b9150819050919050565b600060c082019050612a466000830189612504565b612a536020830188612504565b612a6060408301876124eb565b612a6d60608301866124eb565b612a7a60808301856124eb565b612a8760a0830184612384565b979650505050505050565b7f4e487b7100000000000000000000000000000000000000000000000000000000600052602160045260246000fd5b60058110612ad257612ad1612a92565b5b50565b6000819050612ae382612ac1565b919050565b6000612af382612ad5565b9050919050565b612b0381612ae8565b82525050565b6000819050919050565b6000819050919050565b6000612b38612b33612b2e84612b09565b612b13565b612093565b9050919050565b612b4881612b1d565b82525050565b600060a0820190508181036000830152612b6881886124b2565b9050612b776020830187612afa565b612b8460408301866124eb565b612b916060830185612b3f565b612b9e6080830184612384565b9695505050505050565b7f4e487b7100000000000000000000000000000000000000000000000000000000600052601160045260246000fd5b6000612be282612093565b9150612bed83612093565b9250828203905081811115612c0557612c04612ba8565b5b92915050565b6000604082019050612c2060008301856124eb565b612c2d6020830184612384565b9392505050565b6000612c3f82612093565b9150612c4a83612093565b9250828201905080821115612c6257612c61612ba8565b5b92915050565b60006080820190508181036000830152612c8281876124b2565b9050612c9160208301866124eb565b612c9e60408301856124eb565b612cab6060830184612384565b95945050505050565b7f4e487b7100000000000000000000000000000000000000000000000000000000600052602260045260246000fd5b60006002820490506001821680612cfb57607f821691505b602082108103612d0e57612d0d612cb4565b5b50919050565b6000602082019050612d296000830184612504565b92915050565b600060a082019050612d446000830188612504565b612d516020830187612504565b612d5e6040830186612504565b612d6b6060830185612384565b612d7860808301846124eb565b9695505050505050565b600060ff82169050919050565b612d9881612d82565b82525050565b6000608082019050612db36000830187612504565b612dc06020830186612d8f565b612dcd6040830185612504565b612dda6060830184612504565b9594505050505056fea264697066735822122006a78e87c396c9486ef43fd0da495c3c4ed4ca9b8e2c03db9501f17f1d94a53a64736f6c63430008180033",
  "linkReferences": {},
  "deployedLinkReferences": {}
}