{"contracts/EchoeCampaignsV1.sol":{"EchoeCampaignsV1":{"abi":[{"inputs":[],"stateMutability":"nonpayable","type":"constructor"},{"inputs":[{"internalType":"string","name":"id","type":"string"},{"internalType":"address","name":"token","type":"address"}],"name":"AssetNotFound","type":"error"},{"inputs":[],"name":"AssetTypeCannotBeNone","type":"error"},{"inputs":[{"internalType":"address","name":"token","type":"address"}],"name":"AssetTypeNotFoundForToken","type":"error"},{"inputs":[{"internalType":"string","name":"id","type":"string"}],"name":"CampaignExistsAlready","type":"error"},{"inputs":[{"internalType":"string","name":"id","type":"string"}],"name":"CampaignNotActive","type":"error"},{"inputs":[{"internalType":"string","name":"id","type":"string"}],"name":"CampaignNotFound","type":"error"},{"inputs":[{"internalType":"string","name":"id","type":"string"}],"name":"CampaignNotPublished","type":"error"},{"inputs":[],"name":"EnforcedPause","type":"error"},{"inputs":[],"name":"ExpectedPause","type":"error"},{"inputs":[{"internalType":"enum TokenReceiver.AssetType","name":"assetType","type":"uint8"}],"name":"InvalidAssetType","type":"error"},{"inputs":[],"name":"LiabilityTimeNotExpired","type":"error"},{"inputs":[{"internalType":"string","name":"id","type":"string"},{"internalType":"address","name":"creator","type":"address"}],"name":"NotCampaignOwner","type":"error"},{"inputs":[{"internalType":"address","name":"sender","type":"address"}],"name":"NotCreator","type":"error"},{"inputs":[{"internalType":"string","name":"id","type":"string"},{"internalType":"enum TokenReceiver.AssetType","name":"assetType","type":"uint8"},{"internalType":"address","name":"token","type":"address"},{"internalType":"uint256","name":"tokenId","type":"uint256"},{"internalType":"uint256","name":"amount","type":"uint256"}],"name":"NotEnoughFunds","type":"error"},{"inputs":[{"internalType":"address","name":"sender","type":"address"}],"name":"NotManager","type":"error"},{"inputs":[{"internalType":"address","name":"sender","type":"address"}],"name":"NotManagerOrCreator","type":"error"},{"inputs":[{"internalType":"address","name":"owner","type":"address"}],"name":"OwnableInvalidOwner","type":"error"},{"inputs":[{"internalType":"address","name":"account","type":"address"}],"name":"OwnableUnauthorizedAccount","type":"error"},{"inputs":[{"internalType":"string","name":"id","type":"string"},{"internalType":"address","name":"to","type":"address"},{"internalType":"uint256","name":"amount","type":"uint256"}],"name":"TransferNativeFailed","type":"error"},{"inputs":[],"name":"ZeroAddress","type":"error"},{"inputs":[],"name":"ZeroAmount","type":"error"},{"anonymous":false,"inputs":[{"indexed":true,"internalType":"string","name":"id","type":"string"},{"indexed":true,"internalType":"address","name":"creator","type":"address"},{"indexed":false,"internalType":"uint256","name":"startTime","type":"uint256"},{"indexed":false,"internalType":"uint256","name":"endTime","type":"uint256"},{"indexed":false,"internalType":"bool","name":"indexedpublished","type":"bool"}],"name":"CampaignCreated","type":"event"},{"anonymous":false,"inputs":[{"indexed":false,"internalType":"string","name":"id","type":"string"},{"indexed":false,"internalType":"address","name":"operator","type":"address"},{"indexed":false,"internalType":"address","name":"from","type":"address"},{"indexed":false,"internalType":"uint256[]","name":"tokenIds","type":"uint256[]"},{"indexed":false,"internalType":"uint256[]","name":"amounts","type":"uint256[]"}],"name":"ERC1155BatchReceived","type":"event"},{"anonymous":false,"inputs":[{"indexed":false,"internalType":"string","name":"id","type":"string"},{"indexed":false,"internalType":"address","name":"operator","type":"address"},{"indexed":false,"internalType":"address","name":"from","type":"address"},{"indexed":false,"internalType":"uint256","name":"tokenIds","type":"uint256"},{"indexed":false,"internalType":"uint256","name":"amounts","type":"uint256"}],"name":"ERC1155Received","type":"event"},{"anonymous":false,"inputs":[{"indexed":false,"internalType":"string","name":"id","type":"string"},{"indexed":false,"internalType":"address","name":"from","type":"address"},{"indexed":false,"internalType":"address","name":"token","type":"address"},{"indexed":false,"internalType":"uint256","name":"amount","type":"uint256"}],"name":"ERC20Received","type":"event"},{"anonymous":false,"inputs":[{"indexed":false,"internalType":"string","name":"id","type":"string"},{"indexed":false,"internalType":"address","name":"operator","type":"address"},{"indexed":false,"internalType":"address","name":"from","type":"address"},{"indexed":false,"internalType":"uint256","name":"tokenId","type":"uint256"}],"name":"ERC721Received","type":"event"},{"anonymous":false,"inputs":[{"indexed":true,"internalType":"string","name":"id","type":"string"},{"indexed":true,"internalType":"uint256","name":"lastPayoutAt","type":"uint256"}],"name":"LastPayoutAtUpdated","type":"event"},{"anonymous":false,"inputs":[{"indexed":true,"internalType":"string","name":"id","type":"string"},{"indexed":true,"internalType":"uint256","name":"lastUpdatedAt","type":"uint256"}],"name":"LastUpdatedAtUpdated","type":"event"},{"anonymous":false,"inputs":[{"indexed":false,"internalType":"string","name":"id","type":"string"},{"indexed":false,"internalType":"address","name":"from","type":"address"},{"indexed":false,"internalType":"uint256","name":"amount","type":"uint256"}],"name":"NativeReceived","type":"event"},{"anonymous":false,"inputs":[{"indexed":true,"internalType":"address","name":"previousOwner","type":"address"},{"indexed":true,"internalType":"address","name":"newOwner","type":"address"}],"name":"OwnershipTransferStarted","type":"event"},{"anonymous":false,"inputs":[{"indexed":true,"internalType":"address","name":"previousOwner","type":"address"},{"indexed":true,"internalType":"address","name":"newOwner","type":"address"}],"name":"OwnershipTransferred","type":"event"},{"anonymous":false,"inputs":[{"indexed":false,"internalType":"address","name":"account","type":"address"}],"name":"Paused","type":"event"},{"anonymous":false,"inputs":[{"indexed":true,"internalType":"string","name":"id","type":"string"},{"indexed":true,"internalType":"bool","name":"published","type":"bool"}],"name":"PublishedUpdated","type":"event"},{"anonymous":false,"inputs":[{"indexed":true,"internalType":"string","name":"id","type":"string"},{"indexed":true,"internalType":"address","name":"participant","type":"address"},{"indexed":false,"internalType":"address[]","name":"tokens","type":"address[]"},{"indexed":false,"internalType":"enum TokenReceiver.AssetType[]","name":"assetTypes","type":"uint8[]"},{"indexed":false,"internalType":"uint256","name":"amount","type":"uint256"},{"indexed":false,"internalType":"uint256","name":"tokenId","type":"uint256"},{"indexed":false,"internalType":"uint256","name":"platform","type":"uint256"},{"indexed":false,"internalType":"bytes32","name":"postId","type":"bytes32"},{"indexed":false,"internalType":"uint256[]","name":"metricIds","type":"uint256[]"},{"indexed":false,"internalType":"uint256[]","name":"values","type":"uint256[]"}],"name":"RewardParticipant","type":"event"},{"anonymous":false,"inputs":[{"indexed":true,"internalType":"string","name":"id","type":"string"},{"indexed":true,"internalType":"uint256","name":"startTime","type":"uint256"},{"indexed":true,"internalType":"uint256","name":"endTime","type":"uint256"}],"name":"TimeRangeUpdated","type":"event"},{"anonymous":false,"inputs":[{"indexed":false,"internalType":"address","name":"account","type":"address"}],"name":"Unpaused","type":"event"},{"anonymous":false,"inputs":[{"indexed":true,"internalType":"string","name":"id","type":"string"},{"indexed":true,"internalType":"address","name":"to","type":"address"},{"indexed":true,"internalType":"address","name":"token","type":"address"},{"indexed":false,"internalType":"enum TokenReceiver.AssetType","name":"assetType","type":"uint8"},{"indexed":false,"internalType":"uint256","name":"amount","type":"uint256"},{"indexed":false,"internalType":"uint256","name":"tokenId","type":"uint256"},{"indexed":false,"internalType":"bool","name":"liabilityEnvoked","type":"bool"}],"name":"WithdrawAsset","type":"event"},{"inputs":[],"name":"acceptOwnership","outputs":[],"stateMutability":"nonpayable","type":"function"},{"inputs":[{"internalType":"string","name":"id","type":"string"},{"internalType":"bool","name":"published","type":"bool"}],"name":"adminSetPublished","outputs":[],"stateMutability":"nonpayable","type":"function"},{"inputs":[{"internalType":"string","name":"id","type":"string"},{"internalType":"address payable","name":"to","type":"address"},{"internalType":"address","name":"token","type":"address"},{"internalType":"enum TokenReceiver.AssetType","name":"assetType","type":"uint8"},{"internalType":"uint256","name":"amount","type":"uint256"},{"internalType":"uint256","name":"tokenId","type":"uint256"},{"internalType":"bytes","name":"data","type":"bytes"}],"name":"adminWithdraw","outputs":[],"stateMutability":"nonpayable","type":"function"},{"inputs":[{"internalType":"string","name":"id","type":"string"},{"internalType":"address payable","name":"to","type":"address"},{"internalType":"address[]","name":"tokens","type":"address[]"},{"internalType":"enum TokenReceiver.AssetType[]","name":"assetTypes","type":"uint8[]"},{"internalType":"uint256[]","name":"amounts","type":"uint256[]"},{"internalType":"uint256[]","name":"tokenIds","type":"uint256[]"}],"name":"archiveAndWithdrawAllAssets","outputs":[],"stateMutability":"nonpayable","type":"function"},{"inputs":[],"name":"backendAdmin","outputs":[{"internalType":"address","name":"","type":"address"}],"stateMutability":"view","type":"function"},{"inputs":[{"internalType":"string","name":"id","type":"string"}],"name":"campaigns","outputs":[{"internalType":"address","name":"creator","type":"address"},{"internalType":"uint256","name":"startTime","type":"uint256"},{"internalType":"uint256","name":"endTime","type":"uint256"},{"internalType":"uint256","name":"lastUpdatedAt","type":"uint256"},{"internalType":"uint256","name":"lastPayoutAt","type":"uint256"},{"internalType":"bool","name":"published","type":"bool"}],"stateMutability":"view","type":"function"},{"inputs":[{"internalType":"string","name":"id","type":"string"}],"name":"contractBalance","outputs":[{"internalType":"uint256","name":"native","type":"uint256"}],"stateMutability":"view","type":"function"},{"inputs":[{"internalType":"string","name":"id","type":"string"},{"internalType":"uint256","name":"startTime","type":"uint256"},{"internalType":"uint256","name":"endTime","type":"uint256"}],"name":"createCampaign","outputs":[],"stateMutability":"nonpayable","type":"function"},{"inputs":[{"internalType":"uint256","name":"platform","type":"uint256"},{"internalType":"bytes32[]","name":"postIds","type":"bytes32[]"},{"internalType":"uint256[]","name":"metricIds","type":"uint256[]"}],"name":"getPostMetrics","outputs":[{"internalType":"uint256[]","name":"","type":"uint256[]"}],"stateMutability":"view","type":"function"},{"inputs":[{"internalType":"uint256","name":"platform","type":"uint256"},{"internalType":"bytes32[]","name":"postIds","type":"bytes32[]"},{"internalType":"uint256[]","name":"metricIds","type":"uint256[]"}],"name":"getPostMetricsBatch","outputs":[{"internalType":"uint256[]","name":"","type":"uint256[]"}],"stateMutability":"view","type":"function"},{"inputs":[{"internalType":"address","name":"","type":"address"},{"internalType":"address","name":"from","type":"address"},{"internalType":"uint256[]","name":"ids","type":"uint256[]"},{"internalType":"uint256[]","name":"values","type":"uint256[]"},{"internalType":"bytes","name":"data","type":"bytes"}],"name":"onERC1155BatchReceived","outputs":[{"internalType":"bytes4","name":"","type":"bytes4"}],"stateMutability":"nonpayable","type":"function"},{"inputs":[{"internalType":"address","name":"","type":"address"},{"internalType":"address","name":"from","type":"address"},{"internalType":"uint256","name":"id","type":"uint256"},{"internalType":"uint256","name":"value","type":"uint256"},{"internalType":"bytes","name":"data","type":"bytes"}],"name":"onERC1155Received","outputs":[{"internalType":"bytes4","name":"","type":"bytes4"}],"stateMutability":"nonpayable","type":"function"},{"inputs":[{"internalType":"address","name":"","type":"address"},{"internalType":"address","name":"from","type":"address"},{"internalType":"uint256","name":"tokenId","type":"uint256"},{"internalType":"bytes","name":"data","type":"bytes"}],"name":"onERC721Received","outputs":[{"internalType":"bytes4","name":"","type":"bytes4"}],"stateMutability":"nonpayable","type":"function"},{"inputs":[],"name":"owner","outputs":[{"internalType":"address","name":"","type":"address"}],"stateMutability":"view","type":"function"},{"inputs":[{"internalType":"string","name":"id","type":"string"},{"internalType":"address","name":"participant","type":"address"}],"name":"participantBalance","outputs":[{"internalType":"uint256","name":"native","type":"uint256"}],"stateMutability":"view","type":"function"},{"inputs":[],"name":"paused","outputs":[{"internalType":"bool","name":"","type":"bool"}],"stateMutability":"view","type":"function"},{"inputs":[],"name":"pendingOwner","outputs":[{"internalType":"address","name":"","type":"address"}],"stateMutability":"view","type":"function"},{"inputs":[{"internalType":"uint256","name":"platform","type":"uint256"},{"internalType":"bytes32","name":"postId","type":"bytes32"},{"internalType":"uint256","name":"metricId","type":"uint256"}],"name":"postMetrics","outputs":[{"internalType":"uint256","name":"value","type":"uint256"}],"stateMutability":"view","type":"function"},{"inputs":[{"internalType":"string","name":"id","type":"string"},{"internalType":"uint256","name":"startTime","type":"uint256"},{"internalType":"uint256","name":"endTime","type":"uint256"}],"name":"publishAndSetTimeRange","outputs":[],"stateMutability":"nonpayable","type":"function"},{"inputs":[],"name":"renounceOwnership","outputs":[],"stateMutability":"nonpayable","type":"function"},{"inputs":[{"internalType":"string","name":"id","type":"string"},{"components":[{"internalType":"address payable","name":"participant","type":"address"},{"components":[{"internalType":"address[]","name":"tokens","type":"address[]"},{"internalType":"enum TokenReceiver.AssetType[]","name":"assetTypes","type":"uint8[]"},{"internalType":"uint256[]","name":"amounts","type":"uint256[]"},{"internalType":"uint256[]","name":"tokenIds","type":"uint256[]"}],"internalType":"struct EchoeCampaignsV1.RewardAssetsParams","name":"assetsParams","type":"tuple"},{"components":[{"internalType":"uint256","name":"platform","type":"uint256"},{"internalType":"bytes32","name":"postId","type":"bytes32"},{"internalType":"uint256[]","name":"metricIds","type":"uint256[]"},{"internalType":"uint256[]","name":"values","type":"uint256[]"}],"internalType":"struct EchoeCampaignsV1.RewardMetricsParams","name":"metricsParams","type":"tuple"}],"internalType":"struct EchoeCampaignsV1.RewardParams","name":"params","type":"tuple"}],"name":"rewardParticipant","outputs":[],"stateMutability":"nonpayable","type":"function"},{"inputs":[{"internalType":"string","name":"id","type":"string"},{"components":[{"internalType":"address payable","name":"participant","type":"address"},{"components":[{"internalType":"address[]","name":"tokens","type":"address[]"},{"internalType":"enum TokenReceiver.AssetType[]","name":"assetTypes","type":"uint8[]"},{"internalType":"uint256[]","name":"amounts","type":"uint256[]"},{"internalType":"uint256[]","name":"tokenIds","type":"uint256[]"}],"internalType":"struct EchoeCampaignsV1.RewardAssetsParams","name":"assetsParams","type":"tuple"},{"components":[{"internalType":"uint256","name":"platform","type":"uint256"},{"internalType":"bytes32","name":"postId","type":"bytes32"},{"internalType":"uint256[]","name":"metricIds","type":"uint256[]"},{"internalType":"uint256[]","name":"values","type":"uint256[]"}],"internalType":"struct EchoeCampaignsV1.RewardMetricsParams","name":"metricsParams","type":"tuple"}],"internalType":"struct EchoeCampaignsV1.RewardParams[]","name":"params","type":"tuple[]"}],"name":"rewardParticipantBatch","outputs":[],"stateMutability":"nonpayable","type":"function"},{"inputs":[{"internalType":"address","name":"manager","type":"address"}],"name":"setBackendAdmin","outputs":[],"stateMutability":"nonpayable","type":"function"},{"inputs":[{"internalType":"string","name":"id","type":"string"},{"internalType":"bool","name":"published","type":"bool"}],"name":"setPublished","outputs":[],"stateMutability":"nonpayable","type":"function"},{"inputs":[{"internalType":"string","name":"id","type":"string"},{"internalType":"uint256","name":"startTime","type":"uint256"},{"internalType":"uint256","name":"endTime","type":"uint256"}],"name":"setTimeRange","outputs":[],"stateMutability":"nonpayable","type":"function"},{"inputs":[{"internalType":"bytes4","name":"interfaceId","type":"bytes4"}],"name":"supportsInterface","outputs":[{"internalType":"bool","name":"","type":"bool"}],"stateMutability":"view","type":"function"},{"inputs":[{"internalType":"address","name":"newOwner","type":"address"}],"name":"transferOwnership","outputs":[],"stateMutability":"nonpayable","type":"function"},{"inputs":[{"internalType":"string","name":"id","type":"string"},{"internalType":"address payable","name":"to","type":"address"},{"internalType":"address","name":"token","type":"address"},{"internalType":"enum TokenReceiver.AssetType","name":"assetType","type":"uint8"},{"internalType":"uint256","name":"amount","type":"uint256"},{"internalType":"uint256","name":"tokenId","type":"uint256"},{"internalType":"bytes","name":"data","type":"bytes"}],"name":"withdrawAsset","outputs":[],"stateMutability":"nonpayable","type":"function"},{"stateMutability":"payable","type":"receive"}],"devdoc":{"errors":{"EnforcedPause()":[{"details":"The operation failed because the contract is paused."}],"ExpectedPause()":[{"details":"The operation failed because the contract is not paused."}],"OwnableInvalidOwner(address)":[{"details":"The owner is not a valid owner account. (eg. `address(0)`)"}],"OwnableUnauthorizedAccount(address)":[{"details":"The caller account is not authorized to perform an operation."}]},"events":{"Paused(address)":{"details":"Emitted when the pause is triggered by `account`."},"Unpaused(address)":{"details":"Emitted when the pause is lifted by `account`."}},"kind":"dev","methods":{"acceptOwnership()":{"details":"The new owner accepts the ownership transfer."},"owner()":{"details":"Returns the address of the current owner."},"paused()":{"details":"Returns true if the contract is paused, and false otherwise."},"pendingOwner()":{"details":"Returns the address of the pending owner."},"renounceOwnership()":{"details":"Leaves the contract without owner. It will not be possible to call `onlyOwner` functions. Can only be called by the current owner. NOTE: Renouncing ownership will leave the contract without an owner, thereby disabling any functionality that is only available to the owner."},"supportsInterface(bytes4)":{"details":"Returns true if this contract implements the interface defined by `interfaceId`. See the corresponding https://eips.ethereum.org/EIPS/eip-165#how-interfaces-are-identified[EIP section] to learn more about how these ids are created. This function call must use less than 30 000 gas."},"transferOwnership(address)":{"details":"Starts the ownership transfer of the contract to a new account. Replaces the pending transfer if there is one. Can only be called by the current owner."}},"version":1},"evm":{"bytecode":{"linkReferences":{},"object":"608060405260006002553480156200001657600080fd5b5033600073ffffffffffffffffffffffffffffffffffffffff168173ffffffffffffffffffffffffffffffffffffffff16036200008d5760006040517f1e4fbdf700000000000000000000000000000000000000000000000000000000815260040162000084919062000243565b60405180910390fd5b6200009e816200010160201b60201c565b506000600160146101000a81548160ff02191690831515021790555033600560006101000a81548173ffffffffffffffffffffffffffffffffffffffff021916908373ffffffffffffffffffffffffffffffffffffffff16021790555062000260565b600160006101000a81549073ffffffffffffffffffffffffffffffffffffffff021916905562000137816200013a60201b60201c565b50565b60008060009054906101000a900473ffffffffffffffffffffffffffffffffffffffff169050816000806101000a81548173ffffffffffffffffffffffffffffffffffffffff021916908373ffffffffffffffffffffffffffffffffffffffff1602179055508173ffffffffffffffffffffffffffffffffffffffff168173ffffffffffffffffffffffffffffffffffffffff167f8be0079c531659141344cd1fd0a4f28419497f9722a3daafe3b4186f6b6457e060405160405180910390a35050565b600073ffffffffffffffffffffffffffffffffffffffff82169050919050565b60006200022b82620001fe565b9050919050565b6200023d816200021e565b82525050565b60006020820190506200025a600083018462000232565b92915050565b614cdd80620002706000396000f3fe6080604052600436106101bb5760003560e01c80638da5cb5b116100ec578063d070e40c1161008a578063f23a6e6111610064578063f23a6e6114610614578063f2fde38b14610651578063f623d3ae1461067a578063ffb1500e146106b7576101c2565b8063d070e40c14610595578063e30c3978146105c0578063e4d930bc146105eb576101c2565b8063a22376f9116100c6578063a22376f9146104dd578063bc197c8114610506578063be7c3be014610543578063c85bc54a1461056c576101c2565b80638da5cb5b1461044c5780639ee667d614610477578063a10885e7146104a0576101c2565b80634bb9344b116101595780635c975abb116101335780635c975abb146103ca5780635da8737a146103f5578063715018a61461041e57806379ba509714610435576101c2565b80634bb9344b1461034f57806350232e4d14610378578063576abbc6146103a1576101c2565b80631d39e509116101955780631d39e5091461027e5780633020580b146102c05780633432870d146102e957806341ba0d1914610312576101c2565b806301ffc9a7146101c75780630e6b57a114610204578063150b7a0214610241576101c2565b366101c257005b600080fd5b3480156101d357600080fd5b506101ee60048036038101906101e991906130db565b6106f4565b6040516101fb9190613123565b60405180910390f35b34801561021057600080fd5b5061022b600480360381019061022691906132e2565b61082e565b6040516102389190613357565b60405180910390f35b34801561024d57600080fd5b50610268600480360381019061026391906133fe565b61086f565b6040516102759190613495565b60405180910390f35b34801561028a57600080fd5b506102a560048036038101906102a091906134b0565b6108b3565b6040516102b796959493929190613508565b60405180910390f35b3480156102cc57600080fd5b506102e760048036038101906102e29190613569565b610932565b005b3480156102f557600080fd5b50610310600480360381019061030b9190613569565b610aae565b005b34801561031e57600080fd5b506103396004803603810190610334919061360e565b610ada565b6040516103469190613357565b60405180910390f35b34801561035b57600080fd5b506103766004803603810190610371919061368d565b610b0c565b005b34801561038457600080fd5b5061039f600480360381019061039a91906137ed565b610b36565b005b3480156103ad57600080fd5b506103c860048036038101906103c39190613d4e565b610b62565b005b3480156103d657600080fd5b506103df6110c5565b6040516103ec9190613123565b60405180910390f35b34801561040157600080fd5b5061041c60048036038101906104179190613dc6565b6110dc565b005b34801561042a57600080fd5b506104336111ad565b005b34801561044157600080fd5b5061044a6111c1565b005b34801561045857600080fd5b50610461611250565b60405161046e9190613edf565b60405180910390f35b34801561048357600080fd5b5061049e60048036038101906104999190613efa565b611279565b005b3480156104ac57600080fd5b506104c760048036038101906104c29190613fea565b6112c5565b6040516104d49190614133565b60405180910390f35b3480156104e957600080fd5b5061050460048036038101906104ff91906137ed565b611400565b005b34801561051257600080fd5b5061052d600480360381019061052891906141ab565b61150b565b60405161053a9190613495565b60405180910390f35b34801561054f57600080fd5b5061056a60048036038101906105659190614368565b611555565b005b34801561057857600080fd5b50610593600480360381019061058e919061368d565b611af2565b005b3480156105a157600080fd5b506105aa611b11565b6040516105b79190613edf565b60405180910390f35b3480156105cc57600080fd5b506105d5611b37565b6040516105e29190613edf565b60405180910390f35b3480156105f757600080fd5b50610612600480360381019061060d9190613569565b611b61565b005b34801561062057600080fd5b5061063b600480360381019061063691906143e0565b611b98565b6040516106489190613495565b60405180910390f35b34801561065d57600080fd5b5061067860048036038101906106739190613efa565b611bde565b005b34801561068657600080fd5b506106a1600480360381019061069c9190613fea565b611c8b565b6040516106ae9190614133565b60405180910390f35b3480156106c357600080fd5b506106de60048036038101906106d991906134b0565b611d89565b6040516106eb9190613357565b60405180910390f35b60007f4e2312e0000000000000000000000000000000000000000000000000000000007bffffffffffffffffffffffffffffffffffffffffffffffffffffffff1916827bffffffffffffffffffffffffffffffffffffffffffffffffffffffff191614806107bf57507f150b7a02000000000000000000000000000000000000000000000000000000007bffffffffffffffffffffffffffffffffffffffffffffffffffffffff1916827bffffffffffffffffffffffffffffffffffffffffffffffffffffffff1916145b8061082757507f01ffc9a7000000000000000000000000000000000000000000000000000000007bffffffffffffffffffffffffffffffffffffffffffffffffffffffff1916827bffffffffffffffffffffffffffffffffffffffffffffffffffffffff1916145b9050919050565b600782805160208101820180518482526020830160208501208183528095505050505050602052806000526040600020600091509150508060000154905081565b6000803390506000848481019061088691906134b0565b90506108928188611dbd565b61089e81888489611e74565b63150b7a0260e01b9250505095945050505050565b6006818051602081018201805184825260208301602085012081835280955050505050506000915090508060000160009054906101000a900473ffffffffffffffffffffffffffffffffffffffff16908060010154908060020154908060030154908060040154908060050160009054906101000a900460ff16905086565b61093a611f3f565b61094383611fd3565b60006040518060c001604052803373ffffffffffffffffffffffffffffffffffffffff168152602001848152602001838152602001428152602001600081526020016000151581525090508060068560405161099f91906144eb565b908152602001604051809103902060008201518160000160006101000a81548173ffffffffffffffffffffffffffffffffffffffff021916908373ffffffffffffffffffffffffffffffffffffffff1602179055506020820151816001015560408201518160020155606082015181600301556080820151816004015560a08201518160050160006101000a81548160ff0219169083151502179055509050503373ffffffffffffffffffffffffffffffffffffffff1684604051610a6491906144eb565b60405180910390207fc9cbd59ad20e09b20603bd6dac7574686a1bbcb19e138c78262e207ab4ec3f6685856000604051610aa093929190614502565b60405180910390a350505050565b610ab783612088565b610ac083611fd3565b610acb83838361213c565b610ad583426121d1565b505050565b600860205282600052604060002060205281600052604060002060205280600052604060002060009250925050505481565b610b1582612088565b610b1e82611fd3565b610b28828261223e565b610b3282426121d1565b5050565b610b3f87612088565b610b4887611fd3565b610b598787878787878760006122c0565b50505050505050565b610b6a611f3f565b610b7382611fd3565b610b7c8261249d565b610b8582612510565b60008160000151905060008260200151905060008360400151905060005b82602001515181101561101757600083602001518281518110610bc957610bc8614539565b5b60200260200101519050610bdc816125a4565b600084604001518381518110610bf557610bf4614539565b5b60200260200101519050600085606001518481518110610c1857610c17614539565b5b60200260200101519050600086600001518581518110610c3b57610c3a614539565b5b6020026020010151905060016004811115610c5957610c58614568565b5b846004811115610c6c57610c6b614568565b5b03610cf657610c7c8a8985612605565b8260078b604051610c8d91906144eb565b908152602001604051809103902060008a73ffffffffffffffffffffffffffffffffffffffff1673ffffffffffffffffffffffffffffffffffffffff1681526020019081526020016000206000016000828254610cea91906145c6565b92505081905550611006565b60026004811115610d0a57610d09614568565b5b846004811115610d1d57610d1c614568565b5b03610de557610d2e8a898386612765565b8260078b604051610d3f91906144eb565b908152602001604051809103902060008a73ffffffffffffffffffffffffffffffffffffffff1673ffffffffffffffffffffffffffffffffffffffff16815260200190815260200160002060010160008373ffffffffffffffffffffffffffffffffffffffff1673ffffffffffffffffffffffffffffffffffffffff1681526020019081526020016000206000828254610dd991906145c6565b92505081905550611005565b60036004811115610df957610df8614568565b5b846004811115610e0c57610e0b614568565b5b03610ef757610e2d8a8983856040518060200160405280600081525061290c565b600160078b604051610e3f91906144eb565b908152602001604051809103902060008a73ffffffffffffffffffffffffffffffffffffffff1673ffffffffffffffffffffffffffffffffffffffff16815260200190815260200160002060020160008373ffffffffffffffffffffffffffffffffffffffff1673ffffffffffffffffffffffffffffffffffffffff168152602001908152602001600020600084815260200190815260200160002060006101000a81548160ff021916908315150217905550611004565b600480811115610f0a57610f09614568565b5b846004811115610f1d57610f1c614568565b5b0361100357610f3f8a8983858760405180602001604052806000815250612ad4565b8260078b604051610f5091906144eb565b908152602001604051809103902060008a73ffffffffffffffffffffffffffffffffffffffff1673ffffffffffffffffffffffffffffffffffffffff16815260200190815260200160002060030160008373ffffffffffffffffffffffffffffffffffffffff1673ffffffffffffffffffffffffffffffffffffffff16815260200190815260200160002060008481526020019081526020016000206000828254610ffb91906145c6565b925050819055505b5b5b5b505050508080600101915050610ba3565b5060005b8160400151518110156110b3578160600151818151811061103f5761103e614539565b5b6020026020010151600860008460000151815260200190815260200160002060008460200151815260200190815260200160002060008460400151848151811061108c5761108b614539565b5b6020026020010151815260200190815260200160002081905550808060010191505061101b565b506110be8542612c92565b5050505050565b6000600160149054906101000a900460ff16905090565b6110e586612088565b6110ee86611fd3565b60005b845181101561118f57611182878787848151811061111257611111614539565b5b602002602001015187858151811061112d5761112c614539565b5b602002602001015187868151811061114857611147614539565b5b602002602001015187878151811061116357611162614539565b5b60200260200101516040518060200160405280600081525060006122c0565b80806001019150506110f1565b5061119b86600061223e565b6111a586426121d1565b505050505050565b6111b5612cff565b6111bf6000612d86565b565b60006111cb612db7565b90508073ffffffffffffffffffffffffffffffffffffffff166111ec611b37565b73ffffffffffffffffffffffffffffffffffffffff161461124457806040517f118cdaa700000000000000000000000000000000000000000000000000000000815260040161123b9190613edf565b60405180910390fd5b61124d81612d86565b50565b60008060009054906101000a900473ffffffffffffffffffffffffffffffffffffffff16905090565b611281611f3f565b80600560006101000a81548173ffffffffffffffffffffffffffffffffffffffff021916908373ffffffffffffffffffffffffffffffffffffffff16021790555050565b60606000835183516112d791906145fa565b67ffffffffffffffff8111156112f0576112ef613159565b5b60405190808252806020026020018201604052801561131e5781602001602082028036833780820191505090505b50905060005b84518110156113f45760005b84518110156113e65760086000888152602001908152602001600020600087848151811061136157611360614539565b5b60200260200101518152602001908152602001600020600086838151811061138c5761138b614539565b5b602002602001015181526020019081526020016000205483828751856113b291906145fa565b6113bc91906145c6565b815181106113cd576113cc614539565b5b6020026020010181815250508080600101915050611330565b508080600101915050611324565b50809150509392505050565b611408611f3f565b61141187611fd3565b600060068860405161142391906144eb565b90815260200160405180910390206004015460068960405161144591906144eb565b908152602001604051809103902060030154116114835760068860405161146c91906144eb565b9081526020016040518091039020600401546114a6565b60068860405161149391906144eb565b9081526020016040518091039020600301545b905062278d0081426114b8919061463c565b10156114f0576040517f363bd5fb00000000000000000000000000000000000000000000000000000000815260040160405180910390fd5b6115018888888888888860016122c0565b5050505050505050565b6000803390506000848481019061152291906134b0565b905061152e818b611dbd565b61153d818b848c8c8c8c612dbf565b63bc197c8160e01b9250505098975050505050505050565b61155d611f3f565b61156682611fd3565b61156f8261249d565b61157882612510565b60005b8151811015611ae357600082828151811061159957611598614539565b5b6020026020010151905060008160000151905060008260200151905060008360400151905060005b826020015151811015611a35576000836020015182815181106115e7576115e6614539565b5b602002602001015190506115fa816125a4565b60008460400151838151811061161357611612614539565b5b6020026020010151905060008560600151848151811061163657611635614539565b5b6020026020010151905060008660000151858151811061165957611658614539565b5b602002602001015190506001600481111561167757611676614568565b5b84600481111561168a57611689614568565b5b036117145761169a8c8985612605565b8260078d6040516116ab91906144eb565b908152602001604051809103902060008a73ffffffffffffffffffffffffffffffffffffffff1673ffffffffffffffffffffffffffffffffffffffff168152602001908152602001600020600001600082825461170891906145c6565b92505081905550611a24565b6002600481111561172857611727614568565b5b84600481111561173b5761173a614568565b5b036118035761174c8c898386612765565b8260078d60405161175d91906144eb565b908152602001604051809103902060008a73ffffffffffffffffffffffffffffffffffffffff1673ffffffffffffffffffffffffffffffffffffffff16815260200190815260200160002060010160008373ffffffffffffffffffffffffffffffffffffffff1673ffffffffffffffffffffffffffffffffffffffff16815260200190815260200160002060008282546117f791906145c6565b92505081905550611a23565b6003600481111561181757611816614568565b5b84600481111561182a57611829614568565b5b036119155761184b8c8983856040518060200160405280600081525061290c565b600160078d60405161185d91906144eb565b908152602001604051809103902060008a73ffffffffffffffffffffffffffffffffffffffff1673ffffffffffffffffffffffffffffffffffffffff16815260200190815260200160002060020160008373ffffffffffffffffffffffffffffffffffffffff1673ffffffffffffffffffffffffffffffffffffffff168152602001908152602001600020600084815260200190815260200160002060006101000a81548160ff021916908315150217905550611a22565b60048081111561192857611927614568565b5b84600481111561193b5761193a614568565b5b03611a215761195d8c8983858760405180602001604052806000815250612ad4565b8260078d60405161196e91906144eb565b908152602001604051809103902060008a73ffffffffffffffffffffffffffffffffffffffff1673ffffffffffffffffffffffffffffffffffffffff16815260200190815260200160002060030160008373ffffffffffffffffffffffffffffffffffffffff1673ffffffffffffffffffffffffffffffffffffffff16815260200190815260200160002060008481526020019081526020016000206000828254611a1991906145c6565b925050819055505b5b5b5b5050505080806001019150506115c1565b5060005b816040015151811015611ad15781606001518181518110611a5d57611a5c614539565b5b60200260200101516008600084600001518152602001908152602001600020600084602001518152602001908152602001600020600084604001518481518110611aaa57611aa9614539565b5b60200260200101518152602001908152602001600020819055508080600101915050611a39565b5050505050808060010191505061157b565b50611aee8242612c92565b5050565b611afa611f3f565b611b0382611fd3565b611b0d828261223e565b5050565b600560009054906101000a900473ffffffffffffffffffffffffffffffffffffffff1681565b6000600160009054906101000a900473ffffffffffffffffffffffffffffffffffffffff16905090565b611b6a83612088565b611b7383611fd3565b611b7e83600161223e565b611b8983838361213c565b611b9383426121d1565b505050565b60008033905060008484810190611baf91906134b0565b9050611bbb8189611dbd565b611bc88189848a8a612edf565b63f23a6e6160e01b925050509695505050505050565b611be6612cff565b80600160006101000a81548173ffffffffffffffffffffffffffffffffffffffff021916908373ffffffffffffffffffffffffffffffffffffffff1602179055508073ffffffffffffffffffffffffffffffffffffffff16611c46611250565b73ffffffffffffffffffffffffffffffffffffffff167f38d16b8cac22d99fc7c124b9cd0de2d3fa1faef420bfe791d8c362d765e2270060405160405180910390a350565b60606000825167ffffffffffffffff811115611caa57611ca9613159565b5b604051908082528060200260200182016040528015611cd85781602001602082028036833780820191505090505b50905060005b8351811015611d7d57600860008781526020019081526020016000206000868381518110611d0f57611d0e614539565b5b602002602001015181526020019081526020016000206000858381518110611d3a57611d39614539565b5b6020026020010151815260200190815260200160002054828281518110611d6457611d63614539565b5b6020026020010181815250508080600101915050611cde565b50809150509392505050565b6003818051602081018201805184825260208301602085012081835280955050505050506000915090508060000154905081565b600682604051611dcd91906144eb565b908152602001604051809103902060000160009054906101000a900473ffffffffffffffffffffffffffffffffffffffff1673ffffffffffffffffffffffffffffffffffffffff168173ffffffffffffffffffffffffffffffffffffffff1614611e705781816040517fcd54af23000000000000000000000000000000000000000000000000000000008152600401611e679291906146ba565b60405180910390fd5b5050565b6001600385604051611e8691906144eb565b908152602001604051809103902060020160008473ffffffffffffffffffffffffffffffffffffffff1673ffffffffffffffffffffffffffffffffffffffff168152602001908152602001600020600083815260200190815260200160002060006101000a81548160ff0219169083151502179055507fa7468a675f5f557513c8fee1e26907c243ca55066d2ff56c68e0b6ff9300046484848484604051611f3194939291906146ea565b60405180910390a150505050565b600560009054906101000a900473ffffffffffffffffffffffffffffffffffffffff1673ffffffffffffffffffffffffffffffffffffffff163373ffffffffffffffffffffffffffffffffffffffff1614611fd157336040517f2a19e833000000000000000000000000000000000000000000000000000000008152600401611fc89190613edf565b60405180910390fd5b565b600073ffffffffffffffffffffffffffffffffffffffff16600682604051611ffb91906144eb565b908152602001604051809103902060000160009054906101000a900473ffffffffffffffffffffffffffffffffffffffff1673ffffffffffffffffffffffffffffffffffffffff160361208557806040517f23a4ba7e00000000000000000000000000000000000000000000000000000000815260040161207c9190614736565b60405180910390fd5b50565b60068160405161209891906144eb565b908152602001604051809103902060000160009054906101000a900473ffffffffffffffffffffffffffffffffffffffff1673ffffffffffffffffffffffffffffffffffffffff163373ffffffffffffffffffffffffffffffffffffffff161461213957336040517fc66f47bf0000000000000000000000000000000000000000000000000000000081526004016121309190613edf565b60405180910390fd5b50565b8160068460405161214d91906144eb565b9081526020016040518091039020600101819055508060068460405161217391906144eb565b90815260200160405180910390206002018190555080828460405161219891906144eb565b60405180910390207f3973b951ce85d45a39e2b85e5963fd178b9ce7e759f2ba1a834d5e93665589a060405160405180910390a4505050565b806006836040516121e291906144eb565b908152602001604051809103902060030181905550808260405161220691906144eb565b60405180910390207f199f31de995d0fbe1f9f10cd2b9c868922da900555e9454609190ed5f2c1141660405160405180910390a35050565b8060068360405161224f91906144eb565b908152602001604051809103902060050160006101000a81548160ff0219169083151502179055508015158260405161228891906144eb565b60405180910390207f6388b74899382439caba398b6347a3098c6eb7a606f44238febe3b8480a37b5b60405160405180910390a35050565b600060048111156122d4576122d3614568565b5b8560048111156122e7576122e6614568565b5b0361231e576040517f55ef22c800000000000000000000000000000000000000000000000000000000815260040160405180910390fd5b6001600481111561233257612331614568565b5b85600481111561234557612344614568565b5b0361235a57612355888886612605565b612412565b6002600481111561236e5761236d614568565b5b85600481111561238157612380614568565b5b036123975761239288888887612765565b612411565b600360048111156123ab576123aa614568565b5b8560048111156123be576123bd614568565b5b036123d5576123d0888888868661290c565b612410565b6004808111156123e8576123e7614568565b5b8560048111156123fb576123fa614568565b5b0361240f5761240e888888868887612ad4565b5b5b5b5b8573ffffffffffffffffffffffffffffffffffffffff168773ffffffffffffffffffffffffffffffffffffffff168960405161244e91906144eb565b60405180910390207ffa3884a923856884f139854bdae5eb347bce07d756fdc025cb0c29731015ad7d8888888760405161248b94939291906147a0565b60405180910390a45050505050505050565b6006816040516124ad91906144eb565b908152602001604051809103902060050160009054906101000a900460ff1661250d57806040517f235ae10f0000000000000000000000000000000000000000000000000000000081526004016125049190614736565b60405180910390fd5b50565b60068160405161252091906144eb565b90815260200160405180910390206001015442108061255f575060068160405161254a91906144eb565b90815260200160405180910390206002015442115b156125a157806040517fa10f113e0000000000000000000000000000000000000000000000000000000081526004016125989190614736565b60405180910390fd5b50565b600060048111156125b8576125b7614568565b5b8160048111156125cb576125ca614568565b5b03612602576040517f55ef22c800000000000000000000000000000000000000000000000000000000815260040160405180910390fd5b50565b8060038460405161261691906144eb565b908152602001604051809103902060000154101561267557826001600080846040517f3ff3e6f200000000000000000000000000000000000000000000000000000000815260040161266c95949392919061482a565b60405180910390fd5b8060038460405161268691906144eb565b908152602001604051809103902060000160008282546126a6919061463c565b9250508190555060008273ffffffffffffffffffffffffffffffffffffffff16826040516126d3906148b5565b60006040518083038185875af1925050503d8060008114612710576040519150601f19603f3d011682016040523d82523d6000602084013e612715565b606091505b505090508061275f578383836040517f4b04c9d70000000000000000000000000000000000000000000000000000000081526004016127569392919061491f565b60405180910390fd5b50505050565b8060038560405161277691906144eb565b908152602001604051809103902060010160008473ffffffffffffffffffffffffffffffffffffffff1673ffffffffffffffffffffffffffffffffffffffff16815260200190815260200160002054101561281257836002836000846040517f3ff3e6f200000000000000000000000000000000000000000000000000000000815260040161280995949392919061482a565b60405180910390fd5b8060038560405161282391906144eb565b908152602001604051809103902060010160008473ffffffffffffffffffffffffffffffffffffffff1673ffffffffffffffffffffffffffffffffffffffff1681526020019081526020016000206000828254612880919061463c565b925050819055508173ffffffffffffffffffffffffffffffffffffffff1663a9059cbb84836040518363ffffffff1660e01b81526004016128c292919061495d565b6020604051808303816000875af11580156128e1573d6000803e3d6000fd5b505050506040513d601f19601f82011682018060405250810190612905919061499b565b5050505050565b60038560405161291c91906144eb565b908152602001604051809103902060020160008473ffffffffffffffffffffffffffffffffffffffff1673ffffffffffffffffffffffffffffffffffffffff168152602001908152602001600020600083815260200190815260200160002060009054906101000a900460ff166129d457846003848460006040517f3ff3e6f20000000000000000000000000000000000000000000000000000000081526004016129cb9594939291906149c8565b60405180910390fd5b60006003866040516129e691906144eb565b908152602001604051809103902060020160008573ffffffffffffffffffffffffffffffffffffffff1673ffffffffffffffffffffffffffffffffffffffff168152602001908152602001600020600084815260200190815260200160002060006101000a81548160ff0219169083151502179055508273ffffffffffffffffffffffffffffffffffffffff1663b88d4fde308685856040518563ffffffff1660e01b8152600401612a9b9493929190614a77565b600060405180830381600087803b158015612ab557600080fd5b505af1158015612ac9573d6000803e3d6000fd5b505050505050505050565b81600387604051612ae591906144eb565b908152602001604051809103902060030160008673ffffffffffffffffffffffffffffffffffffffff1673ffffffffffffffffffffffffffffffffffffffff1681526020019081526020016000206000858152602001908152602001600020541015612b91578560048585856040517f3ff3e6f2000000000000000000000000000000000000000000000000000000008152600401612b88959493929190614ac3565b60405180910390fd5b81600387604051612ba291906144eb565b908152602001604051809103902060030160008673ffffffffffffffffffffffffffffffffffffffff1673ffffffffffffffffffffffffffffffffffffffff16815260200190815260200160002060008581526020019081526020016000206000828254612c10919061463c565b925050819055508373ffffffffffffffffffffffffffffffffffffffff1663f242432a30878686866040518663ffffffff1660e01b8152600401612c58959493929190614b1d565b600060405180830381600087803b158015612c7257600080fd5b505af1158015612c86573d6000803e3d6000fd5b50505050505050505050565b80600683604051612ca391906144eb565b9081526020016040518091039020600401819055508082604051612cc791906144eb565b60405180910390207f67e6d887e552e672ec87c7dc6cea665a2acbdc4a5841556d69c713812e0b401560405160405180910390a35050565b612d07612db7565b73ffffffffffffffffffffffffffffffffffffffff16612d25611250565b73ffffffffffffffffffffffffffffffffffffffff1614612d8457612d48612db7565b6040517f118cdaa7000000000000000000000000000000000000000000000000000000008152600401612d7b9190613edf565b60405180910390fd5b565b600160006101000a81549073ffffffffffffffffffffffffffffffffffffffff0219169055612db481612fab565b50565b600033905090565b60005b84849050811015612e9257828282818110612de057612ddf614539565b5b90506020020135600389604051612df791906144eb565b908152602001604051809103902060030160008873ffffffffffffffffffffffffffffffffffffffff1673ffffffffffffffffffffffffffffffffffffffff1681526020019081526020016000206000878785818110612e5a57612e59614539565b5b9050602002013581526020019081526020016000206000828254612e7e91906145c6565b925050819055508080600101915050612dc2565b507f1e9b2f0b5318e95abeafb82b7cac3bb5eea75fef85b4d6d7bfc961ba8f244f4787878787878787604051612ece9796959493929190614be1565b60405180910390a150505050505050565b80600386604051612ef091906144eb565b908152602001604051809103902060030160008573ffffffffffffffffffffffffffffffffffffffff1673ffffffffffffffffffffffffffffffffffffffff16815260200190815260200160002060008481526020019081526020016000206000828254612f5e91906145c6565b925050819055507fbe7db84854dd3e0df069ac0a150da03c819444fa894e00bd5902b3cf8152b21d8585858585604051612f9c959493929190614c4d565b60405180910390a15050505050565b60008060009054906101000a900473ffffffffffffffffffffffffffffffffffffffff169050816000806101000a81548173ffffffffffffffffffffffffffffffffffffffff021916908373ffffffffffffffffffffffffffffffffffffffff1602179055508173ffffffffffffffffffffffffffffffffffffffff168173ffffffffffffffffffffffffffffffffffffffff167f8be0079c531659141344cd1fd0a4f28419497f9722a3daafe3b4186f6b6457e060405160405180910390a35050565b6000604051905090565b600080fd5b600080fd5b60007fffffffff0000000000000000000000000000000000000000000000000000000082169050919050565b6130b881613083565b81146130c357600080fd5b50565b6000813590506130d5816130af565b92915050565b6000602082840312156130f1576130f0613079565b5b60006130ff848285016130c6565b91505092915050565b60008115159050919050565b61311d81613108565b82525050565b60006020820190506131386000830184613114565b92915050565b600080fd5b600080fd5b6000601f19601f8301169050919050565b7f4e487b7100000000000000000000000000000000000000000000000000000000600052604160045260246000fd5b61319182613148565b810181811067ffffffffffffffff821117156131b0576131af613159565b5b80604052505050565b60006131c361306f565b90506131cf8282613188565b919050565b600067ffffffffffffffff8211156131ef576131ee613159565b5b6131f882613148565b9050602081019050919050565b82818337600083830152505050565b6000613227613222846131d4565b6131b9565b90508281526020810184848401111561324357613242613143565b5b61324e848285613205565b509392505050565b600082601f83011261326b5761326a61313e565b5b813561327b848260208601613214565b91505092915050565b600073ffffffffffffffffffffffffffffffffffffffff82169050919050565b60006132af82613284565b9050919050565b6132bf816132a4565b81146132ca57600080fd5b50565b6000813590506132dc816132b6565b92915050565b600080604083850312156132f9576132f8613079565b5b600083013567ffffffffffffffff8111156133175761331661307e565b5b61332385828601613256565b9250506020613334858286016132cd565b9150509250929050565b6000819050919050565b6133518161333e565b82525050565b600060208201905061336c6000830184613348565b92915050565b61337b8161333e565b811461338657600080fd5b50565b60008135905061339881613372565b92915050565b600080fd5b600080fd5b60008083601f8401126133be576133bd61313e565b5b8235905067ffffffffffffffff8111156133db576133da61339e565b5b6020830191508360018202830111156133f7576133f66133a3565b5b9250929050565b60008060008060006080868803121561341a57613419613079565b5b6000613428888289016132cd565b9550506020613439888289016132cd565b945050604061344a88828901613389565b935050606086013567ffffffffffffffff81111561346b5761346a61307e565b5b613477888289016133a8565b92509250509295509295909350565b61348f81613083565b82525050565b60006020820190506134aa6000830184613486565b92915050565b6000602082840312156134c6576134c5613079565b5b600082013567ffffffffffffffff8111156134e4576134e361307e565b5b6134f084828501613256565b91505092915050565b613502816132a4565b82525050565b600060c08201905061351d60008301896134f9565b61352a6020830188613348565b6135376040830187613348565b6135446060830186613348565b6135516080830185613348565b61355e60a0830184613114565b979650505050505050565b60008060006060848603121561358257613581613079565b5b600084013567ffffffffffffffff8111156135a05761359f61307e565b5b6135ac86828701613256565b93505060206135bd86828701613389565b92505060406135ce86828701613389565b9150509250925092565b6000819050919050565b6135eb816135d8565b81146135f657600080fd5b50565b600081359050613608816135e2565b92915050565b60008060006060848603121561362757613626613079565b5b600061363586828701613389565b9350506020613646868287016135f9565b925050604061365786828701613389565b9150509250925092565b61366a81613108565b811461367557600080fd5b50565b60008135905061368781613661565b92915050565b600080604083850312156136a4576136a3613079565b5b600083013567ffffffffffffffff8111156136c2576136c161307e565b5b6136ce85828601613256565b92505060206136df85828601613678565b9150509250929050565b60006136f482613284565b9050919050565b613704816136e9565b811461370f57600080fd5b50565b600081359050613721816136fb565b92915050565b6005811061373457600080fd5b50565b60008135905061374681613727565b92915050565b600067ffffffffffffffff82111561376757613766613159565b5b61377082613148565b9050602081019050919050565b600061379061378b8461374c565b6131b9565b9050828152602081018484840111156137ac576137ab613143565b5b6137b7848285613205565b509392505050565b600082601f8301126137d4576137d361313e565b5b81356137e484826020860161377d565b91505092915050565b600080600080600080600060e0888a03121561380c5761380b613079565b5b600088013567ffffffffffffffff81111561382a5761382961307e565b5b6138368a828b01613256565b97505060206138478a828b01613712565b96505060406138588a828b016132cd565b95505060606138698a828b01613737565b945050608061387a8a828b01613389565b93505060a061388b8a828b01613389565b92505060c088013567ffffffffffffffff8111156138ac576138ab61307e565b5b6138b88a828b016137bf565b91505092959891949750929550565b600080fd5b600080fd5b600067ffffffffffffffff8211156138ec576138eb613159565b5b602082029050602081019050919050565b600061391061390b846138d1565b6131b9565b90508083825260208201905060208402830185811115613933576139326133a3565b5b835b8181101561395c578061394888826132cd565b845260208401935050602081019050613935565b5050509392505050565b600082601f83011261397b5761397a61313e565b5b813561398b8482602086016138fd565b91505092915050565b600067ffffffffffffffff8211156139af576139ae613159565b5b602082029050602081019050919050565b60006139d36139ce84613994565b6131b9565b905080838252602082019050602084028301858111156139f6576139f56133a3565b5b835b81811015613a1f5780613a0b8882613737565b8452602084019350506020810190506139f8565b5050509392505050565b600082601f830112613a3e57613a3d61313e565b5b8135613a4e8482602086016139c0565b91505092915050565b600067ffffffffffffffff821115613a7257613a71613159565b5b602082029050602081019050919050565b6000613a96613a9184613a57565b6131b9565b90508083825260208201905060208402830185811115613ab957613ab86133a3565b5b835b81811015613ae25780613ace8882613389565b845260208401935050602081019050613abb565b5050509392505050565b600082601f830112613b0157613b0061313e565b5b8135613b11848260208601613a83565b91505092915050565b600060808284031215613b3057613b2f6138c7565b5b613b3a60806131b9565b9050600082013567ffffffffffffffff811115613b5a57613b596138cc565b5b613b6684828501613966565b600083015250602082013567ffffffffffffffff811115613b8a57613b896138cc565b5b613b9684828501613a29565b602083015250604082013567ffffffffffffffff811115613bba57613bb96138cc565b5b613bc684828501613aec565b604083015250606082013567ffffffffffffffff811115613bea57613be96138cc565b5b613bf684828501613aec565b60608301525092915050565b600060808284031215613c1857613c176138c7565b5b613c2260806131b9565b90506000613c3284828501613389565b6000830152506020613c46848285016135f9565b602083015250604082013567ffffffffffffffff811115613c6a57613c696138cc565b5b613c7684828501613aec565b604083015250606082013567ffffffffffffffff811115613c9a57613c996138cc565b5b613ca684828501613aec565b60608301525092915050565b600060608284031215613cc857613cc76138c7565b5b613cd260606131b9565b90506000613ce284828501613712565b600083015250602082013567ffffffffffffffff811115613d0657613d056138cc565b5b613d1284828501613b1a565b602083015250604082013567ffffffffffffffff811115613d3657613d356138cc565b5b613d4284828501613c02565b60408301525092915050565b60008060408385031215613d6557613d64613079565b5b600083013567ffffffffffffffff811115613d8357613d8261307e565b5b613d8f85828601613256565b925050602083013567ffffffffffffffff811115613db057613daf61307e565b5b613dbc85828601613cb2565b9150509250929050565b60008060008060008060c08789031215613de357613de2613079565b5b600087013567ffffffffffffffff811115613e0157613e0061307e565b5b613e0d89828a01613256565b9650506020613e1e89828a01613712565b955050604087013567ffffffffffffffff811115613e3f57613e3e61307e565b5b613e4b89828a01613966565b945050606087013567ffffffffffffffff811115613e6c57613e6b61307e565b5b613e7889828a01613a29565b935050608087013567ffffffffffffffff811115613e9957613e9861307e565b5b613ea589828a01613aec565b92505060a087013567ffffffffffffffff811115613ec657613ec561307e565b5b613ed289828a01613aec565b9150509295509295509295565b6000602082019050613ef460008301846134f9565b92915050565b600060208284031215613f1057613f0f613079565b5b6000613f1e848285016132cd565b91505092915050565b600067ffffffffffffffff821115613f4257613f41613159565b5b602082029050602081019050919050565b6000613f66613f6184613f27565b6131b9565b90508083825260208201905060208402830185811115613f8957613f886133a3565b5b835b81811015613fb25780613f9e88826135f9565b845260208401935050602081019050613f8b565b5050509392505050565b600082601f830112613fd157613fd061313e565b5b8135613fe1848260208601613f53565b91505092915050565b60008060006060848603121561400357614002613079565b5b600061401186828701613389565b935050602084013567ffffffffffffffff8111156140325761403161307e565b5b61403e86828701613fbc565b925050604084013567ffffffffffffffff81111561405f5761405e61307e565b5b61406b86828701613aec565b9150509250925092565b600081519050919050565b600082825260208201905092915050565b6000819050602082019050919050565b6140aa8161333e565b82525050565b60006140bc83836140a1565b60208301905092915050565b6000602082019050919050565b60006140e082614075565b6140ea8185614080565b93506140f583614091565b8060005b8381101561412657815161410d88826140b0565b9750614118836140c8565b9250506001810190506140f9565b5085935050505092915050565b6000602082019050818103600083015261414d81846140d5565b905092915050565b60008083601f84011261416b5761416a61313e565b5b8235905067ffffffffffffffff8111156141885761418761339e565b5b6020830191508360208202830111156141a4576141a36133a3565b5b9250929050565b60008060008060008060008060a0898b0312156141cb576141ca613079565b5b60006141d98b828c016132cd565b98505060206141ea8b828c016132cd565b975050604089013567ffffffffffffffff81111561420b5761420a61307e565b5b6142178b828c01614155565b9650965050606089013567ffffffffffffffff81111561423a5761423961307e565b5b6142468b828c01614155565b9450945050608089013567ffffffffffffffff8111156142695761426861307e565b5b6142758b828c016133a8565b92509250509295985092959890939650565b600067ffffffffffffffff8211156142a2576142a1613159565b5b602082029050602081019050919050565b60006142c66142c184614287565b6131b9565b905080838252602082019050602084028301858111156142e9576142e86133a3565b5b835b8181101561433057803567ffffffffffffffff81111561430e5761430d61313e565b5b80860161431b8982613cb2565b855260208501945050506020810190506142eb565b5050509392505050565b600082601f83011261434f5761434e61313e565b5b813561435f8482602086016142b3565b91505092915050565b6000806040838503121561437f5761437e613079565b5b600083013567ffffffffffffffff81111561439d5761439c61307e565b5b6143a985828601613256565b925050602083013567ffffffffffffffff8111156143ca576143c961307e565b5b6143d68582860161433a565b9150509250929050565b60008060008060008060a087890312156143fd576143fc613079565b5b600061440b89828a016132cd565b965050602061441c89828a016132cd565b955050604061442d89828a01613389565b945050606061443e89828a01613389565b935050608087013567ffffffffffffffff81111561445f5761445e61307e565b5b61446b89828a016133a8565b92509250509295509295509295565b600081519050919050565b600081905092915050565b60005b838110156144ae578082015181840152602081019050614493565b60008484015250505050565b60006144c58261447a565b6144cf8185614485565b93506144df818560208601614490565b80840191505092915050565b60006144f782846144ba565b915081905092915050565b60006060820190506145176000830186613348565b6145246020830185613348565b6145316040830184613114565b949350505050565b7f4e487b7100000000000000000000000000000000000000000000000000000000600052603260045260246000fd5b7f4e487b7100000000000000000000000000000000000000000000000000000000600052602160045260246000fd5b7f4e487b7100000000000000000000000000000000000000000000000000000000600052601160045260246000fd5b60006145d18261333e565b91506145dc8361333e565b92508282019050808211156145f4576145f3614597565b5b92915050565b60006146058261333e565b91506146108361333e565b925082820261461e8161333e565b9150828204841483151761463557614634614597565b5b5092915050565b60006146478261333e565b91506146528361333e565b925082820390508181111561466a57614669614597565b5b92915050565b600082825260208201905092915050565b600061468c8261447a565b6146968185614670565b93506146a6818560208601614490565b6146af81613148565b840191505092915050565b600060408201905081810360008301526146d48185614681565b90506146e360208301846134f9565b9392505050565b600060808201905081810360008301526147048187614681565b905061471360208301866134f9565b61472060408301856134f9565b61472d6060830184613348565b95945050505050565b600060208201905081810360008301526147508184614681565b905092915050565b6005811061476957614768614568565b5b50565b600081905061477a82614758565b919050565b600061478a8261476c565b9050919050565b61479a8161477f565b82525050565b60006080820190506147b56000830187614791565b6147c26020830186613348565b6147cf6040830185613348565b6147dc6060830184613114565b95945050505050565b6000819050919050565b6000819050919050565b600061481461480f61480a846147e5565b6147ef565b61333e565b9050919050565b614824816147f9565b82525050565b600060a08201905081810360008301526148448188614681565b90506148536020830187614791565b61486060408301866134f9565b61486d606083018561481b565b61487a6080830184613348565b9695505050505050565b600081905092915050565b50565b600061489f600083614884565b91506148aa8261488f565b600082019050919050565b60006148c082614892565b9150819050919050565b60006148e56148e06148db84613284565b6147ef565b613284565b9050919050565b60006148f7826148ca565b9050919050565b6000614909826148ec565b9050919050565b614919816148fe565b82525050565b600060608201905081810360008301526149398186614681565b90506149486020830185614910565b6149556040830184613348565b949350505050565b600060408201905061497260008301856134f9565b61497f6020830184613348565b9392505050565b60008151905061499581613661565b92915050565b6000602082840312156149b1576149b0613079565b5b60006149bf84828501614986565b91505092915050565b600060a08201905081810360008301526149e28188614681565b90506149f16020830187614791565b6149fe60408301866134f9565b614a0b6060830185613348565b614a18608083018461481b565b9695505050505050565b600081519050919050565b600082825260208201905092915050565b6000614a4982614a22565b614a538185614a2d565b9350614a63818560208601614490565b614a6c81613148565b840191505092915050565b6000608082019050614a8c60008301876134f9565b614a9960208301866134f9565b614aa66040830185613348565b8181036060830152614ab88184614a3e565b905095945050505050565b600060a0820190508181036000830152614add8188614681565b9050614aec6020830187614791565b614af960408301866134f9565b614b066060830185613348565b614b136080830184613348565b9695505050505050565b600060a082019050614b3260008301886134f9565b614b3f60208301876134f9565b614b4c6040830186613348565b614b596060830185613348565b8181036080830152614b6b8184614a3e565b90509695505050505050565b600080fd5b82818337505050565b6000614b918385614080565b93507f07ffffffffffffffffffffffffffffffffffffffffffffffffffffffffffffff831115614bc457614bc3614b77565b5b602083029250614bd5838584614b7c565b82840190509392505050565b600060a0820190508181036000830152614bfb818a614681565b9050614c0a60208301896134f9565b614c1760408301886134f9565b8181036060830152614c2a818688614b85565b90508181036080830152614c3f818486614b85565b905098975050505050505050565b600060a0820190508181036000830152614c678188614681565b9050614c7660208301876134f9565b614c8360408301866134f9565b614c906060830185613348565b614c9d6080830184613348565b969550505050505056fea26469706673582212205f4d1ad088240e2584f276852586fe17eacb54514f66c11a415c39450dca245e64736f6c63430008180033","opcodes":"PUSH1 0x80 PUSH1 0x40 MSTORE PUSH1 0x0 PUSH1 0x2 SSTORE CALLVALUE DUP1 ISZERO PUSH3 0x16 JUMPI PUSH1 0x0 DUP1 REVERT JUMPDEST POP CALLER PUSH1 0x0 PUSH20 0xFFFFFFFFFFFFFFFFFFFFFFFFFFFFFFFFFFFFFFFF AND DUP2 PUSH20 0xFFFFFFFFFFFFFFFFFFFFFFFFFFFFFFFFFFFFFFFF AND SUB PUSH3 0x8D JUMPI PUSH1 0x0 PUSH1 0x40 MLOAD PUSH32 0x1E4FBDF700000000000000000000000000000000000000000000000000000000 DUP2 MSTORE PUSH1 0x4 ADD PUSH3 0x84 SWAP2 SWAP1 PUSH3 0x243 JUMP JUMPDEST PUSH1 0x40 MLOAD DUP1 SWAP2 SUB SWAP1 REVERT JUMPDEST PUSH3 0x9E DUP2 PUSH3 0x101 PUSH1 0x20 SHL PUSH1 0x20 SHR JUMP JUMPDEST POP PUSH1 0x0 PUSH1 0x1 PUSH1 0x14 PUSH2 0x100 EXP DUP2 SLOAD DUP2 PUSH1 0xFF MUL NOT AND SWAP1 DUP4 ISZERO ISZERO MUL OR SWAP1 SSTORE POP CALLER PUSH1 0x5 PUSH1 0x0 PUSH2 0x100 EXP DUP2 SLOAD DUP2 PUSH20 0xFFFFFFFFFFFFFFFFFFFFFFFFFFFFFFFFFFFFFFFF MUL NOT AND SWAP1 DUP4 PUSH20 0xFFFFFFFFFFFFFFFFFFFFFFFFFFFFFFFFFFFFFFFF AND MUL OR SWAP1 SSTORE POP PUSH3 0x260 JUMP JUMPDEST PUSH1 0x1 PUSH1 0x0 PUSH2 0x100 EXP DUP2 SLOAD SWAP1 PUSH20 0xFFFFFFFFFFFFFFFFFFFFFFFFFFFFFFFFFFFFFFFF MUL NOT AND SWAP1 SSTORE PUSH3 0x137 DUP2 PUSH3 0x13A PUSH1 0x20 SHL PUSH1 0x20 SHR JUMP JUMPDEST POP JUMP JUMPDEST PUSH1 0x0 DUP1 PUSH1 0x0 SWAP1 SLOAD SWAP1 PUSH2 0x100 EXP SWAP1 DIV PUSH20 0xFFFFFFFFFFFFFFFFFFFFFFFFFFFFFFFFFFFFFFFF AND SWAP1 POP DUP2 PUSH1 0x0 DUP1 PUSH2 0x100 EXP DUP2 SLOAD DUP2 PUSH20 0xFFFFFFFFFFFFFFFFFFFFFFFFFFFFFFFFFFFFFFFF MUL NOT AND SWAP1 DUP4 PUSH20 0xFFFFFFFFFFFFFFFFFFFFFFFFFFFFFFFFFFFFFFFF AND MUL OR SWAP1 SSTORE POP DUP2 PUSH20 0xFFFFFFFFFFFFFFFFFFFFFFFFFFFFFFFFFFFFFFFF AND DUP2 PUSH20 0xFFFFFFFFFFFFFFFFFFFFFFFFFFFFFFFFFFFFFFFF AND PUSH32 0x8BE0079C531659141344CD1FD0A4F28419497F9722A3DAAFE3B4186F6B6457E0 PUSH1 0x40 MLOAD PUSH1 0x40 MLOAD DUP1 SWAP2 SUB SWAP1 LOG3 POP POP JUMP JUMPDEST PUSH1 0x0 PUSH20 0xFFFFFFFFFFFFFFFFFFFFFFFFFFFFFFFFFFFFFFFF DUP3 AND SWAP1 POP SWAP2 SWAP1 POP JUMP JUMPDEST PUSH1 0x0 PUSH3 0x22B DUP3 PUSH3 0x1FE JUMP JUMPDEST SWAP1 POP SWAP2 SWAP1 POP JUMP JUMPDEST PUSH3 0x23D DUP2 PUSH3 0x21E JUMP JUMPDEST DUP3 MSTORE POP POP JUMP JUMPDEST PUSH1 0x0 PUSH1 0x20 DUP3 ADD SWAP1 POP PUSH3 0x25A PUSH1 0x0 DUP4 ADD DUP5 PUSH3 0x232 JUMP JUMPDEST SWAP3 SWAP2 POP POP JUMP JUMPDEST PUSH2 0x4CDD DUP1 PUSH3 0x270 PUSH1 0x0 CODECOPY PUSH1 0x0 RETURN INVALID PUSH1 0x80 PUSH1 0x40 MSTORE PUSH1 0x4 CALLDATASIZE LT PUSH2 0x1BB JUMPI PUSH1 0x0 CALLDATALOAD PUSH1 0xE0 SHR DUP1 PUSH4 0x8DA5CB5B GT PUSH2 0xEC JUMPI DUP1 PUSH4 0xD070E40C GT PUSH2 0x8A JUMPI DUP1 PUSH4 0xF23A6E61 GT PUSH2 0x64 JUMPI DUP1 PUSH4 0xF23A6E61 EQ PUSH2 0x614 JUMPI DUP1 PUSH4 0xF2FDE38B EQ PUSH2 0x651 JUMPI DUP1 PUSH4 0xF623D3AE EQ PUSH2 0x67A JUMPI DUP1 PUSH4 0xFFB1500E EQ PUSH2 0x6B7 JUMPI PUSH2 0x1C2 JUMP JUMPDEST DUP1 PUSH4 0xD070E40C EQ PUSH2 0x595 JUMPI DUP1 PUSH4 0xE30C3978 EQ PUSH2 0x5C0 JUMPI DUP1 PUSH4 0xE4D930BC EQ PUSH2 0x5EB JUMPI PUSH2 0x1C2 JUMP JUMPDEST DUP1 PUSH4 0xA22376F9 GT PUSH2 0xC6 JUMPI DUP1 PUSH4 0xA22376F9 EQ PUSH2 0x4DD JUMPI DUP1 PUSH4 0xBC197C81 EQ PUSH2 0x506 JUMPI DUP1 PUSH4 0xBE7C3BE0 EQ PUSH2 0x543 JUMPI DUP1 PUSH4 0xC85BC54A EQ PUSH2 0x56C JUMPI PUSH2 0x1C2 JUMP JUMPDEST DUP1 PUSH4 0x8DA5CB5B EQ PUSH2 0x44C JUMPI DUP1 PUSH4 0x9EE667D6 EQ PUSH2 0x477 JUMPI DUP1 PUSH4 0xA10885E7 EQ PUSH2 0x4A0 JUMPI PUSH2 0x1C2 JUMP JUMPDEST DUP1 PUSH4 0x4BB9344B GT PUSH2 0x159 JUMPI DUP1 PUSH4 0x5C975ABB GT PUSH2 0x133 JUMPI DUP1 PUSH4 0x5C975ABB EQ PUSH2 0x3CA JUMPI DUP1 PUSH4 0x5DA8737A EQ PUSH2 0x3F5 JUMPI DUP1 PUSH4 0x715018A6 EQ PUSH2 0x41E JUMPI DUP1 PUSH4 0x79BA5097 EQ PUSH2 0x435 JUMPI PUSH2 0x1C2 JUMP JUMPDEST DUP1 PUSH4 0x4BB9344B EQ PUSH2 0x34F JUMPI DUP1 PUSH4 0x50232E4D EQ PUSH2 0x378 JUMPI DUP1 PUSH4 0x576ABBC6 EQ PUSH2 0x3A1 JUMPI PUSH2 0x1C2 JUMP JUMPDEST DUP1 PUSH4 0x1D39E509 GT PUSH2 0x195 JUMPI DUP1 PUSH4 0x1D39E509 EQ PUSH2 0x27E JUMPI DUP1 PUSH4 0x3020580B EQ PUSH2 0x2C0 JUMPI DUP1 PUSH4 0x3432870D EQ PUSH2 0x2E9 JUMPI DUP1 PUSH4 0x41BA0D19 EQ PUSH2 0x312 JUMPI PUSH2 0x1C2 JUMP JUMPDEST DUP1 PUSH4 0x1FFC9A7 EQ PUSH2 0x1C7 JUMPI DUP1 PUSH4 0xE6B57A1 EQ PUSH2 0x204 JUMPI DUP1 PUSH4 0x150B7A02 EQ PUSH2 0x241 JUMPI PUSH2 0x1C2 JUMP JUMPDEST CALLDATASIZE PUSH2 0x1C2 JUMPI STOP JUMPDEST PUSH1 0x0 DUP1 REVERT JUMPDEST CALLVALUE DUP1 ISZERO PUSH2 0x1D3 JUMPI PUSH1 0x0 DUP1 REVERT JUMPDEST POP PUSH2 0x1EE PUSH1 0x4 DUP1 CALLDATASIZE SUB DUP2 ADD SWAP1 PUSH2 0x1E9 SWAP2 SWAP1 PUSH2 0x30DB JUMP JUMPDEST PUSH2 0x6F4 JUMP JUMPDEST PUSH1 0x40 MLOAD PUSH2 0x1FB SWAP2 SWAP1 PUSH2 0x3123 JUMP JUMPDEST PUSH1 0x40 MLOAD DUP1 SWAP2 SUB SWAP1 RETURN JUMPDEST CALLVALUE DUP1 ISZERO PUSH2 0x210 JUMPI PUSH1 0x0 DUP1 REVERT JUMPDEST POP PUSH2 0x22B PUSH1 0x4 DUP1 CALLDATASIZE SUB DUP2 ADD SWAP1 PUSH2 0x226 SWAP2 SWAP1 PUSH2 0x32E2 JUMP JUMPDEST PUSH2 0x82E JUMP JUMPDEST PUSH1 0x40 MLOAD PUSH2 0x238 SWAP2 SWAP1 PUSH2 0x3357 JUMP JUMPDEST PUSH1 0x40 MLOAD DUP1 SWAP2 SUB SWAP1 RETURN JUMPDEST CALLVALUE DUP1 ISZERO PUSH2 0x24D JUMPI PUSH1 0x0 DUP1 REVERT JUMPDEST POP PUSH2 0x268 PUSH1 0x4 DUP1 CALLDATASIZE SUB DUP2 ADD SWAP1 PUSH2 0x263 SWAP2 SWAP1 PUSH2 0x33FE JUMP JUMPDEST PUSH2 0x86F JUMP JUMPDEST PUSH1 0x40 MLOAD PUSH2 0x275 SWAP2 SWAP1 PUSH2 0x3495 JUMP JUMPDEST PUSH1 0x40 MLOAD DUP1 SWAP2 SUB SWAP1 RETURN JUMPDEST CALLVALUE DUP1 ISZERO PUSH2 0x28A JUMPI PUSH1 0x0 DUP1 REVERT JUMPDEST POP PUSH2 0x2A5 PUSH1 0x4 DUP1 CALLDATASIZE SUB DUP2 ADD SWAP1 PUSH2 0x2A0 SWAP2 SWAP1 PUSH2 0x34B0 JUMP JUMPDEST PUSH2 0x8B3 JUMP JUMPDEST PUSH1 0x40 MLOAD PUSH2 0x2B7 SWAP7 SWAP6 SWAP5 SWAP4 SWAP3 SWAP2 SWAP1 PUSH2 0x3508 JUMP JUMPDEST PUSH1 0x40 MLOAD DUP1 SWAP2 SUB SWAP1 RETURN JUMPDEST CALLVALUE DUP1 ISZERO PUSH2 0x2CC JUMPI PUSH1 0x0 DUP1 REVERT JUMPDEST POP PUSH2 0x2E7 PUSH1 0x4 DUP1 CALLDATASIZE SUB DUP2 ADD SWAP1 PUSH2 0x2E2 SWAP2 SWAP1 PUSH2 0x3569 JUMP JUMPDEST PUSH2 0x932 JUMP JUMPDEST STOP JUMPDEST CALLVALUE DUP1 ISZERO PUSH2 0x2F5 JUMPI PUSH1 0x0 DUP1 REVERT JUMPDEST POP PUSH2 0x310 PUSH1 0x4 DUP1 CALLDATASIZE SUB DUP2 ADD SWAP1 PUSH2 0x30B SWAP2 SWAP1 PUSH2 0x3569 JUMP JUMPDEST PUSH2 0xAAE JUMP JUMPDEST STOP JUMPDEST CALLVALUE DUP1 ISZERO PUSH2 0x31E JUMPI PUSH1 0x0 DUP1 REVERT JUMPDEST POP PUSH2 0x339 PUSH1 0x4 DUP1 CALLDATASIZE SUB DUP2 ADD SWAP1 PUSH2 0x334 SWAP2 SWAP1 PUSH2 0x360E JUMP JUMPDEST PUSH2 0xADA JUMP JUMPDEST PUSH1 0x40 MLOAD PUSH2 0x346 SWAP2 SWAP1 PUSH2 0x3357 JUMP JUMPDEST PUSH1 0x40 MLOAD DUP1 SWAP2 SUB SWAP1 RETURN JUMPDEST CALLVALUE DUP1 ISZERO PUSH2 0x35B JUMPI PUSH1 0x0 DUP1 REVERT JUMPDEST POP PUSH2 0x376 PUSH1 0x4 DUP1 CALLDATASIZE SUB DUP2 ADD SWAP1 PUSH2 0x371 SWAP2 SWAP1 PUSH2 0x368D JUMP JUMPDEST PUSH2 0xB0C JUMP JUMPDEST STOP JUMPDEST CALLVALUE DUP1 ISZERO PUSH2 0x384 JUMPI PUSH1 0x0 DUP1 REVERT JUMPDEST POP PUSH2 0x39F PUSH1 0x4 DUP1 CALLDATASIZE SUB DUP2 ADD SWAP1 PUSH2 0x39A SWAP2 SWAP1 PUSH2 0x37ED JUMP JUMPDEST PUSH2 0xB36 JUMP JUMPDEST STOP JUMPDEST CALLVALUE DUP1 ISZERO PUSH2 0x3AD JUMPI PUSH1 0x0 DUP1 REVERT JUMPDEST POP PUSH2 0x3C8 PUSH1 0x4 DUP1 CALLDATASIZE SUB DUP2 ADD SWAP1 PUSH2 0x3C3 SWAP2 SWAP1 PUSH2 0x3D4E JUMP JUMPDEST PUSH2 0xB62 JUMP JUMPDEST STOP JUMPDEST CALLVALUE DUP1 ISZERO PUSH2 0x3D6 JUMPI PUSH1 0x0 DUP1 REVERT JUMPDEST POP PUSH2 0x3DF PUSH2 0x10C5 JUMP JUMPDEST PUSH1 0x40 MLOAD PUSH2 0x3EC SWAP2 SWAP1 PUSH2 0x3123 JUMP JUMPDEST PUSH1 0x40 MLOAD DUP1 SWAP2 SUB SWAP1 RETURN JUMPDEST CALLVALUE DUP1 ISZERO PUSH2 0x401 JUMPI PUSH1 0x0 DUP1 REVERT JUMPDEST POP PUSH2 0x41C PUSH1 0x4 DUP1 CALLDATASIZE SUB DUP2 ADD SWAP1 PUSH2 0x417 SWAP2 SWAP1 PUSH2 0x3DC6 JUMP JUMPDEST PUSH2 0x10DC JUMP JUMPDEST STOP JUMPDEST CALLVALUE DUP1 ISZERO PUSH2 0x42A JUMPI PUSH1 0x0 DUP1 REVERT JUMPDEST POP PUSH2 0x433 PUSH2 0x11AD JUMP JUMPDEST STOP JUMPDEST CALLVALUE DUP1 ISZERO PUSH2 0x441 JUMPI PUSH1 0x0 DUP1 REVERT JUMPDEST POP PUSH2 0x44A PUSH2 0x11C1 JUMP JUMPDEST STOP JUMPDEST CALLVALUE DUP1 ISZERO PUSH2 0x458 JUMPI PUSH1 0x0 DUP1 REVERT JUMPDEST POP PUSH2 0x461 PUSH2 0x1250 JUMP JUMPDEST PUSH1 0x40 MLOAD PUSH2 0x46E SWAP2 SWAP1 PUSH2 0x3EDF JUMP JUMPDEST PUSH1 0x40 MLOAD DUP1 SWAP2 SUB SWAP1 RETURN JUMPDEST CALLVALUE DUP1 ISZERO PUSH2 0x483 JUMPI PUSH1 0x0 DUP1 REVERT JUMPDEST POP PUSH2 0x49E PUSH1 0x4 DUP1 CALLDATASIZE SUB DUP2 ADD SWAP1 PUSH2 0x499 SWAP2 SWAP1 PUSH2 0x3EFA JUMP JUMPDEST PUSH2 0x1279 JUMP JUMPDEST STOP JUMPDEST CALLVALUE DUP1 ISZERO PUSH2 0x4AC JUMPI PUSH1 0x0 DUP1 REVERT JUMPDEST POP PUSH2 0x4C7 PUSH1 0x4 DUP1 CALLDATASIZE SUB DUP2 ADD SWAP1 PUSH2 0x4C2 SWAP2 SWAP1 PUSH2 0x3FEA JUMP JUMPDEST PUSH2 0x12C5 JUMP JUMPDEST PUSH1 0x40 MLOAD PUSH2 0x4D4 SWAP2 SWAP1 PUSH2 0x4133 JUMP JUMPDEST PUSH1 0x40 MLOAD DUP1 SWAP2 SUB SWAP1 RETURN JUMPDEST CALLVALUE DUP1 ISZERO PUSH2 0x4E9 JUMPI PUSH1 0x0 DUP1 REVERT JUMPDEST POP PUSH2 0x504 PUSH1 0x4 DUP1 CALLDATASIZE SUB DUP2 ADD SWAP1 PUSH2 0x4FF SWAP2 SWAP1 PUSH2 0x37ED JUMP JUMPDEST PUSH2 0x1400 JUMP JUMPDEST STOP JUMPDEST CALLVALUE DUP1 ISZERO PUSH2 0x512 JUMPI PUSH1 0x0 DUP1 REVERT JUMPDEST POP PUSH2 0x52D PUSH1 0x4 DUP1 CALLDATASIZE SUB DUP2 ADD SWAP1 PUSH2 0x528 SWAP2 SWAP1 PUSH2 0x41AB JUMP JUMPDEST PUSH2 0x150B JUMP JUMPDEST PUSH1 0x40 MLOAD PUSH2 0x53A SWAP2 SWAP1 PUSH2 0x3495 JUMP JUMPDEST PUSH1 0x40 MLOAD DUP1 SWAP2 SUB SWAP1 RETURN JUMPDEST CALLVALUE DUP1 ISZERO PUSH2 0x54F JUMPI PUSH1 0x0 DUP1 REVERT JUMPDEST POP PUSH2 0x56A PUSH1 0x4 DUP1 CALLDATASIZE SUB DUP2 ADD SWAP1 PUSH2 0x565 SWAP2 SWAP1 PUSH2 0x4368 JUMP JUMPDEST PUSH2 0x1555 JUMP JUMPDEST STOP JUMPDEST CALLVALUE DUP1 ISZERO PUSH2 0x578 JUMPI PUSH1 0x0 DUP1 REVERT JUMPDEST POP PUSH2 0x593 PUSH1 0x4 DUP1 CALLDATASIZE SUB DUP2 ADD SWAP1 PUSH2 0x58E SWAP2 SWAP1 PUSH2 0x368D JUMP JUMPDEST PUSH2 0x1AF2 JUMP JUMPDEST STOP JUMPDEST CALLVALUE DUP1 ISZERO PUSH2 0x5A1 JUMPI PUSH1 0x0 DUP1 REVERT JUMPDEST POP PUSH2 0x5AA PUSH2 0x1B11 JUMP JUMPDEST PUSH1 0x40 MLOAD PUSH2 0x5B7 SWAP2 SWAP1 PUSH2 0x3EDF JUMP JUMPDEST PUSH1 0x40 MLOAD DUP1 SWAP2 SUB SWAP1 RETURN JUMPDEST CALLVALUE DUP1 ISZERO PUSH2 0x5CC JUMPI PUSH1 0x0 DUP1 REVERT JUMPDEST POP PUSH2 0x5D5 PUSH2 0x1B37 JUMP JUMPDEST PUSH1 0x40 MLOAD PUSH2 0x5E2 SWAP2 SWAP1 PUSH2 0x3EDF JUMP JUMPDEST PUSH1 0x40 MLOAD DUP1 SWAP2 SUB SWAP1 RETURN JUMPDEST CALLVALUE DUP1 ISZERO PUSH2 0x5F7 JUMPI PUSH1 0x0 DUP1 REVERT JUMPDEST POP PUSH2 0x612 PUSH1 0x4 DUP1 CALLDATASIZE SUB DUP2 ADD SWAP1 PUSH2 0x60D SWAP2 SWAP1 PUSH2 0x3569 JUMP JUMPDEST PUSH2 0x1B61 JUMP JUMPDEST STOP JUMPDEST CALLVALUE DUP1 ISZERO PUSH2 0x620 JUMPI PUSH1 0x0 DUP1 REVERT JUMPDEST POP PUSH2 0x63B PUSH1 0x4 DUP1 CALLDATASIZE SUB DUP2 ADD SWAP1 PUSH2 0x636 SWAP2 SWAP1 PUSH2 0x43E0 JUMP JUMPDEST PUSH2 0x1B98 JUMP JUMPDEST PUSH1 0x40 MLOAD PUSH2 0x648 SWAP2 SWAP1 PUSH2 0x3495 JUMP JUMPDEST PUSH1 0x40 MLOAD DUP1 SWAP2 SUB SWAP1 RETURN JUMPDEST CALLVALUE DUP1 ISZERO PUSH2 0x65D JUMPI PUSH1 0x0 DUP1 REVERT JUMPDEST POP PUSH2 0x678 PUSH1 0x4 DUP1 CALLDATASIZE SUB DUP2 ADD SWAP1 PUSH2 0x673 SWAP2 SWAP1 PUSH2 0x3EFA JUMP JUMPDEST PUSH2 0x1BDE JUMP JUMPDEST STOP JUMPDEST CALLVALUE DUP1 ISZERO PUSH2 0x686 JUMPI PUSH1 0x0 DUP1 REVERT JUMPDEST POP PUSH2 0x6A1 PUSH1 0x4 DUP1 CALLDATASIZE SUB DUP2 ADD SWAP1 PUSH2 0x69C SWAP2 SWAP1 PUSH2 0x3FEA JUMP JUMPDEST PUSH2 0x1C8B JUMP JUMPDEST PUSH1 0x40 MLOAD PUSH2 0x6AE SWAP2 SWAP1 PUSH2 0x4133 JUMP JUMPDEST PUSH1 0x40 MLOAD DUP1 SWAP2 SUB SWAP1 RETURN JUMPDEST CALLVALUE DUP1 ISZERO PUSH2 0x6C3 JUMPI PUSH1 0x0 DUP1 REVERT JUMPDEST POP PUSH2 0x6DE PUSH1 0x4 DUP1 CALLDATASIZE SUB DUP2 ADD SWAP1 PUSH2 0x6D9 SWAP2 SWAP1 PUSH2 0x34B0 JUMP JUMPDEST PUSH2 0x1D89 JUMP JUMPDEST PUSH1 0x40 MLOAD PUSH2 0x6EB SWAP2 SWAP1 PUSH2 0x3357 JUMP JUMPDEST PUSH1 0x40 MLOAD DUP1 SWAP2 SUB SWAP1 RETURN JUMPDEST PUSH1 0x0 PUSH32 0x4E2312E000000000000000000000000000000000000000000000000000000000 PUSH28 0xFFFFFFFFFFFFFFFFFFFFFFFFFFFFFFFFFFFFFFFFFFFFFFFFFFFFFFFF NOT AND DUP3 PUSH28 0xFFFFFFFFFFFFFFFFFFFFFFFFFFFFFFFFFFFFFFFFFFFFFFFFFFFFFFFF NOT AND EQ DUP1 PUSH2 0x7BF JUMPI POP PUSH32 0x150B7A0200000000000000000000000000000000000000000000000000000000 PUSH28 0xFFFFFFFFFFFFFFFFFFFFFFFFFFFFFFFFFFFFFFFFFFFFFFFFFFFFFFFF NOT AND DUP3 PUSH28 0xFFFFFFFFFFFFFFFFFFFFFFFFFFFFFFFFFFFFFFFFFFFFFFFFFFFFFFFF NOT AND EQ JUMPDEST DUP1 PUSH2 0x827 JUMPI POP PUSH32 0x1FFC9A700000000000000000000000000000000000000000000000000000000 PUSH28 0xFFFFFFFFFFFFFFFFFFFFFFFFFFFFFFFFFFFFFFFFFFFFFFFFFFFFFFFF NOT AND DUP3 PUSH28 0xFFFFFFFFFFFFFFFFFFFFFFFFFFFFFFFFFFFFFFFFFFFFFFFFFFFFFFFF NOT AND EQ JUMPDEST SWAP1 POP SWAP2 SWAP1 POP JUMP JUMPDEST PUSH1 0x7 DUP3 DUP1 MLOAD PUSH1 0x20 DUP2 ADD DUP3 ADD DUP1 MLOAD DUP5 DUP3 MSTORE PUSH1 0x20 DUP4 ADD PUSH1 0x20 DUP6 ADD KECCAK256 DUP2 DUP4 MSTORE DUP1 SWAP6 POP POP POP POP POP POP PUSH1 0x20 MSTORE DUP1 PUSH1 0x0 MSTORE PUSH1 0x40 PUSH1 0x0 KECCAK256 PUSH1 0x0 SWAP2 POP SWAP2 POP POP DUP1 PUSH1 0x0 ADD SLOAD SWAP1 POP DUP2 JUMP JUMPDEST PUSH1 0x0 DUP1 CALLER SWAP1 POP PUSH1 0x0 DUP5 DUP5 DUP2 ADD SWAP1 PUSH2 0x886 SWAP2 SWAP1 PUSH2 0x34B0 JUMP JUMPDEST SWAP1 POP PUSH2 0x892 DUP2 DUP9 PUSH2 0x1DBD JUMP JUMPDEST PUSH2 0x89E DUP2 DUP9 DUP5 DUP10 PUSH2 0x1E74 JUMP JUMPDEST PUSH4 0x150B7A02 PUSH1 0xE0 SHL SWAP3 POP POP POP SWAP6 SWAP5 POP POP POP POP POP JUMP JUMPDEST PUSH1 0x6 DUP2 DUP1 MLOAD PUSH1 0x20 DUP2 ADD DUP3 ADD DUP1 MLOAD DUP5 DUP3 MSTORE PUSH1 0x20 DUP4 ADD PUSH1 0x20 DUP6 ADD KECCAK256 DUP2 DUP4 MSTORE DUP1 SWAP6 POP POP POP POP POP POP PUSH1 0x0 SWAP2 POP SWAP1 POP DUP1 PUSH1 0x0 ADD PUSH1 0x0 SWAP1 SLOAD SWAP1 PUSH2 0x100 EXP SWAP1 DIV PUSH20 0xFFFFFFFFFFFFFFFFFFFFFFFFFFFFFFFFFFFFFFFF AND SWAP1 DUP1 PUSH1 0x1 ADD SLOAD SWAP1 DUP1 PUSH1 0x2 ADD SLOAD SWAP1 DUP1 PUSH1 0x3 ADD SLOAD SWAP1 DUP1 PUSH1 0x4 ADD SLOAD SWAP1 DUP1 PUSH1 0x5 ADD PUSH1 0x0 SWAP1 SLOAD SWAP1 PUSH2 0x100 EXP SWAP1 DIV PUSH1 0xFF AND SWAP1 POP DUP7 JUMP JUMPDEST PUSH2 0x93A PUSH2 0x1F3F JUMP JUMPDEST PUSH2 0x943 DUP4 PUSH2 0x1FD3 JUMP JUMPDEST PUSH1 0x0 PUSH1 0x40 MLOAD DUP1 PUSH1 0xC0 ADD PUSH1 0x40 MSTORE DUP1 CALLER PUSH20 0xFFFFFFFFFFFFFFFFFFFFFFFFFFFFFFFFFFFFFFFF AND DUP2 MSTORE PUSH1 0x20 ADD DUP5 DUP2 MSTORE PUSH1 0x20 ADD DUP4 DUP2 MSTORE PUSH1 0x20 ADD TIMESTAMP DUP2 MSTORE PUSH1 0x20 ADD PUSH1 0x0 DUP2 MSTORE PUSH1 0x20 ADD PUSH1 0x0 ISZERO ISZERO DUP2 MSTORE POP SWAP1 POP DUP1 PUSH1 0x6 DUP6 PUSH1 0x40 MLOAD PUSH2 0x99F SWAP2 SWAP1 PUSH2 0x44EB JUMP JUMPDEST SWAP1 DUP2 MSTORE PUSH1 0x20 ADD PUSH1 0x40 MLOAD DUP1 SWAP2 SUB SWAP1 KECCAK256 PUSH1 0x0 DUP3 ADD MLOAD DUP2 PUSH1 0x0 ADD PUSH1 0x0 PUSH2 0x100 EXP DUP2 SLOAD DUP2 PUSH20 0xFFFFFFFFFFFFFFFFFFFFFFFFFFFFFFFFFFFFFFFF MUL NOT AND SWAP1 DUP4 PUSH20 0xFFFFFFFFFFFFFFFFFFFFFFFFFFFFFFFFFFFFFFFF AND MUL OR SWAP1 SSTORE POP PUSH1 0x20 DUP3 ADD MLOAD DUP2 PUSH1 0x1 ADD SSTORE PUSH1 0x40 DUP3 ADD MLOAD DUP2 PUSH1 0x2 ADD SSTORE PUSH1 0x60 DUP3 ADD MLOAD DUP2 PUSH1 0x3 ADD SSTORE PUSH1 0x80 DUP3 ADD MLOAD DUP2 PUSH1 0x4 ADD SSTORE PUSH1 0xA0 DUP3 ADD MLOAD DUP2 PUSH1 0x5 ADD PUSH1 0x0 PUSH2 0x100 EXP DUP2 SLOAD DUP2 PUSH1 0xFF MUL NOT AND SWAP1 DUP4 ISZERO ISZERO MUL OR SWAP1 SSTORE POP SWAP1 POP POP CALLER PUSH20 0xFFFFFFFFFFFFFFFFFFFFFFFFFFFFFFFFFFFFFFFF AND DUP5 PUSH1 0x40 MLOAD PUSH2 0xA64 SWAP2 SWAP1 PUSH2 0x44EB JUMP JUMPDEST PUSH1 0x40 MLOAD DUP1 SWAP2 SUB SWAP1 KECCAK256 PUSH32 0xC9CBD59AD20E09B20603BD6DAC7574686A1BBCB19E138C78262E207AB4EC3F66 DUP6 DUP6 PUSH1 0x0 PUSH1 0x40 MLOAD PUSH2 0xAA0 SWAP4 SWAP3 SWAP2 SWAP1 PUSH2 0x4502 JUMP JUMPDEST PUSH1 0x40 MLOAD DUP1 SWAP2 SUB SWAP1 LOG3 POP POP POP POP JUMP JUMPDEST PUSH2 0xAB7 DUP4 PUSH2 0x2088 JUMP JUMPDEST PUSH2 0xAC0 DUP4 PUSH2 0x1FD3 JUMP JUMPDEST PUSH2 0xACB DUP4 DUP4 DUP4 PUSH2 0x213C JUMP JUMPDEST PUSH2 0xAD5 DUP4 TIMESTAMP PUSH2 0x21D1 JUMP JUMPDEST POP POP POP JUMP JUMPDEST PUSH1 0x8 PUSH1 0x20 MSTORE DUP3 PUSH1 0x0 MSTORE PUSH1 0x40 PUSH1 0x0 KECCAK256 PUSH1 0x20 MSTORE DUP2 PUSH1 0x0 MSTORE PUSH1 0x40 PUSH1 0x0 KECCAK256 PUSH1 0x20 MSTORE DUP1 PUSH1 0x0 MSTORE PUSH1 0x40 PUSH1 0x0 KECCAK256 PUSH1 0x0 SWAP3 POP SWAP3 POP POP POP SLOAD DUP2 JUMP JUMPDEST PUSH2 0xB15 DUP3 PUSH2 0x2088 JUMP JUMPDEST PUSH2 0xB1E DUP3 PUSH2 0x1FD3 JUMP JUMPDEST PUSH2 0xB28 DUP3 DUP3 PUSH2 0x223E JUMP JUMPDEST PUSH2 0xB32 DUP3 TIMESTAMP PUSH2 0x21D1 JUMP JUMPDEST POP POP JUMP JUMPDEST PUSH2 0xB3F DUP8 PUSH2 0x2088 JUMP JUMPDEST PUSH2 0xB48 DUP8 PUSH2 0x1FD3 JUMP JUMPDEST PUSH2 0xB59 DUP8 DUP8 DUP8 DUP8 DUP8 DUP8 DUP8 PUSH1 0x0 PUSH2 0x22C0 JUMP JUMPDEST POP POP POP POP POP POP POP JUMP JUMPDEST PUSH2 0xB6A PUSH2 0x1F3F JUMP JUMPDEST PUSH2 0xB73 DUP3 PUSH2 0x1FD3 JUMP JUMPDEST PUSH2 0xB7C DUP3 PUSH2 0x249D JUMP JUMPDEST PUSH2 0xB85 DUP3 PUSH2 0x2510 JUMP JUMPDEST PUSH1 0x0 DUP2 PUSH1 0x0 ADD MLOAD SWAP1 POP PUSH1 0x0 DUP3 PUSH1 0x20 ADD MLOAD SWAP1 POP PUSH1 0x0 DUP4 PUSH1 0x40 ADD MLOAD SWAP1 POP PUSH1 0x0 JUMPDEST DUP3 PUSH1 0x20 ADD MLOAD MLOAD DUP2 LT ISZERO PUSH2 0x1017 JUMPI PUSH1 0x0 DUP4 PUSH1 0x20 ADD MLOAD DUP3 DUP2 MLOAD DUP2 LT PUSH2 0xBC9 JUMPI PUSH2 0xBC8 PUSH2 0x4539 JUMP JUMPDEST JUMPDEST PUSH1 0x20 MUL PUSH1 0x20 ADD ADD MLOAD SWAP1 POP PUSH2 0xBDC DUP2 PUSH2 0x25A4 JUMP JUMPDEST PUSH1 0x0 DUP5 PUSH1 0x40 ADD MLOAD DUP4 DUP2 MLOAD DUP2 LT PUSH2 0xBF5 JUMPI PUSH2 0xBF4 PUSH2 0x4539 JUMP JUMPDEST JUMPDEST PUSH1 0x20 MUL PUSH1 0x20 ADD ADD MLOAD SWAP1 POP PUSH1 0x0 DUP6 PUSH1 0x60 ADD MLOAD DUP5 DUP2 MLOAD DUP2 LT PUSH2 0xC18 JUMPI PUSH2 0xC17 PUSH2 0x4539 JUMP JUMPDEST JUMPDEST PUSH1 0x20 MUL PUSH1 0x20 ADD ADD MLOAD SWAP1 POP PUSH1 0x0 DUP7 PUSH1 0x0 ADD MLOAD DUP6 DUP2 MLOAD DUP2 LT PUSH2 0xC3B JUMPI PUSH2 0xC3A PUSH2 0x4539 JUMP JUMPDEST JUMPDEST PUSH1 0x20 MUL PUSH1 0x20 ADD ADD MLOAD SWAP1 POP PUSH1 0x1 PUSH1 0x4 DUP2 GT ISZERO PUSH2 0xC59 JUMPI PUSH2 0xC58 PUSH2 0x4568 JUMP JUMPDEST JUMPDEST DUP5 PUSH1 0x4 DUP2 GT ISZERO PUSH2 0xC6C JUMPI PUSH2 0xC6B PUSH2 0x4568 JUMP JUMPDEST JUMPDEST SUB PUSH2 0xCF6 JUMPI PUSH2 0xC7C DUP11 DUP10 DUP6 PUSH2 0x2605 JUMP JUMPDEST DUP3 PUSH1 0x7 DUP12 PUSH1 0x40 MLOAD PUSH2 0xC8D SWAP2 SWAP1 PUSH2 0x44EB JUMP JUMPDEST SWAP1 DUP2 MSTORE PUSH1 0x20 ADD PUSH1 0x40 MLOAD DUP1 SWAP2 SUB SWAP1 KECCAK256 PUSH1 0x0 DUP11 PUSH20 0xFFFFFFFFFFFFFFFFFFFFFFFFFFFFFFFFFFFFFFFF AND PUSH20 0xFFFFFFFFFFFFFFFFFFFFFFFFFFFFFFFFFFFFFFFF AND DUP2 MSTORE PUSH1 0x20 ADD SWAP1 DUP2 MSTORE PUSH1 0x20 ADD PUSH1 0x0 KECCAK256 PUSH1 0x0 ADD PUSH1 0x0 DUP3 DUP3 SLOAD PUSH2 0xCEA SWAP2 SWAP1 PUSH2 0x45C6 JUMP JUMPDEST SWAP3 POP POP DUP2 SWAP1 SSTORE POP PUSH2 0x1006 JUMP JUMPDEST PUSH1 0x2 PUSH1 0x4 DUP2 GT ISZERO PUSH2 0xD0A JUMPI PUSH2 0xD09 PUSH2 0x4568 JUMP JUMPDEST JUMPDEST DUP5 PUSH1 0x4 DUP2 GT ISZERO PUSH2 0xD1D JUMPI PUSH2 0xD1C PUSH2 0x4568 JUMP JUMPDEST JUMPDEST SUB PUSH2 0xDE5 JUMPI PUSH2 0xD2E DUP11 DUP10 DUP4 DUP7 PUSH2 0x2765 JUMP JUMPDEST DUP3 PUSH1 0x7 DUP12 PUSH1 0x40 MLOAD PUSH2 0xD3F SWAP2 SWAP1 PUSH2 0x44EB JUMP JUMPDEST SWAP1 DUP2 MSTORE PUSH1 0x20 ADD PUSH1 0x40 MLOAD DUP1 SWAP2 SUB SWAP1 KECCAK256 PUSH1 0x0 DUP11 PUSH20 0xFFFFFFFFFFFFFFFFFFFFFFFFFFFFFFFFFFFFFFFF AND PUSH20 0xFFFFFFFFFFFFFFFFFFFFFFFFFFFFFFFFFFFFFFFF AND DUP2 MSTORE PUSH1 0x20 ADD SWAP1 DUP2 MSTORE PUSH1 0x20 ADD PUSH1 0x0 KECCAK256 PUSH1 0x1 ADD PUSH1 0x0 DUP4 PUSH20 0xFFFFFFFFFFFFFFFFFFFFFFFFFFFFFFFFFFFFFFFF AND PUSH20 0xFFFFFFFFFFFFFFFFFFFFFFFFFFFFFFFFFFFFFFFF AND DUP2 MSTORE PUSH1 0x20 ADD SWAP1 DUP2 MSTORE PUSH1 0x20 ADD PUSH1 0x0 KECCAK256 PUSH1 0x0 DUP3 DUP3 SLOAD PUSH2 0xDD9 SWAP2 SWAP1 PUSH2 0x45C6 JUMP JUMPDEST SWAP3 POP POP DUP2 SWAP1 SSTORE POP PUSH2 0x1005 JUMP JUMPDEST PUSH1 0x3 PUSH1 0x4 DUP2 GT ISZERO PUSH2 0xDF9 JUMPI PUSH2 0xDF8 PUSH2 0x4568 JUMP JUMPDEST JUMPDEST DUP5 PUSH1 0x4 DUP2 GT ISZERO PUSH2 0xE0C JUMPI PUSH2 0xE0B PUSH2 0x4568 JUMP JUMPDEST JUMPDEST SUB PUSH2 0xEF7 JUMPI PUSH2 0xE2D DUP11 DUP10 DUP4 DUP6 PUSH1 0x40 MLOAD DUP1 PUSH1 0x20 ADD PUSH1 0x40 MSTORE DUP1 PUSH1 0x0 DUP2 MSTORE POP PUSH2 0x290C JUMP JUMPDEST PUSH1 0x1 PUSH1 0x7 DUP12 PUSH1 0x40 MLOAD PUSH2 0xE3F SWAP2 SWAP1 PUSH2 0x44EB JUMP JUMPDEST SWAP1 DUP2 MSTORE PUSH1 0x20 ADD PUSH1 0x40 MLOAD DUP1 SWAP2 SUB SWAP1 KECCAK256 PUSH1 0x0 DUP11 PUSH20 0xFFFFFFFFFFFFFFFFFFFFFFFFFFFFFFFFFFFFFFFF AND PUSH20 0xFFFFFFFFFFFFFFFFFFFFFFFFFFFFFFFFFFFFFFFF AND DUP2 MSTORE PUSH1 0x20 ADD SWAP1 DUP2 MSTORE PUSH1 0x20 ADD PUSH1 0x0 KECCAK256 PUSH1 0x2 ADD PUSH1 0x0 DUP4 PUSH20 0xFFFFFFFFFFFFFFFFFFFFFFFFFFFFFFFFFFFFFFFF AND PUSH20 0xFFFFFFFFFFFFFFFFFFFFFFFFFFFFFFFFFFFFFFFF AND DUP2 MSTORE PUSH1 0x20 ADD SWAP1 DUP2 MSTORE PUSH1 0x20 ADD PUSH1 0x0 KECCAK256 PUSH1 0x0 DUP5 DUP2 MSTORE PUSH1 0x20 ADD SWAP1 DUP2 MSTORE PUSH1 0x20 ADD PUSH1 0x0 KECCAK256 PUSH1 0x0 PUSH2 0x100 EXP DUP2 SLOAD DUP2 PUSH1 0xFF MUL NOT AND SWAP1 DUP4 ISZERO ISZERO MUL OR SWAP1 SSTORE POP PUSH2 0x1004 JUMP JUMPDEST PUSH1 0x4 DUP1 DUP2 GT ISZERO PUSH2 0xF0A JUMPI PUSH2 0xF09 PUSH2 0x4568 JUMP JUMPDEST JUMPDEST DUP5 PUSH1 0x4 DUP2 GT ISZERO PUSH2 0xF1D JUMPI PUSH2 0xF1C PUSH2 0x4568 JUMP JUMPDEST JUMPDEST SUB PUSH2 0x1003 JUMPI PUSH2 0xF3F DUP11 DUP10 DUP4 DUP6 DUP8 PUSH1 0x40 MLOAD DUP1 PUSH1 0x20 ADD PUSH1 0x40 MSTORE DUP1 PUSH1 0x0 DUP2 MSTORE POP PUSH2 0x2AD4 JUMP JUMPDEST DUP3 PUSH1 0x7 DUP12 PUSH1 0x40 MLOAD PUSH2 0xF50 SWAP2 SWAP1 PUSH2 0x44EB JUMP JUMPDEST SWAP1 DUP2 MSTORE PUSH1 0x20 ADD PUSH1 0x40 MLOAD DUP1 SWAP2 SUB SWAP1 KECCAK256 PUSH1 0x0 DUP11 PUSH20 0xFFFFFFFFFFFFFFFFFFFFFFFFFFFFFFFFFFFFFFFF AND PUSH20 0xFFFFFFFFFFFFFFFFFFFFFFFFFFFFFFFFFFFFFFFF AND DUP2 MSTORE PUSH1 0x20 ADD SWAP1 DUP2 MSTORE PUSH1 0x20 ADD PUSH1 0x0 KECCAK256 PUSH1 0x3 ADD PUSH1 0x0 DUP4 PUSH20 0xFFFFFFFFFFFFFFFFFFFFFFFFFFFFFFFFFFFFFFFF AND PUSH20 0xFFFFFFFFFFFFFFFFFFFFFFFFFFFFFFFFFFFFFFFF AND DUP2 MSTORE PUSH1 0x20 ADD SWAP1 DUP2 MSTORE PUSH1 0x20 ADD PUSH1 0x0 KECCAK256 PUSH1 0x0 DUP5 DUP2 MSTORE PUSH1 0x20 ADD SWAP1 DUP2 MSTORE PUSH1 0x20 ADD PUSH1 0x0 KECCAK256 PUSH1 0x0 DUP3 DUP3 SLOAD PUSH2 0xFFB SWAP2 SWAP1 PUSH2 0x45C6 JUMP JUMPDEST SWAP3 POP POP DUP2 SWAP1 SSTORE POP JUMPDEST JUMPDEST JUMPDEST JUMPDEST POP POP POP POP DUP1 DUP1 PUSH1 0x1 ADD SWAP2 POP POP PUSH2 0xBA3 JUMP JUMPDEST POP PUSH1 0x0 JUMPDEST DUP2 PUSH1 0x40 ADD MLOAD MLOAD DUP2 LT ISZERO PUSH2 0x10B3 JUMPI DUP2 PUSH1 0x60 ADD MLOAD DUP2 DUP2 MLOAD DUP2 LT PUSH2 0x103F JUMPI PUSH2 0x103E PUSH2 0x4539 JUMP JUMPDEST JUMPDEST PUSH1 0x20 MUL PUSH1 0x20 ADD ADD MLOAD PUSH1 0x8 PUSH1 0x0 DUP5 PUSH1 0x0 ADD MLOAD DUP2 MSTORE PUSH1 0x20 ADD SWAP1 DUP2 MSTORE PUSH1 0x20 ADD PUSH1 0x0 KECCAK256 PUSH1 0x0 DUP5 PUSH1 0x20 ADD MLOAD DUP2 MSTORE PUSH1 0x20 ADD SWAP1 DUP2 MSTORE PUSH1 0x20 ADD PUSH1 0x0 KECCAK256 PUSH1 0x0 DUP5 PUSH1 0x40 ADD MLOAD DUP5 DUP2 MLOAD DUP2 LT PUSH2 0x108C JUMPI PUSH2 0x108B PUSH2 0x4539 JUMP JUMPDEST JUMPDEST PUSH1 0x20 MUL PUSH1 0x20 ADD ADD MLOAD DUP2 MSTORE PUSH1 0x20 ADD SWAP1 DUP2 MSTORE PUSH1 0x20 ADD PUSH1 0x0 KECCAK256 DUP2 SWAP1 SSTORE POP DUP1 DUP1 PUSH1 0x1 ADD SWAP2 POP POP PUSH2 0x101B JUMP JUMPDEST POP PUSH2 0x10BE DUP6 TIMESTAMP PUSH2 0x2C92 JUMP JUMPDEST POP POP POP POP POP JUMP JUMPDEST PUSH1 0x0 PUSH1 0x1 PUSH1 0x14 SWAP1 SLOAD SWAP1 PUSH2 0x100 EXP SWAP1 DIV PUSH1 0xFF AND SWAP1 POP SWAP1 JUMP JUMPDEST PUSH2 0x10E5 DUP7 PUSH2 0x2088 JUMP JUMPDEST PUSH2 0x10EE DUP7 PUSH2 0x1FD3 JUMP JUMPDEST PUSH1 0x0 JUMPDEST DUP5 MLOAD DUP2 LT ISZERO PUSH2 0x118F JUMPI PUSH2 0x1182 DUP8 DUP8 DUP8 DUP5 DUP2 MLOAD DUP2 LT PUSH2 0x1112 JUMPI PUSH2 0x1111 PUSH2 0x4539 JUMP JUMPDEST JUMPDEST PUSH1 0x20 MUL PUSH1 0x20 ADD ADD MLOAD DUP8 DUP6 DUP2 MLOAD DUP2 LT PUSH2 0x112D JUMPI PUSH2 0x112C PUSH2 0x4539 JUMP JUMPDEST JUMPDEST PUSH1 0x20 MUL PUSH1 0x20 ADD ADD MLOAD DUP8 DUP7 DUP2 MLOAD DUP2 LT PUSH2 0x1148 JUMPI PUSH2 0x1147 PUSH2 0x4539 JUMP JUMPDEST JUMPDEST PUSH1 0x20 MUL PUSH1 0x20 ADD ADD MLOAD DUP8 DUP8 DUP2 MLOAD DUP2 LT PUSH2 0x1163 JUMPI PUSH2 0x1162 PUSH2 0x4539 JUMP JUMPDEST JUMPDEST PUSH1 0x20 MUL PUSH1 0x20 ADD ADD MLOAD PUSH1 0x40 MLOAD DUP1 PUSH1 0x20 ADD PUSH1 0x40 MSTORE DUP1 PUSH1 0x0 DUP2 MSTORE POP PUSH1 0x0 PUSH2 0x22C0 JUMP JUMPDEST DUP1 DUP1 PUSH1 0x1 ADD SWAP2 POP POP PUSH2 0x10F1 JUMP JUMPDEST POP PUSH2 0x119B DUP7 PUSH1 0x0 PUSH2 0x223E JUMP JUMPDEST PUSH2 0x11A5 DUP7 TIMESTAMP PUSH2 0x21D1 JUMP JUMPDEST POP POP POP POP POP POP JUMP JUMPDEST PUSH2 0x11B5 PUSH2 0x2CFF JUMP JUMPDEST PUSH2 0x11BF PUSH1 0x0 PUSH2 0x2D86 JUMP JUMPDEST JUMP JUMPDEST PUSH1 0x0 PUSH2 0x11CB PUSH2 0x2DB7 JUMP JUMPDEST SWAP1 POP DUP1 PUSH20 0xFFFFFFFFFFFFFFFFFFFFFFFFFFFFFFFFFFFFFFFF AND PUSH2 0x11EC PUSH2 0x1B37 JUMP JUMPDEST PUSH20 0xFFFFFFFFFFFFFFFFFFFFFFFFFFFFFFFFFFFFFFFF AND EQ PUSH2 0x1244 JUMPI DUP1 PUSH1 0x40 MLOAD PUSH32 0x118CDAA700000000000000000000000000000000000000000000000000000000 DUP2 MSTORE PUSH1 0x4 ADD PUSH2 0x123B SWAP2 SWAP1 PUSH2 0x3EDF JUMP JUMPDEST PUSH1 0x40 MLOAD DUP1 SWAP2 SUB SWAP1 REVERT JUMPDEST PUSH2 0x124D DUP2 PUSH2 0x2D86 JUMP JUMPDEST POP JUMP JUMPDEST PUSH1 0x0 DUP1 PUSH1 0x0 SWAP1 SLOAD SWAP1 PUSH2 0x100 EXP SWAP1 DIV PUSH20 0xFFFFFFFFFFFFFFFFFFFFFFFFFFFFFFFFFFFFFFFF AND SWAP1 POP SWAP1 JUMP JUMPDEST PUSH2 0x1281 PUSH2 0x1F3F JUMP JUMPDEST DUP1 PUSH1 0x5 PUSH1 0x0 PUSH2 0x100 EXP DUP2 SLOAD DUP2 PUSH20 0xFFFFFFFFFFFFFFFFFFFFFFFFFFFFFFFFFFFFFFFF MUL NOT AND SWAP1 DUP4 PUSH20 0xFFFFFFFFFFFFFFFFFFFFFFFFFFFFFFFFFFFFFFFF AND MUL OR SWAP1 SSTORE POP POP JUMP JUMPDEST PUSH1 0x60 PUSH1 0x0 DUP4 MLOAD DUP4 MLOAD PUSH2 0x12D7 SWAP2 SWAP1 PUSH2 0x45FA JUMP JUMPDEST PUSH8 0xFFFFFFFFFFFFFFFF DUP2 GT ISZERO PUSH2 0x12F0 JUMPI PUSH2 0x12EF PUSH2 0x3159 JUMP JUMPDEST JUMPDEST PUSH1 0x40 MLOAD SWAP1 DUP1 DUP3 MSTORE DUP1 PUSH1 0x20 MUL PUSH1 0x20 ADD DUP3 ADD PUSH1 0x40 MSTORE DUP1 ISZERO PUSH2 0x131E JUMPI DUP2 PUSH1 0x20 ADD PUSH1 0x20 DUP3 MUL DUP1 CALLDATASIZE DUP4 CALLDATACOPY DUP1 DUP3 ADD SWAP2 POP POP SWAP1 POP JUMPDEST POP SWAP1 POP PUSH1 0x0 JUMPDEST DUP5 MLOAD DUP2 LT ISZERO PUSH2 0x13F4 JUMPI PUSH1 0x0 JUMPDEST DUP5 MLOAD DUP2 LT ISZERO PUSH2 0x13E6 JUMPI PUSH1 0x8 PUSH1 0x0 DUP9 DUP2 MSTORE PUSH1 0x20 ADD SWAP1 DUP2 MSTORE PUSH1 0x20 ADD PUSH1 0x0 KECCAK256 PUSH1 0x0 DUP8 DUP5 DUP2 MLOAD DUP2 LT PUSH2 0x1361 JUMPI PUSH2 0x1360 PUSH2 0x4539 JUMP JUMPDEST JUMPDEST PUSH1 0x20 MUL PUSH1 0x20 ADD ADD MLOAD DUP2 MSTORE PUSH1 0x20 ADD SWAP1 DUP2 MSTORE PUSH1 0x20 ADD PUSH1 0x0 KECCAK256 PUSH1 0x0 DUP7 DUP4 DUP2 MLOAD DUP2 LT PUSH2 0x138C JUMPI PUSH2 0x138B PUSH2 0x4539 JUMP JUMPDEST JUMPDEST PUSH1 0x20 MUL PUSH1 0x20 ADD ADD MLOAD DUP2 MSTORE PUSH1 0x20 ADD SWAP1 DUP2 MSTORE PUSH1 0x20 ADD PUSH1 0x0 KECCAK256 SLOAD DUP4 DUP3 DUP8 MLOAD DUP6 PUSH2 0x13B2 SWAP2 SWAP1 PUSH2 0x45FA JUMP JUMPDEST PUSH2 0x13BC SWAP2 SWAP1 PUSH2 0x45C6 JUMP JUMPDEST DUP2 MLOAD DUP2 LT PUSH2 0x13CD JUMPI PUSH2 0x13CC PUSH2 0x4539 JUMP JUMPDEST JUMPDEST PUSH1 0x20 MUL PUSH1 0x20 ADD ADD DUP2 DUP2 MSTORE POP POP DUP1 DUP1 PUSH1 0x1 ADD SWAP2 POP POP PUSH2 0x1330 JUMP JUMPDEST POP DUP1 DUP1 PUSH1 0x1 ADD SWAP2 POP POP PUSH2 0x1324 JUMP JUMPDEST POP DUP1 SWAP2 POP POP SWAP4 SWAP3 POP POP POP JUMP JUMPDEST PUSH2 0x1408 PUSH2 0x1F3F JUMP JUMPDEST PUSH2 0x1411 DUP8 PUSH2 0x1FD3 JUMP JUMPDEST PUSH1 0x0 PUSH1 0x6 DUP9 PUSH1 0x40 MLOAD PUSH2 0x1423 SWAP2 SWAP1 PUSH2 0x44EB JUMP JUMPDEST SWAP1 DUP2 MSTORE PUSH1 0x20 ADD PUSH1 0x40 MLOAD DUP1 SWAP2 SUB SWAP1 KECCAK256 PUSH1 0x4 ADD SLOAD PUSH1 0x6 DUP10 PUSH1 0x40 MLOAD PUSH2 0x1445 SWAP2 SWAP1 PUSH2 0x44EB JUMP JUMPDEST SWAP1 DUP2 MSTORE PUSH1 0x20 ADD PUSH1 0x40 MLOAD DUP1 SWAP2 SUB SWAP1 KECCAK256 PUSH1 0x3 ADD SLOAD GT PUSH2 0x1483 JUMPI PUSH1 0x6 DUP9 PUSH1 0x40 MLOAD PUSH2 0x146C SWAP2 SWAP1 PUSH2 0x44EB JUMP JUMPDEST SWAP1 DUP2 MSTORE PUSH1 0x20 ADD PUSH1 0x40 MLOAD DUP1 SWAP2 SUB SWAP1 KECCAK256 PUSH1 0x4 ADD SLOAD PUSH2 0x14A6 JUMP JUMPDEST PUSH1 0x6 DUP9 PUSH1 0x40 MLOAD PUSH2 0x1493 SWAP2 SWAP1 PUSH2 0x44EB JUMP JUMPDEST SWAP1 DUP2 MSTORE PUSH1 0x20 ADD PUSH1 0x40 MLOAD DUP1 SWAP2 SUB SWAP1 KECCAK256 PUSH1 0x3 ADD SLOAD JUMPDEST SWAP1 POP PUSH3 0x278D00 DUP2 TIMESTAMP PUSH2 0x14B8 SWAP2 SWAP1 PUSH2 0x463C JUMP JUMPDEST LT ISZERO PUSH2 0x14F0 JUMPI PUSH1 0x40 MLOAD PUSH32 0x363BD5FB00000000000000000000000000000000000000000000000000000000 DUP2 MSTORE PUSH1 0x4 ADD PUSH1 0x40 MLOAD DUP1 SWAP2 SUB SWAP1 REVERT JUMPDEST PUSH2 0x1501 DUP9 DUP9 DUP9 DUP9 DUP9 DUP9 DUP9 PUSH1 0x1 PUSH2 0x22C0 JUMP JUMPDEST POP POP POP POP POP POP POP POP JUMP JUMPDEST PUSH1 0x0 DUP1 CALLER SWAP1 POP PUSH1 0x0 DUP5 DUP5 DUP2 ADD SWAP1 PUSH2 0x1522 SWAP2 SWAP1 PUSH2 0x34B0 JUMP JUMPDEST SWAP1 POP PUSH2 0x152E DUP2 DUP12 PUSH2 0x1DBD JUMP JUMPDEST PUSH2 0x153D DUP2 DUP12 DUP5 DUP13 DUP13 DUP13 DUP13 PUSH2 0x2DBF JUMP JUMPDEST PUSH4 0xBC197C81 PUSH1 0xE0 SHL SWAP3 POP POP POP SWAP9 SWAP8 POP POP POP POP POP POP POP POP JUMP JUMPDEST PUSH2 0x155D PUSH2 0x1F3F JUMP JUMPDEST PUSH2 0x1566 DUP3 PUSH2 0x1FD3 JUMP JUMPDEST PUSH2 0x156F DUP3 PUSH2 0x249D JUMP JUMPDEST PUSH2 0x1578 DUP3 PUSH2 0x2510 JUMP JUMPDEST PUSH1 0x0 JUMPDEST DUP2 MLOAD DUP2 LT ISZERO PUSH2 0x1AE3 JUMPI PUSH1 0x0 DUP3 DUP3 DUP2 MLOAD DUP2 LT PUSH2 0x1599 JUMPI PUSH2 0x1598 PUSH2 0x4539 JUMP JUMPDEST JUMPDEST PUSH1 0x20 MUL PUSH1 0x20 ADD ADD MLOAD SWAP1 POP PUSH1 0x0 DUP2 PUSH1 0x0 ADD MLOAD SWAP1 POP PUSH1 0x0 DUP3 PUSH1 0x20 ADD MLOAD SWAP1 POP PUSH1 0x0 DUP4 PUSH1 0x40 ADD MLOAD SWAP1 POP PUSH1 0x0 JUMPDEST DUP3 PUSH1 0x20 ADD MLOAD MLOAD DUP2 LT ISZERO PUSH2 0x1A35 JUMPI PUSH1 0x0 DUP4 PUSH1 0x20 ADD MLOAD DUP3 DUP2 MLOAD DUP2 LT PUSH2 0x15E7 JUMPI PUSH2 0x15E6 PUSH2 0x4539 JUMP JUMPDEST JUMPDEST PUSH1 0x20 MUL PUSH1 0x20 ADD ADD MLOAD SWAP1 POP PUSH2 0x15FA DUP2 PUSH2 0x25A4 JUMP JUMPDEST PUSH1 0x0 DUP5 PUSH1 0x40 ADD MLOAD DUP4 DUP2 MLOAD DUP2 LT PUSH2 0x1613 JUMPI PUSH2 0x1612 PUSH2 0x4539 JUMP JUMPDEST JUMPDEST PUSH1 0x20 MUL PUSH1 0x20 ADD ADD MLOAD SWAP1 POP PUSH1 0x0 DUP6 PUSH1 0x60 ADD MLOAD DUP5 DUP2 MLOAD DUP2 LT PUSH2 0x1636 JUMPI PUSH2 0x1635 PUSH2 0x4539 JUMP JUMPDEST JUMPDEST PUSH1 0x20 MUL PUSH1 0x20 ADD ADD MLOAD SWAP1 POP PUSH1 0x0 DUP7 PUSH1 0x0 ADD MLOAD DUP6 DUP2 MLOAD DUP2 LT PUSH2 0x1659 JUMPI PUSH2 0x1658 PUSH2 0x4539 JUMP JUMPDEST JUMPDEST PUSH1 0x20 MUL PUSH1 0x20 ADD ADD MLOAD SWAP1 POP PUSH1 0x1 PUSH1 0x4 DUP2 GT ISZERO PUSH2 0x1677 JUMPI PUSH2 0x1676 PUSH2 0x4568 JUMP JUMPDEST JUMPDEST DUP5 PUSH1 0x4 DUP2 GT ISZERO PUSH2 0x168A JUMPI PUSH2 0x1689 PUSH2 0x4568 JUMP JUMPDEST JUMPDEST SUB PUSH2 0x1714 JUMPI PUSH2 0x169A DUP13 DUP10 DUP6 PUSH2 0x2605 JUMP JUMPDEST DUP3 PUSH1 0x7 DUP14 PUSH1 0x40 MLOAD PUSH2 0x16AB SWAP2 SWAP1 PUSH2 0x44EB JUMP JUMPDEST SWAP1 DUP2 MSTORE PUSH1 0x20 ADD PUSH1 0x40 MLOAD DUP1 SWAP2 SUB SWAP1 KECCAK256 PUSH1 0x0 DUP11 PUSH20 0xFFFFFFFFFFFFFFFFFFFFFFFFFFFFFFFFFFFFFFFF AND PUSH20 0xFFFFFFFFFFFFFFFFFFFFFFFFFFFFFFFFFFFFFFFF AND DUP2 MSTORE PUSH1 0x20 ADD SWAP1 DUP2 MSTORE PUSH1 0x20 ADD PUSH1 0x0 KECCAK256 PUSH1 0x0 ADD PUSH1 0x0 DUP3 DUP3 SLOAD PUSH2 0x1708 SWAP2 SWAP1 PUSH2 0x45C6 JUMP JUMPDEST SWAP3 POP POP DUP2 SWAP1 SSTORE POP PUSH2 0x1A24 JUMP JUMPDEST PUSH1 0x2 PUSH1 0x4 DUP2 GT ISZERO PUSH2 0x1728 JUMPI PUSH2 0x1727 PUSH2 0x4568 JUMP JUMPDEST JUMPDEST DUP5 PUSH1 0x4 DUP2 GT ISZERO PUSH2 0x173B JUMPI PUSH2 0x173A PUSH2 0x4568 JUMP JUMPDEST JUMPDEST SUB PUSH2 0x1803 JUMPI PUSH2 0x174C DUP13 DUP10 DUP4 DUP7 PUSH2 0x2765 JUMP JUMPDEST DUP3 PUSH1 0x7 DUP14 PUSH1 0x40 MLOAD PUSH2 0x175D SWAP2 SWAP1 PUSH2 0x44EB JUMP JUMPDEST SWAP1 DUP2 MSTORE PUSH1 0x20 ADD PUSH1 0x40 MLOAD DUP1 SWAP2 SUB SWAP1 KECCAK256 PUSH1 0x0 DUP11 PUSH20 0xFFFFFFFFFFFFFFFFFFFFFFFFFFFFFFFFFFFFFFFF AND PUSH20 0xFFFFFFFFFFFFFFFFFFFFFFFFFFFFFFFFFFFFFFFF AND DUP2 MSTORE PUSH1 0x20 ADD SWAP1 DUP2 MSTORE PUSH1 0x20 ADD PUSH1 0x0 KECCAK256 PUSH1 0x1 ADD PUSH1 0x0 DUP4 PUSH20 0xFFFFFFFFFFFFFFFFFFFFFFFFFFFFFFFFFFFFFFFF AND PUSH20 0xFFFFFFFFFFFFFFFFFFFFFFFFFFFFFFFFFFFFFFFF AND DUP2 MSTORE PUSH1 0x20 ADD SWAP1 DUP2 MSTORE PUSH1 0x20 ADD PUSH1 0x0 KECCAK256 PUSH1 0x0 DUP3 DUP3 SLOAD PUSH2 0x17F7 SWAP2 SWAP1 PUSH2 0x45C6 JUMP JUMPDEST SWAP3 POP POP DUP2 SWAP1 SSTORE POP PUSH2 0x1A23 JUMP JUMPDEST PUSH1 0x3 PUSH1 0x4 DUP2 GT ISZERO PUSH2 0x1817 JUMPI PUSH2 0x1816 PUSH2 0x4568 JUMP JUMPDEST JUMPDEST DUP5 PUSH1 0x4 DUP2 GT ISZERO PUSH2 0x182A JUMPI PUSH2 0x1829 PUSH2 0x4568 JUMP JUMPDEST JUMPDEST SUB PUSH2 0x1915 JUMPI PUSH2 0x184B DUP13 DUP10 DUP4 DUP6 PUSH1 0x40 MLOAD DUP1 PUSH1 0x20 ADD PUSH1 0x40 MSTORE DUP1 PUSH1 0x0 DUP2 MSTORE POP PUSH2 0x290C JUMP JUMPDEST PUSH1 0x1 PUSH1 0x7 DUP14 PUSH1 0x40 MLOAD PUSH2 0x185D SWAP2 SWAP1 PUSH2 0x44EB JUMP JUMPDEST SWAP1 DUP2 MSTORE PUSH1 0x20 ADD PUSH1 0x40 MLOAD DUP1 SWAP2 SUB SWAP1 KECCAK256 PUSH1 0x0 DUP11 PUSH20 0xFFFFFFFFFFFFFFFFFFFFFFFFFFFFFFFFFFFFFFFF AND PUSH20 0xFFFFFFFFFFFFFFFFFFFFFFFFFFFFFFFFFFFFFFFF AND DUP2 MSTORE PUSH1 0x20 ADD SWAP1 DUP2 MSTORE PUSH1 0x20 ADD PUSH1 0x0 KECCAK256 PUSH1 0x2 ADD PUSH1 0x0 DUP4 PUSH20 0xFFFFFFFFFFFFFFFFFFFFFFFFFFFFFFFFFFFFFFFF AND PUSH20 0xFFFFFFFFFFFFFFFFFFFFFFFFFFFFFFFFFFFFFFFF AND DUP2 MSTORE PUSH1 0x20 ADD SWAP1 DUP2 MSTORE PUSH1 0x20 ADD PUSH1 0x0 KECCAK256 PUSH1 0x0 DUP5 DUP2 MSTORE PUSH1 0x20 ADD SWAP1 DUP2 MSTORE PUSH1 0x20 ADD PUSH1 0x0 KECCAK256 PUSH1 0x0 PUSH2 0x100 EXP DUP2 SLOAD DUP2 PUSH1 0xFF MUL NOT AND SWAP1 DUP4 ISZERO ISZERO MUL OR SWAP1 SSTORE POP PUSH2 0x1A22 JUMP JUMPDEST PUSH1 0x4 DUP1 DUP2 GT ISZERO PUSH2 0x1928 JUMPI PUSH2 0x1927 PUSH2 0x4568 JUMP JUMPDEST JUMPDEST DUP5 PUSH1 0x4 DUP2 GT ISZERO PUSH2 0x193B JUMPI PUSH2 0x193A PUSH2 0x4568 JUMP JUMPDEST JUMPDEST SUB PUSH2 0x1A21 JUMPI PUSH2 0x195D DUP13 DUP10 DUP4 DUP6 DUP8 PUSH1 0x40 MLOAD DUP1 PUSH1 0x20 ADD PUSH1 0x40 MSTORE DUP1 PUSH1 0x0 DUP2 MSTORE POP PUSH2 0x2AD4 JUMP JUMPDEST DUP3 PUSH1 0x7 DUP14 PUSH1 0x40 MLOAD PUSH2 0x196E SWAP2 SWAP1 PUSH2 0x44EB JUMP JUMPDEST SWAP1 DUP2 MSTORE PUSH1 0x20 ADD PUSH1 0x40 MLOAD DUP1 SWAP2 SUB SWAP1 KECCAK256 PUSH1 0x0 DUP11 PUSH20 0xFFFFFFFFFFFFFFFFFFFFFFFFFFFFFFFFFFFFFFFF AND PUSH20 0xFFFFFFFFFFFFFFFFFFFFFFFFFFFFFFFFFFFFFFFF AND DUP2 MSTORE PUSH1 0x20 ADD SWAP1 DUP2 MSTORE PUSH1 0x20 ADD PUSH1 0x0 KECCAK256 PUSH1 0x3 ADD PUSH1 0x0 DUP4 PUSH20 0xFFFFFFFFFFFFFFFFFFFFFFFFFFFFFFFFFFFFFFFF AND PUSH20 0xFFFFFFFFFFFFFFFFFFFFFFFFFFFFFFFFFFFFFFFF AND DUP2 MSTORE PUSH1 0x20 ADD SWAP1 DUP2 MSTORE PUSH1 0x20 ADD PUSH1 0x0 KECCAK256 PUSH1 0x0 DUP5 DUP2 MSTORE PUSH1 0x20 ADD SWAP1 DUP2 MSTORE PUSH1 0x20 ADD PUSH1 0x0 KECCAK256 PUSH1 0x0 DUP3 DUP3 SLOAD PUSH2 0x1A19 SWAP2 SWAP1 PUSH2 0x45C6 JUMP JUMPDEST SWAP3 POP POP DUP2 SWAP1 SSTORE POP JUMPDEST JUMPDEST JUMPDEST JUMPDEST POP POP POP POP DUP1 DUP1 PUSH1 0x1 ADD SWAP2 POP POP PUSH2 0x15C1 JUMP JUMPDEST POP PUSH1 0x0 JUMPDEST DUP2 PUSH1 0x40 ADD MLOAD MLOAD DUP2 LT ISZERO PUSH2 0x1AD1 JUMPI DUP2 PUSH1 0x60 ADD MLOAD DUP2 DUP2 MLOAD DUP2 LT PUSH2 0x1A5D JUMPI PUSH2 0x1A5C PUSH2 0x4539 JUMP JUMPDEST JUMPDEST PUSH1 0x20 MUL PUSH1 0x20 ADD ADD MLOAD PUSH1 0x8 PUSH1 0x0 DUP5 PUSH1 0x0 ADD MLOAD DUP2 MSTORE PUSH1 0x20 ADD SWAP1 DUP2 MSTORE PUSH1 0x20 ADD PUSH1 0x0 KECCAK256 PUSH1 0x0 DUP5 PUSH1 0x20 ADD MLOAD DUP2 MSTORE PUSH1 0x20 ADD SWAP1 DUP2 MSTORE PUSH1 0x20 ADD PUSH1 0x0 KECCAK256 PUSH1 0x0 DUP5 PUSH1 0x40 ADD MLOAD DUP5 DUP2 MLOAD DUP2 LT PUSH2 0x1AAA JUMPI PUSH2 0x1AA9 PUSH2 0x4539 JUMP JUMPDEST JUMPDEST PUSH1 0x20 MUL PUSH1 0x20 ADD ADD MLOAD DUP2 MSTORE PUSH1 0x20 ADD SWAP1 DUP2 MSTORE PUSH1 0x20 ADD PUSH1 0x0 KECCAK256 DUP2 SWAP1 SSTORE POP DUP1 DUP1 PUSH1 0x1 ADD SWAP2 POP POP PUSH2 0x1A39 JUMP JUMPDEST POP POP POP POP POP DUP1 DUP1 PUSH1 0x1 ADD SWAP2 POP POP PUSH2 0x157B JUMP JUMPDEST POP PUSH2 0x1AEE DUP3 TIMESTAMP PUSH2 0x2C92 JUMP JUMPDEST POP POP JUMP JUMPDEST PUSH2 0x1AFA PUSH2 0x1F3F JUMP JUMPDEST PUSH2 0x1B03 DUP3 PUSH2 0x1FD3 JUMP JUMPDEST PUSH2 0x1B0D DUP3 DUP3 PUSH2 0x223E JUMP JUMPDEST POP POP JUMP JUMPDEST PUSH1 0x5 PUSH1 0x0 SWAP1 SLOAD SWAP1 PUSH2 0x100 EXP SWAP1 DIV PUSH20 0xFFFFFFFFFFFFFFFFFFFFFFFFFFFFFFFFFFFFFFFF AND DUP2 JUMP JUMPDEST PUSH1 0x0 PUSH1 0x1 PUSH1 0x0 SWAP1 SLOAD SWAP1 PUSH2 0x100 EXP SWAP1 DIV PUSH20 0xFFFFFFFFFFFFFFFFFFFFFFFFFFFFFFFFFFFFFFFF AND SWAP1 POP SWAP1 JUMP JUMPDEST PUSH2 0x1B6A DUP4 PUSH2 0x2088 JUMP JUMPDEST PUSH2 0x1B73 DUP4 PUSH2 0x1FD3 JUMP JUMPDEST PUSH2 0x1B7E DUP4 PUSH1 0x1 PUSH2 0x223E JUMP JUMPDEST PUSH2 0x1B89 DUP4 DUP4 DUP4 PUSH2 0x213C JUMP JUMPDEST PUSH2 0x1B93 DUP4 TIMESTAMP PUSH2 0x21D1 JUMP JUMPDEST POP POP POP JUMP JUMPDEST PUSH1 0x0 DUP1 CALLER SWAP1 POP PUSH1 0x0 DUP5 DUP5 DUP2 ADD SWAP1 PUSH2 0x1BAF SWAP2 SWAP1 PUSH2 0x34B0 JUMP JUMPDEST SWAP1 POP PUSH2 0x1BBB DUP2 DUP10 PUSH2 0x1DBD JUMP JUMPDEST PUSH2 0x1BC8 DUP2 DUP10 DUP5 DUP11 DUP11 PUSH2 0x2EDF JUMP JUMPDEST PUSH4 0xF23A6E61 PUSH1 0xE0 SHL SWAP3 POP POP POP SWAP7 SWAP6 POP POP POP POP POP POP JUMP JUMPDEST PUSH2 0x1BE6 PUSH2 0x2CFF JUMP JUMPDEST DUP1 PUSH1 0x1 PUSH1 0x0 PUSH2 0x100 EXP DUP2 SLOAD DUP2 PUSH20 0xFFFFFFFFFFFFFFFFFFFFFFFFFFFFFFFFFFFFFFFF MUL NOT AND SWAP1 DUP4 PUSH20 0xFFFFFFFFFFFFFFFFFFFFFFFFFFFFFFFFFFFFFFFF AND MUL OR SWAP1 SSTORE POP DUP1 PUSH20 0xFFFFFFFFFFFFFFFFFFFFFFFFFFFFFFFFFFFFFFFF AND PUSH2 0x1C46 PUSH2 0x1250 JUMP JUMPDEST PUSH20 0xFFFFFFFFFFFFFFFFFFFFFFFFFFFFFFFFFFFFFFFF AND PUSH32 0x38D16B8CAC22D99FC7C124B9CD0DE2D3FA1FAEF420BFE791D8C362D765E22700 PUSH1 0x40 MLOAD PUSH1 0x40 MLOAD DUP1 SWAP2 SUB SWAP1 LOG3 POP JUMP JUMPDEST PUSH1 0x60 PUSH1 0x0 DUP3 MLOAD PUSH8 0xFFFFFFFFFFFFFFFF DUP2 GT ISZERO PUSH2 0x1CAA JUMPI PUSH2 0x1CA9 PUSH2 0x3159 JUMP JUMPDEST JUMPDEST PUSH1 0x40 MLOAD SWAP1 DUP1 DUP3 MSTORE DUP1 PUSH1 0x20 MUL PUSH1 0x20 ADD DUP3 ADD PUSH1 0x40 MSTORE DUP1 ISZERO PUSH2 0x1CD8 JUMPI DUP2 PUSH1 0x20 ADD PUSH1 0x20 DUP3 MUL DUP1 CALLDATASIZE DUP4 CALLDATACOPY DUP1 DUP3 ADD SWAP2 POP POP SWAP1 POP JUMPDEST POP SWAP1 POP PUSH1 0x0 JUMPDEST DUP4 MLOAD DUP2 LT ISZERO PUSH2 0x1D7D JUMPI PUSH1 0x8 PUSH1 0x0 DUP8 DUP2 MSTORE PUSH1 0x20 ADD SWAP1 DUP2 MSTORE PUSH1 0x20 ADD PUSH1 0x0 KECCAK256 PUSH1 0x0 DUP7 DUP4 DUP2 MLOAD DUP2 LT PUSH2 0x1D0F JUMPI PUSH2 0x1D0E PUSH2 0x4539 JUMP JUMPDEST JUMPDEST PUSH1 0x20 MUL PUSH1 0x20 ADD ADD MLOAD DUP2 MSTORE PUSH1 0x20 ADD SWAP1 DUP2 MSTORE PUSH1 0x20 ADD PUSH1 0x0 KECCAK256 PUSH1 0x0 DUP6 DUP4 DUP2 MLOAD DUP2 LT PUSH2 0x1D3A JUMPI PUSH2 0x1D39 PUSH2 0x4539 JUMP JUMPDEST JUMPDEST PUSH1 0x20 MUL PUSH1 0x20 ADD ADD MLOAD DUP2 MSTORE PUSH1 0x20 ADD SWAP1 DUP2 MSTORE PUSH1 0x20 ADD PUSH1 0x0 KECCAK256 SLOAD DUP3 DUP3 DUP2 MLOAD DUP2 LT PUSH2 0x1D64 JUMPI PUSH2 0x1D63 PUSH2 0x4539 JUMP JUMPDEST JUMPDEST PUSH1 0x20 MUL PUSH1 0x20 ADD ADD DUP2 DUP2 MSTORE POP POP DUP1 DUP1 PUSH1 0x1 ADD SWAP2 POP POP PUSH2 0x1CDE JUMP JUMPDEST POP DUP1 SWAP2 POP POP SWAP4 SWAP3 POP POP POP JUMP JUMPDEST PUSH1 0x3 DUP2 DUP1 MLOAD PUSH1 0x20 DUP2 ADD DUP3 ADD DUP1 MLOAD DUP5 DUP3 MSTORE PUSH1 0x20 DUP4 ADD PUSH1 0x20 DUP6 ADD KECCAK256 DUP2 DUP4 MSTORE DUP1 SWAP6 POP POP POP POP POP POP PUSH1 0x0 SWAP2 POP SWAP1 POP DUP1 PUSH1 0x0 ADD SLOAD SWAP1 POP DUP2 JUMP JUMPDEST PUSH1 0x6 DUP3 PUSH1 0x40 MLOAD PUSH2 0x1DCD SWAP2 SWAP1 PUSH2 0x44EB JUMP JUMPDEST SWAP1 DUP2 MSTORE PUSH1 0x20 ADD PUSH1 0x40 MLOAD DUP1 SWAP2 SUB SWAP1 KECCAK256 PUSH1 0x0 ADD PUSH1 0x0 SWAP1 SLOAD SWAP1 PUSH2 0x100 EXP SWAP1 DIV PUSH20 0xFFFFFFFFFFFFFFFFFFFFFFFFFFFFFFFFFFFFFFFF AND PUSH20 0xFFFFFFFFFFFFFFFFFFFFFFFFFFFFFFFFFFFFFFFF AND DUP2 PUSH20 0xFFFFFFFFFFFFFFFFFFFFFFFFFFFFFFFFFFFFFFFF AND EQ PUSH2 0x1E70 JUMPI DUP2 DUP2 PUSH1 0x40 MLOAD PUSH32 0xCD54AF2300000000000000000000000000000000000000000000000000000000 DUP2 MSTORE PUSH1 0x4 ADD PUSH2 0x1E67 SWAP3 SWAP2 SWAP1 PUSH2 0x46BA JUMP JUMPDEST PUSH1 0x40 MLOAD DUP1 SWAP2 SUB SWAP1 REVERT JUMPDEST POP POP JUMP JUMPDEST PUSH1 0x1 PUSH1 0x3 DUP6 PUSH1 0x40 MLOAD PUSH2 0x1E86 SWAP2 SWAP1 PUSH2 0x44EB JUMP JUMPDEST SWAP1 DUP2 MSTORE PUSH1 0x20 ADD PUSH1 0x40 MLOAD DUP1 SWAP2 SUB SWAP1 KECCAK256 PUSH1 0x2 ADD PUSH1 0x0 DUP5 PUSH20 0xFFFFFFFFFFFFFFFFFFFFFFFFFFFFFFFFFFFFFFFF AND PUSH20 0xFFFFFFFFFFFFFFFFFFFFFFFFFFFFFFFFFFFFFFFF AND DUP2 MSTORE PUSH1 0x20 ADD SWAP1 DUP2 MSTORE PUSH1 0x20 ADD PUSH1 0x0 KECCAK256 PUSH1 0x0 DUP4 DUP2 MSTORE PUSH1 0x20 ADD SWAP1 DUP2 MSTORE PUSH1 0x20 ADD PUSH1 0x0 KECCAK256 PUSH1 0x0 PUSH2 0x100 EXP DUP2 SLOAD DUP2 PUSH1 0xFF MUL NOT AND SWAP1 DUP4 ISZERO ISZERO MUL OR SWAP1 SSTORE POP PUSH32 0xA7468A675F5F557513C8FEE1E26907C243CA55066D2FF56C68E0B6FF93000464 DUP5 DUP5 DUP5 DUP5 PUSH1 0x40 MLOAD PUSH2 0x1F31 SWAP5 SWAP4 SWAP3 SWAP2 SWAP1 PUSH2 0x46EA JUMP JUMPDEST PUSH1 0x40 MLOAD DUP1 SWAP2 SUB SWAP1 LOG1 POP POP POP POP JUMP JUMPDEST PUSH1 0x5 PUSH1 0x0 SWAP1 SLOAD SWAP1 PUSH2 0x100 EXP SWAP1 DIV PUSH20 0xFFFFFFFFFFFFFFFFFFFFFFFFFFFFFFFFFFFFFFFF AND PUSH20 0xFFFFFFFFFFFFFFFFFFFFFFFFFFFFFFFFFFFFFFFF AND CALLER PUSH20 0xFFFFFFFFFFFFFFFFFFFFFFFFFFFFFFFFFFFFFFFF AND EQ PUSH2 0x1FD1 JUMPI CALLER PUSH1 0x40 MLOAD PUSH32 0x2A19E83300000000000000000000000000000000000000000000000000000000 DUP2 MSTORE PUSH1 0x4 ADD PUSH2 0x1FC8 SWAP2 SWAP1 PUSH2 0x3EDF JUMP JUMPDEST PUSH1 0x40 MLOAD DUP1 SWAP2 SUB SWAP1 REVERT JUMPDEST JUMP JUMPDEST PUSH1 0x0 PUSH20 0xFFFFFFFFFFFFFFFFFFFFFFFFFFFFFFFFFFFFFFFF AND PUSH1 0x6 DUP3 PUSH1 0x40 MLOAD PUSH2 0x1FFB SWAP2 SWAP1 PUSH2 0x44EB JUMP JUMPDEST SWAP1 DUP2 MSTORE PUSH1 0x20 ADD PUSH1 0x40 MLOAD DUP1 SWAP2 SUB SWAP1 KECCAK256 PUSH1 0x0 ADD PUSH1 0x0 SWAP1 SLOAD SWAP1 PUSH2 0x100 EXP SWAP1 DIV PUSH20 0xFFFFFFFFFFFFFFFFFFFFFFFFFFFFFFFFFFFFFFFF AND PUSH20 0xFFFFFFFFFFFFFFFFFFFFFFFFFFFFFFFFFFFFFFFF AND SUB PUSH2 0x2085 JUMPI DUP1 PUSH1 0x40 MLOAD PUSH32 0x23A4BA7E00000000000000000000000000000000000000000000000000000000 DUP2 MSTORE PUSH1 0x4 ADD PUSH2 0x207C SWAP2 SWAP1 PUSH2 0x4736 JUMP JUMPDEST PUSH1 0x40 MLOAD DUP1 SWAP2 SUB SWAP1 REVERT JUMPDEST POP JUMP JUMPDEST PUSH1 0x6 DUP2 PUSH1 0x40 MLOAD PUSH2 0x2098 SWAP2 SWAP1 PUSH2 0x44EB JUMP JUMPDEST SWAP1 DUP2 MSTORE PUSH1 0x20 ADD PUSH1 0x40 MLOAD DUP1 SWAP2 SUB SWAP1 KECCAK256 PUSH1 0x0 ADD PUSH1 0x0 SWAP1 SLOAD SWAP1 PUSH2 0x100 EXP SWAP1 DIV PUSH20 0xFFFFFFFFFFFFFFFFFFFFFFFFFFFFFFFFFFFFFFFF AND PUSH20 0xFFFFFFFFFFFFFFFFFFFFFFFFFFFFFFFFFFFFFFFF AND CALLER PUSH20 0xFFFFFFFFFFFFFFFFFFFFFFFFFFFFFFFFFFFFFFFF AND EQ PUSH2 0x2139 JUMPI CALLER PUSH1 0x40 MLOAD PUSH32 0xC66F47BF00000000000000000000000000000000000000000000000000000000 DUP2 MSTORE PUSH1 0x4 ADD PUSH2 0x2130 SWAP2 SWAP1 PUSH2 0x3EDF JUMP JUMPDEST PUSH1 0x40 MLOAD DUP1 SWAP2 SUB SWAP1 REVERT JUMPDEST POP JUMP JUMPDEST DUP2 PUSH1 0x6 DUP5 PUSH1 0x40 MLOAD PUSH2 0x214D SWAP2 SWAP1 PUSH2 0x44EB JUMP JUMPDEST SWAP1 DUP2 MSTORE PUSH1 0x20 ADD PUSH1 0x40 MLOAD DUP1 SWAP2 SUB SWAP1 KECCAK256 PUSH1 0x1 ADD DUP2 SWAP1 SSTORE POP DUP1 PUSH1 0x6 DUP5 PUSH1 0x40 MLOAD PUSH2 0x2173 SWAP2 SWAP1 PUSH2 0x44EB JUMP JUMPDEST SWAP1 DUP2 MSTORE PUSH1 0x20 ADD PUSH1 0x40 MLOAD DUP1 SWAP2 SUB SWAP1 KECCAK256 PUSH1 0x2 ADD DUP2 SWAP1 SSTORE POP DUP1 DUP3 DUP5 PUSH1 0x40 MLOAD PUSH2 0x2198 SWAP2 SWAP1 PUSH2 0x44EB JUMP JUMPDEST PUSH1 0x40 MLOAD DUP1 SWAP2 SUB SWAP1 KECCAK256 PUSH32 0x3973B951CE85D45A39E2B85E5963FD178B9CE7E759F2BA1A834D5E93665589A0 PUSH1 0x40 MLOAD PUSH1 0x40 MLOAD DUP1 SWAP2 SUB SWAP1 LOG4 POP POP POP JUMP JUMPDEST DUP1 PUSH1 0x6 DUP4 PUSH1 0x40 MLOAD PUSH2 0x21E2 SWAP2 SWAP1 PUSH2 0x44EB JUMP JUMPDEST SWAP1 DUP2 MSTORE PUSH1 0x20 ADD PUSH1 0x40 MLOAD DUP1 SWAP2 SUB SWAP1 KECCAK256 PUSH1 0x3 ADD DUP2 SWAP1 SSTORE POP DUP1 DUP3 PUSH1 0x40 MLOAD PUSH2 0x2206 SWAP2 SWAP1 PUSH2 0x44EB JUMP JUMPDEST PUSH1 0x40 MLOAD DUP1 SWAP2 SUB SWAP1 KECCAK256 PUSH32 0x199F31DE995D0FBE1F9F10CD2B9C868922DA900555E9454609190ED5F2C11416 PUSH1 0x40 MLOAD PUSH1 0x40 MLOAD DUP1 SWAP2 SUB SWAP1 LOG3 POP POP JUMP JUMPDEST DUP1 PUSH1 0x6 DUP4 PUSH1 0x40 MLOAD PUSH2 0x224F SWAP2 SWAP1 PUSH2 0x44EB JUMP JUMPDEST SWAP1 DUP2 MSTORE PUSH1 0x20 ADD PUSH1 0x40 MLOAD DUP1 SWAP2 SUB SWAP1 KECCAK256 PUSH1 0x5 ADD PUSH1 0x0 PUSH2 0x100 EXP DUP2 SLOAD DUP2 PUSH1 0xFF MUL NOT AND SWAP1 DUP4 ISZERO ISZERO MUL OR SWAP1 SSTORE POP DUP1 ISZERO ISZERO DUP3 PUSH1 0x40 MLOAD PUSH2 0x2288 SWAP2 SWAP1 PUSH2 0x44EB JUMP JUMPDEST PUSH1 0x40 MLOAD DUP1 SWAP2 SUB SWAP1 KECCAK256 PUSH32 0x6388B74899382439CABA398B6347A3098C6EB7A606F44238FEBE3B8480A37B5B PUSH1 0x40 MLOAD PUSH1 0x40 MLOAD DUP1 SWAP2 SUB SWAP1 LOG3 POP POP JUMP JUMPDEST PUSH1 0x0 PUSH1 0x4 DUP2 GT ISZERO PUSH2 0x22D4 JUMPI PUSH2 0x22D3 PUSH2 0x4568 JUMP JUMPDEST JUMPDEST DUP6 PUSH1 0x4 DUP2 GT ISZERO PUSH2 0x22E7 JUMPI PUSH2 0x22E6 PUSH2 0x4568 JUMP JUMPDEST JUMPDEST SUB PUSH2 0x231E JUMPI PUSH1 0x40 MLOAD PUSH32 0x55EF22C800000000000000000000000000000000000000000000000000000000 DUP2 MSTORE PUSH1 0x4 ADD PUSH1 0x40 MLOAD DUP1 SWAP2 SUB SWAP1 REVERT JUMPDEST PUSH1 0x1 PUSH1 0x4 DUP2 GT ISZERO PUSH2 0x2332 JUMPI PUSH2 0x2331 PUSH2 0x4568 JUMP JUMPDEST JUMPDEST DUP6 PUSH1 0x4 DUP2 GT ISZERO PUSH2 0x2345 JUMPI PUSH2 0x2344 PUSH2 0x4568 JUMP JUMPDEST JUMPDEST SUB PUSH2 0x235A JUMPI PUSH2 0x2355 DUP9 DUP9 DUP7 PUSH2 0x2605 JUMP JUMPDEST PUSH2 0x2412 JUMP JUMPDEST PUSH1 0x2 PUSH1 0x4 DUP2 GT ISZERO PUSH2 0x236E JUMPI PUSH2 0x236D PUSH2 0x4568 JUMP JUMPDEST JUMPDEST DUP6 PUSH1 0x4 DUP2 GT ISZERO PUSH2 0x2381 JUMPI PUSH2 0x2380 PUSH2 0x4568 JUMP JUMPDEST JUMPDEST SUB PUSH2 0x2397 JUMPI PUSH2 0x2392 DUP9 DUP9 DUP9 DUP8 PUSH2 0x2765 JUMP JUMPDEST PUSH2 0x2411 JUMP JUMPDEST PUSH1 0x3 PUSH1 0x4 DUP2 GT ISZERO PUSH2 0x23AB JUMPI PUSH2 0x23AA PUSH2 0x4568 JUMP JUMPDEST JUMPDEST DUP6 PUSH1 0x4 DUP2 GT ISZERO PUSH2 0x23BE JUMPI PUSH2 0x23BD PUSH2 0x4568 JUMP JUMPDEST JUMPDEST SUB PUSH2 0x23D5 JUMPI PUSH2 0x23D0 DUP9 DUP9 DUP9 DUP7 DUP7 PUSH2 0x290C JUMP JUMPDEST PUSH2 0x2410 JUMP JUMPDEST PUSH1 0x4 DUP1 DUP2 GT ISZERO PUSH2 0x23E8 JUMPI PUSH2 0x23E7 PUSH2 0x4568 JUMP JUMPDEST JUMPDEST DUP6 PUSH1 0x4 DUP2 GT ISZERO PUSH2 0x23FB JUMPI PUSH2 0x23FA PUSH2 0x4568 JUMP JUMPDEST JUMPDEST SUB PUSH2 0x240F JUMPI PUSH2 0x240E DUP9 DUP9 DUP9 DUP7 DUP9 DUP8 PUSH2 0x2AD4 JUMP JUMPDEST JUMPDEST JUMPDEST JUMPDEST JUMPDEST DUP6 PUSH20 0xFFFFFFFFFFFFFFFFFFFFFFFFFFFFFFFFFFFFFFFF AND DUP8 PUSH20 0xFFFFFFFFFFFFFFFFFFFFFFFFFFFFFFFFFFFFFFFF AND DUP10 PUSH1 0x40 MLOAD PUSH2 0x244E SWAP2 SWAP1 PUSH2 0x44EB JUMP JUMPDEST PUSH1 0x40 MLOAD DUP1 SWAP2 SUB SWAP1 KECCAK256 PUSH32 0xFA3884A923856884F139854BDAE5EB347BCE07D756FDC025CB0C29731015AD7D DUP9 DUP9 DUP9 DUP8 PUSH1 0x40 MLOAD PUSH2 0x248B SWAP5 SWAP4 SWAP3 SWAP2 SWAP1 PUSH2 0x47A0 JUMP JUMPDEST PUSH1 0x40 MLOAD DUP1 SWAP2 SUB SWAP1 LOG4 POP POP POP POP POP POP POP POP JUMP JUMPDEST PUSH1 0x6 DUP2 PUSH1 0x40 MLOAD PUSH2 0x24AD SWAP2 SWAP1 PUSH2 0x44EB JUMP JUMPDEST SWAP1 DUP2 MSTORE PUSH1 0x20 ADD PUSH1 0x40 MLOAD DUP1 SWAP2 SUB SWAP1 KECCAK256 PUSH1 0x5 ADD PUSH1 0x0 SWAP1 SLOAD SWAP1 PUSH2 0x100 EXP SWAP1 DIV PUSH1 0xFF AND PUSH2 0x250D JUMPI DUP1 PUSH1 0x40 MLOAD PUSH32 0x235AE10F00000000000000000000000000000000000000000000000000000000 DUP2 MSTORE PUSH1 0x4 ADD PUSH2 0x2504 SWAP2 SWAP1 PUSH2 0x4736 JUMP JUMPDEST PUSH1 0x40 MLOAD DUP1 SWAP2 SUB SWAP1 REVERT JUMPDEST POP JUMP JUMPDEST PUSH1 0x6 DUP2 PUSH1 0x40 MLOAD PUSH2 0x2520 SWAP2 SWAP1 PUSH2 0x44EB JUMP JUMPDEST SWAP1 DUP2 MSTORE PUSH1 0x20 ADD PUSH1 0x40 MLOAD DUP1 SWAP2 SUB SWAP1 KECCAK256 PUSH1 0x1 ADD SLOAD TIMESTAMP LT DUP1 PUSH2 0x255F JUMPI POP PUSH1 0x6 DUP2 PUSH1 0x40 MLOAD PUSH2 0x254A SWAP2 SWAP1 PUSH2 0x44EB JUMP JUMPDEST SWAP1 DUP2 MSTORE PUSH1 0x20 ADD PUSH1 0x40 MLOAD DUP1 SWAP2 SUB SWAP1 KECCAK256 PUSH1 0x2 ADD SLOAD TIMESTAMP GT JUMPDEST ISZERO PUSH2 0x25A1 JUMPI DUP1 PUSH1 0x40 MLOAD PUSH32 0xA10F113E00000000000000000000000000000000000000000000000000000000 DUP2 MSTORE PUSH1 0x4 ADD PUSH2 0x2598 SWAP2 SWAP1 PUSH2 0x4736 JUMP JUMPDEST PUSH1 0x40 MLOAD DUP1 SWAP2 SUB SWAP1 REVERT JUMPDEST POP JUMP JUMPDEST PUSH1 0x0 PUSH1 0x4 DUP2 GT ISZERO PUSH2 0x25B8 JUMPI PUSH2 0x25B7 PUSH2 0x4568 JUMP JUMPDEST JUMPDEST DUP2 PUSH1 0x4 DUP2 GT ISZERO PUSH2 0x25CB JUMPI PUSH2 0x25CA PUSH2 0x4568 JUMP JUMPDEST JUMPDEST SUB PUSH2 0x2602 JUMPI PUSH1 0x40 MLOAD PUSH32 0x55EF22C800000000000000000000000000000000000000000000000000000000 DUP2 MSTORE PUSH1 0x4 ADD PUSH1 0x40 MLOAD DUP1 SWAP2 SUB SWAP1 REVERT JUMPDEST POP JUMP JUMPDEST DUP1 PUSH1 0x3 DUP5 PUSH1 0x40 MLOAD PUSH2 0x2616 SWAP2 SWAP1 PUSH2 0x44EB JUMP JUMPDEST SWAP1 DUP2 MSTORE PUSH1 0x20 ADD PUSH1 0x40 MLOAD DUP1 SWAP2 SUB SWAP1 KECCAK256 PUSH1 0x0 ADD SLOAD LT ISZERO PUSH2 0x2675 JUMPI DUP3 PUSH1 0x1 PUSH1 0x0 DUP1 DUP5 PUSH1 0x40 MLOAD PUSH32 0x3FF3E6F200000000000000000000000000000000000000000000000000000000 DUP2 MSTORE PUSH1 0x4 ADD PUSH2 0x266C SWAP6 SWAP5 SWAP4 SWAP3 SWAP2 SWAP1 PUSH2 0x482A JUMP JUMPDEST PUSH1 0x40 MLOAD DUP1 SWAP2 SUB SWAP1 REVERT JUMPDEST DUP1 PUSH1 0x3 DUP5 PUSH1 0x40 MLOAD PUSH2 0x2686 SWAP2 SWAP1 PUSH2 0x44EB JUMP JUMPDEST SWAP1 DUP2 MSTORE PUSH1 0x20 ADD PUSH1 0x40 MLOAD DUP1 SWAP2 SUB SWAP1 KECCAK256 PUSH1 0x0 ADD PUSH1 0x0 DUP3 DUP3 SLOAD PUSH2 0x26A6 SWAP2 SWAP1 PUSH2 0x463C JUMP JUMPDEST SWAP3 POP POP DUP2 SWAP1 SSTORE POP PUSH1 0x0 DUP3 PUSH20 0xFFFFFFFFFFFFFFFFFFFFFFFFFFFFFFFFFFFFFFFF AND DUP3 PUSH1 0x40 MLOAD PUSH2 0x26D3 SWAP1 PUSH2 0x48B5 JUMP JUMPDEST PUSH1 0x0 PUSH1 0x40 MLOAD DUP1 DUP4 SUB DUP2 DUP6 DUP8 GAS CALL SWAP3 POP POP POP RETURNDATASIZE DUP1 PUSH1 0x0 DUP2 EQ PUSH2 0x2710 JUMPI PUSH1 0x40 MLOAD SWAP2 POP PUSH1 0x1F NOT PUSH1 0x3F RETURNDATASIZE ADD AND DUP3 ADD PUSH1 0x40 MSTORE RETURNDATASIZE DUP3 MSTORE RETURNDATASIZE PUSH1 0x0 PUSH1 0x20 DUP5 ADD RETURNDATACOPY PUSH2 0x2715 JUMP JUMPDEST PUSH1 0x60 SWAP2 POP JUMPDEST POP POP SWAP1 POP DUP1 PUSH2 0x275F JUMPI DUP4 DUP4 DUP4 PUSH1 0x40 MLOAD PUSH32 0x4B04C9D700000000000000000000000000000000000000000000000000000000 DUP2 MSTORE PUSH1 0x4 ADD PUSH2 0x2756 SWAP4 SWAP3 SWAP2 SWAP1 PUSH2 0x491F JUMP JUMPDEST PUSH1 0x40 MLOAD DUP1 SWAP2 SUB SWAP1 REVERT JUMPDEST POP POP POP POP JUMP JUMPDEST DUP1 PUSH1 0x3 DUP6 PUSH1 0x40 MLOAD PUSH2 0x2776 SWAP2 SWAP1 PUSH2 0x44EB JUMP JUMPDEST SWAP1 DUP2 MSTORE PUSH1 0x20 ADD PUSH1 0x40 MLOAD DUP1 SWAP2 SUB SWAP1 KECCAK256 PUSH1 0x1 ADD PUSH1 0x0 DUP5 PUSH20 0xFFFFFFFFFFFFFFFFFFFFFFFFFFFFFFFFFFFFFFFF AND PUSH20 0xFFFFFFFFFFFFFFFFFFFFFFFFFFFFFFFFFFFFFFFF AND DUP2 MSTORE PUSH1 0x20 ADD SWAP1 DUP2 MSTORE PUSH1 0x20 ADD PUSH1 0x0 KECCAK256 SLOAD LT ISZERO PUSH2 0x2812 JUMPI DUP4 PUSH1 0x2 DUP4 PUSH1 0x0 DUP5 PUSH1 0x40 MLOAD PUSH32 0x3FF3E6F200000000000000000000000000000000000000000000000000000000 DUP2 MSTORE PUSH1 0x4 ADD PUSH2 0x2809 SWAP6 SWAP5 SWAP4 SWAP3 SWAP2 SWAP1 PUSH2 0x482A JUMP JUMPDEST PUSH1 0x40 MLOAD DUP1 SWAP2 SUB SWAP1 REVERT JUMPDEST DUP1 PUSH1 0x3 DUP6 PUSH1 0x40 MLOAD PUSH2 0x2823 SWAP2 SWAP1 PUSH2 0x44EB JUMP JUMPDEST SWAP1 DUP2 MSTORE PUSH1 0x20 ADD PUSH1 0x40 MLOAD DUP1 SWAP2 SUB SWAP1 KECCAK256 PUSH1 0x1 ADD PUSH1 0x0 DUP5 PUSH20 0xFFFFFFFFFFFFFFFFFFFFFFFFFFFFFFFFFFFFFFFF AND PUSH20 0xFFFFFFFFFFFFFFFFFFFFFFFFFFFFFFFFFFFFFFFF AND DUP2 MSTORE PUSH1 0x20 ADD SWAP1 DUP2 MSTORE PUSH1 0x20 ADD PUSH1 0x0 KECCAK256 PUSH1 0x0 DUP3 DUP3 SLOAD PUSH2 0x2880 SWAP2 SWAP1 PUSH2 0x463C JUMP JUMPDEST SWAP3 POP POP DUP2 SWAP1 SSTORE POP DUP2 PUSH20 0xFFFFFFFFFFFFFFFFFFFFFFFFFFFFFFFFFFFFFFFF AND PUSH4 0xA9059CBB DUP5 DUP4 PUSH1 0x40 MLOAD DUP4 PUSH4 0xFFFFFFFF AND PUSH1 0xE0 SHL DUP2 MSTORE PUSH1 0x4 ADD PUSH2 0x28C2 SWAP3 SWAP2 SWAP1 PUSH2 0x495D JUMP JUMPDEST PUSH1 0x20 PUSH1 0x40 MLOAD DUP1 DUP4 SUB DUP2 PUSH1 0x0 DUP8 GAS CALL ISZERO DUP1 ISZERO PUSH2 0x28E1 JUMPI RETURNDATASIZE PUSH1 0x0 DUP1 RETURNDATACOPY RETURNDATASIZE PUSH1 0x0 REVERT JUMPDEST POP POP POP POP PUSH1 0x40 MLOAD RETURNDATASIZE PUSH1 0x1F NOT PUSH1 0x1F DUP3 ADD AND DUP3 ADD DUP1 PUSH1 0x40 MSTORE POP DUP2 ADD SWAP1 PUSH2 0x2905 SWAP2 SWAP1 PUSH2 0x499B JUMP JUMPDEST POP POP POP POP POP JUMP JUMPDEST PUSH1 0x3 DUP6 PUSH1 0x40 MLOAD PUSH2 0x291C SWAP2 SWAP1 PUSH2 0x44EB JUMP JUMPDEST SWAP1 DUP2 MSTORE PUSH1 0x20 ADD PUSH1 0x40 MLOAD DUP1 SWAP2 SUB SWAP1 KECCAK256 PUSH1 0x2 ADD PUSH1 0x0 DUP5 PUSH20 0xFFFFFFFFFFFFFFFFFFFFFFFFFFFFFFFFFFFFFFFF AND PUSH20 0xFFFFFFFFFFFFFFFFFFFFFFFFFFFFFFFFFFFFFFFF AND DUP2 MSTORE PUSH1 0x20 ADD SWAP1 DUP2 MSTORE PUSH1 0x20 ADD PUSH1 0x0 KECCAK256 PUSH1 0x0 DUP4 DUP2 MSTORE PUSH1 0x20 ADD SWAP1 DUP2 MSTORE PUSH1 0x20 ADD PUSH1 0x0 KECCAK256 PUSH1 0x0 SWAP1 SLOAD SWAP1 PUSH2 0x100 EXP SWAP1 DIV PUSH1 0xFF AND PUSH2 0x29D4 JUMPI DUP5 PUSH1 0x3 DUP5 DUP5 PUSH1 0x0 PUSH1 0x40 MLOAD PUSH32 0x3FF3E6F200000000000000000000000000000000000000000000000000000000 DUP2 MSTORE PUSH1 0x4 ADD PUSH2 0x29CB SWAP6 SWAP5 SWAP4 SWAP3 SWAP2 SWAP1 PUSH2 0x49C8 JUMP JUMPDEST PUSH1 0x40 MLOAD DUP1 SWAP2 SUB SWAP1 REVERT JUMPDEST PUSH1 0x0 PUSH1 0x3 DUP7 PUSH1 0x40 MLOAD PUSH2 0x29E6 SWAP2 SWAP1 PUSH2 0x44EB JUMP JUMPDEST SWAP1 DUP2 MSTORE PUSH1 0x20 ADD PUSH1 0x40 MLOAD DUP1 SWAP2 SUB SWAP1 KECCAK256 PUSH1 0x2 ADD PUSH1 0x0 DUP6 PUSH20 0xFFFFFFFFFFFFFFFFFFFFFFFFFFFFFFFFFFFFFFFF AND PUSH20 0xFFFFFFFFFFFFFFFFFFFFFFFFFFFFFFFFFFFFFFFF AND DUP2 MSTORE PUSH1 0x20 ADD SWAP1 DUP2 MSTORE PUSH1 0x20 ADD PUSH1 0x0 KECCAK256 PUSH1 0x0 DUP5 DUP2 MSTORE PUSH1 0x20 ADD SWAP1 DUP2 MSTORE PUSH1 0x20 ADD PUSH1 0x0 KECCAK256 PUSH1 0x0 PUSH2 0x100 EXP DUP2 SLOAD DUP2 PUSH1 0xFF MUL NOT AND SWAP1 DUP4 ISZERO ISZERO MUL OR SWAP1 SSTORE POP DUP3 PUSH20 0xFFFFFFFFFFFFFFFFFFFFFFFFFFFFFFFFFFFFFFFF AND PUSH4 0xB88D4FDE ADDRESS DUP7 DUP6 DUP6 PUSH1 0x40 MLOAD DUP6 PUSH4 0xFFFFFFFF AND PUSH1 0xE0 SHL DUP2 MSTORE PUSH1 0x4 ADD PUSH2 0x2A9B SWAP5 SWAP4 SWAP3 SWAP2 SWAP1 PUSH2 0x4A77 JUMP JUMPDEST PUSH1 0x0 PUSH1 0x40 MLOAD DUP1 DUP4 SUB DUP2 PUSH1 0x0 DUP8 DUP1 EXTCODESIZE ISZERO DUP1 ISZERO PUSH2 0x2AB5 JUMPI PUSH1 0x0 DUP1 REVERT JUMPDEST POP GAS CALL ISZERO DUP1 ISZERO PUSH2 0x2AC9 JUMPI RETURNDATASIZE PUSH1 0x0 DUP1 RETURNDATACOPY RETURNDATASIZE PUSH1 0x0 REVERT JUMPDEST POP POP POP POP POP POP POP POP POP JUMP JUMPDEST DUP2 PUSH1 0x3 DUP8 PUSH1 0x40 MLOAD PUSH2 0x2AE5 SWAP2 SWAP1 PUSH2 0x44EB JUMP JUMPDEST SWAP1 DUP2 MSTORE PUSH1 0x20 ADD PUSH1 0x40 MLOAD DUP1 SWAP2 SUB SWAP1 KECCAK256 PUSH1 0x3 ADD PUSH1 0x0 DUP7 PUSH20 0xFFFFFFFFFFFFFFFFFFFFFFFFFFFFFFFFFFFFFFFF AND PUSH20 0xFFFFFFFFFFFFFFFFFFFFFFFFFFFFFFFFFFFFFFFF AND DUP2 MSTORE PUSH1 0x20 ADD SWAP1 DUP2 MSTORE PUSH1 0x20 ADD PUSH1 0x0 KECCAK256 PUSH1 0x0 DUP6 DUP2 MSTORE PUSH1 0x20 ADD SWAP1 DUP2 MSTORE PUSH1 0x20 ADD PUSH1 0x0 KECCAK256 SLOAD LT ISZERO PUSH2 0x2B91 JUMPI DUP6 PUSH1 0x4 DUP6 DUP6 DUP6 PUSH1 0x40 MLOAD PUSH32 0x3FF3E6F200000000000000000000000000000000000000000000000000000000 DUP2 MSTORE PUSH1 0x4 ADD PUSH2 0x2B88 SWAP6 SWAP5 SWAP4 SWAP3 SWAP2 SWAP1 PUSH2 0x4AC3 JUMP JUMPDEST PUSH1 0x40 MLOAD DUP1 SWAP2 SUB SWAP1 REVERT JUMPDEST DUP2 PUSH1 0x3 DUP8 PUSH1 0x40 MLOAD PUSH2 0x2BA2 SWAP2 SWAP1 PUSH2 0x44EB JUMP JUMPDEST SWAP1 DUP2 MSTORE PUSH1 0x20 ADD PUSH1 0x40 MLOAD DUP1 SWAP2 SUB SWAP1 KECCAK256 PUSH1 0x3 ADD PUSH1 0x0 DUP7 PUSH20 0xFFFFFFFFFFFFFFFFFFFFFFFFFFFFFFFFFFFFFFFF AND PUSH20 0xFFFFFFFFFFFFFFFFFFFFFFFFFFFFFFFFFFFFFFFF AND DUP2 MSTORE PUSH1 0x20 ADD SWAP1 DUP2 MSTORE PUSH1 0x20 ADD PUSH1 0x0 KECCAK256 PUSH1 0x0 DUP6 DUP2 MSTORE PUSH1 0x20 ADD SWAP1 DUP2 MSTORE PUSH1 0x20 ADD PUSH1 0x0 KECCAK256 PUSH1 0x0 DUP3 DUP3 SLOAD PUSH2 0x2C10 SWAP2 SWAP1 PUSH2 0x463C JUMP JUMPDEST SWAP3 POP POP DUP2 SWAP1 SSTORE POP DUP4 PUSH20 0xFFFFFFFFFFFFFFFFFFFFFFFFFFFFFFFFFFFFFFFF AND PUSH4 0xF242432A ADDRESS DUP8 DUP7 DUP7 DUP7 PUSH1 0x40 MLOAD DUP7 PUSH4 0xFFFFFFFF AND PUSH1 0xE0 SHL DUP2 MSTORE PUSH1 0x4 ADD PUSH2 0x2C58 SWAP6 SWAP5 SWAP4 SWAP3 SWAP2 SWAP1 PUSH2 0x4B1D JUMP JUMPDEST PUSH1 0x0 PUSH1 0x40 MLOAD DUP1 DUP4 SUB DUP2 PUSH1 0x0 DUP8 DUP1 EXTCODESIZE ISZERO DUP1 ISZERO PUSH2 0x2C72 JUMPI PUSH1 0x0 DUP1 REVERT JUMPDEST POP GAS CALL ISZERO DUP1 ISZERO PUSH2 0x2C86 JUMPI RETURNDATASIZE PUSH1 0x0 DUP1 RETURNDATACOPY RETURNDATASIZE PUSH1 0x0 REVERT JUMPDEST POP POP POP POP POP POP POP POP POP POP JUMP JUMPDEST DUP1 PUSH1 0x6 DUP4 PUSH1 0x40 MLOAD PUSH2 0x2CA3 SWAP2 SWAP1 PUSH2 0x44EB JUMP JUMPDEST SWAP1 DUP2 MSTORE PUSH1 0x20 ADD PUSH1 0x40 MLOAD DUP1 SWAP2 SUB SWAP1 KECCAK256 PUSH1 0x4 ADD DUP2 SWAP1 SSTORE POP DUP1 DUP3 PUSH1 0x40 MLOAD PUSH2 0x2CC7 SWAP2 SWAP1 PUSH2 0x44EB JUMP JUMPDEST PUSH1 0x40 MLOAD DUP1 SWAP2 SUB SWAP1 KECCAK256 PUSH32 0x67E6D887E552E672EC87C7DC6CEA665A2ACBDC4A5841556D69C713812E0B4015 PUSH1 0x40 MLOAD PUSH1 0x40 MLOAD DUP1 SWAP2 SUB SWAP1 LOG3 POP POP JUMP JUMPDEST PUSH2 0x2D07 PUSH2 0x2DB7 JUMP JUMPDEST PUSH20 0xFFFFFFFFFFFFFFFFFFFFFFFFFFFFFFFFFFFFFFFF AND PUSH2 0x2D25 PUSH2 0x1250 JUMP JUMPDEST PUSH20 0xFFFFFFFFFFFFFFFFFFFFFFFFFFFFFFFFFFFFFFFF AND EQ PUSH2 0x2D84 JUMPI PUSH2 0x2D48 PUSH2 0x2DB7 JUMP JUMPDEST PUSH1 0x40 MLOAD PUSH32 0x118CDAA700000000000000000000000000000000000000000000000000000000 DUP2 MSTORE PUSH1 0x4 ADD PUSH2 0x2D7B SWAP2 SWAP1 PUSH2 0x3EDF JUMP JUMPDEST PUSH1 0x40 MLOAD DUP1 SWAP2 SUB SWAP1 REVERT JUMPDEST JUMP JUMPDEST PUSH1 0x1 PUSH1 0x0 PUSH2 0x100 EXP DUP2 SLOAD SWAP1 PUSH20 0xFFFFFFFFFFFFFFFFFFFFFFFFFFFFFFFFFFFFFFFF MUL NOT AND SWAP1 SSTORE PUSH2 0x2DB4 DUP2 PUSH2 0x2FAB JUMP JUMPDEST POP JUMP JUMPDEST PUSH1 0x0 CALLER SWAP1 POP SWAP1 JUMP JUMPDEST PUSH1 0x0 JUMPDEST DUP5 DUP5 SWAP1 POP DUP2 LT ISZERO PUSH2 0x2E92 JUMPI DUP3 DUP3 DUP3 DUP2 DUP2 LT PUSH2 0x2DE0 JUMPI PUSH2 0x2DDF PUSH2 0x4539 JUMP JUMPDEST JUMPDEST SWAP1 POP PUSH1 0x20 MUL ADD CALLDATALOAD PUSH1 0x3 DUP10 PUSH1 0x40 MLOAD PUSH2 0x2DF7 SWAP2 SWAP1 PUSH2 0x44EB JUMP JUMPDEST SWAP1 DUP2 MSTORE PUSH1 0x20 ADD PUSH1 0x40 MLOAD DUP1 SWAP2 SUB SWAP1 KECCAK256 PUSH1 0x3 ADD PUSH1 0x0 DUP9 PUSH20 0xFFFFFFFFFFFFFFFFFFFFFFFFFFFFFFFFFFFFFFFF AND PUSH20 0xFFFFFFFFFFFFFFFFFFFFFFFFFFFFFFFFFFFFFFFF AND DUP2 MSTORE PUSH1 0x20 ADD SWAP1 DUP2 MSTORE PUSH1 0x20 ADD PUSH1 0x0 KECCAK256 PUSH1 0x0 DUP8 DUP8 DUP6 DUP2 DUP2 LT PUSH2 0x2E5A JUMPI PUSH2 0x2E59 PUSH2 0x4539 JUMP JUMPDEST JUMPDEST SWAP1 POP PUSH1 0x20 MUL ADD CALLDATALOAD DUP2 MSTORE PUSH1 0x20 ADD SWAP1 DUP2 MSTORE PUSH1 0x20 ADD PUSH1 0x0 KECCAK256 PUSH1 0x0 DUP3 DUP3 SLOAD PUSH2 0x2E7E SWAP2 SWAP1 PUSH2 0x45C6 JUMP JUMPDEST SWAP3 POP POP DUP2 SWAP1 SSTORE POP DUP1 DUP1 PUSH1 0x1 ADD SWAP2 POP POP PUSH2 0x2DC2 JUMP JUMPDEST POP PUSH32 0x1E9B2F0B5318E95ABEAFB82B7CAC3BB5EEA75FEF85B4D6D7BFC961BA8F244F47 DUP8 DUP8 DUP8 DUP8 DUP8 DUP8 DUP8 PUSH1 0x40 MLOAD PUSH2 0x2ECE SWAP8 SWAP7 SWAP6 SWAP5 SWAP4 SWAP3 SWAP2 SWAP1 PUSH2 0x4BE1 JUMP JUMPDEST PUSH1 0x40 MLOAD DUP1 SWAP2 SUB SWAP1 LOG1 POP POP POP POP POP POP POP JUMP JUMPDEST DUP1 PUSH1 0x3 DUP7 PUSH1 0x40 MLOAD PUSH2 0x2EF0 SWAP2 SWAP1 PUSH2 0x44EB JUMP JUMPDEST SWAP1 DUP2 MSTORE PUSH1 0x20 ADD PUSH1 0x40 MLOAD DUP1 SWAP2 SUB SWAP1 KECCAK256 PUSH1 0x3 ADD PUSH1 0x0 DUP6 PUSH20 0xFFFFFFFFFFFFFFFFFFFFFFFFFFFFFFFFFFFFFFFF AND PUSH20 0xFFFFFFFFFFFFFFFFFFFFFFFFFFFFFFFFFFFFFFFF AND DUP2 MSTORE PUSH1 0x20 ADD SWAP1 DUP2 MSTORE PUSH1 0x20 ADD PUSH1 0x0 KECCAK256 PUSH1 0x0 DUP5 DUP2 MSTORE PUSH1 0x20 ADD SWAP1 DUP2 MSTORE PUSH1 0x20 ADD PUSH1 0x0 KECCAK256 PUSH1 0x0 DUP3 DUP3 SLOAD PUSH2 0x2F5E SWAP2 SWAP1 PUSH2 0x45C6 JUMP JUMPDEST SWAP3 POP POP DUP2 SWAP1 SSTORE POP PUSH32 0xBE7DB84854DD3E0DF069AC0A150DA03C819444FA894E00BD5902B3CF8152B21D DUP6 DUP6 DUP6 DUP6 DUP6 PUSH1 0x40 MLOAD PUSH2 0x2F9C SWAP6 SWAP5 SWAP4 SWAP3 SWAP2 SWAP1 PUSH2 0x4C4D JUMP JUMPDEST PUSH1 0x40 MLOAD DUP1 SWAP2 SUB SWAP1 LOG1 POP POP POP POP POP JUMP JUMPDEST PUSH1 0x0 DUP1 PUSH1 0x0 SWAP1 SLOAD SWAP1 PUSH2 0x100 EXP SWAP1 DIV PUSH20 0xFFFFFFFFFFFFFFFFFFFFFFFFFFFFFFFFFFFFFFFF AND SWAP1 POP DUP2 PUSH1 0x0 DUP1 PUSH2 0x100 EXP DUP2 SLOAD DUP2 PUSH20 0xFFFFFFFFFFFFFFFFFFFFFFFFFFFFFFFFFFFFFFFF MUL NOT AND SWAP1 DUP4 PUSH20 0xFFFFFFFFFFFFFFFFFFFFFFFFFFFFFFFFFFFFFFFF AND MUL OR SWAP1 SSTORE POP DUP2 PUSH20 0xFFFFFFFFFFFFFFFFFFFFFFFFFFFFFFFFFFFFFFFF AND DUP2 PUSH20 0xFFFFFFFFFFFFFFFFFFFFFFFFFFFFFFFFFFFFFFFF AND PUSH32 0x8BE0079C531659141344CD1FD0A4F28419497F9722A3DAAFE3B4186F6B6457E0 PUSH1 0x40 MLOAD PUSH1 0x40 MLOAD DUP1 SWAP2 SUB SWAP1 LOG3 POP POP JUMP JUMPDEST PUSH1 0x0 PUSH1 0x40 MLOAD SWAP1 POP SWAP1 JUMP JUMPDEST PUSH1 0x0 DUP1 REVERT JUMPDEST PUSH1 0x0 DUP1 REVERT JUMPDEST PUSH1 0x0 PUSH32 0xFFFFFFFF00000000000000000000000000000000000000000000000000000000 DUP3 AND SWAP1 POP SWAP2 SWAP1 POP JUMP JUMPDEST PUSH2 0x30B8 DUP2 PUSH2 0x3083 JUMP JUMPDEST DUP2 EQ PUSH2 0x30C3 JUMPI PUSH1 0x0 DUP1 REVERT JUMPDEST POP JUMP JUMPDEST PUSH1 0x0 DUP2 CALLDATALOAD SWAP1 POP PUSH2 0x30D5 DUP2 PUSH2 0x30AF JUMP JUMPDEST SWAP3 SWAP2 POP POP JUMP JUMPDEST PUSH1 0x0 PUSH1 0x20 DUP3 DUP5 SUB SLT ISZERO PUSH2 0x30F1 JUMPI PUSH2 0x30F0 PUSH2 0x3079 JUMP JUMPDEST JUMPDEST PUSH1 0x0 PUSH2 0x30FF DUP5 DUP3 DUP6 ADD PUSH2 0x30C6 JUMP JUMPDEST SWAP2 POP POP SWAP3 SWAP2 POP POP JUMP JUMPDEST PUSH1 0x0 DUP2 ISZERO ISZERO SWAP1 POP SWAP2 SWAP1 POP JUMP JUMPDEST PUSH2 0x311D DUP2 PUSH2 0x3108 JUMP JUMPDEST DUP3 MSTORE POP POP JUMP JUMPDEST PUSH1 0x0 PUSH1 0x20 DUP3 ADD SWAP1 POP PUSH2 0x3138 PUSH1 0x0 DUP4 ADD DUP5 PUSH2 0x3114 JUMP JUMPDEST SWAP3 SWAP2 POP POP JUMP JUMPDEST PUSH1 0x0 DUP1 REVERT JUMPDEST PUSH1 0x0 DUP1 REVERT JUMPDEST PUSH1 0x0 PUSH1 0x1F NOT PUSH1 0x1F DUP4 ADD AND SWAP1 POP SWAP2 SWAP1 POP JUMP JUMPDEST PUSH32 0x4E487B7100000000000000000000000000000000000000000000000000000000 PUSH1 0x0 MSTORE PUSH1 0x41 PUSH1 0x4 MSTORE PUSH1 0x24 PUSH1 0x0 REVERT JUMPDEST PUSH2 0x3191 DUP3 PUSH2 0x3148 JUMP JUMPDEST DUP2 ADD DUP2 DUP2 LT PUSH8 0xFFFFFFFFFFFFFFFF DUP3 GT OR ISZERO PUSH2 0x31B0 JUMPI PUSH2 0x31AF PUSH2 0x3159 JUMP JUMPDEST JUMPDEST DUP1 PUSH1 0x40 MSTORE POP POP POP JUMP JUMPDEST PUSH1 0x0 PUSH2 0x31C3 PUSH2 0x306F JUMP JUMPDEST SWAP1 POP PUSH2 0x31CF DUP3 DUP3 PUSH2 0x3188 JUMP JUMPDEST SWAP2 SWAP1 POP JUMP JUMPDEST PUSH1 0x0 PUSH8 0xFFFFFFFFFFFFFFFF DUP3 GT ISZERO PUSH2 0x31EF JUMPI PUSH2 0x31EE PUSH2 0x3159 JUMP JUMPDEST JUMPDEST PUSH2 0x31F8 DUP3 PUSH2 0x3148 JUMP JUMPDEST SWAP1 POP PUSH1 0x20 DUP2 ADD SWAP1 POP SWAP2 SWAP1 POP JUMP JUMPDEST DUP3 DUP2 DUP4 CALLDATACOPY PUSH1 0x0 DUP4 DUP4 ADD MSTORE POP POP POP JUMP JUMPDEST PUSH1 0x0 PUSH2 0x3227 PUSH2 0x3222 DUP5 PUSH2 0x31D4 JUMP JUMPDEST PUSH2 0x31B9 JUMP JUMPDEST SWAP1 POP DUP3 DUP2 MSTORE PUSH1 0x20 DUP2 ADD DUP5 DUP5 DUP5 ADD GT ISZERO PUSH2 0x3243 JUMPI PUSH2 0x3242 PUSH2 0x3143 JUMP JUMPDEST JUMPDEST PUSH2 0x324E DUP5 DUP3 DUP6 PUSH2 0x3205 JUMP JUMPDEST POP SWAP4 SWAP3 POP POP POP JUMP JUMPDEST PUSH1 0x0 DUP3 PUSH1 0x1F DUP4 ADD SLT PUSH2 0x326B JUMPI PUSH2 0x326A PUSH2 0x313E JUMP JUMPDEST JUMPDEST DUP2 CALLDATALOAD PUSH2 0x327B DUP5 DUP3 PUSH1 0x20 DUP7 ADD PUSH2 0x3214 JUMP JUMPDEST SWAP2 POP POP SWAP3 SWAP2 POP POP JUMP JUMPDEST PUSH1 0x0 PUSH20 0xFFFFFFFFFFFFFFFFFFFFFFFFFFFFFFFFFFFFFFFF DUP3 AND SWAP1 POP SWAP2 SWAP1 POP JUMP JUMPDEST PUSH1 0x0 PUSH2 0x32AF DUP3 PUSH2 0x3284 JUMP JUMPDEST SWAP1 POP SWAP2 SWAP1 POP JUMP JUMPDEST PUSH2 0x32BF DUP2 PUSH2 0x32A4 JUMP JUMPDEST DUP2 EQ PUSH2 0x32CA JUMPI PUSH1 0x0 DUP1 REVERT JUMPDEST POP JUMP JUMPDEST PUSH1 0x0 DUP2 CALLDATALOAD SWAP1 POP PUSH2 0x32DC DUP2 PUSH2 0x32B6 JUMP JUMPDEST SWAP3 SWAP2 POP POP JUMP JUMPDEST PUSH1 0x0 DUP1 PUSH1 0x40 DUP4 DUP6 SUB SLT ISZERO PUSH2 0x32F9 JUMPI PUSH2 0x32F8 PUSH2 0x3079 JUMP JUMPDEST JUMPDEST PUSH1 0x0 DUP4 ADD CALLDATALOAD PUSH8 0xFFFFFFFFFFFFFFFF DUP2 GT ISZERO PUSH2 0x3317 JUMPI PUSH2 0x3316 PUSH2 0x307E JUMP JUMPDEST JUMPDEST PUSH2 0x3323 DUP6 DUP3 DUP7 ADD PUSH2 0x3256 JUMP JUMPDEST SWAP3 POP POP PUSH1 0x20 PUSH2 0x3334 DUP6 DUP3 DUP7 ADD PUSH2 0x32CD JUMP JUMPDEST SWAP2 POP POP SWAP3 POP SWAP3 SWAP1 POP JUMP JUMPDEST PUSH1 0x0 DUP2 SWAP1 POP SWAP2 SWAP1 POP JUMP JUMPDEST PUSH2 0x3351 DUP2 PUSH2 0x333E JUMP JUMPDEST DUP3 MSTORE POP POP JUMP JUMPDEST PUSH1 0x0 PUSH1 0x20 DUP3 ADD SWAP1 POP PUSH2 0x336C PUSH1 0x0 DUP4 ADD DUP5 PUSH2 0x3348 JUMP JUMPDEST SWAP3 SWAP2 POP POP JUMP JUMPDEST PUSH2 0x337B DUP2 PUSH2 0x333E JUMP JUMPDEST DUP2 EQ PUSH2 0x3386 JUMPI PUSH1 0x0 DUP1 REVERT JUMPDEST POP JUMP JUMPDEST PUSH1 0x0 DUP2 CALLDATALOAD SWAP1 POP PUSH2 0x3398 DUP2 PUSH2 0x3372 JUMP JUMPDEST SWAP3 SWAP2 POP POP JUMP JUMPDEST PUSH1 0x0 DUP1 REVERT JUMPDEST PUSH1 0x0 DUP1 REVERT JUMPDEST PUSH1 0x0 DUP1 DUP4 PUSH1 0x1F DUP5 ADD SLT PUSH2 0x33BE JUMPI PUSH2 0x33BD PUSH2 0x313E JUMP JUMPDEST JUMPDEST DUP3 CALLDATALOAD SWAP1 POP PUSH8 0xFFFFFFFFFFFFFFFF DUP2 GT ISZERO PUSH2 0x33DB JUMPI PUSH2 0x33DA PUSH2 0x339E JUMP JUMPDEST JUMPDEST PUSH1 0x20 DUP4 ADD SWAP2 POP DUP4 PUSH1 0x1 DUP3 MUL DUP4 ADD GT ISZERO PUSH2 0x33F7 JUMPI PUSH2 0x33F6 PUSH2 0x33A3 JUMP JUMPDEST JUMPDEST SWAP3 POP SWAP3 SWAP1 POP JUMP JUMPDEST PUSH1 0x0 DUP1 PUSH1 0x0 DUP1 PUSH1 0x0 PUSH1 0x80 DUP7 DUP9 SUB SLT ISZERO PUSH2 0x341A JUMPI PUSH2 0x3419 PUSH2 0x3079 JUMP JUMPDEST JUMPDEST PUSH1 0x0 PUSH2 0x3428 DUP9 DUP3 DUP10 ADD PUSH2 0x32CD JUMP JUMPDEST SWAP6 POP POP PUSH1 0x20 PUSH2 0x3439 DUP9 DUP3 DUP10 ADD PUSH2 0x32CD JUMP JUMPDEST SWAP5 POP POP PUSH1 0x40 PUSH2 0x344A DUP9 DUP3 DUP10 ADD PUSH2 0x3389 JUMP JUMPDEST SWAP4 POP POP PUSH1 0x60 DUP7 ADD CALLDATALOAD PUSH8 0xFFFFFFFFFFFFFFFF DUP2 GT ISZERO PUSH2 0x346B JUMPI PUSH2 0x346A PUSH2 0x307E JUMP JUMPDEST JUMPDEST PUSH2 0x3477 DUP9 DUP3 DUP10 ADD PUSH2 0x33A8 JUMP JUMPDEST SWAP3 POP SWAP3 POP POP SWAP3 SWAP6 POP SWAP3 SWAP6 SWAP1 SWAP4 POP JUMP JUMPDEST PUSH2 0x348F DUP2 PUSH2 0x3083 JUMP JUMPDEST DUP3 MSTORE POP POP JUMP JUMPDEST PUSH1 0x0 PUSH1 0x20 DUP3 ADD SWAP1 POP PUSH2 0x34AA PUSH1 0x0 DUP4 ADD DUP5 PUSH2 0x3486 JUMP JUMPDEST SWAP3 SWAP2 POP POP JUMP JUMPDEST PUSH1 0x0 PUSH1 0x20 DUP3 DUP5 SUB SLT ISZERO PUSH2 0x34C6 JUMPI PUSH2 0x34C5 PUSH2 0x3079 JUMP JUMPDEST JUMPDEST PUSH1 0x0 DUP3 ADD CALLDATALOAD PUSH8 0xFFFFFFFFFFFFFFFF DUP2 GT ISZERO PUSH2 0x34E4 JUMPI PUSH2 0x34E3 PUSH2 0x307E JUMP JUMPDEST JUMPDEST PUSH2 0x34F0 DUP5 DUP3 DUP6 ADD PUSH2 0x3256 JUMP JUMPDEST SWAP2 POP POP SWAP3 SWAP2 POP POP JUMP JUMPDEST PUSH2 0x3502 DUP2 PUSH2 0x32A4 JUMP JUMPDEST DUP3 MSTORE POP POP JUMP JUMPDEST PUSH1 0x0 PUSH1 0xC0 DUP3 ADD SWAP1 POP PUSH2 0x351D PUSH1 0x0 DUP4 ADD DUP10 PUSH2 0x34F9 JUMP JUMPDEST PUSH2 0x352A PUSH1 0x20 DUP4 ADD DUP9 PUSH2 0x3348 JUMP JUMPDEST PUSH2 0x3537 PUSH1 0x40 DUP4 ADD DUP8 PUSH2 0x3348 JUMP JUMPDEST PUSH2 0x3544 PUSH1 0x60 DUP4 ADD DUP7 PUSH2 0x3348 JUMP JUMPDEST PUSH2 0x3551 PUSH1 0x80 DUP4 ADD DUP6 PUSH2 0x3348 JUMP JUMPDEST PUSH2 0x355E PUSH1 0xA0 DUP4 ADD DUP5 PUSH2 0x3114 JUMP JUMPDEST SWAP8 SWAP7 POP POP POP POP POP POP POP JUMP JUMPDEST PUSH1 0x0 DUP1 PUSH1 0x0 PUSH1 0x60 DUP5 DUP7 SUB SLT ISZERO PUSH2 0x3582 JUMPI PUSH2 0x3581 PUSH2 0x3079 JUMP JUMPDEST JUMPDEST PUSH1 0x0 DUP5 ADD CALLDATALOAD PUSH8 0xFFFFFFFFFFFFFFFF DUP2 GT ISZERO PUSH2 0x35A0 JUMPI PUSH2 0x359F PUSH2 0x307E JUMP JUMPDEST JUMPDEST PUSH2 0x35AC DUP7 DUP3 DUP8 ADD PUSH2 0x3256 JUMP JUMPDEST SWAP4 POP POP PUSH1 0x20 PUSH2 0x35BD DUP7 DUP3 DUP8 ADD PUSH2 0x3389 JUMP JUMPDEST SWAP3 POP POP PUSH1 0x40 PUSH2 0x35CE DUP7 DUP3 DUP8 ADD PUSH2 0x3389 JUMP JUMPDEST SWAP2 POP POP SWAP3 POP SWAP3 POP SWAP3 JUMP JUMPDEST PUSH1 0x0 DUP2 SWAP1 POP SWAP2 SWAP1 POP JUMP JUMPDEST PUSH2 0x35EB DUP2 PUSH2 0x35D8 JUMP JUMPDEST DUP2 EQ PUSH2 0x35F6 JUMPI PUSH1 0x0 DUP1 REVERT JUMPDEST POP JUMP JUMPDEST PUSH1 0x0 DUP2 CALLDATALOAD SWAP1 POP PUSH2 0x3608 DUP2 PUSH2 0x35E2 JUMP JUMPDEST SWAP3 SWAP2 POP POP JUMP JUMPDEST PUSH1 0x0 DUP1 PUSH1 0x0 PUSH1 0x60 DUP5 DUP7 SUB SLT ISZERO PUSH2 0x3627 JUMPI PUSH2 0x3626 PUSH2 0x3079 JUMP JUMPDEST JUMPDEST PUSH1 0x0 PUSH2 0x3635 DUP7 DUP3 DUP8 ADD PUSH2 0x3389 JUMP JUMPDEST SWAP4 POP POP PUSH1 0x20 PUSH2 0x3646 DUP7 DUP3 DUP8 ADD PUSH2 0x35F9 JUMP JUMPDEST SWAP3 POP POP PUSH1 0x40 PUSH2 0x3657 DUP7 DUP3 DUP8 ADD PUSH2 0x3389 JUMP JUMPDEST SWAP2 POP POP SWAP3 POP SWAP3 POP SWAP3 JUMP JUMPDEST PUSH2 0x366A DUP2 PUSH2 0x3108 JUMP JUMPDEST DUP2 EQ PUSH2 0x3675 JUMPI PUSH1 0x0 DUP1 REVERT JUMPDEST POP JUMP JUMPDEST PUSH1 0x0 DUP2 CALLDATALOAD SWAP1 POP PUSH2 0x3687 DUP2 PUSH2 0x3661 JUMP JUMPDEST SWAP3 SWAP2 POP POP JUMP JUMPDEST PUSH1 0x0 DUP1 PUSH1 0x40 DUP4 DUP6 SUB SLT ISZERO PUSH2 0x36A4 JUMPI PUSH2 0x36A3 PUSH2 0x3079 JUMP JUMPDEST JUMPDEST PUSH1 0x0 DUP4 ADD CALLDATALOAD PUSH8 0xFFFFFFFFFFFFFFFF DUP2 GT ISZERO PUSH2 0x36C2 JUMPI PUSH2 0x36C1 PUSH2 0x307E JUMP JUMPDEST JUMPDEST PUSH2 0x36CE DUP6 DUP3 DUP7 ADD PUSH2 0x3256 JUMP JUMPDEST SWAP3 POP POP PUSH1 0x20 PUSH2 0x36DF DUP6 DUP3 DUP7 ADD PUSH2 0x3678 JUMP JUMPDEST SWAP2 POP POP SWAP3 POP SWAP3 SWAP1 POP JUMP JUMPDEST PUSH1 0x0 PUSH2 0x36F4 DUP3 PUSH2 0x3284 JUMP JUMPDEST SWAP1 POP SWAP2 SWAP1 POP JUMP JUMPDEST PUSH2 0x3704 DUP2 PUSH2 0x36E9 JUMP JUMPDEST DUP2 EQ PUSH2 0x370F JUMPI PUSH1 0x0 DUP1 REVERT JUMPDEST POP JUMP JUMPDEST PUSH1 0x0 DUP2 CALLDATALOAD SWAP1 POP PUSH2 0x3721 DUP2 PUSH2 0x36FB JUMP JUMPDEST SWAP3 SWAP2 POP POP JUMP JUMPDEST PUSH1 0x5 DUP2 LT PUSH2 0x3734 JUMPI PUSH1 0x0 DUP1 REVERT JUMPDEST POP JUMP JUMPDEST PUSH1 0x0 DUP2 CALLDATALOAD SWAP1 POP PUSH2 0x3746 DUP2 PUSH2 0x3727 JUMP JUMPDEST SWAP3 SWAP2 POP POP JUMP JUMPDEST PUSH1 0x0 PUSH8 0xFFFFFFFFFFFFFFFF DUP3 GT ISZERO PUSH2 0x3767 JUMPI PUSH2 0x3766 PUSH2 0x3159 JUMP JUMPDEST JUMPDEST PUSH2 0x3770 DUP3 PUSH2 0x3148 JUMP JUMPDEST SWAP1 POP PUSH1 0x20 DUP2 ADD SWAP1 POP SWAP2 SWAP1 POP JUMP JUMPDEST PUSH1 0x0 PUSH2 0x3790 PUSH2 0x378B DUP5 PUSH2 0x374C JUMP JUMPDEST PUSH2 0x31B9 JUMP JUMPDEST SWAP1 POP DUP3 DUP2 MSTORE PUSH1 0x20 DUP2 ADD DUP5 DUP5 DUP5 ADD GT ISZERO PUSH2 0x37AC JUMPI PUSH2 0x37AB PUSH2 0x3143 JUMP JUMPDEST JUMPDEST PUSH2 0x37B7 DUP5 DUP3 DUP6 PUSH2 0x3205 JUMP JUMPDEST POP SWAP4 SWAP3 POP POP POP JUMP JUMPDEST PUSH1 0x0 DUP3 PUSH1 0x1F DUP4 ADD SLT PUSH2 0x37D4 JUMPI PUSH2 0x37D3 PUSH2 0x313E JUMP JUMPDEST JUMPDEST DUP2 CALLDATALOAD PUSH2 0x37E4 DUP5 DUP3 PUSH1 0x20 DUP7 ADD PUSH2 0x377D JUMP JUMPDEST SWAP2 POP POP SWAP3 SWAP2 POP POP JUMP JUMPDEST PUSH1 0x0 DUP1 PUSH1 0x0 DUP1 PUSH1 0x0 DUP1 PUSH1 0x0 PUSH1 0xE0 DUP9 DUP11 SUB SLT ISZERO PUSH2 0x380C JUMPI PUSH2 0x380B PUSH2 0x3079 JUMP JUMPDEST JUMPDEST PUSH1 0x0 DUP9 ADD CALLDATALOAD PUSH8 0xFFFFFFFFFFFFFFFF DUP2 GT ISZERO PUSH2 0x382A JUMPI PUSH2 0x3829 PUSH2 0x307E JUMP JUMPDEST JUMPDEST PUSH2 0x3836 DUP11 DUP3 DUP12 ADD PUSH2 0x3256 JUMP JUMPDEST SWAP8 POP POP PUSH1 0x20 PUSH2 0x3847 DUP11 DUP3 DUP12 ADD PUSH2 0x3712 JUMP JUMPDEST SWAP7 POP POP PUSH1 0x40 PUSH2 0x3858 DUP11 DUP3 DUP12 ADD PUSH2 0x32CD JUMP JUMPDEST SWAP6 POP POP PUSH1 0x60 PUSH2 0x3869 DUP11 DUP3 DUP12 ADD PUSH2 0x3737 JUMP JUMPDEST SWAP5 POP POP PUSH1 0x80 PUSH2 0x387A DUP11 DUP3 DUP12 ADD PUSH2 0x3389 JUMP JUMPDEST SWAP4 POP POP PUSH1 0xA0 PUSH2 0x388B DUP11 DUP3 DUP12 ADD PUSH2 0x3389 JUMP JUMPDEST SWAP3 POP POP PUSH1 0xC0 DUP9 ADD CALLDATALOAD PUSH8 0xFFFFFFFFFFFFFFFF DUP2 GT ISZERO PUSH2 0x38AC JUMPI PUSH2 0x38AB PUSH2 0x307E JUMP JUMPDEST JUMPDEST PUSH2 0x38B8 DUP11 DUP3 DUP12 ADD PUSH2 0x37BF JUMP JUMPDEST SWAP2 POP POP SWAP3 SWAP6 SWAP9 SWAP2 SWAP5 SWAP8 POP SWAP3 SWAP6 POP JUMP JUMPDEST PUSH1 0x0 DUP1 REVERT JUMPDEST PUSH1 0x0 DUP1 REVERT JUMPDEST PUSH1 0x0 PUSH8 0xFFFFFFFFFFFFFFFF DUP3 GT ISZERO PUSH2 0x38EC JUMPI PUSH2 0x38EB PUSH2 0x3159 JUMP JUMPDEST JUMPDEST PUSH1 0x20 DUP3 MUL SWAP1 POP PUSH1 0x20 DUP2 ADD SWAP1 POP SWAP2 SWAP1 POP JUMP JUMPDEST PUSH1 0x0 PUSH2 0x3910 PUSH2 0x390B DUP5 PUSH2 0x38D1 JUMP JUMPDEST PUSH2 0x31B9 JUMP JUMPDEST SWAP1 POP DUP1 DUP4 DUP3 MSTORE PUSH1 0x20 DUP3 ADD SWAP1 POP PUSH1 0x20 DUP5 MUL DUP4 ADD DUP6 DUP2 GT ISZERO PUSH2 0x3933 JUMPI PUSH2 0x3932 PUSH2 0x33A3 JUMP JUMPDEST JUMPDEST DUP4 JUMPDEST DUP2 DUP2 LT ISZERO PUSH2 0x395C JUMPI DUP1 PUSH2 0x3948 DUP9 DUP3 PUSH2 0x32CD JUMP JUMPDEST DUP5 MSTORE PUSH1 0x20 DUP5 ADD SWAP4 POP POP PUSH1 0x20 DUP2 ADD SWAP1 POP PUSH2 0x3935 JUMP JUMPDEST POP POP POP SWAP4 SWAP3 POP POP POP JUMP JUMPDEST PUSH1 0x0 DUP3 PUSH1 0x1F DUP4 ADD SLT PUSH2 0x397B JUMPI PUSH2 0x397A PUSH2 0x313E JUMP JUMPDEST JUMPDEST DUP2 CALLDATALOAD PUSH2 0x398B DUP5 DUP3 PUSH1 0x20 DUP7 ADD PUSH2 0x38FD JUMP JUMPDEST SWAP2 POP POP SWAP3 SWAP2 POP POP JUMP JUMPDEST PUSH1 0x0 PUSH8 0xFFFFFFFFFFFFFFFF DUP3 GT ISZERO PUSH2 0x39AF JUMPI PUSH2 0x39AE PUSH2 0x3159 JUMP JUMPDEST JUMPDEST PUSH1 0x20 DUP3 MUL SWAP1 POP PUSH1 0x20 DUP2 ADD SWAP1 POP SWAP2 SWAP1 POP JUMP JUMPDEST PUSH1 0x0 PUSH2 0x39D3 PUSH2 0x39CE DUP5 PUSH2 0x3994 JUMP JUMPDEST PUSH2 0x31B9 JUMP JUMPDEST SWAP1 POP DUP1 DUP4 DUP3 MSTORE PUSH1 0x20 DUP3 ADD SWAP1 POP PUSH1 0x20 DUP5 MUL DUP4 ADD DUP6 DUP2 GT ISZERO PUSH2 0x39F6 JUMPI PUSH2 0x39F5 PUSH2 0x33A3 JUMP JUMPDEST JUMPDEST DUP4 JUMPDEST DUP2 DUP2 LT ISZERO PUSH2 0x3A1F JUMPI DUP1 PUSH2 0x3A0B DUP9 DUP3 PUSH2 0x3737 JUMP JUMPDEST DUP5 MSTORE PUSH1 0x20 DUP5 ADD SWAP4 POP POP PUSH1 0x20 DUP2 ADD SWAP1 POP PUSH2 0x39F8 JUMP JUMPDEST POP POP POP SWAP4 SWAP3 POP POP POP JUMP JUMPDEST PUSH1 0x0 DUP3 PUSH1 0x1F DUP4 ADD SLT PUSH2 0x3A3E JUMPI PUSH2 0x3A3D PUSH2 0x313E JUMP JUMPDEST JUMPDEST DUP2 CALLDATALOAD PUSH2 0x3A4E DUP5 DUP3 PUSH1 0x20 DUP7 ADD PUSH2 0x39C0 JUMP JUMPDEST SWAP2 POP POP SWAP3 SWAP2 POP POP JUMP JUMPDEST PUSH1 0x0 PUSH8 0xFFFFFFFFFFFFFFFF DUP3 GT ISZERO PUSH2 0x3A72 JUMPI PUSH2 0x3A71 PUSH2 0x3159 JUMP JUMPDEST JUMPDEST PUSH1 0x20 DUP3 MUL SWAP1 POP PUSH1 0x20 DUP2 ADD SWAP1 POP SWAP2 SWAP1 POP JUMP JUMPDEST PUSH1 0x0 PUSH2 0x3A96 PUSH2 0x3A91 DUP5 PUSH2 0x3A57 JUMP JUMPDEST PUSH2 0x31B9 JUMP JUMPDEST SWAP1 POP DUP1 DUP4 DUP3 MSTORE PUSH1 0x20 DUP3 ADD SWAP1 POP PUSH1 0x20 DUP5 MUL DUP4 ADD DUP6 DUP2 GT ISZERO PUSH2 0x3AB9 JUMPI PUSH2 0x3AB8 PUSH2 0x33A3 JUMP JUMPDEST JUMPDEST DUP4 JUMPDEST DUP2 DUP2 LT ISZERO PUSH2 0x3AE2 JUMPI DUP1 PUSH2 0x3ACE DUP9 DUP3 PUSH2 0x3389 JUMP JUMPDEST DUP5 MSTORE PUSH1 0x20 DUP5 ADD SWAP4 POP POP PUSH1 0x20 DUP2 ADD SWAP1 POP PUSH2 0x3ABB JUMP JUMPDEST POP POP POP SWAP4 SWAP3 POP POP POP JUMP JUMPDEST PUSH1 0x0 DUP3 PUSH1 0x1F DUP4 ADD SLT PUSH2 0x3B01 JUMPI PUSH2 0x3B00 PUSH2 0x313E JUMP JUMPDEST JUMPDEST DUP2 CALLDATALOAD PUSH2 0x3B11 DUP5 DUP3 PUSH1 0x20 DUP7 ADD PUSH2 0x3A83 JUMP JUMPDEST SWAP2 POP POP SWAP3 SWAP2 POP POP JUMP JUMPDEST PUSH1 0x0 PUSH1 0x80 DUP3 DUP5 SUB SLT ISZERO PUSH2 0x3B30 JUMPI PUSH2 0x3B2F PUSH2 0x38C7 JUMP JUMPDEST JUMPDEST PUSH2 0x3B3A PUSH1 0x80 PUSH2 0x31B9 JUMP JUMPDEST SWAP1 POP PUSH1 0x0 DUP3 ADD CALLDATALOAD PUSH8 0xFFFFFFFFFFFFFFFF DUP2 GT ISZERO PUSH2 0x3B5A JUMPI PUSH2 0x3B59 PUSH2 0x38CC JUMP JUMPDEST JUMPDEST PUSH2 0x3B66 DUP5 DUP3 DUP6 ADD PUSH2 0x3966 JUMP JUMPDEST PUSH1 0x0 DUP4 ADD MSTORE POP PUSH1 0x20 DUP3 ADD CALLDATALOAD PUSH8 0xFFFFFFFFFFFFFFFF DUP2 GT ISZERO PUSH2 0x3B8A JUMPI PUSH2 0x3B89 PUSH2 0x38CC JUMP JUMPDEST JUMPDEST PUSH2 0x3B96 DUP5 DUP3 DUP6 ADD PUSH2 0x3A29 JUMP JUMPDEST PUSH1 0x20 DUP4 ADD MSTORE POP PUSH1 0x40 DUP3 ADD CALLDATALOAD PUSH8 0xFFFFFFFFFFFFFFFF DUP2 GT ISZERO PUSH2 0x3BBA JUMPI PUSH2 0x3BB9 PUSH2 0x38CC JUMP JUMPDEST JUMPDEST PUSH2 0x3BC6 DUP5 DUP3 DUP6 ADD PUSH2 0x3AEC JUMP JUMPDEST PUSH1 0x40 DUP4 ADD MSTORE POP PUSH1 0x60 DUP3 ADD CALLDATALOAD PUSH8 0xFFFFFFFFFFFFFFFF DUP2 GT ISZERO PUSH2 0x3BEA JUMPI PUSH2 0x3BE9 PUSH2 0x38CC JUMP JUMPDEST JUMPDEST PUSH2 0x3BF6 DUP5 DUP3 DUP6 ADD PUSH2 0x3AEC JUMP JUMPDEST PUSH1 0x60 DUP4 ADD MSTORE POP SWAP3 SWAP2 POP POP JUMP JUMPDEST PUSH1 0x0 PUSH1 0x80 DUP3 DUP5 SUB SLT ISZERO PUSH2 0x3C18 JUMPI PUSH2 0x3C17 PUSH2 0x38C7 JUMP JUMPDEST JUMPDEST PUSH2 0x3C22 PUSH1 0x80 PUSH2 0x31B9 JUMP JUMPDEST SWAP1 POP PUSH1 0x0 PUSH2 0x3C32 DUP5 DUP3 DUP6 ADD PUSH2 0x3389 JUMP JUMPDEST PUSH1 0x0 DUP4 ADD MSTORE POP PUSH1 0x20 PUSH2 0x3C46 DUP5 DUP3 DUP6 ADD PUSH2 0x35F9 JUMP JUMPDEST PUSH1 0x20 DUP4 ADD MSTORE POP PUSH1 0x40 DUP3 ADD CALLDATALOAD PUSH8 0xFFFFFFFFFFFFFFFF DUP2 GT ISZERO PUSH2 0x3C6A JUMPI PUSH2 0x3C69 PUSH2 0x38CC JUMP JUMPDEST JUMPDEST PUSH2 0x3C76 DUP5 DUP3 DUP6 ADD PUSH2 0x3AEC JUMP JUMPDEST PUSH1 0x40 DUP4 ADD MSTORE POP PUSH1 0x60 DUP3 ADD CALLDATALOAD PUSH8 0xFFFFFFFFFFFFFFFF DUP2 GT ISZERO PUSH2 0x3C9A JUMPI PUSH2 0x3C99 PUSH2 0x38CC JUMP JUMPDEST JUMPDEST PUSH2 0x3CA6 DUP5 DUP3 DUP6 ADD PUSH2 0x3AEC JUMP JUMPDEST PUSH1 0x60 DUP4 ADD MSTORE POP SWAP3 SWAP2 POP POP JUMP JUMPDEST PUSH1 0x0 PUSH1 0x60 DUP3 DUP5 SUB SLT ISZERO PUSH2 0x3CC8 JUMPI PUSH2 0x3CC7 PUSH2 0x38C7 JUMP JUMPDEST JUMPDEST PUSH2 0x3CD2 PUSH1 0x60 PUSH2 0x31B9 JUMP JUMPDEST SWAP1 POP PUSH1 0x0 PUSH2 0x3CE2 DUP5 DUP3 DUP6 ADD PUSH2 0x3712 JUMP JUMPDEST PUSH1 0x0 DUP4 ADD MSTORE POP PUSH1 0x20 DUP3 ADD CALLDATALOAD PUSH8 0xFFFFFFFFFFFFFFFF DUP2 GT ISZERO PUSH2 0x3D06 JUMPI PUSH2 0x3D05 PUSH2 0x38CC JUMP JUMPDEST JUMPDEST PUSH2 0x3D12 DUP5 DUP3 DUP6 ADD PUSH2 0x3B1A JUMP JUMPDEST PUSH1 0x20 DUP4 ADD MSTORE POP PUSH1 0x40 DUP3 ADD CALLDATALOAD PUSH8 0xFFFFFFFFFFFFFFFF DUP2 GT ISZERO PUSH2 0x3D36 JUMPI PUSH2 0x3D35 PUSH2 0x38CC JUMP JUMPDEST JUMPDEST PUSH2 0x3D42 DUP5 DUP3 DUP6 ADD PUSH2 0x3C02 JUMP JUMPDEST PUSH1 0x40 DUP4 ADD MSTORE POP SWAP3 SWAP2 POP POP JUMP JUMPDEST PUSH1 0x0 DUP1 PUSH1 0x40 DUP4 DUP6 SUB SLT ISZERO PUSH2 0x3D65 JUMPI PUSH2 0x3D64 PUSH2 0x3079 JUMP JUMPDEST JUMPDEST PUSH1 0x0 DUP4 ADD CALLDATALOAD PUSH8 0xFFFFFFFFFFFFFFFF DUP2 GT ISZERO PUSH2 0x3D83 JUMPI PUSH2 0x3D82 PUSH2 0x307E JUMP JUMPDEST JUMPDEST PUSH2 0x3D8F DUP6 DUP3 DUP7 ADD PUSH2 0x3256 JUMP JUMPDEST SWAP3 POP POP PUSH1 0x20 DUP4 ADD CALLDATALOAD PUSH8 0xFFFFFFFFFFFFFFFF DUP2 GT ISZERO PUSH2 0x3DB0 JUMPI PUSH2 0x3DAF PUSH2 0x307E JUMP JUMPDEST JUMPDEST PUSH2 0x3DBC DUP6 DUP3 DUP7 ADD PUSH2 0x3CB2 JUMP JUMPDEST SWAP2 POP POP SWAP3 POP SWAP3 SWAP1 POP JUMP JUMPDEST PUSH1 0x0 DUP1 PUSH1 0x0 DUP1 PUSH1 0x0 DUP1 PUSH1 0xC0 DUP8 DUP10 SUB SLT ISZERO PUSH2 0x3DE3 JUMPI PUSH2 0x3DE2 PUSH2 0x3079 JUMP JUMPDEST JUMPDEST PUSH1 0x0 DUP8 ADD CALLDATALOAD PUSH8 0xFFFFFFFFFFFFFFFF DUP2 GT ISZERO PUSH2 0x3E01 JUMPI PUSH2 0x3E00 PUSH2 0x307E JUMP JUMPDEST JUMPDEST PUSH2 0x3E0D DUP10 DUP3 DUP11 ADD PUSH2 0x3256 JUMP JUMPDEST SWAP7 POP POP PUSH1 0x20 PUSH2 0x3E1E DUP10 DUP3 DUP11 ADD PUSH2 0x3712 JUMP JUMPDEST SWAP6 POP POP PUSH1 0x40 DUP8 ADD CALLDATALOAD PUSH8 0xFFFFFFFFFFFFFFFF DUP2 GT ISZERO PUSH2 0x3E3F JUMPI PUSH2 0x3E3E PUSH2 0x307E JUMP JUMPDEST JUMPDEST PUSH2 0x3E4B DUP10 DUP3 DUP11 ADD PUSH2 0x3966 JUMP JUMPDEST SWAP5 POP POP PUSH1 0x60 DUP8 ADD CALLDATALOAD PUSH8 0xFFFFFFFFFFFFFFFF DUP2 GT ISZERO PUSH2 0x3E6C JUMPI PUSH2 0x3E6B PUSH2 0x307E JUMP JUMPDEST JUMPDEST PUSH2 0x3E78 DUP10 DUP3 DUP11 ADD PUSH2 0x3A29 JUMP JUMPDEST SWAP4 POP POP PUSH1 0x80 DUP8 ADD CALLDATALOAD PUSH8 0xFFFFFFFFFFFFFFFF DUP2 GT ISZERO PUSH2 0x3E99 JUMPI PUSH2 0x3E98 PUSH2 0x307E JUMP JUMPDEST JUMPDEST PUSH2 0x3EA5 DUP10 DUP3 DUP11 ADD PUSH2 0x3AEC JUMP JUMPDEST SWAP3 POP POP PUSH1 0xA0 DUP8 ADD CALLDATALOAD PUSH8 0xFFFFFFFFFFFFFFFF DUP2 GT ISZERO PUSH2 0x3EC6 JUMPI PUSH2 0x3EC5 PUSH2 0x307E JUMP JUMPDEST JUMPDEST PUSH2 0x3ED2 DUP10 DUP3 DUP11 ADD PUSH2 0x3AEC JUMP JUMPDEST SWAP2 POP POP SWAP3 SWAP6 POP SWAP3 SWAP6 POP SWAP3 SWAP6 JUMP JUMPDEST PUSH1 0x0 PUSH1 0x20 DUP3 ADD SWAP1 POP PUSH2 0x3EF4 PUSH1 0x0 DUP4 ADD DUP5 PUSH2 0x34F9 JUMP JUMPDEST SWAP3 SWAP2 POP POP JUMP JUMPDEST PUSH1 0x0 PUSH1 0x20 DUP3 DUP5 SUB SLT ISZERO PUSH2 0x3F10 JUMPI PUSH2 0x3F0F PUSH2 0x3079 JUMP JUMPDEST JUMPDEST PUSH1 0x0 PUSH2 0x3F1E DUP5 DUP3 DUP6 ADD PUSH2 0x32CD JUMP JUMPDEST SWAP2 POP POP SWAP3 SWAP2 POP POP JUMP JUMPDEST PUSH1 0x0 PUSH8 0xFFFFFFFFFFFFFFFF DUP3 GT ISZERO PUSH2 0x3F42 JUMPI PUSH2 0x3F41 PUSH2 0x3159 JUMP JUMPDEST JUMPDEST PUSH1 0x20 DUP3 MUL SWAP1 POP PUSH1 0x20 DUP2 ADD SWAP1 POP SWAP2 SWAP1 POP JUMP JUMPDEST PUSH1 0x0 PUSH2 0x3F66 PUSH2 0x3F61 DUP5 PUSH2 0x3F27 JUMP JUMPDEST PUSH2 0x31B9 JUMP JUMPDEST SWAP1 POP DUP1 DUP4 DUP3 MSTORE PUSH1 0x20 DUP3 ADD SWAP1 POP PUSH1 0x20 DUP5 MUL DUP4 ADD DUP6 DUP2 GT ISZERO PUSH2 0x3F89 JUMPI PUSH2 0x3F88 PUSH2 0x33A3 JUMP JUMPDEST JUMPDEST DUP4 JUMPDEST DUP2 DUP2 LT ISZERO PUSH2 0x3FB2 JUMPI DUP1 PUSH2 0x3F9E DUP9 DUP3 PUSH2 0x35F9 JUMP JUMPDEST DUP5 MSTORE PUSH1 0x20 DUP5 ADD SWAP4 POP POP PUSH1 0x20 DUP2 ADD SWAP1 POP PUSH2 0x3F8B JUMP JUMPDEST POP POP POP SWAP4 SWAP3 POP POP POP JUMP JUMPDEST PUSH1 0x0 DUP3 PUSH1 0x1F DUP4 ADD SLT PUSH2 0x3FD1 JUMPI PUSH2 0x3FD0 PUSH2 0x313E JUMP JUMPDEST JUMPDEST DUP2 CALLDATALOAD PUSH2 0x3FE1 DUP5 DUP3 PUSH1 0x20 DUP7 ADD PUSH2 0x3F53 JUMP JUMPDEST SWAP2 POP POP SWAP3 SWAP2 POP POP JUMP JUMPDEST PUSH1 0x0 DUP1 PUSH1 0x0 PUSH1 0x60 DUP5 DUP7 SUB SLT ISZERO PUSH2 0x4003 JUMPI PUSH2 0x4002 PUSH2 0x3079 JUMP JUMPDEST JUMPDEST PUSH1 0x0 PUSH2 0x4011 DUP7 DUP3 DUP8 ADD PUSH2 0x3389 JUMP JUMPDEST SWAP4 POP POP PUSH1 0x20 DUP5 ADD CALLDATALOAD PUSH8 0xFFFFFFFFFFFFFFFF DUP2 GT ISZERO PUSH2 0x4032 JUMPI PUSH2 0x4031 PUSH2 0x307E JUMP JUMPDEST JUMPDEST PUSH2 0x403E DUP7 DUP3 DUP8 ADD PUSH2 0x3FBC JUMP JUMPDEST SWAP3 POP POP PUSH1 0x40 DUP5 ADD CALLDATALOAD PUSH8 0xFFFFFFFFFFFFFFFF DUP2 GT ISZERO PUSH2 0x405F JUMPI PUSH2 0x405E PUSH2 0x307E JUMP JUMPDEST JUMPDEST PUSH2 0x406B DUP7 DUP3 DUP8 ADD PUSH2 0x3AEC JUMP JUMPDEST SWAP2 POP POP SWAP3 POP SWAP3 POP SWAP3 JUMP JUMPDEST PUSH1 0x0 DUP2 MLOAD SWAP1 POP SWAP2 SWAP1 POP JUMP JUMPDEST PUSH1 0x0 DUP3 DUP3 MSTORE PUSH1 0x20 DUP3 ADD SWAP1 POP SWAP3 SWAP2 POP POP JUMP JUMPDEST PUSH1 0x0 DUP2 SWAP1 POP PUSH1 0x20 DUP3 ADD SWAP1 POP SWAP2 SWAP1 POP JUMP JUMPDEST PUSH2 0x40AA DUP2 PUSH2 0x333E JUMP JUMPDEST DUP3 MSTORE POP POP JUMP JUMPDEST PUSH1 0x0 PUSH2 0x40BC DUP4 DUP4 PUSH2 0x40A1 JUMP JUMPDEST PUSH1 0x20 DUP4 ADD SWAP1 POP SWAP3 SWAP2 POP POP JUMP JUMPDEST PUSH1 0x0 PUSH1 0x20 DUP3 ADD SWAP1 POP SWAP2 SWAP1 POP JUMP JUMPDEST PUSH1 0x0 PUSH2 0x40E0 DUP3 PUSH2 0x4075 JUMP JUMPDEST PUSH2 0x40EA DUP2 DUP6 PUSH2 0x4080 JUMP JUMPDEST SWAP4 POP PUSH2 0x40F5 DUP4 PUSH2 0x4091 JUMP JUMPDEST DUP1 PUSH1 0x0 JUMPDEST DUP4 DUP2 LT ISZERO PUSH2 0x4126 JUMPI DUP2 MLOAD PUSH2 0x410D DUP9 DUP3 PUSH2 0x40B0 JUMP JUMPDEST SWAP8 POP PUSH2 0x4118 DUP4 PUSH2 0x40C8 JUMP JUMPDEST SWAP3 POP POP PUSH1 0x1 DUP2 ADD SWAP1 POP PUSH2 0x40F9 JUMP JUMPDEST POP DUP6 SWAP4 POP POP POP POP SWAP3 SWAP2 POP POP JUMP JUMPDEST PUSH1 0x0 PUSH1 0x20 DUP3 ADD SWAP1 POP DUP2 DUP2 SUB PUSH1 0x0 DUP4 ADD MSTORE PUSH2 0x414D DUP2 DUP5 PUSH2 0x40D5 JUMP JUMPDEST SWAP1 POP SWAP3 SWAP2 POP POP JUMP JUMPDEST PUSH1 0x0 DUP1 DUP4 PUSH1 0x1F DUP5 ADD SLT PUSH2 0x416B JUMPI PUSH2 0x416A PUSH2 0x313E JUMP JUMPDEST JUMPDEST DUP3 CALLDATALOAD SWAP1 POP PUSH8 0xFFFFFFFFFFFFFFFF DUP2 GT ISZERO PUSH2 0x4188 JUMPI PUSH2 0x4187 PUSH2 0x339E JUMP JUMPDEST JUMPDEST PUSH1 0x20 DUP4 ADD SWAP2 POP DUP4 PUSH1 0x20 DUP3 MUL DUP4 ADD GT ISZERO PUSH2 0x41A4 JUMPI PUSH2 0x41A3 PUSH2 0x33A3 JUMP JUMPDEST JUMPDEST SWAP3 POP SWAP3 SWAP1 POP JUMP JUMPDEST PUSH1 0x0 DUP1 PUSH1 0x0 DUP1 PUSH1 0x0 DUP1 PUSH1 0x0 DUP1 PUSH1 0xA0 DUP10 DUP12 SUB SLT ISZERO PUSH2 0x41CB JUMPI PUSH2 0x41CA PUSH2 0x3079 JUMP JUMPDEST JUMPDEST PUSH1 0x0 PUSH2 0x41D9 DUP12 DUP3 DUP13 ADD PUSH2 0x32CD JUMP JUMPDEST SWAP9 POP POP PUSH1 0x20 PUSH2 0x41EA DUP12 DUP3 DUP13 ADD PUSH2 0x32CD JUMP JUMPDEST SWAP8 POP POP PUSH1 0x40 DUP10 ADD CALLDATALOAD PUSH8 0xFFFFFFFFFFFFFFFF DUP2 GT ISZERO PUSH2 0x420B JUMPI PUSH2 0x420A PUSH2 0x307E JUMP JUMPDEST JUMPDEST PUSH2 0x4217 DUP12 DUP3 DUP13 ADD PUSH2 0x4155 JUMP JUMPDEST SWAP7 POP SWAP7 POP POP PUSH1 0x60 DUP10 ADD CALLDATALOAD PUSH8 0xFFFFFFFFFFFFFFFF DUP2 GT ISZERO PUSH2 0x423A JUMPI PUSH2 0x4239 PUSH2 0x307E JUMP JUMPDEST JUMPDEST PUSH2 0x4246 DUP12 DUP3 DUP13 ADD PUSH2 0x4155 JUMP JUMPDEST SWAP5 POP SWAP5 POP POP PUSH1 0x80 DUP10 ADD CALLDATALOAD PUSH8 0xFFFFFFFFFFFFFFFF DUP2 GT ISZERO PUSH2 0x4269 JUMPI PUSH2 0x4268 PUSH2 0x307E JUMP JUMPDEST JUMPDEST PUSH2 0x4275 DUP12 DUP3 DUP13 ADD PUSH2 0x33A8 JUMP JUMPDEST SWAP3 POP SWAP3 POP POP SWAP3 SWAP6 SWAP9 POP SWAP3 SWAP6 SWAP9 SWAP1 SWAP4 SWAP7 POP JUMP JUMPDEST PUSH1 0x0 PUSH8 0xFFFFFFFFFFFFFFFF DUP3 GT ISZERO PUSH2 0x42A2 JUMPI PUSH2 0x42A1 PUSH2 0x3159 JUMP JUMPDEST JUMPDEST PUSH1 0x20 DUP3 MUL SWAP1 POP PUSH1 0x20 DUP2 ADD SWAP1 POP SWAP2 SWAP1 POP JUMP JUMPDEST PUSH1 0x0 PUSH2 0x42C6 PUSH2 0x42C1 DUP5 PUSH2 0x4287 JUMP JUMPDEST PUSH2 0x31B9 JUMP JUMPDEST SWAP1 POP DUP1 DUP4 DUP3 MSTORE PUSH1 0x20 DUP3 ADD SWAP1 POP PUSH1 0x20 DUP5 MUL DUP4 ADD DUP6 DUP2 GT ISZERO PUSH2 0x42E9 JUMPI PUSH2 0x42E8 PUSH2 0x33A3 JUMP JUMPDEST JUMPDEST DUP4 JUMPDEST DUP2 DUP2 LT ISZERO PUSH2 0x4330 JUMPI DUP1 CALLDATALOAD PUSH8 0xFFFFFFFFFFFFFFFF DUP2 GT ISZERO PUSH2 0x430E JUMPI PUSH2 0x430D PUSH2 0x313E JUMP JUMPDEST JUMPDEST DUP1 DUP7 ADD PUSH2 0x431B DUP10 DUP3 PUSH2 0x3CB2 JUMP JUMPDEST DUP6 MSTORE PUSH1 0x20 DUP6 ADD SWAP5 POP POP POP PUSH1 0x20 DUP2 ADD SWAP1 POP PUSH2 0x42EB JUMP JUMPDEST POP POP POP SWAP4 SWAP3 POP POP POP JUMP JUMPDEST PUSH1 0x0 DUP3 PUSH1 0x1F DUP4 ADD SLT PUSH2 0x434F JUMPI PUSH2 0x434E PUSH2 0x313E JUMP JUMPDEST JUMPDEST DUP2 CALLDATALOAD PUSH2 0x435F DUP5 DUP3 PUSH1 0x20 DUP7 ADD PUSH2 0x42B3 JUMP JUMPDEST SWAP2 POP POP SWAP3 SWAP2 POP POP JUMP JUMPDEST PUSH1 0x0 DUP1 PUSH1 0x40 DUP4 DUP6 SUB SLT ISZERO PUSH2 0x437F JUMPI PUSH2 0x437E PUSH2 0x3079 JUMP JUMPDEST JUMPDEST PUSH1 0x0 DUP4 ADD CALLDATALOAD PUSH8 0xFFFFFFFFFFFFFFFF DUP2 GT ISZERO PUSH2 0x439D JUMPI PUSH2 0x439C PUSH2 0x307E JUMP JUMPDEST JUMPDEST PUSH2 0x43A9 DUP6 DUP3 DUP7 ADD PUSH2 0x3256 JUMP JUMPDEST SWAP3 POP POP PUSH1 0x20 DUP4 ADD CALLDATALOAD PUSH8 0xFFFFFFFFFFFFFFFF DUP2 GT ISZERO PUSH2 0x43CA JUMPI PUSH2 0x43C9 PUSH2 0x307E JUMP JUMPDEST JUMPDEST PUSH2 0x43D6 DUP6 DUP3 DUP7 ADD PUSH2 0x433A JUMP JUMPDEST SWAP2 POP POP SWAP3 POP SWAP3 SWAP1 POP JUMP JUMPDEST PUSH1 0x0 DUP1 PUSH1 0x0 DUP1 PUSH1 0x0 DUP1 PUSH1 0xA0 DUP8 DUP10 SUB SLT ISZERO PUSH2 0x43FD JUMPI PUSH2 0x43FC PUSH2 0x3079 JUMP JUMPDEST JUMPDEST PUSH1 0x0 PUSH2 0x440B DUP10 DUP3 DUP11 ADD PUSH2 0x32CD JUMP JUMPDEST SWAP7 POP POP PUSH1 0x20 PUSH2 0x441C DUP10 DUP3 DUP11 ADD PUSH2 0x32CD JUMP JUMPDEST SWAP6 POP POP PUSH1 0x40 PUSH2 0x442D DUP10 DUP3 DUP11 ADD PUSH2 0x3389 JUMP JUMPDEST SWAP5 POP POP PUSH1 0x60 PUSH2 0x443E DUP10 DUP3 DUP11 ADD PUSH2 0x3389 JUMP JUMPDEST SWAP4 POP POP PUSH1 0x80 DUP8 ADD CALLDATALOAD PUSH8 0xFFFFFFFFFFFFFFFF DUP2 GT ISZERO PUSH2 0x445F JUMPI PUSH2 0x445E PUSH2 0x307E JUMP JUMPDEST JUMPDEST PUSH2 0x446B DUP10 DUP3 DUP11 ADD PUSH2 0x33A8 JUMP JUMPDEST SWAP3 POP SWAP3 POP POP SWAP3 SWAP6 POP SWAP3 SWAP6 POP SWAP3 SWAP6 JUMP JUMPDEST PUSH1 0x0 DUP2 MLOAD SWAP1 POP SWAP2 SWAP1 POP JUMP JUMPDEST PUSH1 0x0 DUP2 SWAP1 POP SWAP3 SWAP2 POP POP JUMP JUMPDEST PUSH1 0x0 JUMPDEST DUP4 DUP2 LT ISZERO PUSH2 0x44AE JUMPI DUP1 DUP3 ADD MLOAD DUP2 DUP5 ADD MSTORE PUSH1 0x20 DUP2 ADD SWAP1 POP PUSH2 0x4493 JUMP JUMPDEST PUSH1 0x0 DUP5 DUP5 ADD MSTORE POP POP POP POP JUMP JUMPDEST PUSH1 0x0 PUSH2 0x44C5 DUP3 PUSH2 0x447A JUMP JUMPDEST PUSH2 0x44CF DUP2 DUP6 PUSH2 0x4485 JUMP JUMPDEST SWAP4 POP PUSH2 0x44DF DUP2 DUP6 PUSH1 0x20 DUP7 ADD PUSH2 0x4490 JUMP JUMPDEST DUP1 DUP5 ADD SWAP2 POP POP SWAP3 SWAP2 POP POP JUMP JUMPDEST PUSH1 0x0 PUSH2 0x44F7 DUP3 DUP5 PUSH2 0x44BA JUMP JUMPDEST SWAP2 POP DUP2 SWAP1 POP SWAP3 SWAP2 POP POP JUMP JUMPDEST PUSH1 0x0 PUSH1 0x60 DUP3 ADD SWAP1 POP PUSH2 0x4517 PUSH1 0x0 DUP4 ADD DUP7 PUSH2 0x3348 JUMP JUMPDEST PUSH2 0x4524 PUSH1 0x20 DUP4 ADD DUP6 PUSH2 0x3348 JUMP JUMPDEST PUSH2 0x4531 PUSH1 0x40 DUP4 ADD DUP5 PUSH2 0x3114 JUMP JUMPDEST SWAP5 SWAP4 POP POP POP POP JUMP JUMPDEST PUSH32 0x4E487B7100000000000000000000000000000000000000000000000000000000 PUSH1 0x0 MSTORE PUSH1 0x32 PUSH1 0x4 MSTORE PUSH1 0x24 PUSH1 0x0 REVERT JUMPDEST PUSH32 0x4E487B7100000000000000000000000000000000000000000000000000000000 PUSH1 0x0 MSTORE PUSH1 0x21 PUSH1 0x4 MSTORE PUSH1 0x24 PUSH1 0x0 REVERT JUMPDEST PUSH32 0x4E487B7100000000000000000000000000000000000000000000000000000000 PUSH1 0x0 MSTORE PUSH1 0x11 PUSH1 0x4 MSTORE PUSH1 0x24 PUSH1 0x0 REVERT JUMPDEST PUSH1 0x0 PUSH2 0x45D1 DUP3 PUSH2 0x333E JUMP JUMPDEST SWAP2 POP PUSH2 0x45DC DUP4 PUSH2 0x333E JUMP JUMPDEST SWAP3 POP DUP3 DUP3 ADD SWAP1 POP DUP1 DUP3 GT ISZERO PUSH2 0x45F4 JUMPI PUSH2 0x45F3 PUSH2 0x4597 JUMP JUMPDEST JUMPDEST SWAP3 SWAP2 POP POP JUMP JUMPDEST PUSH1 0x0 PUSH2 0x4605 DUP3 PUSH2 0x333E JUMP JUMPDEST SWAP2 POP PUSH2 0x4610 DUP4 PUSH2 0x333E JUMP JUMPDEST SWAP3 POP DUP3 DUP3 MUL PUSH2 0x461E DUP2 PUSH2 0x333E JUMP JUMPDEST SWAP2 POP DUP3 DUP3 DIV DUP5 EQ DUP4 ISZERO OR PUSH2 0x4635 JUMPI PUSH2 0x4634 PUSH2 0x4597 JUMP JUMPDEST JUMPDEST POP SWAP3 SWAP2 POP POP JUMP JUMPDEST PUSH1 0x0 PUSH2 0x4647 DUP3 PUSH2 0x333E JUMP JUMPDEST SWAP2 POP PUSH2 0x4652 DUP4 PUSH2 0x333E JUMP JUMPDEST SWAP3 POP DUP3 DUP3 SUB SWAP1 POP DUP2 DUP2 GT ISZERO PUSH2 0x466A JUMPI PUSH2 0x4669 PUSH2 0x4597 JUMP JUMPDEST JUMPDEST SWAP3 SWAP2 POP POP JUMP JUMPDEST PUSH1 0x0 DUP3 DUP3 MSTORE PUSH1 0x20 DUP3 ADD SWAP1 POP SWAP3 SWAP2 POP POP JUMP JUMPDEST PUSH1 0x0 PUSH2 0x468C DUP3 PUSH2 0x447A JUMP JUMPDEST PUSH2 0x4696 DUP2 DUP6 PUSH2 0x4670 JUMP JUMPDEST SWAP4 POP PUSH2 0x46A6 DUP2 DUP6 PUSH1 0x20 DUP7 ADD PUSH2 0x4490 JUMP JUMPDEST PUSH2 0x46AF DUP2 PUSH2 0x3148 JUMP JUMPDEST DUP5 ADD SWAP2 POP POP SWAP3 SWAP2 POP POP JUMP JUMPDEST PUSH1 0x0 PUSH1 0x40 DUP3 ADD SWAP1 POP DUP2 DUP2 SUB PUSH1 0x0 DUP4 ADD MSTORE PUSH2 0x46D4 DUP2 DUP6 PUSH2 0x4681 JUMP JUMPDEST SWAP1 POP PUSH2 0x46E3 PUSH1 0x20 DUP4 ADD DUP5 PUSH2 0x34F9 JUMP JUMPDEST SWAP4 SWAP3 POP POP POP JUMP JUMPDEST PUSH1 0x0 PUSH1 0x80 DUP3 ADD SWAP1 POP DUP2 DUP2 SUB PUSH1 0x0 DUP4 ADD MSTORE PUSH2 0x4704 DUP2 DUP8 PUSH2 0x4681 JUMP JUMPDEST SWAP1 POP PUSH2 0x4713 PUSH1 0x20 DUP4 ADD DUP7 PUSH2 0x34F9 JUMP JUMPDEST PUSH2 0x4720 PUSH1 0x40 DUP4 ADD DUP6 PUSH2 0x34F9 JUMP JUMPDEST PUSH2 0x472D PUSH1 0x60 DUP4 ADD DUP5 PUSH2 0x3348 JUMP JUMPDEST SWAP6 SWAP5 POP POP POP POP POP JUMP JUMPDEST PUSH1 0x0 PUSH1 0x20 DUP3 ADD SWAP1 POP DUP2 DUP2 SUB PUSH1 0x0 DUP4 ADD MSTORE PUSH2 0x4750 DUP2 DUP5 PUSH2 0x4681 JUMP JUMPDEST SWAP1 POP SWAP3 SWAP2 POP POP JUMP JUMPDEST PUSH1 0x5 DUP2 LT PUSH2 0x4769 JUMPI PUSH2 0x4768 PUSH2 0x4568 JUMP JUMPDEST JUMPDEST POP JUMP JUMPDEST PUSH1 0x0 DUP2 SWAP1 POP PUSH2 0x477A DUP3 PUSH2 0x4758 JUMP JUMPDEST SWAP2 SWAP1 POP JUMP JUMPDEST PUSH1 0x0 PUSH2 0x478A DUP3 PUSH2 0x476C JUMP JUMPDEST SWAP1 POP SWAP2 SWAP1 POP JUMP JUMPDEST PUSH2 0x479A DUP2 PUSH2 0x477F JUMP JUMPDEST DUP3 MSTORE POP POP JUMP JUMPDEST PUSH1 0x0 PUSH1 0x80 DUP3 ADD SWAP1 POP PUSH2 0x47B5 PUSH1 0x0 DUP4 ADD DUP8 PUSH2 0x4791 JUMP JUMPDEST PUSH2 0x47C2 PUSH1 0x20 DUP4 ADD DUP7 PUSH2 0x3348 JUMP JUMPDEST PUSH2 0x47CF PUSH1 0x40 DUP4 ADD DUP6 PUSH2 0x3348 JUMP JUMPDEST PUSH2 0x47DC PUSH1 0x60 DUP4 ADD DUP5 PUSH2 0x3114 JUMP JUMPDEST SWAP6 SWAP5 POP POP POP POP POP JUMP JUMPDEST PUSH1 0x0 DUP2 SWAP1 POP SWAP2 SWAP1 POP JUMP JUMPDEST PUSH1 0x0 DUP2 SWAP1 POP SWAP2 SWAP1 POP JUMP JUMPDEST PUSH1 0x0 PUSH2 0x4814 PUSH2 0x480F PUSH2 0x480A DUP5 PUSH2 0x47E5 JUMP JUMPDEST PUSH2 0x47EF JUMP JUMPDEST PUSH2 0x333E JUMP JUMPDEST SWAP1 POP SWAP2 SWAP1 POP JUMP JUMPDEST PUSH2 0x4824 DUP2 PUSH2 0x47F9 JUMP JUMPDEST DUP3 MSTORE POP POP JUMP JUMPDEST PUSH1 0x0 PUSH1 0xA0 DUP3 ADD SWAP1 POP DUP2 DUP2 SUB PUSH1 0x0 DUP4 ADD MSTORE PUSH2 0x4844 DUP2 DUP9 PUSH2 0x4681 JUMP JUMPDEST SWAP1 POP PUSH2 0x4853 PUSH1 0x20 DUP4 ADD DUP8 PUSH2 0x4791 JUMP JUMPDEST PUSH2 0x4860 PUSH1 0x40 DUP4 ADD DUP7 PUSH2 0x34F9 JUMP JUMPDEST PUSH2 0x486D PUSH1 0x60 DUP4 ADD DUP6 PUSH2 0x481B JUMP JUMPDEST PUSH2 0x487A PUSH1 0x80 DUP4 ADD DUP5 PUSH2 0x3348 JUMP JUMPDEST SWAP7 SWAP6 POP POP POP POP POP POP JUMP JUMPDEST PUSH1 0x0 DUP2 SWAP1 POP SWAP3 SWAP2 POP POP JUMP JUMPDEST POP JUMP JUMPDEST PUSH1 0x0 PUSH2 0x489F PUSH1 0x0 DUP4 PUSH2 0x4884 JUMP JUMPDEST SWAP2 POP PUSH2 0x48AA DUP3 PUSH2 0x488F JUMP JUMPDEST PUSH1 0x0 DUP3 ADD SWAP1 POP SWAP2 SWAP1 POP JUMP JUMPDEST PUSH1 0x0 PUSH2 0x48C0 DUP3 PUSH2 0x4892 JUMP JUMPDEST SWAP2 POP DUP2 SWAP1 POP SWAP2 SWAP1 POP JUMP JUMPDEST PUSH1 0x0 PUSH2 0x48E5 PUSH2 0x48E0 PUSH2 0x48DB DUP5 PUSH2 0x3284 JUMP JUMPDEST PUSH2 0x47EF JUMP JUMPDEST PUSH2 0x3284 JUMP JUMPDEST SWAP1 POP SWAP2 SWAP1 POP JUMP JUMPDEST PUSH1 0x0 PUSH2 0x48F7 DUP3 PUSH2 0x48CA JUMP JUMPDEST SWAP1 POP SWAP2 SWAP1 POP JUMP JUMPDEST PUSH1 0x0 PUSH2 0x4909 DUP3 PUSH2 0x48EC JUMP JUMPDEST SWAP1 POP SWAP2 SWAP1 POP JUMP JUMPDEST PUSH2 0x4919 DUP2 PUSH2 0x48FE JUMP JUMPDEST DUP3 MSTORE POP POP JUMP JUMPDEST PUSH1 0x0 PUSH1 0x60 DUP3 ADD SWAP1 POP DUP2 DUP2 SUB PUSH1 0x0 DUP4 ADD MSTORE PUSH2 0x4939 DUP2 DUP7 PUSH2 0x4681 JUMP JUMPDEST SWAP1 POP PUSH2 0x4948 PUSH1 0x20 DUP4 ADD DUP6 PUSH2 0x4910 JUMP JUMPDEST PUSH2 0x4955 PUSH1 0x40 DUP4 ADD DUP5 PUSH2 0x3348 JUMP JUMPDEST SWAP5 SWAP4 POP POP POP POP JUMP JUMPDEST PUSH1 0x0 PUSH1 0x40 DUP3 ADD SWAP1 POP PUSH2 0x4972 PUSH1 0x0 DUP4 ADD DUP6 PUSH2 0x34F9 JUMP JUMPDEST PUSH2 0x497F PUSH1 0x20 DUP4 ADD DUP5 PUSH2 0x3348 JUMP JUMPDEST SWAP4 SWAP3 POP POP POP JUMP JUMPDEST PUSH1 0x0 DUP2 MLOAD SWAP1 POP PUSH2 0x4995 DUP2 PUSH2 0x3661 JUMP JUMPDEST SWAP3 SWAP2 POP POP JUMP JUMPDEST PUSH1 0x0 PUSH1 0x20 DUP3 DUP5 SUB SLT ISZERO PUSH2 0x49B1 JUMPI PUSH2 0x49B0 PUSH2 0x3079 JUMP JUMPDEST JUMPDEST PUSH1 0x0 PUSH2 0x49BF DUP5 DUP3 DUP6 ADD PUSH2 0x4986 JUMP JUMPDEST SWAP2 POP POP SWAP3 SWAP2 POP POP JUMP JUMPDEST PUSH1 0x0 PUSH1 0xA0 DUP3 ADD SWAP1 POP DUP2 DUP2 SUB PUSH1 0x0 DUP4 ADD MSTORE PUSH2 0x49E2 DUP2 DUP9 PUSH2 0x4681 JUMP JUMPDEST SWAP1 POP PUSH2 0x49F1 PUSH1 0x20 DUP4 ADD DUP8 PUSH2 0x4791 JUMP JUMPDEST PUSH2 0x49FE PUSH1 0x40 DUP4 ADD DUP7 PUSH2 0x34F9 JUMP JUMPDEST PUSH2 0x4A0B PUSH1 0x60 DUP4 ADD DUP6 PUSH2 0x3348 JUMP JUMPDEST PUSH2 0x4A18 PUSH1 0x80 DUP4 ADD DUP5 PUSH2 0x481B JUMP JUMPDEST SWAP7 SWAP6 POP POP POP POP POP POP JUMP JUMPDEST PUSH1 0x0 DUP2 MLOAD SWAP1 POP SWAP2 SWAP1 POP JUMP JUMPDEST PUSH1 0x0 DUP3 DUP3 MSTORE PUSH1 0x20 DUP3 ADD SWAP1 POP SWAP3 SWAP2 POP POP JUMP JUMPDEST PUSH1 0x0 PUSH2 0x4A49 DUP3 PUSH2 0x4A22 JUMP JUMPDEST PUSH2 0x4A53 DUP2 DUP6 PUSH2 0x4A2D JUMP JUMPDEST SWAP4 POP PUSH2 0x4A63 DUP2 DUP6 PUSH1 0x20 DUP7 ADD PUSH2 0x4490 JUMP JUMPDEST PUSH2 0x4A6C DUP2 PUSH2 0x3148 JUMP JUMPDEST DUP5 ADD SWAP2 POP POP SWAP3 SWAP2 POP POP JUMP JUMPDEST PUSH1 0x0 PUSH1 0x80 DUP3 ADD SWAP1 POP PUSH2 0x4A8C PUSH1 0x0 DUP4 ADD DUP8 PUSH2 0x34F9 JUMP JUMPDEST PUSH2 0x4A99 PUSH1 0x20 DUP4 ADD DUP7 PUSH2 0x34F9 JUMP JUMPDEST PUSH2 0x4AA6 PUSH1 0x40 DUP4 ADD DUP6 PUSH2 0x3348 JUMP JUMPDEST DUP2 DUP2 SUB PUSH1 0x60 DUP4 ADD MSTORE PUSH2 0x4AB8 DUP2 DUP5 PUSH2 0x4A3E JUMP JUMPDEST SWAP1 POP SWAP6 SWAP5 POP POP POP POP POP JUMP JUMPDEST PUSH1 0x0 PUSH1 0xA0 DUP3 ADD SWAP1 POP DUP2 DUP2 SUB PUSH1 0x0 DUP4 ADD MSTORE PUSH2 0x4ADD DUP2 DUP9 PUSH2 0x4681 JUMP JUMPDEST SWAP1 POP PUSH2 0x4AEC PUSH1 0x20 DUP4 ADD DUP8 PUSH2 0x4791 JUMP JUMPDEST PUSH2 0x4AF9 PUSH1 0x40 DUP4 ADD DUP7 PUSH2 0x34F9 JUMP JUMPDEST PUSH2 0x4B06 PUSH1 0x60 DUP4 ADD DUP6 PUSH2 0x3348 JUMP JUMPDEST PUSH2 0x4B13 PUSH1 0x80 DUP4 ADD DUP5 PUSH2 0x3348 JUMP JUMPDEST SWAP7 SWAP6 POP POP POP POP POP POP JUMP JUMPDEST PUSH1 0x0 PUSH1 0xA0 DUP3 ADD SWAP1 POP PUSH2 0x4B32 PUSH1 0x0 DUP4 ADD DUP9 PUSH2 0x34F9 JUMP JUMPDEST PUSH2 0x4B3F PUSH1 0x20 DUP4 ADD DUP8 PUSH2 0x34F9 JUMP JUMPDEST PUSH2 0x4B4C PUSH1 0x40 DUP4 ADD DUP7 PUSH2 0x3348 JUMP JUMPDEST PUSH2 0x4B59 PUSH1 0x60 DUP4 ADD DUP6 PUSH2 0x3348 JUMP JUMPDEST DUP2 DUP2 SUB PUSH1 0x80 DUP4 ADD MSTORE PUSH2 0x4B6B DUP2 DUP5 PUSH2 0x4A3E JUMP JUMPDEST SWAP1 POP SWAP7 SWAP6 POP POP POP POP POP POP JUMP JUMPDEST PUSH1 0x0 DUP1 REVERT JUMPDEST DUP3 DUP2 DUP4 CALLDATACOPY POP POP POP JUMP JUMPDEST PUSH1 0x0 PUSH2 0x4B91 DUP4 DUP6 PUSH2 0x4080 JUMP JUMPDEST SWAP4 POP PUSH32 0x7FFFFFFFFFFFFFFFFFFFFFFFFFFFFFFFFFFFFFFFFFFFFFFFFFFFFFFFFFFFFFF DUP4 GT ISZERO PUSH2 0x4BC4 JUMPI PUSH2 0x4BC3 PUSH2 0x4B77 JUMP JUMPDEST JUMPDEST PUSH1 0x20 DUP4 MUL SWAP3 POP PUSH2 0x4BD5 DUP4 DUP6 DUP5 PUSH2 0x4B7C JUMP JUMPDEST DUP3 DUP5 ADD SWAP1 POP SWAP4 SWAP3 POP POP POP JUMP JUMPDEST PUSH1 0x0 PUSH1 0xA0 DUP3 ADD SWAP1 POP DUP2 DUP2 SUB PUSH1 0x0 DUP4 ADD MSTORE PUSH2 0x4BFB DUP2 DUP11 PUSH2 0x4681 JUMP JUMPDEST SWAP1 POP PUSH2 0x4C0A PUSH1 0x20 DUP4 ADD DUP10 PUSH2 0x34F9 JUMP JUMPDEST PUSH2 0x4C17 PUSH1 0x40 DUP4 ADD DUP9 PUSH2 0x34F9 JUMP JUMPDEST DUP2 DUP2 SUB PUSH1 0x60 DUP4 ADD MSTORE PUSH2 0x4C2A DUP2 DUP7 DUP9 PUSH2 0x4B85 JUMP JUMPDEST SWAP1 POP DUP2 DUP2 SUB PUSH1 0x80 DUP4 ADD MSTORE PUSH2 0x4C3F DUP2 DUP5 DUP7 PUSH2 0x4B85 JUMP JUMPDEST SWAP1 POP SWAP9 SWAP8 POP POP POP POP POP POP POP POP JUMP JUMPDEST PUSH1 0x0 PUSH1 0xA0 DUP3 ADD SWAP1 POP DUP2 DUP2 SUB PUSH1 0x0 DUP4 ADD MSTORE PUSH2 0x4C67 DUP2 DUP9 PUSH2 0x4681 JUMP JUMPDEST SWAP1 POP PUSH2 0x4C76 PUSH1 0x20 DUP4 ADD DUP8 PUSH2 0x34F9 JUMP JUMPDEST PUSH2 0x4C83 PUSH1 0x40 DUP4 ADD DUP7 PUSH2 0x34F9 JUMP JUMPDEST PUSH2 0x4C90 PUSH1 0x60 DUP4 ADD DUP6 PUSH2 0x3348 JUMP JUMPDEST PUSH2 0x4C9D PUSH1 0x80 DUP4 ADD DUP5 PUSH2 0x3348 JUMP JUMPDEST SWAP7 SWAP6 POP POP POP POP POP POP JUMP INVALID LOG2 PUSH5 0x6970667358 0x22 SLT KECCAK256 PUSH0 0x4D BYTE 0xD0 DUP9 0x24 0xE 0x25 DUP5 CALLCODE PUSH23 0x852586FE17EACB54514F66C11A415C39450DCA245E6473 PUSH16 0x6C634300081800330000000000000000 "},"gasEstimates":{"creation":{"codeDepositCost":"3935400","executionCost":"infinite","totalCost":"infinite"},"external":{"acceptOwnership()":"54769","adminSetPublished(string,bool)":"infinite","adminWithdraw(string,address,address,uint8,uint256,uint256,bytes)":"infinite","archiveAndWithdrawAllAssets(string,address,address[],uint8[],uint256[],uint256[])":"infinite","backendAdmin()":"2559","campaigns(string)":"infinite","contractBalance(string)":"infinite","createCampaign(string,uint256,uint256)":"infinite","getPostMetrics(uint256,bytes32[],uint256[])":"infinite","getPostMetricsBatch(uint256,bytes32[],uint256[])":"infinite","onERC1155BatchReceived(address,address,uint256[],uint256[],bytes)":"infinite","onERC1155Received(address,address,uint256,uint256,bytes)":"infinite","onERC721Received(address,address,uint256,bytes)":"infinite","owner()":"2568","participantBalance(string,address)":"infinite","paused()":"2574","pendingOwner()":"2589","postMetrics(uint256,bytes32,uint256)":"infinite","publishAndSetTimeRange(string,uint256,uint256)":"infinite","renounceOwnership()":"infinite","rewardParticipant(string,(address,(address[],uint8[],uint256[],uint256[]),(uint256,bytes32,uint256[],uint256[])))":"infinite","rewardParticipantBatch(string,(address,(address[],uint8[],uint256[],uint256[]),(uint256,bytes32,uint256[],uint256[]))[])":"infinite","setBackendAdmin(address)":"infinite","setPublished(string,bool)":"infinite","setTimeRange(string,uint256,uint256)":"infinite","supportsInterface(bytes4)":"777","transferOwnership(address)":"infinite","withdrawAsset(string,address,address,uint8,uint256,uint256,bytes)":"infinite"},"internal":{"_assetTypeCannotBeNone(enum TokenReceiver.AssetType)":"infinite","_backendAdminOrCreator(string memory)":"infinite","_campaignActive(string memory)":"infinite","_campaignDoesNotExists(string memory)":"infinite","_campaignExists(string memory)":"infinite","_campaignOwner(string memory,address)":"infinite","_campaignPublished(string memory)":"infinite","_onlyBackendAdmin()":"infinite","_onlyCreator(string memory)":"infinite","_setLastPayoutAt(string memory,uint256)":"infinite","_setLastUpdatedAt(string memory,uint256)":"infinite","_setPublished(string memory,bool)":"infinite","_setTimeRange(string memory,uint256,uint256)":"infinite","_withdrawAsset(string memory,address payable,address,enum TokenReceiver.AssetType,uint256,uint256,bytes memory,bool)":"infinite","_zeroAddress(address)":"infinite","_zeroAmount(uint256)":"infinite"}},"methodIdentifiers":{"acceptOwnership()":"79ba5097","adminSetPublished(string,bool)":"c85bc54a","adminWithdraw(string,address,address,uint8,uint256,uint256,bytes)":"a22376f9","archiveAndWithdrawAllAssets(string,address,address[],uint8[],uint256[],uint256[])":"5da8737a","backendAdmin()":"d070e40c","campaigns(string)":"1d39e509","contractBalance(string)":"ffb1500e","createCampaign(string,uint256,uint256)":"3020580b","getPostMetrics(uint256,bytes32[],uint256[])":"f623d3ae","getPostMetricsBatch(uint256,bytes32[],uint256[])":"a10885e7","onERC1155BatchReceived(address,address,uint256[],uint256[],bytes)":"bc197c81","onERC1155Received(address,address,uint256,uint256,bytes)":"f23a6e61","onERC721Received(address,address,uint256,bytes)":"150b7a02","owner()":"8da5cb5b","participantBalance(string,address)":"0e6b57a1","paused()":"5c975abb","pendingOwner()":"e30c3978","postMetrics(uint256,bytes32,uint256)":"41ba0d19","publishAndSetTimeRange(string,uint256,uint256)":"e4d930bc","renounceOwnership()":"715018a6","rewardParticipant(string,(address,(address[],uint8[],uint256[],uint256[]),(uint256,bytes32,uint256[],uint256[])))":"576abbc6","rewardParticipantBatch(string,(address,(address[],uint8[],uint256[],uint256[]),(uint256,bytes32,uint256[],uint256[]))[])":"be7c3be0","setBackendAdmin(address)":"9ee667d6","setPublished(string,bool)":"4bb9344b","setTimeRange(string,uint256,uint256)":"3432870d","supportsInterface(bytes4)":"01ffc9a7","transferOwnership(address)":"f2fde38b","withdrawAsset(string,address,address,uint8,uint256,uint256,bytes)":"50232e4d"}},"storageLayout":{"storage":[{"astId":8,"contract":"contracts/EchoeCampaignsV1.sol:EchoeCampaignsV1","label":"_owner","offset":0,"slot":"0","type":"t_address"},{"astId":156,"contract":"contracts/EchoeCampaignsV1.sol:EchoeCampaignsV1","label":"_pendingOwner","offset":0,"slot":"1","type":"t_address"},{"astId":675,"contract":"contracts/EchoeCampaignsV1.sol:EchoeCampaignsV1","label":"_paused","offset":20,"slot":"1","type":"t_bool"},{"astId":5427,"contract":"contracts/EchoeCampaignsV1.sol:EchoeCampaignsV1","label":"totalNativeBalance","offset":0,"slot":"2","type":"t_uint256"},{"astId":5451,"contract":"contracts/EchoeCampaignsV1.sol:EchoeCampaignsV1","label":"contractBalance","offset":0,"slot":"3","type":"t_mapping(t_string_memory_ptr,t_struct(AssetBalance)5446_storage)"},{"astId":5456,"contract":"contracts/EchoeCampaignsV1.sol:EchoeCampaignsV1","label":"assetTypeMap","offset":0,"slot":"4","type":"t_mapping(t_address,t_enum(AssetType)5424)"},{"astId":3275,"contract":"contracts/EchoeCampaignsV1.sol:EchoeCampaignsV1","label":"backendAdmin","offset":0,"slot":"5","type":"t_address"},{"astId":3293,"contract":"contracts/EchoeCampaignsV1.sol:EchoeCampaignsV1","label":"campaigns","offset":0,"slot":"6","type":"t_mapping(t_string_memory_ptr,t_struct(Campaign)3288_storage)"},{"astId":3300,"contract":"contracts/EchoeCampaignsV1.sol:EchoeCampaignsV1","label":"participantBalance","offset":0,"slot":"7","type":"t_mapping(t_string_memory_ptr,t_mapping(t_address,t_struct(AssetBalance)5446_storage))"},{"astId":3308,"contract":"contracts/EchoeCampaignsV1.sol:EchoeCampaignsV1","label":"postMetrics","offset":0,"slot":"8","type":"t_mapping(t_uint256,t_mapping(t_bytes32,t_mapping(t_uint256,t_uint256)))"}],"types":{"t_address":{"encoding":"inplace","label":"address","numberOfBytes":"20"},"t_bool":{"encoding":"inplace","label":"bool","numberOfBytes":"1"},"t_bytes32":{"encoding":"inplace","label":"bytes32","numberOfBytes":"32"},"t_enum(AssetType)5424":{"encoding":"inplace","label":"enum TokenReceiver.AssetType","numberOfBytes":"1"},"t_mapping(t_address,t_enum(AssetType)5424)":{"encoding":"mapping","key":"t_address","label":"mapping(address => enum TokenReceiver.AssetType)","numberOfBytes":"32","value":"t_enum(AssetType)5424"},"t_mapping(t_address,t_mapping(t_uint256,t_bool))":{"encoding":"mapping","key":"t_address","label":"mapping(address => mapping(uint256 => bool))","numberOfBytes":"32","value":"t_mapping(t_uint256,t_bool)"},"t_mapping(t_address,t_mapping(t_uint256,t_uint256))":{"encoding":"mapping","key":"t_address","label":"mapping(address => mapping(uint256 => uint256))","numberOfBytes":"32","value":"t_mapping(t_uint256,t_uint256)"},"t_mapping(t_address,t_struct(AssetBalance)5446_storage)":{"encoding":"mapping","key":"t_address","label":"mapping(address => struct TokenReceiver.AssetBalance)","numberOfBytes":"32","value":"t_struct(AssetBalance)5446_storage"},"t_mapping(t_address,t_uint256)":{"encoding":"mapping","key":"t_address","label":"mapping(address => uint256)","numberOfBytes":"32","value":"t_uint256"},"t_mapping(t_bytes32,t_mapping(t_uint256,t_uint256))":{"encoding":"mapping","key":"t_bytes32","label":"mapping(bytes32 => mapping(uint256 => uint256))","numberOfBytes":"32","value":"t_mapping(t_uint256,t_uint256)"},"t_mapping(t_string_memory_ptr,t_mapping(t_address,t_struct(AssetBalance)5446_storage))":{"encoding":"mapping","key":"t_string_memory_ptr","label":"mapping(string => mapping(address => struct TokenReceiver.AssetBalance))","numberOfBytes":"32","value":"t_mapping(t_address,t_struct(AssetBalance)5446_storage)"},"t_mapping(t_string_memory_ptr,t_struct(AssetBalance)5446_storage)":{"encoding":"mapping","key":"t_string_memory_ptr","label":"mapping(string => struct TokenReceiver.AssetBalance)","numberOfBytes":"32","value":"t_struct(AssetBalance)5446_storage"},"t_mapping(t_string_memory_ptr,t_struct(Campaign)3288_storage)":{"encoding":"mapping","key":"t_string_memory_ptr","label":"mapping(string => struct EchoeCampaignsV1.Campaign)","numberOfBytes":"32","value":"t_struct(Campaign)3288_storage"},"t_mapping(t_uint256,t_bool)":{"encoding":"mapping","key":"t_uint256","label":"mapping(uint256 => bool)","numberOfBytes":"32","value":"t_bool"},"t_mapping(t_uint256,t_mapping(t_bytes32,t_mapping(t_uint256,t_uint256)))":{"encoding":"mapping","key":"t_uint256","label":"mapping(uint256 => mapping(bytes32 => mapping(uint256 => uint256)))","numberOfBytes":"32","value":"t_mapping(t_bytes32,t_mapping(t_uint256,t_uint256))"},"t_mapping(t_uint256,t_uint256)":{"encoding":"mapping","key":"t_uint256","label":"mapping(uint256 => uint256)","numberOfBytes":"32","value":"t_uint256"},"t_string_memory_ptr":{"encoding":"bytes","label":"string","numberOfBytes":"32"},"t_struct(AssetBalance)5446_storage":{"encoding":"inplace","label":"struct TokenReceiver.AssetBalance","members":[{"astId":5429,"contract":"contracts/EchoeCampaignsV1.sol:EchoeCampaignsV1","label":"native","offset":0,"slot":"0","type":"t_uint256"},{"astId":5433,"contract":"contracts/EchoeCampaignsV1.sol:EchoeCampaignsV1","label":"erc20","offset":0,"slot":"1","type":"t_mapping(t_address,t_uint256)"},{"astId":5439,"contract":"contracts/EchoeCampaignsV1.sol:EchoeCampaignsV1","label":"erc721","offset":0,"slot":"2","type":"t_mapping(t_address,t_mapping(t_uint256,t_bool))"},{"astId":5445,"contract":"contracts/EchoeCampaignsV1.sol:EchoeCampaignsV1","label":"erc1155","offset":0,"slot":"3","type":"t_mapping(t_address,t_mapping(t_uint256,t_uint256))"}],"numberOfBytes":"128"},"t_struct(Campaign)3288_storage":{"encoding":"inplace","label":"struct EchoeCampaignsV1.Campaign","members":[{"astId":3277,"contract":"contracts/EchoeCampaignsV1.sol:EchoeCampaignsV1","label":"creator","offset":0,"slot":"0","type":"t_address"},{"astId":3279,"contract":"contracts/EchoeCampaignsV1.sol:EchoeCampaignsV1","label":"startTime","offset":0,"slot":"1","type":"t_uint256"},{"astId":3281,"contract":"contracts/EchoeCampaignsV1.sol:EchoeCampaignsV1","label":"endTime","offset":0,"slot":"2","type":"t_uint256"},{"astId":3283,"contract":"contracts/EchoeCampaignsV1.sol:EchoeCampaignsV1","label":"lastUpdatedAt","offset":0,"slot":"3","type":"t_uint256"},{"astId":3285,"contract":"contracts/EchoeCampaignsV1.sol:EchoeCampaignsV1","label":"lastPayoutAt","offset":0,"slot":"4","type":"t_uint256"},{"astId":3287,"contract":"contracts/EchoeCampaignsV1.sol:EchoeCampaignsV1","label":"published","offset":0,"slot":"5","type":"t_bool"}],"numberOfBytes":"192"},"t_uint256":{"encoding":"inplace","label":"uint256","numberOfBytes":"32"}}},"userdoc":{"kind":"user","methods":{},"version":1}}}}