{"contracts/Payfluence.sol":{"Payfluence":{"abi":[{"inputs":[{"internalType":"address","name":"_adminAddress","type":"address"}],"stateMutability":"nonpayable","type":"constructor"},{"inputs":[],"name":"AirdropAlreadyClaimed","type":"error"},{"inputs":[{"internalType":"string","name":"id","type":"string"},{"internalType":"address","name":"token","type":"address"}],"name":"AssetNotFound","type":"error"},{"inputs":[{"internalType":"address","name":"token","type":"address"}],"name":"AssetTypeNotFoundForToken","type":"error"},{"inputs":[],"name":"ECDSAInvalidSignature","type":"error"},{"inputs":[{"internalType":"uint256","name":"length","type":"uint256"}],"name":"ECDSAInvalidSignatureLength","type":"error"},{"inputs":[{"internalType":"bytes32","name":"s","type":"bytes32"}],"name":"ECDSAInvalidSignatureS","type":"error"},{"inputs":[{"internalType":"enum TokenReceiver.AssetType","name":"assetType","type":"uint8"}],"name":"InvalidAssetType","type":"error"},{"inputs":[],"name":"InvalidShortString","type":"error"},{"inputs":[],"name":"InvalidSigner","type":"error"},{"inputs":[{"internalType":"string","name":"id","type":"string"},{"internalType":"enum TokenReceiver.AssetType","name":"assetType","type":"uint8"},{"internalType":"address","name":"token","type":"address"},{"internalType":"uint256","name":"tokenId","type":"uint256"},{"internalType":"uint256","name":"amount","type":"uint256"}],"name":"NotEnoughFunds","type":"error"},{"inputs":[],"name":"OnlyAirdropOwner","type":"error"},{"inputs":[],"name":"OnlyTokenOwner","type":"error"},{"inputs":[{"internalType":"address","name":"owner","type":"address"}],"name":"OwnableInvalidOwner","type":"error"},{"inputs":[{"internalType":"address","name":"account","type":"address"}],"name":"OwnableUnauthorizedAccount","type":"error"},{"inputs":[],"name":"ReentrancyGuardReentrantCall","type":"error"},{"inputs":[{"internalType":"string","name":"str","type":"string"}],"name":"StringTooLong","type":"error"},{"inputs":[],"name":"TransferFailed","type":"error"},{"inputs":[{"internalType":"string","name":"id","type":"string"},{"internalType":"address","name":"to","type":"address"},{"internalType":"uint256","name":"amount","type":"uint256"}],"name":"TransferNativeFailed","type":"error"},{"anonymous":false,"inputs":[],"name":"EIP712DomainChanged","type":"event"},{"anonymous":false,"inputs":[{"indexed":false,"internalType":"string","name":"id","type":"string"},{"indexed":false,"internalType":"address","name":"operator","type":"address"},{"indexed":false,"internalType":"address","name":"from","type":"address"},{"indexed":false,"internalType":"uint256[]","name":"tokenIds","type":"uint256[]"},{"indexed":false,"internalType":"uint256[]","name":"amounts","type":"uint256[]"}],"name":"ERC1155BatchReceived","type":"event"},{"anonymous":false,"inputs":[{"indexed":false,"internalType":"string","name":"id","type":"string"},{"indexed":false,"internalType":"address","name":"operator","type":"address"},{"indexed":false,"internalType":"address","name":"from","type":"address"},{"indexed":false,"internalType":"uint256","name":"tokenIds","type":"uint256"},{"indexed":false,"internalType":"uint256","name":"amounts","type":"uint256"}],"name":"ERC1155Received","type":"event"},{"anonymous":false,"inputs":[{"indexed":false,"internalType":"string","name":"id","type":"string"},{"indexed":false,"internalType":"address","name":"from","type":"address"},{"indexed":false,"internalType":"address","name":"token","type":"address"},{"indexed":false,"internalType":"uint256","name":"amount","type":"uint256"}],"name":"ERC20Received","type":"event"},{"anonymous":false,"inputs":[{"indexed":false,"internalType":"string","name":"id","type":"string"},{"indexed":false,"internalType":"address","name":"operator","type":"address"},{"indexed":false,"internalType":"address","name":"from","type":"address"},{"indexed":false,"internalType":"uint256","name":"tokenId","type":"uint256"}],"name":"ERC721Received","type":"event"},{"anonymous":false,"inputs":[{"indexed":false,"internalType":"string","name":"id","type":"string"},{"indexed":false,"internalType":"address","name":"from","type":"address"},{"indexed":false,"internalType":"uint256","name":"amount","type":"uint256"}],"name":"NativeReceived","type":"event"},{"anonymous":false,"inputs":[{"indexed":true,"internalType":"address","name":"previousOwner","type":"address"},{"indexed":true,"internalType":"address","name":"newOwner","type":"address"}],"name":"OwnershipTransferStarted","type":"event"},{"anonymous":false,"inputs":[{"indexed":true,"internalType":"address","name":"previousOwner","type":"address"},{"indexed":true,"internalType":"address","name":"newOwner","type":"address"}],"name":"OwnershipTransferred","type":"event"},{"inputs":[],"name":"acceptOwnership","outputs":[],"stateMutability":"nonpayable","type":"function"},{"inputs":[{"internalType":"string","name":"_airdropId","type":"string"},{"internalType":"address","name":"_newOwner","type":"address"}],"name":"adminTransferAirdropOwnership","outputs":[],"stateMutability":"nonpayable","type":"function"},{"inputs":[{"internalType":"address","name":"_to","type":"address"},{"internalType":"string","name":"_airdropId","type":"string"},{"internalType":"address","name":"_token","type":"address"},{"internalType":"uint256","name":"_amount","type":"uint256"}],"name":"adminWithdrawERC20","outputs":[],"stateMutability":"nonpayable","type":"function"},{"inputs":[{"internalType":"address","name":"_to","type":"address"}],"name":"adminWithdrawNative","outputs":[],"stateMutability":"nonpayable","type":"function"},{"inputs":[{"internalType":"string","name":"airdropId","type":"string"},{"internalType":"address","name":"recipient","type":"address"}],"name":"airdropClaimedAmounts","outputs":[{"internalType":"uint256","name":"amountClaimed","type":"uint256"}],"stateMutability":"view","type":"function"},{"inputs":[{"internalType":"string","name":"airdropId","type":"string"}],"name":"airdropOwners","outputs":[{"internalType":"address","name":"owner","type":"address"}],"stateMutability":"view","type":"function"},{"inputs":[{"components":[{"internalType":"string","name":"airdropId","type":"string"},{"internalType":"address","name":"token","type":"address"},{"internalType":"address","name":"owner","type":"address"},{"internalType":"address","name":"recipient","type":"address"},{"internalType":"uint256","name":"amountClaimable","type":"uint256"}],"internalType":"struct Payfluence.AirdropMessage","name":"airdropMessage","type":"tuple"},{"internalType":"bytes","name":"signature","type":"bytes"}],"name":"claimAirdrop","outputs":[],"stateMutability":"nonpayable","type":"function"},{"inputs":[{"internalType":"string","name":"id","type":"string"}],"name":"contractBalance","outputs":[{"internalType":"uint256","name":"native","type":"uint256"}],"stateMutability":"view","type":"function"},{"inputs":[],"name":"eip712Domain","outputs":[{"internalType":"bytes1","name":"fields","type":"bytes1"},{"internalType":"string","name":"name","type":"string"},{"internalType":"string","name":"version","type":"string"},{"internalType":"uint256","name":"chainId","type":"uint256"},{"internalType":"address","name":"verifyingContract","type":"address"},{"internalType":"bytes32","name":"salt","type":"bytes32"},{"internalType":"uint256[]","name":"extensions","type":"uint256[]"}],"stateMutability":"view","type":"function"},{"inputs":[{"internalType":"string","name":"_airdropId","type":"string"},{"internalType":"address","name":"_owner","type":"address"},{"internalType":"address","name":"_token","type":"address"},{"internalType":"uint256","name":"_amount","type":"uint256"}],"name":"fundERC20","outputs":[],"stateMutability":"nonpayable","type":"function"},{"inputs":[],"name":"fundNative","outputs":[],"stateMutability":"payable","type":"function"},{"inputs":[],"name":"getChainId","outputs":[{"internalType":"uint256","name":"","type":"uint256"}],"stateMutability":"view","type":"function"},{"inputs":[{"internalType":"address","name":"","type":"address"},{"internalType":"address","name":"","type":"address"},{"internalType":"uint256[]","name":"","type":"uint256[]"},{"internalType":"uint256[]","name":"","type":"uint256[]"},{"internalType":"bytes","name":"","type":"bytes"}],"name":"onERC1155BatchReceived","outputs":[{"internalType":"bytes4","name":"","type":"bytes4"}],"stateMutability":"nonpayable","type":"function"},{"inputs":[{"internalType":"address","name":"","type":"address"},{"internalType":"address","name":"","type":"address"},{"internalType":"uint256","name":"","type":"uint256"},{"internalType":"uint256","name":"","type":"uint256"},{"internalType":"bytes","name":"","type":"bytes"}],"name":"onERC1155Received","outputs":[{"internalType":"bytes4","name":"","type":"bytes4"}],"stateMutability":"nonpayable","type":"function"},{"inputs":[{"internalType":"address","name":"","type":"address"},{"internalType":"address","name":"","type":"address"},{"internalType":"uint256","name":"","type":"uint256"},{"internalType":"bytes","name":"","type":"bytes"}],"name":"onERC721Received","outputs":[{"internalType":"bytes4","name":"","type":"bytes4"}],"stateMutability":"nonpayable","type":"function"},{"inputs":[],"name":"owner","outputs":[{"internalType":"address","name":"","type":"address"}],"stateMutability":"view","type":"function"},{"inputs":[],"name":"pendingOwner","outputs":[{"internalType":"address","name":"","type":"address"}],"stateMutability":"view","type":"function"},{"inputs":[],"name":"renounceOwnership","outputs":[],"stateMutability":"nonpayable","type":"function"},{"inputs":[{"internalType":"address","name":"_adminAddress","type":"address"}],"name":"setAdminAddress","outputs":[],"stateMutability":"nonpayable","type":"function"},{"inputs":[{"internalType":"bytes4","name":"interfaceId","type":"bytes4"}],"name":"supportsInterface","outputs":[{"internalType":"bool","name":"","type":"bool"}],"stateMutability":"view","type":"function"},{"inputs":[{"internalType":"address","name":"newOwner","type":"address"}],"name":"transferOwnership","outputs":[],"stateMutability":"nonpayable","type":"function"},{"inputs":[{"internalType":"bytes","name":"signature","type":"bytes"},{"internalType":"address","name":"signer","type":"address"},{"components":[{"internalType":"string","name":"airdropId","type":"string"},{"internalType":"address","name":"token","type":"address"},{"internalType":"address","name":"owner","type":"address"},{"internalType":"address","name":"recipient","type":"address"},{"internalType":"uint256","name":"amountClaimable","type":"uint256"}],"internalType":"struct Payfluence.AirdropMessage","name":"airdropMessage","type":"tuple"}],"name":"verify","outputs":[],"stateMutability":"view","type":"function"},{"inputs":[{"internalType":"string","name":"_airdropId","type":"string"},{"internalType":"address","name":"_to","type":"address"},{"internalType":"address","name":"_token","type":"address"},{"internalType":"uint256","name":"_amount","type":"uint256"}],"name":"withdrawERC20","outputs":[],"stateMutability":"nonpayable","type":"function"},{"stateMutability":"payable","type":"receive"}],"devdoc":{"errors":{"ECDSAInvalidSignature()":[{"details":"The signature derives the `address(0)`."}],"ECDSAInvalidSignatureLength(uint256)":[{"details":"The signature has an invalid length."}],"ECDSAInvalidSignatureS(bytes32)":[{"details":"The signature has an S value that is in the upper half order."}],"OwnableInvalidOwner(address)":[{"details":"The owner is not a valid owner account. (eg. `address(0)`)"}],"OwnableUnauthorizedAccount(address)":[{"details":"The caller account is not authorized to perform an operation."}],"ReentrancyGuardReentrantCall()":[{"details":"Unauthorized reentrant call."}]},"events":{"EIP712DomainChanged()":{"details":"MAY be emitted to signal that the domain could have changed."}},"kind":"dev","methods":{"acceptOwnership()":{"details":"The new owner accepts the ownership transfer."},"eip712Domain()":{"details":"See {IERC-5267}."},"owner()":{"details":"Returns the address of the current owner."},"pendingOwner()":{"details":"Returns the address of the pending owner."},"renounceOwnership()":{"details":"Leaves the contract without owner. It will not be possible to call `onlyOwner` functions. Can only be called by the current owner. NOTE: Renouncing ownership will leave the contract without an owner, thereby disabling any functionality that is only available to the owner."},"supportsInterface(bytes4)":{"details":"Returns true if this contract implements the interface defined by `interfaceId`. See the corresponding https://eips.ethereum.org/EIPS/eip-165#how-interfaces-are-identified[EIP section] to learn more about how these ids are created. This function call must use less than 30 000 gas."},"transferOwnership(address)":{"details":"Starts the ownership transfer of the contract to a new account. Replaces the pending transfer if there is one. Can only be called by the current owner."}},"version":1},"evm":{"bytecode":{"linkReferences":{},"object":"61016060405260006005553480156200001757600080fd5b50604051620038993803806200389983398181016040528101906200003d9190620004c4565b6040518060400160405280600a81526020017f506179666c75656e6365000000000000000000000000000000000000000000008152506040518060400160405280600181526020017f310000000000000000000000000000000000000000000000000000000000000081525033600073ffffffffffffffffffffffffffffffffffffffff168173ffffffffffffffffffffffffffffffffffffffff16036200011f5760006040517f1e4fbdf700000000000000000000000000000000000000000000000000000000815260040162000116919062000507565b60405180910390fd5b62000130816200023160201b60201c565b5060016002819055506200014f6003836200026a60201b90919060201c565b61012081815250506200016d6004826200026a60201b90919060201c565b6101408181525050818051906020012060e08181525050808051906020012061010081815250504660a08181525050620001ac620002c260201b60201c565b608081815250503073ffffffffffffffffffffffffffffffffffffffff1660c08173ffffffffffffffffffffffffffffffffffffffff1681525050505080600860006101000a81548173ffffffffffffffffffffffffffffffffffffffff021916908373ffffffffffffffffffffffffffffffffffffffff1602179055505062000a63565b600160006101000a81549073ffffffffffffffffffffffffffffffffffffffff021916905562000267816200031f60201b60201c565b50565b600060208351101562000290576200028883620003e360201b60201c565b9050620002bc565b82620002a2836200045060201b60201c565b6000019081620002b391906200079e565b5060ff60001b90505b92915050565b60007f8b73c3c69bb8fe3d512ecc4cf759cc79239f7b179b0ffacaa9a75d522b39400f60e05161010051463060405160200162000304959493929190620008b1565b60405160208183030381529060405280519060200120905090565b60008060009054906101000a900473ffffffffffffffffffffffffffffffffffffffff169050816000806101000a81548173ffffffffffffffffffffffffffffffffffffffff021916908373ffffffffffffffffffffffffffffffffffffffff1602179055508173ffffffffffffffffffffffffffffffffffffffff168173ffffffffffffffffffffffffffffffffffffffff167f8be0079c531659141344cd1fd0a4f28419497f9722a3daafe3b4186f6b6457e060405160405180910390a35050565b600080829050601f815111156200043357826040517f305a27a90000000000000000000000000000000000000000000000000000000081526004016200042a91906200099d565b60405180910390fd5b8051816200044190620009f3565b60001c1760001b915050919050565b6000819050919050565b600080fd5b600073ffffffffffffffffffffffffffffffffffffffff82169050919050565b60006200048c826200045f565b9050919050565b6200049e816200047f565b8114620004aa57600080fd5b50565b600081519050620004be8162000493565b92915050565b600060208284031215620004dd57620004dc6200045a565b5b6000620004ed84828501620004ad565b91505092915050565b62000501816200047f565b82525050565b60006020820190506200051e6000830184620004f6565b92915050565b600081519050919050565b7f4e487b7100000000000000000000000000000000000000000000000000000000600052604160045260246000fd5b7f4e487b7100000000000000000000000000000000000000000000000000000000600052602260045260246000fd5b60006002820490506001821680620005a657607f821691505b602082108103620005bc57620005bb6200055e565b5b50919050565b60008190508160005260206000209050919050565b60006020601f8301049050919050565b600082821b905092915050565b600060088302620006267fffffffffffffffffffffffffffffffffffffffffffffffffffffffffffffffff82620005e7565b620006328683620005e7565b95508019841693508086168417925050509392505050565b6000819050919050565b6000819050919050565b60006200067f6200067962000673846200064a565b62000654565b6200064a565b9050919050565b6000819050919050565b6200069b836200065e565b620006b3620006aa8262000686565b848454620005f4565b825550505050565b600090565b620006ca620006bb565b620006d781848462000690565b505050565b5b81811015620006ff57620006f3600082620006c0565b600181019050620006dd565b5050565b601f8211156200074e576200071881620005c2565b6200072384620005d7565b8101602085101562000733578190505b6200074b6200074285620005d7565b830182620006dc565b50505b505050565b600082821c905092915050565b6000620007736000198460080262000753565b1980831691505092915050565b60006200078e838362000760565b9150826002028217905092915050565b620007a98262000524565b67ffffffffffffffff811115620007c557620007c46200052f565b5b620007d182546200058d565b620007de82828562000703565b600060209050601f83116001811462000816576000841562000801578287015190505b6200080d858262000780565b8655506200087d565b601f1984166200082686620005c2565b60005b82811015620008505784890151825560018201915060208501945060208101905062000829565b868310156200087057848901516200086c601f89168262000760565b8355505b6001600288020188555050505b505050505050565b6000819050919050565b6200089a8162000885565b82525050565b620008ab816200064a565b82525050565b600060a082019050620008c860008301886200088f565b620008d760208301876200088f565b620008e660408301866200088f565b620008f56060830185620008a0565b620009046080830184620004f6565b9695505050505050565b600082825260208201905092915050565b60005b838110156200093f57808201518184015260208101905062000922565b60008484015250505050565b6000601f19601f8301169050919050565b6000620009698262000524565b6200097581856200090e565b9350620009878185602086016200091f565b62000992816200094b565b840191505092915050565b60006020820190508181036000830152620009b981846200095c565b905092915050565b600081519050919050565b6000819050602082019050919050565b6000620009ea825162000885565b80915050919050565b600062000a0082620009c1565b8262000a0c84620009cc565b905062000a1981620009dc565b9250602082101562000a5c5762000a577fffffffffffffffffffffffffffffffffffffffffffffffffffffffffffffffff83602003600802620005e7565b831692505b5050919050565b60805160a05160c05160e051610100516101205161014051612ddb62000abe6000396000611502015260006114c701526000611b1801526000611af7015260006117aa01526000611800015260006118290152612ddb6000f3fe6080604052600436106101445760003560e01c8063bc197c81116100b6578063eb47e0111161006f578063eb47e01114610424578063f23a6e6114610461578063f2fde38b1461049e578063f4fb1849146104c7578063fe1fddaa146104f0578063ffb1500e146105195761014b565b8063bc197c8114610323578063c4385d7614610360578063c8b5773d14610389578063c9c61eab146103b2578063e30c3978146103bc578063ea13689f146103e75761014b565b80633408e470116101085780633408e470146102455780634f18868a14610270578063715018a61461029957806379ba5097146102b057806384b0196e146102c75780638da5cb5b146102f85761014b565b806301ffc9a714610150578063150b7a021461018d5780631dcd3af9146101ca5780632394c348146101f35780632c1e816d1461021c5761014b565b3661014b57005b600080fd5b34801561015c57600080fd5b5061017760048036038101906101729190611d18565b610556565b6040516101849190611d60565b60405180910390f35b34801561019957600080fd5b506101b460048036038101906101af9190611e74565b610690565b6040516101c19190611f0b565b60405180910390f35b3480156101d657600080fd5b506101f160048036038101906101ec91906121ba565b6106a5565b005b3480156101ff57600080fd5b5061021a60048036038101906102159190612232565b61080e565b005b34801561022857600080fd5b50610243600480360381019061023e919061228e565b610877565b005b34801561025157600080fd5b5061025a6108c3565b60405161026791906122ca565b60405180910390f35b34801561027c57600080fd5b50610297600480360381019061029291906122e5565b6108cb565b005b3480156102a557600080fd5b506102ae610a0b565b005b3480156102bc57600080fd5b506102c5610a1f565b005b3480156102d357600080fd5b506102dc610aae565b6040516102ef9796959493929190612508565b60405180910390f35b34801561030457600080fd5b5061030d610b58565b60405161031a919061258c565b60405180910390f35b34801561032f57600080fd5b5061034a600480360381019061034591906125fd565b610b81565b6040516103579190611f0b565b60405180910390f35b34801561036c57600080fd5b50610387600480360381019061038291906122e5565b610b99565b005b34801561039557600080fd5b506103b060048036038101906103ab919061228e565b610e91565b005b6103ba610f46565b005b3480156103c857600080fd5b506103d1610f48565b6040516103de919061258c565b60405180910390f35b3480156103f357600080fd5b5061040e600480360381019061040991906126d9565b610f72565b60405161041b919061258c565b60405180910390f35b34801561043057600080fd5b5061044b60048036038101906104469190612232565b610fbb565b60405161045891906122ca565b60405180910390f35b34801561046d57600080fd5b5061048860048036038101906104839190612722565b610ff6565b6040516104959190611f0b565b60405180910390f35b3480156104aa57600080fd5b506104c560048036038101906104c0919061228e565b61100c565b005b3480156104d357600080fd5b506104ee60048036038101906104e991906127bc565b6110b9565b005b3480156104fc57600080fd5b5061051760048036038101906105129190612847565b6110c9565b005b34801561052557600080fd5b50610540600480360381019061053b91906126d9565b6110e3565b60405161054d91906122ca565b60405180910390f35b60007f4e2312e0000000000000000000000000000000000000000000000000000000007bffffffffffffffffffffffffffffffffffffffffffffffffffffffff1916827bffffffffffffffffffffffffffffffffffffffffffffffffffffffff1916148061062157507f150b7a02000000000000000000000000000000000000000000000000000000007bffffffffffffffffffffffffffffffffffffffffffffffffffffffff1916827bffffffffffffffffffffffffffffffffffffffffffffffffffffffff1916145b8061068957507f01ffc9a7000000000000000000000000000000000000000000000000000000007bffffffffffffffffffffffffffffffffffffffffffffffffffffffff1916827bffffffffffffffffffffffffffffffffffffffffffffffffffffffff1916145b9050919050565b600063150b7a0260e01b905095945050505050565b6106ad611117565b6106da81600860009054906101000a900473ffffffffffffffffffffffffffffffffffffffff168461115b565b8160800151600a83600001516040516106f39190612906565b90815260200160405180910390206000846060015173ffffffffffffffffffffffffffffffffffffffff1673ffffffffffffffffffffffffffffffffffffffff168152602001908152602001600020541061077a576040517fe4ca4c0b00000000000000000000000000000000000000000000000000000000815260040160405180910390fd5b8160800151600a83600001516040516107939190612906565b90815260200160405180910390206000846060015173ffffffffffffffffffffffffffffffffffffffff1673ffffffffffffffffffffffffffffffffffffffff16815260200190815260200160002081905550610802826000015183606001518460200151856080015161124d565b61080a6113f4565b5050565b6108166113fe565b806009836040516108279190612906565b908152602001604051809103902060006101000a81548173ffffffffffffffffffffffffffffffffffffffff021916908373ffffffffffffffffffffffffffffffffffffffff1602179055505050565b61087f6113fe565b80600860006101000a81548173ffffffffffffffffffffffffffffffffffffffff021916908373ffffffffffffffffffffffffffffffffffffffff16021790555050565b600046905090565b6108d3611117565b83600073ffffffffffffffffffffffffffffffffffffffff166009826040516108fc9190612906565b908152602001604051809103902060009054906101000a900473ffffffffffffffffffffffffffffffffffffffff1673ffffffffffffffffffffffffffffffffffffffff16141580156109b9575060098160405161095a9190612906565b908152602001604051809103902060009054906101000a900473ffffffffffffffffffffffffffffffffffffffff1673ffffffffffffffffffffffffffffffffffffffff163373ffffffffffffffffffffffffffffffffffffffff1614155b156109f0576040517f08062d7400000000000000000000000000000000000000000000000000000000815260040160405180910390fd5b6109fc8585858561124d565b50610a056113f4565b50505050565b610a136113fe565b610a1d6000611485565b565b6000610a296114b6565b90508073ffffffffffffffffffffffffffffffffffffffff16610a4a610f48565b73ffffffffffffffffffffffffffffffffffffffff1614610aa257806040517f118cdaa7000000000000000000000000000000000000000000000000000000008152600401610a99919061258c565b60405180910390fd5b610aab81611485565b50565b600060608060008060006060610ac26114be565b610aca6114f9565b46306000801b600067ffffffffffffffff811115610aeb57610aea611f3c565b5b604051908082528060200260200182016040528015610b195781602001602082028036833780820191505090505b507f0f00000000000000000000000000000000000000000000000000000000000000959493929190965096509650965096509650965090919293949596565b60008060009054906101000a900473ffffffffffffffffffffffffffffffffffffffff16905090565b600063bc197c8160e01b905098975050505050505050565b610ba1611117565b83600073ffffffffffffffffffffffffffffffffffffffff16600982604051610bca9190612906565b908152602001604051809103902060009054906101000a900473ffffffffffffffffffffffffffffffffffffffff1673ffffffffffffffffffffffffffffffffffffffff1614158015610c875750600981604051610c289190612906565b908152602001604051809103902060009054906101000a900473ffffffffffffffffffffffffffffffffffffffff1673ffffffffffffffffffffffffffffffffffffffff163373ffffffffffffffffffffffffffffffffffffffff1614155b15610cbe576040517f08062d7400000000000000000000000000000000000000000000000000000000815260040160405180910390fd5b838073ffffffffffffffffffffffffffffffffffffffff163373ffffffffffffffffffffffffffffffffffffffff1614610d24576040517fcdf1f8f900000000000000000000000000000000000000000000000000000000815260040160405180910390fd5b600073ffffffffffffffffffffffffffffffffffffffff16600987604051610d4c9190612906565b908152602001604051809103902060009054906101000a900473ffffffffffffffffffffffffffffffffffffffff1673ffffffffffffffffffffffffffffffffffffffff1603610df45784600987604051610da79190612906565b908152602001604051809103902060006101000a81548173ffffffffffffffffffffffffffffffffffffffff021916908373ffffffffffffffffffffffffffffffffffffffff1602179055505b8373ffffffffffffffffffffffffffffffffffffffff166323b872dd8630866040518463ffffffff1660e01b8152600401610e319392919061291d565b6020604051808303816000875af1158015610e50573d6000803e3d6000fd5b505050506040513d601f19601f82011682018060405250810190610e749190612980565b50610e8186868686611534565b5050610e8b6113f4565b50505050565b610e996113fe565b600047905060008273ffffffffffffffffffffffffffffffffffffffff1682604051610ec4906129de565b60006040518083038185875af1925050503d8060008114610f01576040519150601f19603f3d011682016040523d82523d6000602084013e610f06565b606091505b5050905080610f41576040517f90b8ec1800000000000000000000000000000000000000000000000000000000815260040160405180910390fd5b505050565b565b6000600160009054906101000a900473ffffffffffffffffffffffffffffffffffffffff16905090565b6009818051602081018201805184825260208301602085012081835280955050505050506000915054906101000a900473ffffffffffffffffffffffffffffffffffffffff1681565b600a82805160208101820180518482526020830160208501208183528095505050505050602052806000526040600020600091509150505481565b600063f23a6e6160e01b90509695505050505050565b6110146113fe565b80600160006101000a81548173ffffffffffffffffffffffffffffffffffffffff021916908373ffffffffffffffffffffffffffffffffffffffff1602179055508073ffffffffffffffffffffffffffffffffffffffff16611074610b58565b73ffffffffffffffffffffffffffffffffffffffff167f38d16b8cac22d99fc7c124b9cd0de2d3fa1faef420bfe791d8c362d765e2270060405160405180910390a350565b6110c483838361115b565b505050565b6110d16113fe565b6110dd8385848461124d565b50505050565b6006818051602081018201805184825260208301602085012081835280955050505050506000915090508060000154905081565b6002805403611152576040517f3ee5aeb500000000000000000000000000000000000000000000000000000000815260040160405180910390fd5b60028081905550565b60006111d17fa3b140137dde1ec8f85da0fadac4c5d6c5410186ca811cbe1e3d5fb737dfb2f683600001518051906020012084602001518560400151866060015187608001516040516020016111b6969594939291906129f3565b604051602081830303815290604052805190602001206115ec565b905060006111df8286611606565b90508373ffffffffffffffffffffffffffffffffffffffff168173ffffffffffffffffffffffffffffffffffffffff1614611246576040517f815e1d6400000000000000000000000000000000000000000000000000000000815260040160405180910390fd5b5050505050565b8060068560405161125e9190612906565b908152602001604051809103902060010160008473ffffffffffffffffffffffffffffffffffffffff1673ffffffffffffffffffffffffffffffffffffffff1681526020019081526020016000205410156112fa57836002836000846040517f3ff3e6f20000000000000000000000000000000000000000000000000000000081526004016112f1959493929190612b10565b60405180910390fd5b8060068560405161130b9190612906565b908152602001604051809103902060010160008473ffffffffffffffffffffffffffffffffffffffff1673ffffffffffffffffffffffffffffffffffffffff16815260200190815260200160002060008282546113689190612b99565b925050819055508173ffffffffffffffffffffffffffffffffffffffff1663a9059cbb84836040518363ffffffff1660e01b81526004016113aa929190612bcd565b6020604051808303816000875af11580156113c9573d6000803e3d6000fd5b505050506040513d601f19601f820116820180604052508101906113ed9190612980565b5050505050565b6001600281905550565b6114066114b6565b73ffffffffffffffffffffffffffffffffffffffff16611424610b58565b73ffffffffffffffffffffffffffffffffffffffff1614611483576114476114b6565b6040517f118cdaa700000000000000000000000000000000000000000000000000000000815260040161147a919061258c565b60405180910390fd5b565b600160006101000a81549073ffffffffffffffffffffffffffffffffffffffff02191690556114b381611632565b50565b600033905090565b60606114f460037f00000000000000000000000000000000000000000000000000000000000000006116f690919063ffffffff16565b905090565b606061152f60047f00000000000000000000000000000000000000000000000000000000000000006116f690919063ffffffff16565b905090565b806006856040516115459190612906565b908152602001604051809103902060010160008473ffffffffffffffffffffffffffffffffffffffff1673ffffffffffffffffffffffffffffffffffffffff16815260200190815260200160002060008282546115a29190612bf6565b925050819055507f80b0529195f12df0318651d4b36ffc81b7b3cb429033916c20d71e8d2e219ae3848484846040516115de9493929190612c2a565b60405180910390a150505050565b60006115ff6115f96117a6565b8361185d565b9050919050565b600080600080611616868661189e565b92509250925061162682826118fa565b82935050505092915050565b60008060009054906101000a900473ffffffffffffffffffffffffffffffffffffffff169050816000806101000a81548173ffffffffffffffffffffffffffffffffffffffff021916908373ffffffffffffffffffffffffffffffffffffffff1602179055508173ffffffffffffffffffffffffffffffffffffffff168173ffffffffffffffffffffffffffffffffffffffff167f8be0079c531659141344cd1fd0a4f28419497f9722a3daafe3b4186f6b6457e060405160405180910390a35050565b606060ff60001b83146117135761170c83611a5e565b90506117a0565b81805461171f90612ca5565b80601f016020809104026020016040519081016040528092919081815260200182805461174b90612ca5565b80156117985780601f1061176d57610100808354040283529160200191611798565b820191906000526020600020905b81548152906001019060200180831161177b57829003601f168201915b505050505090505b92915050565b60007f000000000000000000000000000000000000000000000000000000000000000073ffffffffffffffffffffffffffffffffffffffff163073ffffffffffffffffffffffffffffffffffffffff1614801561182257507f000000000000000000000000000000000000000000000000000000000000000046145b1561184f577f0000000000000000000000000000000000000000000000000000000000000000905061185a565b611857611ad2565b90505b90565b60006040517f190100000000000000000000000000000000000000000000000000000000000081528360028201528260228201526042812091505092915050565b600080600060418451036118e35760008060006020870151925060408701519150606087015160001a90506118d588828585611b68565b9550955095505050506118f3565b60006002855160001b9250925092505b9250925092565b6000600381111561190e5761190d612a54565b5b82600381111561192157611920612a54565b5b0315611a5a576001600381111561193b5761193a612a54565b5b82600381111561194e5761194d612a54565b5b03611985576040517ff645eedf00000000000000000000000000000000000000000000000000000000815260040160405180910390fd5b6002600381111561199957611998612a54565b5b8260038111156119ac576119ab612a54565b5b036119f1578060001c6040517ffce698f70000000000000000000000000000000000000000000000000000000081526004016119e891906122ca565b60405180910390fd5b600380811115611a0457611a03612a54565b5b826003811115611a1757611a16612a54565b5b03611a5957806040517fd78bce0c000000000000000000000000000000000000000000000000000000008152600401611a509190612cd6565b60405180910390fd5b5b5050565b60606000611a6b83611c5c565b90506000602067ffffffffffffffff811115611a8a57611a89611f3c565b5b6040519080825280601f01601f191660200182016040528015611abc5781602001600182028036833780820191505090505b5090508181528360208201528092505050919050565b60007f8b73c3c69bb8fe3d512ecc4cf759cc79239f7b179b0ffacaa9a75d522b39400f7f00000000000000000000000000000000000000000000000000000000000000007f00000000000000000000000000000000000000000000000000000000000000004630604051602001611b4d959493929190612cf1565b60405160208183030381529060405280519060200120905090565b60008060007f7fffffffffffffffffffffffffffffff5d576e7357a4501ddfe92f46681b20a08460001c1115611ba8576000600385925092509250611c52565b600060018888888860405160008152602001604052604051611bcd9493929190612d60565b6020604051602081039080840390855afa158015611bef573d6000803e3d6000fd5b505050602060405103519050600073ffffffffffffffffffffffffffffffffffffffff168173ffffffffffffffffffffffffffffffffffffffff1603611c4357600060016000801b93509350935050611c52565b8060008060001b935093509350505b9450945094915050565b60008060ff8360001c169050601f811115611ca3576040517fb3512b0c00000000000000000000000000000000000000000000000000000000815260040160405180910390fd5b80915050919050565b6000604051905090565b600080fd5b600080fd5b60007fffffffff0000000000000000000000000000000000000000000000000000000082169050919050565b611cf581611cc0565b8114611d0057600080fd5b50565b600081359050611d1281611cec565b92915050565b600060208284031215611d2e57611d2d611cb6565b5b6000611d3c84828501611d03565b91505092915050565b60008115159050919050565b611d5a81611d45565b82525050565b6000602082019050611d756000830184611d51565b92915050565b600073ffffffffffffffffffffffffffffffffffffffff82169050919050565b6000611da682611d7b565b9050919050565b611db681611d9b565b8114611dc157600080fd5b50565b600081359050611dd381611dad565b92915050565b6000819050919050565b611dec81611dd9565b8114611df757600080fd5b50565b600081359050611e0981611de3565b92915050565b600080fd5b600080fd5b600080fd5b60008083601f840112611e3457611e33611e0f565b5b8235905067ffffffffffffffff811115611e5157611e50611e14565b5b602083019150836001820283011115611e6d57611e6c611e19565b5b9250929050565b600080600080600060808688031215611e9057611e8f611cb6565b5b6000611e9e88828901611dc4565b9550506020611eaf88828901611dc4565b9450506040611ec088828901611dfa565b935050606086013567ffffffffffffffff811115611ee157611ee0611cbb565b5b611eed88828901611e1e565b92509250509295509295909350565b611f0581611cc0565b82525050565b6000602082019050611f206000830184611efc565b92915050565b600080fd5b6000601f19601f8301169050919050565b7f4e487b7100000000000000000000000000000000000000000000000000000000600052604160045260246000fd5b611f7482611f2b565b810181811067ffffffffffffffff82111715611f9357611f92611f3c565b5b80604052505050565b6000611fa6611cac565b9050611fb28282611f6b565b919050565b600080fd5b600080fd5b600067ffffffffffffffff821115611fdc57611fdb611f3c565b5b611fe582611f2b565b9050602081019050919050565b82818337600083830152505050565b600061201461200f84611fc1565b611f9c565b9050828152602081018484840111156120305761202f611fbc565b5b61203b848285611ff2565b509392505050565b600082601f83011261205857612057611e0f565b5b8135612068848260208601612001565b91505092915050565b600060a0828403121561208757612086611f26565b5b61209160a0611f9c565b9050600082013567ffffffffffffffff8111156120b1576120b0611fb7565b5b6120bd84828501612043565b60008301525060206120d184828501611dc4565b60208301525060406120e584828501611dc4565b60408301525060606120f984828501611dc4565b606083015250608061210d84828501611dfa565b60808301525092915050565b600067ffffffffffffffff82111561213457612133611f3c565b5b61213d82611f2b565b9050602081019050919050565b600061215d61215884612119565b611f9c565b90508281526020810184848401111561217957612178611fbc565b5b612184848285611ff2565b509392505050565b600082601f8301126121a1576121a0611e0f565b5b81356121b184826020860161214a565b91505092915050565b600080604083850312156121d1576121d0611cb6565b5b600083013567ffffffffffffffff8111156121ef576121ee611cbb565b5b6121fb85828601612071565b925050602083013567ffffffffffffffff81111561221c5761221b611cbb565b5b6122288582860161218c565b9150509250929050565b6000806040838503121561224957612248611cb6565b5b600083013567ffffffffffffffff81111561226757612266611cbb565b5b61227385828601612043565b925050602061228485828601611dc4565b9150509250929050565b6000602082840312156122a4576122a3611cb6565b5b60006122b284828501611dc4565b91505092915050565b6122c481611dd9565b82525050565b60006020820190506122df60008301846122bb565b92915050565b600080600080608085870312156122ff576122fe611cb6565b5b600085013567ffffffffffffffff81111561231d5761231c611cbb565b5b61232987828801612043565b945050602061233a87828801611dc4565b935050604061234b87828801611dc4565b925050606061235c87828801611dfa565b91505092959194509250565b60007fff0000000000000000000000000000000000000000000000000000000000000082169050919050565b61239d81612368565b82525050565b600081519050919050565b600082825260208201905092915050565b60005b838110156123dd5780820151818401526020810190506123c2565b60008484015250505050565b60006123f4826123a3565b6123fe81856123ae565b935061240e8185602086016123bf565b61241781611f2b565b840191505092915050565b61242b81611d9b565b82525050565b6000819050919050565b61244481612431565b82525050565b600081519050919050565b600082825260208201905092915050565b6000819050602082019050919050565b61247f81611dd9565b82525050565b60006124918383612476565b60208301905092915050565b6000602082019050919050565b60006124b58261244a565b6124bf8185612455565b93506124ca83612466565b8060005b838110156124fb5781516124e28882612485565b97506124ed8361249d565b9250506001810190506124ce565b5085935050505092915050565b600060e08201905061251d600083018a612394565b818103602083015261252f81896123e9565b9050818103604083015261254381886123e9565b905061255260608301876122bb565b61255f6080830186612422565b61256c60a083018561243b565b81810360c083015261257e81846124aa565b905098975050505050505050565b60006020820190506125a16000830184612422565b92915050565b60008083601f8401126125bd576125bc611e0f565b5b8235905067ffffffffffffffff8111156125da576125d9611e14565b5b6020830191508360208202830111156125f6576125f5611e19565b5b9250929050565b60008060008060008060008060a0898b03121561261d5761261c611cb6565b5b600061262b8b828c01611dc4565b985050602061263c8b828c01611dc4565b975050604089013567ffffffffffffffff81111561265d5761265c611cbb565b5b6126698b828c016125a7565b9650965050606089013567ffffffffffffffff81111561268c5761268b611cbb565b5b6126988b828c016125a7565b9450945050608089013567ffffffffffffffff8111156126bb576126ba611cbb565b5b6126c78b828c01611e1e565b92509250509295985092959890939650565b6000602082840312156126ef576126ee611cb6565b5b600082013567ffffffffffffffff81111561270d5761270c611cbb565b5b61271984828501612043565b91505092915050565b60008060008060008060a0878903121561273f5761273e611cb6565b5b600061274d89828a01611dc4565b965050602061275e89828a01611dc4565b955050604061276f89828a01611dfa565b945050606061278089828a01611dfa565b935050608087013567ffffffffffffffff8111156127a1576127a0611cbb565b5b6127ad89828a01611e1e565b92509250509295509295509295565b6000806000606084860312156127d5576127d4611cb6565b5b600084013567ffffffffffffffff8111156127f3576127f2611cbb565b5b6127ff8682870161218c565b935050602061281086828701611dc4565b925050604084013567ffffffffffffffff81111561283157612830611cbb565b5b61283d86828701612071565b9150509250925092565b6000806000806080858703121561286157612860611cb6565b5b600061286f87828801611dc4565b945050602085013567ffffffffffffffff8111156128905761288f611cbb565b5b61289c87828801612043565b93505060406128ad87828801611dc4565b92505060606128be87828801611dfa565b91505092959194509250565b600081905092915050565b60006128e0826123a3565b6128ea81856128ca565b93506128fa8185602086016123bf565b80840191505092915050565b600061291282846128d5565b915081905092915050565b60006060820190506129326000830186612422565b61293f6020830185612422565b61294c60408301846122bb565b949350505050565b61295d81611d45565b811461296857600080fd5b50565b60008151905061297a81612954565b92915050565b60006020828403121561299657612995611cb6565b5b60006129a48482850161296b565b91505092915050565b600081905092915050565b50565b60006129c86000836129ad565b91506129d3826129b8565b600082019050919050565b60006129e9826129bb565b9150819050919050565b600060c082019050612a08600083018961243b565b612a15602083018861243b565b612a226040830187612422565b612a2f6060830186612422565b612a3c6080830185612422565b612a4960a08301846122bb565b979650505050505050565b7f4e487b7100000000000000000000000000000000000000000000000000000000600052602160045260246000fd5b60058110612a9457612a93612a54565b5b50565b6000819050612aa582612a83565b919050565b6000612ab582612a97565b9050919050565b612ac581612aaa565b82525050565b6000819050919050565b6000819050919050565b6000612afa612af5612af084612acb565b612ad5565b611dd9565b9050919050565b612b0a81612adf565b82525050565b600060a0820190508181036000830152612b2a81886123e9565b9050612b396020830187612abc565b612b466040830186612422565b612b536060830185612b01565b612b6060808301846122bb565b9695505050505050565b7f4e487b7100000000000000000000000000000000000000000000000000000000600052601160045260246000fd5b6000612ba482611dd9565b9150612baf83611dd9565b9250828203905081811115612bc757612bc6612b6a565b5b92915050565b6000604082019050612be26000830185612422565b612bef60208301846122bb565b9392505050565b6000612c0182611dd9565b9150612c0c83611dd9565b9250828201905080821115612c2457612c23612b6a565b5b92915050565b60006080820190508181036000830152612c4481876123e9565b9050612c536020830186612422565b612c606040830185612422565b612c6d60608301846122bb565b95945050505050565b7f4e487b7100000000000000000000000000000000000000000000000000000000600052602260045260246000fd5b60006002820490506001821680612cbd57607f821691505b602082108103612cd057612ccf612c76565b5b50919050565b6000602082019050612ceb600083018461243b565b92915050565b600060a082019050612d06600083018861243b565b612d13602083018761243b565b612d20604083018661243b565b612d2d60608301856122bb565b612d3a6080830184612422565b9695505050505050565b600060ff82169050919050565b612d5a81612d44565b82525050565b6000608082019050612d75600083018761243b565b612d826020830186612d51565b612d8f604083018561243b565b612d9c606083018461243b565b9594505050505056fea2646970667358221220c47702b10630b0ec695fe69646656be2b4a8635e3d14733b5b33aa23b49f75e964736f6c63430008180033","opcodes":"PUSH2 0x160 PUSH1 0x40 MSTORE PUSH1 0x0 PUSH1 0x5 SSTORE CALLVALUE DUP1 ISZERO PUSH3 0x17 JUMPI PUSH1 0x0 DUP1 REVERT JUMPDEST POP PUSH1 0x40 MLOAD PUSH3 0x3899 CODESIZE SUB DUP1 PUSH3 0x3899 DUP4 CODECOPY DUP2 DUP2 ADD PUSH1 0x40 MSTORE DUP2 ADD SWAP1 PUSH3 0x3D SWAP2 SWAP1 PUSH3 0x4C4 JUMP JUMPDEST PUSH1 0x40 MLOAD DUP1 PUSH1 0x40 ADD PUSH1 0x40 MSTORE DUP1 PUSH1 0xA DUP2 MSTORE PUSH1 0x20 ADD PUSH32 0x506179666C75656E636500000000000000000000000000000000000000000000 DUP2 MSTORE POP PUSH1 0x40 MLOAD DUP1 PUSH1 0x40 ADD PUSH1 0x40 MSTORE DUP1 PUSH1 0x1 DUP2 MSTORE PUSH1 0x20 ADD PUSH32 0x3100000000000000000000000000000000000000000000000000000000000000 DUP2 MSTORE POP CALLER PUSH1 0x0 PUSH20 0xFFFFFFFFFFFFFFFFFFFFFFFFFFFFFFFFFFFFFFFF AND DUP2 PUSH20 0xFFFFFFFFFFFFFFFFFFFFFFFFFFFFFFFFFFFFFFFF AND SUB PUSH3 0x11F JUMPI PUSH1 0x0 PUSH1 0x40 MLOAD PUSH32 0x1E4FBDF700000000000000000000000000000000000000000000000000000000 DUP2 MSTORE PUSH1 0x4 ADD PUSH3 0x116 SWAP2 SWAP1 PUSH3 0x507 JUMP JUMPDEST PUSH1 0x40 MLOAD DUP1 SWAP2 SUB SWAP1 REVERT JUMPDEST PUSH3 0x130 DUP2 PUSH3 0x231 PUSH1 0x20 SHL PUSH1 0x20 SHR JUMP JUMPDEST POP PUSH1 0x1 PUSH1 0x2 DUP2 SWAP1 SSTORE POP PUSH3 0x14F PUSH1 0x3 DUP4 PUSH3 0x26A PUSH1 0x20 SHL SWAP1 SWAP2 SWAP1 PUSH1 0x20 SHR JUMP JUMPDEST PUSH2 0x120 DUP2 DUP2 MSTORE POP POP PUSH3 0x16D PUSH1 0x4 DUP3 PUSH3 0x26A PUSH1 0x20 SHL SWAP1 SWAP2 SWAP1 PUSH1 0x20 SHR JUMP JUMPDEST PUSH2 0x140 DUP2 DUP2 MSTORE POP POP DUP2 DUP1 MLOAD SWAP1 PUSH1 0x20 ADD KECCAK256 PUSH1 0xE0 DUP2 DUP2 MSTORE POP POP DUP1 DUP1 MLOAD SWAP1 PUSH1 0x20 ADD KECCAK256 PUSH2 0x100 DUP2 DUP2 MSTORE POP POP CHAINID PUSH1 0xA0 DUP2 DUP2 MSTORE POP POP PUSH3 0x1AC PUSH3 0x2C2 PUSH1 0x20 SHL PUSH1 0x20 SHR JUMP JUMPDEST PUSH1 0x80 DUP2 DUP2 MSTORE POP POP ADDRESS PUSH20 0xFFFFFFFFFFFFFFFFFFFFFFFFFFFFFFFFFFFFFFFF AND PUSH1 0xC0 DUP2 PUSH20 0xFFFFFFFFFFFFFFFFFFFFFFFFFFFFFFFFFFFFFFFF AND DUP2 MSTORE POP POP POP POP DUP1 PUSH1 0x8 PUSH1 0x0 PUSH2 0x100 EXP DUP2 SLOAD DUP2 PUSH20 0xFFFFFFFFFFFFFFFFFFFFFFFFFFFFFFFFFFFFFFFF MUL NOT AND SWAP1 DUP4 PUSH20 0xFFFFFFFFFFFFFFFFFFFFFFFFFFFFFFFFFFFFFFFF AND MUL OR SWAP1 SSTORE POP POP PUSH3 0xA63 JUMP JUMPDEST PUSH1 0x1 PUSH1 0x0 PUSH2 0x100 EXP DUP2 SLOAD SWAP1 PUSH20 0xFFFFFFFFFFFFFFFFFFFFFFFFFFFFFFFFFFFFFFFF MUL NOT AND SWAP1 SSTORE PUSH3 0x267 DUP2 PUSH3 0x31F PUSH1 0x20 SHL PUSH1 0x20 SHR JUMP JUMPDEST POP JUMP JUMPDEST PUSH1 0x0 PUSH1 0x20 DUP4 MLOAD LT ISZERO PUSH3 0x290 JUMPI PUSH3 0x288 DUP4 PUSH3 0x3E3 PUSH1 0x20 SHL PUSH1 0x20 SHR JUMP JUMPDEST SWAP1 POP PUSH3 0x2BC JUMP JUMPDEST DUP3 PUSH3 0x2A2 DUP4 PUSH3 0x450 PUSH1 0x20 SHL PUSH1 0x20 SHR JUMP JUMPDEST PUSH1 0x0 ADD SWAP1 DUP2 PUSH3 0x2B3 SWAP2 SWAP1 PUSH3 0x79E JUMP JUMPDEST POP PUSH1 0xFF PUSH1 0x0 SHL SWAP1 POP JUMPDEST SWAP3 SWAP2 POP POP JUMP JUMPDEST PUSH1 0x0 PUSH32 0x8B73C3C69BB8FE3D512ECC4CF759CC79239F7B179B0FFACAA9A75D522B39400F PUSH1 0xE0 MLOAD PUSH2 0x100 MLOAD CHAINID ADDRESS PUSH1 0x40 MLOAD PUSH1 0x20 ADD PUSH3 0x304 SWAP6 SWAP5 SWAP4 SWAP3 SWAP2 SWAP1 PUSH3 0x8B1 JUMP JUMPDEST PUSH1 0x40 MLOAD PUSH1 0x20 DUP2 DUP4 SUB SUB DUP2 MSTORE SWAP1 PUSH1 0x40 MSTORE DUP1 MLOAD SWAP1 PUSH1 0x20 ADD KECCAK256 SWAP1 POP SWAP1 JUMP JUMPDEST PUSH1 0x0 DUP1 PUSH1 0x0 SWAP1 SLOAD SWAP1 PUSH2 0x100 EXP SWAP1 DIV PUSH20 0xFFFFFFFFFFFFFFFFFFFFFFFFFFFFFFFFFFFFFFFF AND SWAP1 POP DUP2 PUSH1 0x0 DUP1 PUSH2 0x100 EXP DUP2 SLOAD DUP2 PUSH20 0xFFFFFFFFFFFFFFFFFFFFFFFFFFFFFFFFFFFFFFFF MUL NOT AND SWAP1 DUP4 PUSH20 0xFFFFFFFFFFFFFFFFFFFFFFFFFFFFFFFFFFFFFFFF AND MUL OR SWAP1 SSTORE POP DUP2 PUSH20 0xFFFFFFFFFFFFFFFFFFFFFFFFFFFFFFFFFFFFFFFF AND DUP2 PUSH20 0xFFFFFFFFFFFFFFFFFFFFFFFFFFFFFFFFFFFFFFFF AND PUSH32 0x8BE0079C531659141344CD1FD0A4F28419497F9722A3DAAFE3B4186F6B6457E0 PUSH1 0x40 MLOAD PUSH1 0x40 MLOAD DUP1 SWAP2 SUB SWAP1 LOG3 POP POP JUMP JUMPDEST PUSH1 0x0 DUP1 DUP3 SWAP1 POP PUSH1 0x1F DUP2 MLOAD GT ISZERO PUSH3 0x433 JUMPI DUP3 PUSH1 0x40 MLOAD PUSH32 0x305A27A900000000000000000000000000000000000000000000000000000000 DUP2 MSTORE PUSH1 0x4 ADD PUSH3 0x42A SWAP2 SWAP1 PUSH3 0x99D JUMP JUMPDEST PUSH1 0x40 MLOAD DUP1 SWAP2 SUB SWAP1 REVERT JUMPDEST DUP1 MLOAD DUP2 PUSH3 0x441 SWAP1 PUSH3 0x9F3 JUMP JUMPDEST PUSH1 0x0 SHR OR PUSH1 0x0 SHL SWAP2 POP POP SWAP2 SWAP1 POP JUMP JUMPDEST PUSH1 0x0 DUP2 SWAP1 POP SWAP2 SWAP1 POP JUMP JUMPDEST PUSH1 0x0 DUP1 REVERT JUMPDEST PUSH1 0x0 PUSH20 0xFFFFFFFFFFFFFFFFFFFFFFFFFFFFFFFFFFFFFFFF DUP3 AND SWAP1 POP SWAP2 SWAP1 POP JUMP JUMPDEST PUSH1 0x0 PUSH3 0x48C DUP3 PUSH3 0x45F JUMP JUMPDEST SWAP1 POP SWAP2 SWAP1 POP JUMP JUMPDEST PUSH3 0x49E DUP2 PUSH3 0x47F JUMP JUMPDEST DUP2 EQ PUSH3 0x4AA JUMPI PUSH1 0x0 DUP1 REVERT JUMPDEST POP JUMP JUMPDEST PUSH1 0x0 DUP2 MLOAD SWAP1 POP PUSH3 0x4BE DUP2 PUSH3 0x493 JUMP JUMPDEST SWAP3 SWAP2 POP POP JUMP JUMPDEST PUSH1 0x0 PUSH1 0x20 DUP3 DUP5 SUB SLT ISZERO PUSH3 0x4DD JUMPI PUSH3 0x4DC PUSH3 0x45A JUMP JUMPDEST JUMPDEST PUSH1 0x0 PUSH3 0x4ED DUP5 DUP3 DUP6 ADD PUSH3 0x4AD JUMP JUMPDEST SWAP2 POP POP SWAP3 SWAP2 POP POP JUMP JUMPDEST PUSH3 0x501 DUP2 PUSH3 0x47F JUMP JUMPDEST DUP3 MSTORE POP POP JUMP JUMPDEST PUSH1 0x0 PUSH1 0x20 DUP3 ADD SWAP1 POP PUSH3 0x51E PUSH1 0x0 DUP4 ADD DUP5 PUSH3 0x4F6 JUMP JUMPDEST SWAP3 SWAP2 POP POP JUMP JUMPDEST PUSH1 0x0 DUP2 MLOAD SWAP1 POP SWAP2 SWAP1 POP JUMP JUMPDEST PUSH32 0x4E487B7100000000000000000000000000000000000000000000000000000000 PUSH1 0x0 MSTORE PUSH1 0x41 PUSH1 0x4 MSTORE PUSH1 0x24 PUSH1 0x0 REVERT JUMPDEST PUSH32 0x4E487B7100000000000000000000000000000000000000000000000000000000 PUSH1 0x0 MSTORE PUSH1 0x22 PUSH1 0x4 MSTORE PUSH1 0x24 PUSH1 0x0 REVERT JUMPDEST PUSH1 0x0 PUSH1 0x2 DUP3 DIV SWAP1 POP PUSH1 0x1 DUP3 AND DUP1 PUSH3 0x5A6 JUMPI PUSH1 0x7F DUP3 AND SWAP2 POP JUMPDEST PUSH1 0x20 DUP3 LT DUP2 SUB PUSH3 0x5BC JUMPI PUSH3 0x5BB PUSH3 0x55E JUMP JUMPDEST JUMPDEST POP SWAP2 SWAP1 POP JUMP JUMPDEST PUSH1 0x0 DUP2 SWAP1 POP DUP2 PUSH1 0x0 MSTORE PUSH1 0x20 PUSH1 0x0 KECCAK256 SWAP1 POP SWAP2 SWAP1 POP JUMP JUMPDEST PUSH1 0x0 PUSH1 0x20 PUSH1 0x1F DUP4 ADD DIV SWAP1 POP SWAP2 SWAP1 POP JUMP JUMPDEST PUSH1 0x0 DUP3 DUP3 SHL SWAP1 POP SWAP3 SWAP2 POP POP JUMP JUMPDEST PUSH1 0x0 PUSH1 0x8 DUP4 MUL PUSH3 0x626 PUSH32 0xFFFFFFFFFFFFFFFFFFFFFFFFFFFFFFFFFFFFFFFFFFFFFFFFFFFFFFFFFFFFFFFF DUP3 PUSH3 0x5E7 JUMP JUMPDEST PUSH3 0x632 DUP7 DUP4 PUSH3 0x5E7 JUMP JUMPDEST SWAP6 POP DUP1 NOT DUP5 AND SWAP4 POP DUP1 DUP7 AND DUP5 OR SWAP3 POP POP POP SWAP4 SWAP3 POP POP POP JUMP JUMPDEST PUSH1 0x0 DUP2 SWAP1 POP SWAP2 SWAP1 POP JUMP JUMPDEST PUSH1 0x0 DUP2 SWAP1 POP SWAP2 SWAP1 POP JUMP JUMPDEST PUSH1 0x0 PUSH3 0x67F PUSH3 0x679 PUSH3 0x673 DUP5 PUSH3 0x64A JUMP JUMPDEST PUSH3 0x654 JUMP JUMPDEST PUSH3 0x64A JUMP JUMPDEST SWAP1 POP SWAP2 SWAP1 POP JUMP JUMPDEST PUSH1 0x0 DUP2 SWAP1 POP SWAP2 SWAP1 POP JUMP JUMPDEST PUSH3 0x69B DUP4 PUSH3 0x65E JUMP JUMPDEST PUSH3 0x6B3 PUSH3 0x6AA DUP3 PUSH3 0x686 JUMP JUMPDEST DUP5 DUP5 SLOAD PUSH3 0x5F4 JUMP JUMPDEST DUP3 SSTORE POP POP POP POP JUMP JUMPDEST PUSH1 0x0 SWAP1 JUMP JUMPDEST PUSH3 0x6CA PUSH3 0x6BB JUMP JUMPDEST PUSH3 0x6D7 DUP2 DUP5 DUP5 PUSH3 0x690 JUMP JUMPDEST POP POP POP JUMP JUMPDEST JUMPDEST DUP2 DUP2 LT ISZERO PUSH3 0x6FF JUMPI PUSH3 0x6F3 PUSH1 0x0 DUP3 PUSH3 0x6C0 JUMP JUMPDEST PUSH1 0x1 DUP2 ADD SWAP1 POP PUSH3 0x6DD JUMP JUMPDEST POP POP JUMP JUMPDEST PUSH1 0x1F DUP3 GT ISZERO PUSH3 0x74E JUMPI PUSH3 0x718 DUP2 PUSH3 0x5C2 JUMP JUMPDEST PUSH3 0x723 DUP5 PUSH3 0x5D7 JUMP JUMPDEST DUP2 ADD PUSH1 0x20 DUP6 LT ISZERO PUSH3 0x733 JUMPI DUP2 SWAP1 POP JUMPDEST PUSH3 0x74B PUSH3 0x742 DUP6 PUSH3 0x5D7 JUMP JUMPDEST DUP4 ADD DUP3 PUSH3 0x6DC JUMP JUMPDEST POP POP JUMPDEST POP POP POP JUMP JUMPDEST PUSH1 0x0 DUP3 DUP3 SHR SWAP1 POP SWAP3 SWAP2 POP POP JUMP JUMPDEST PUSH1 0x0 PUSH3 0x773 PUSH1 0x0 NOT DUP5 PUSH1 0x8 MUL PUSH3 0x753 JUMP JUMPDEST NOT DUP1 DUP4 AND SWAP2 POP POP SWAP3 SWAP2 POP POP JUMP JUMPDEST PUSH1 0x0 PUSH3 0x78E DUP4 DUP4 PUSH3 0x760 JUMP JUMPDEST SWAP2 POP DUP3 PUSH1 0x2 MUL DUP3 OR SWAP1 POP SWAP3 SWAP2 POP POP JUMP JUMPDEST PUSH3 0x7A9 DUP3 PUSH3 0x524 JUMP JUMPDEST PUSH8 0xFFFFFFFFFFFFFFFF DUP2 GT ISZERO PUSH3 0x7C5 JUMPI PUSH3 0x7C4 PUSH3 0x52F JUMP JUMPDEST JUMPDEST PUSH3 0x7D1 DUP3 SLOAD PUSH3 0x58D JUMP JUMPDEST PUSH3 0x7DE DUP3 DUP3 DUP6 PUSH3 0x703 JUMP JUMPDEST PUSH1 0x0 PUSH1 0x20 SWAP1 POP PUSH1 0x1F DUP4 GT PUSH1 0x1 DUP2 EQ PUSH3 0x816 JUMPI PUSH1 0x0 DUP5 ISZERO PUSH3 0x801 JUMPI DUP3 DUP8 ADD MLOAD SWAP1 POP JUMPDEST PUSH3 0x80D DUP6 DUP3 PUSH3 0x780 JUMP JUMPDEST DUP7 SSTORE POP PUSH3 0x87D JUMP JUMPDEST PUSH1 0x1F NOT DUP5 AND PUSH3 0x826 DUP7 PUSH3 0x5C2 JUMP JUMPDEST PUSH1 0x0 JUMPDEST DUP3 DUP2 LT ISZERO PUSH3 0x850 JUMPI DUP5 DUP10 ADD MLOAD DUP3 SSTORE PUSH1 0x1 DUP3 ADD SWAP2 POP PUSH1 0x20 DUP6 ADD SWAP5 POP PUSH1 0x20 DUP2 ADD SWAP1 POP PUSH3 0x829 JUMP JUMPDEST DUP7 DUP4 LT ISZERO PUSH3 0x870 JUMPI DUP5 DUP10 ADD MLOAD PUSH3 0x86C PUSH1 0x1F DUP10 AND DUP3 PUSH3 0x760 JUMP JUMPDEST DUP4 SSTORE POP JUMPDEST PUSH1 0x1 PUSH1 0x2 DUP9 MUL ADD DUP9 SSTORE POP POP POP JUMPDEST POP POP POP POP POP POP JUMP JUMPDEST PUSH1 0x0 DUP2 SWAP1 POP SWAP2 SWAP1 POP JUMP JUMPDEST PUSH3 0x89A DUP2 PUSH3 0x885 JUMP JUMPDEST DUP3 MSTORE POP POP JUMP JUMPDEST PUSH3 0x8AB DUP2 PUSH3 0x64A JUMP JUMPDEST DUP3 MSTORE POP POP JUMP JUMPDEST PUSH1 0x0 PUSH1 0xA0 DUP3 ADD SWAP1 POP PUSH3 0x8C8 PUSH1 0x0 DUP4 ADD DUP9 PUSH3 0x88F JUMP JUMPDEST PUSH3 0x8D7 PUSH1 0x20 DUP4 ADD DUP8 PUSH3 0x88F JUMP JUMPDEST PUSH3 0x8E6 PUSH1 0x40 DUP4 ADD DUP7 PUSH3 0x88F JUMP JUMPDEST PUSH3 0x8F5 PUSH1 0x60 DUP4 ADD DUP6 PUSH3 0x8A0 JUMP JUMPDEST PUSH3 0x904 PUSH1 0x80 DUP4 ADD DUP5 PUSH3 0x4F6 JUMP JUMPDEST SWAP7 SWAP6 POP POP POP POP POP POP JUMP JUMPDEST PUSH1 0x0 DUP3 DUP3 MSTORE PUSH1 0x20 DUP3 ADD SWAP1 POP SWAP3 SWAP2 POP POP JUMP JUMPDEST PUSH1 0x0 JUMPDEST DUP4 DUP2 LT ISZERO PUSH3 0x93F JUMPI DUP1 DUP3 ADD MLOAD DUP2 DUP5 ADD MSTORE PUSH1 0x20 DUP2 ADD SWAP1 POP PUSH3 0x922 JUMP JUMPDEST PUSH1 0x0 DUP5 DUP5 ADD MSTORE POP POP POP POP JUMP JUMPDEST PUSH1 0x0 PUSH1 0x1F NOT PUSH1 0x1F DUP4 ADD AND SWAP1 POP SWAP2 SWAP1 POP JUMP JUMPDEST PUSH1 0x0 PUSH3 0x969 DUP3 PUSH3 0x524 JUMP JUMPDEST PUSH3 0x975 DUP2 DUP6 PUSH3 0x90E JUMP JUMPDEST SWAP4 POP PUSH3 0x987 DUP2 DUP6 PUSH1 0x20 DUP7 ADD PUSH3 0x91F JUMP JUMPDEST PUSH3 0x992 DUP2 PUSH3 0x94B JUMP JUMPDEST DUP5 ADD SWAP2 POP POP SWAP3 SWAP2 POP POP JUMP JUMPDEST PUSH1 0x0 PUSH1 0x20 DUP3 ADD SWAP1 POP DUP2 DUP2 SUB PUSH1 0x0 DUP4 ADD MSTORE PUSH3 0x9B9 DUP2 DUP5 PUSH3 0x95C JUMP JUMPDEST SWAP1 POP SWAP3 SWAP2 POP POP JUMP JUMPDEST PUSH1 0x0 DUP2 MLOAD SWAP1 POP SWAP2 SWAP1 POP JUMP JUMPDEST PUSH1 0x0 DUP2 SWAP1 POP PUSH1 0x20 DUP3 ADD SWAP1 POP SWAP2 SWAP1 POP JUMP JUMPDEST PUSH1 0x0 PUSH3 0x9EA DUP3 MLOAD PUSH3 0x885 JUMP JUMPDEST DUP1 SWAP2 POP POP SWAP2 SWAP1 POP JUMP JUMPDEST PUSH1 0x0 PUSH3 0xA00 DUP3 PUSH3 0x9C1 JUMP JUMPDEST DUP3 PUSH3 0xA0C DUP5 PUSH3 0x9CC JUMP JUMPDEST SWAP1 POP PUSH3 0xA19 DUP2 PUSH3 0x9DC JUMP JUMPDEST SWAP3 POP PUSH1 0x20 DUP3 LT ISZERO PUSH3 0xA5C JUMPI PUSH3 0xA57 PUSH32 0xFFFFFFFFFFFFFFFFFFFFFFFFFFFFFFFFFFFFFFFFFFFFFFFFFFFFFFFFFFFFFFFF DUP4 PUSH1 0x20 SUB PUSH1 0x8 MUL PUSH3 0x5E7 JUMP JUMPDEST DUP4 AND SWAP3 POP JUMPDEST POP POP SWAP2 SWAP1 POP JUMP JUMPDEST PUSH1 0x80 MLOAD PUSH1 0xA0 MLOAD PUSH1 0xC0 MLOAD PUSH1 0xE0 MLOAD PUSH2 0x100 MLOAD PUSH2 0x120 MLOAD PUSH2 0x140 MLOAD PUSH2 0x2DDB PUSH3 0xABE PUSH1 0x0 CODECOPY PUSH1 0x0 PUSH2 0x1502 ADD MSTORE PUSH1 0x0 PUSH2 0x14C7 ADD MSTORE PUSH1 0x0 PUSH2 0x1B18 ADD MSTORE PUSH1 0x0 PUSH2 0x1AF7 ADD MSTORE PUSH1 0x0 PUSH2 0x17AA ADD MSTORE PUSH1 0x0 PUSH2 0x1800 ADD MSTORE PUSH1 0x0 PUSH2 0x1829 ADD MSTORE PUSH2 0x2DDB PUSH1 0x0 RETURN INVALID PUSH1 0x80 PUSH1 0x40 MSTORE PUSH1 0x4 CALLDATASIZE LT PUSH2 0x144 JUMPI PUSH1 0x0 CALLDATALOAD PUSH1 0xE0 SHR DUP1 PUSH4 0xBC197C81 GT PUSH2 0xB6 JUMPI DUP1 PUSH4 0xEB47E011 GT PUSH2 0x6F JUMPI DUP1 PUSH4 0xEB47E011 EQ PUSH2 0x424 JUMPI DUP1 PUSH4 0xF23A6E61 EQ PUSH2 0x461 JUMPI DUP1 PUSH4 0xF2FDE38B EQ PUSH2 0x49E JUMPI DUP1 PUSH4 0xF4FB1849 EQ PUSH2 0x4C7 JUMPI DUP1 PUSH4 0xFE1FDDAA EQ PUSH2 0x4F0 JUMPI DUP1 PUSH4 0xFFB1500E EQ PUSH2 0x519 JUMPI PUSH2 0x14B JUMP JUMPDEST DUP1 PUSH4 0xBC197C81 EQ PUSH2 0x323 JUMPI DUP1 PUSH4 0xC4385D76 EQ PUSH2 0x360 JUMPI DUP1 PUSH4 0xC8B5773D EQ PUSH2 0x389 JUMPI DUP1 PUSH4 0xC9C61EAB EQ PUSH2 0x3B2 JUMPI DUP1 PUSH4 0xE30C3978 EQ PUSH2 0x3BC JUMPI DUP1 PUSH4 0xEA13689F EQ PUSH2 0x3E7 JUMPI PUSH2 0x14B JUMP JUMPDEST DUP1 PUSH4 0x3408E470 GT PUSH2 0x108 JUMPI DUP1 PUSH4 0x3408E470 EQ PUSH2 0x245 JUMPI DUP1 PUSH4 0x4F18868A EQ PUSH2 0x270 JUMPI DUP1 PUSH4 0x715018A6 EQ PUSH2 0x299 JUMPI DUP1 PUSH4 0x79BA5097 EQ PUSH2 0x2B0 JUMPI DUP1 PUSH4 0x84B0196E EQ PUSH2 0x2C7 JUMPI DUP1 PUSH4 0x8DA5CB5B EQ PUSH2 0x2F8 JUMPI PUSH2 0x14B JUMP JUMPDEST DUP1 PUSH4 0x1FFC9A7 EQ PUSH2 0x150 JUMPI DUP1 PUSH4 0x150B7A02 EQ PUSH2 0x18D JUMPI DUP1 PUSH4 0x1DCD3AF9 EQ PUSH2 0x1CA JUMPI DUP1 PUSH4 0x2394C348 EQ PUSH2 0x1F3 JUMPI DUP1 PUSH4 0x2C1E816D EQ PUSH2 0x21C JUMPI PUSH2 0x14B JUMP JUMPDEST CALLDATASIZE PUSH2 0x14B JUMPI STOP JUMPDEST PUSH1 0x0 DUP1 REVERT JUMPDEST CALLVALUE DUP1 ISZERO PUSH2 0x15C JUMPI PUSH1 0x0 DUP1 REVERT JUMPDEST POP PUSH2 0x177 PUSH1 0x4 DUP1 CALLDATASIZE SUB DUP2 ADD SWAP1 PUSH2 0x172 SWAP2 SWAP1 PUSH2 0x1D18 JUMP JUMPDEST PUSH2 0x556 JUMP JUMPDEST PUSH1 0x40 MLOAD PUSH2 0x184 SWAP2 SWAP1 PUSH2 0x1D60 JUMP JUMPDEST PUSH1 0x40 MLOAD DUP1 SWAP2 SUB SWAP1 RETURN JUMPDEST CALLVALUE DUP1 ISZERO PUSH2 0x199 JUMPI PUSH1 0x0 DUP1 REVERT JUMPDEST POP PUSH2 0x1B4 PUSH1 0x4 DUP1 CALLDATASIZE SUB DUP2 ADD SWAP1 PUSH2 0x1AF SWAP2 SWAP1 PUSH2 0x1E74 JUMP JUMPDEST PUSH2 0x690 JUMP JUMPDEST PUSH1 0x40 MLOAD PUSH2 0x1C1 SWAP2 SWAP1 PUSH2 0x1F0B JUMP JUMPDEST PUSH1 0x40 MLOAD DUP1 SWAP2 SUB SWAP1 RETURN JUMPDEST CALLVALUE DUP1 ISZERO PUSH2 0x1D6 JUMPI PUSH1 0x0 DUP1 REVERT JUMPDEST POP PUSH2 0x1F1 PUSH1 0x4 DUP1 CALLDATASIZE SUB DUP2 ADD SWAP1 PUSH2 0x1EC SWAP2 SWAP1 PUSH2 0x21BA JUMP JUMPDEST PUSH2 0x6A5 JUMP JUMPDEST STOP JUMPDEST CALLVALUE DUP1 ISZERO PUSH2 0x1FF JUMPI PUSH1 0x0 DUP1 REVERT JUMPDEST POP PUSH2 0x21A PUSH1 0x4 DUP1 CALLDATASIZE SUB DUP2 ADD SWAP1 PUSH2 0x215 SWAP2 SWAP1 PUSH2 0x2232 JUMP JUMPDEST PUSH2 0x80E JUMP JUMPDEST STOP JUMPDEST CALLVALUE DUP1 ISZERO PUSH2 0x228 JUMPI PUSH1 0x0 DUP1 REVERT JUMPDEST POP PUSH2 0x243 PUSH1 0x4 DUP1 CALLDATASIZE SUB DUP2 ADD SWAP1 PUSH2 0x23E SWAP2 SWAP1 PUSH2 0x228E JUMP JUMPDEST PUSH2 0x877 JUMP JUMPDEST STOP JUMPDEST CALLVALUE DUP1 ISZERO PUSH2 0x251 JUMPI PUSH1 0x0 DUP1 REVERT JUMPDEST POP PUSH2 0x25A PUSH2 0x8C3 JUMP JUMPDEST PUSH1 0x40 MLOAD PUSH2 0x267 SWAP2 SWAP1 PUSH2 0x22CA JUMP JUMPDEST PUSH1 0x40 MLOAD DUP1 SWAP2 SUB SWAP1 RETURN JUMPDEST CALLVALUE DUP1 ISZERO PUSH2 0x27C JUMPI PUSH1 0x0 DUP1 REVERT JUMPDEST POP PUSH2 0x297 PUSH1 0x4 DUP1 CALLDATASIZE SUB DUP2 ADD SWAP1 PUSH2 0x292 SWAP2 SWAP1 PUSH2 0x22E5 JUMP JUMPDEST PUSH2 0x8CB JUMP JUMPDEST STOP JUMPDEST CALLVALUE DUP1 ISZERO PUSH2 0x2A5 JUMPI PUSH1 0x0 DUP1 REVERT JUMPDEST POP PUSH2 0x2AE PUSH2 0xA0B JUMP JUMPDEST STOP JUMPDEST CALLVALUE DUP1 ISZERO PUSH2 0x2BC JUMPI PUSH1 0x0 DUP1 REVERT JUMPDEST POP PUSH2 0x2C5 PUSH2 0xA1F JUMP JUMPDEST STOP JUMPDEST CALLVALUE DUP1 ISZERO PUSH2 0x2D3 JUMPI PUSH1 0x0 DUP1 REVERT JUMPDEST POP PUSH2 0x2DC PUSH2 0xAAE JUMP JUMPDEST PUSH1 0x40 MLOAD PUSH2 0x2EF SWAP8 SWAP7 SWAP6 SWAP5 SWAP4 SWAP3 SWAP2 SWAP1 PUSH2 0x2508 JUMP JUMPDEST PUSH1 0x40 MLOAD DUP1 SWAP2 SUB SWAP1 RETURN JUMPDEST CALLVALUE DUP1 ISZERO PUSH2 0x304 JUMPI PUSH1 0x0 DUP1 REVERT JUMPDEST POP PUSH2 0x30D PUSH2 0xB58 JUMP JUMPDEST PUSH1 0x40 MLOAD PUSH2 0x31A SWAP2 SWAP1 PUSH2 0x258C JUMP JUMPDEST PUSH1 0x40 MLOAD DUP1 SWAP2 SUB SWAP1 RETURN JUMPDEST CALLVALUE DUP1 ISZERO PUSH2 0x32F JUMPI PUSH1 0x0 DUP1 REVERT JUMPDEST POP PUSH2 0x34A PUSH1 0x4 DUP1 CALLDATASIZE SUB DUP2 ADD SWAP1 PUSH2 0x345 SWAP2 SWAP1 PUSH2 0x25FD JUMP JUMPDEST PUSH2 0xB81 JUMP JUMPDEST PUSH1 0x40 MLOAD PUSH2 0x357 SWAP2 SWAP1 PUSH2 0x1F0B JUMP JUMPDEST PUSH1 0x40 MLOAD DUP1 SWAP2 SUB SWAP1 RETURN JUMPDEST CALLVALUE DUP1 ISZERO PUSH2 0x36C JUMPI PUSH1 0x0 DUP1 REVERT JUMPDEST POP PUSH2 0x387 PUSH1 0x4 DUP1 CALLDATASIZE SUB DUP2 ADD SWAP1 PUSH2 0x382 SWAP2 SWAP1 PUSH2 0x22E5 JUMP JUMPDEST PUSH2 0xB99 JUMP JUMPDEST STOP JUMPDEST CALLVALUE DUP1 ISZERO PUSH2 0x395 JUMPI PUSH1 0x0 DUP1 REVERT JUMPDEST POP PUSH2 0x3B0 PUSH1 0x4 DUP1 CALLDATASIZE SUB DUP2 ADD SWAP1 PUSH2 0x3AB SWAP2 SWAP1 PUSH2 0x228E JUMP JUMPDEST PUSH2 0xE91 JUMP JUMPDEST STOP JUMPDEST PUSH2 0x3BA PUSH2 0xF46 JUMP JUMPDEST STOP JUMPDEST CALLVALUE DUP1 ISZERO PUSH2 0x3C8 JUMPI PUSH1 0x0 DUP1 REVERT JUMPDEST POP PUSH2 0x3D1 PUSH2 0xF48 JUMP JUMPDEST PUSH1 0x40 MLOAD PUSH2 0x3DE SWAP2 SWAP1 PUSH2 0x258C JUMP JUMPDEST PUSH1 0x40 MLOAD DUP1 SWAP2 SUB SWAP1 RETURN JUMPDEST CALLVALUE DUP1 ISZERO PUSH2 0x3F3 JUMPI PUSH1 0x0 DUP1 REVERT JUMPDEST POP PUSH2 0x40E PUSH1 0x4 DUP1 CALLDATASIZE SUB DUP2 ADD SWAP1 PUSH2 0x409 SWAP2 SWAP1 PUSH2 0x26D9 JUMP JUMPDEST PUSH2 0xF72 JUMP JUMPDEST PUSH1 0x40 MLOAD PUSH2 0x41B SWAP2 SWAP1 PUSH2 0x258C JUMP JUMPDEST PUSH1 0x40 MLOAD DUP1 SWAP2 SUB SWAP1 RETURN JUMPDEST CALLVALUE DUP1 ISZERO PUSH2 0x430 JUMPI PUSH1 0x0 DUP1 REVERT JUMPDEST POP PUSH2 0x44B PUSH1 0x4 DUP1 CALLDATASIZE SUB DUP2 ADD SWAP1 PUSH2 0x446 SWAP2 SWAP1 PUSH2 0x2232 JUMP JUMPDEST PUSH2 0xFBB JUMP JUMPDEST PUSH1 0x40 MLOAD PUSH2 0x458 SWAP2 SWAP1 PUSH2 0x22CA JUMP JUMPDEST PUSH1 0x40 MLOAD DUP1 SWAP2 SUB SWAP1 RETURN JUMPDEST CALLVALUE DUP1 ISZERO PUSH2 0x46D JUMPI PUSH1 0x0 DUP1 REVERT JUMPDEST POP PUSH2 0x488 PUSH1 0x4 DUP1 CALLDATASIZE SUB DUP2 ADD SWAP1 PUSH2 0x483 SWAP2 SWAP1 PUSH2 0x2722 JUMP JUMPDEST PUSH2 0xFF6 JUMP JUMPDEST PUSH1 0x40 MLOAD PUSH2 0x495 SWAP2 SWAP1 PUSH2 0x1F0B JUMP JUMPDEST PUSH1 0x40 MLOAD DUP1 SWAP2 SUB SWAP1 RETURN JUMPDEST CALLVALUE DUP1 ISZERO PUSH2 0x4AA JUMPI PUSH1 0x0 DUP1 REVERT JUMPDEST POP PUSH2 0x4C5 PUSH1 0x4 DUP1 CALLDATASIZE SUB DUP2 ADD SWAP1 PUSH2 0x4C0 SWAP2 SWAP1 PUSH2 0x228E JUMP JUMPDEST PUSH2 0x100C JUMP JUMPDEST STOP JUMPDEST CALLVALUE DUP1 ISZERO PUSH2 0x4D3 JUMPI PUSH1 0x0 DUP1 REVERT JUMPDEST POP PUSH2 0x4EE PUSH1 0x4 DUP1 CALLDATASIZE SUB DUP2 ADD SWAP1 PUSH2 0x4E9 SWAP2 SWAP1 PUSH2 0x27BC JUMP JUMPDEST PUSH2 0x10B9 JUMP JUMPDEST STOP JUMPDEST CALLVALUE DUP1 ISZERO PUSH2 0x4FC JUMPI PUSH1 0x0 DUP1 REVERT JUMPDEST POP PUSH2 0x517 PUSH1 0x4 DUP1 CALLDATASIZE SUB DUP2 ADD SWAP1 PUSH2 0x512 SWAP2 SWAP1 PUSH2 0x2847 JUMP JUMPDEST PUSH2 0x10C9 JUMP JUMPDEST STOP JUMPDEST CALLVALUE DUP1 ISZERO PUSH2 0x525 JUMPI PUSH1 0x0 DUP1 REVERT JUMPDEST POP PUSH2 0x540 PUSH1 0x4 DUP1 CALLDATASIZE SUB DUP2 ADD SWAP1 PUSH2 0x53B SWAP2 SWAP1 PUSH2 0x26D9 JUMP JUMPDEST PUSH2 0x10E3 JUMP JUMPDEST PUSH1 0x40 MLOAD PUSH2 0x54D SWAP2 SWAP1 PUSH2 0x22CA JUMP JUMPDEST PUSH1 0x40 MLOAD DUP1 SWAP2 SUB SWAP1 RETURN JUMPDEST PUSH1 0x0 PUSH32 0x4E2312E000000000000000000000000000000000000000000000000000000000 PUSH28 0xFFFFFFFFFFFFFFFFFFFFFFFFFFFFFFFFFFFFFFFFFFFFFFFFFFFFFFFF NOT AND DUP3 PUSH28 0xFFFFFFFFFFFFFFFFFFFFFFFFFFFFFFFFFFFFFFFFFFFFFFFFFFFFFFFF NOT AND EQ DUP1 PUSH2 0x621 JUMPI POP PUSH32 0x150B7A0200000000000000000000000000000000000000000000000000000000 PUSH28 0xFFFFFFFFFFFFFFFFFFFFFFFFFFFFFFFFFFFFFFFFFFFFFFFFFFFFFFFF NOT AND DUP3 PUSH28 0xFFFFFFFFFFFFFFFFFFFFFFFFFFFFFFFFFFFFFFFFFFFFFFFFFFFFFFFF NOT AND EQ JUMPDEST DUP1 PUSH2 0x689 JUMPI POP PUSH32 0x1FFC9A700000000000000000000000000000000000000000000000000000000 PUSH28 0xFFFFFFFFFFFFFFFFFFFFFFFFFFFFFFFFFFFFFFFFFFFFFFFFFFFFFFFF NOT AND DUP3 PUSH28 0xFFFFFFFFFFFFFFFFFFFFFFFFFFFFFFFFFFFFFFFFFFFFFFFFFFFFFFFF NOT AND EQ JUMPDEST SWAP1 POP SWAP2 SWAP1 POP JUMP JUMPDEST PUSH1 0x0 PUSH4 0x150B7A02 PUSH1 0xE0 SHL SWAP1 POP SWAP6 SWAP5 POP POP POP POP POP JUMP JUMPDEST PUSH2 0x6AD PUSH2 0x1117 JUMP JUMPDEST PUSH2 0x6DA DUP2 PUSH1 0x8 PUSH1 0x0 SWAP1 SLOAD SWAP1 PUSH2 0x100 EXP SWAP1 DIV PUSH20 0xFFFFFFFFFFFFFFFFFFFFFFFFFFFFFFFFFFFFFFFF AND DUP5 PUSH2 0x115B JUMP JUMPDEST DUP2 PUSH1 0x80 ADD MLOAD PUSH1 0xA DUP4 PUSH1 0x0 ADD MLOAD PUSH1 0x40 MLOAD PUSH2 0x6F3 SWAP2 SWAP1 PUSH2 0x2906 JUMP JUMPDEST SWAP1 DUP2 MSTORE PUSH1 0x20 ADD PUSH1 0x40 MLOAD DUP1 SWAP2 SUB SWAP1 KECCAK256 PUSH1 0x0 DUP5 PUSH1 0x60 ADD MLOAD PUSH20 0xFFFFFFFFFFFFFFFFFFFFFFFFFFFFFFFFFFFFFFFF AND PUSH20 0xFFFFFFFFFFFFFFFFFFFFFFFFFFFFFFFFFFFFFFFF AND DUP2 MSTORE PUSH1 0x20 ADD SWAP1 DUP2 MSTORE PUSH1 0x20 ADD PUSH1 0x0 KECCAK256 SLOAD LT PUSH2 0x77A JUMPI PUSH1 0x40 MLOAD PUSH32 0xE4CA4C0B00000000000000000000000000000000000000000000000000000000 DUP2 MSTORE PUSH1 0x4 ADD PUSH1 0x40 MLOAD DUP1 SWAP2 SUB SWAP1 REVERT JUMPDEST DUP2 PUSH1 0x80 ADD MLOAD PUSH1 0xA DUP4 PUSH1 0x0 ADD MLOAD PUSH1 0x40 MLOAD PUSH2 0x793 SWAP2 SWAP1 PUSH2 0x2906 JUMP JUMPDEST SWAP1 DUP2 MSTORE PUSH1 0x20 ADD PUSH1 0x40 MLOAD DUP1 SWAP2 SUB SWAP1 KECCAK256 PUSH1 0x0 DUP5 PUSH1 0x60 ADD MLOAD PUSH20 0xFFFFFFFFFFFFFFFFFFFFFFFFFFFFFFFFFFFFFFFF AND PUSH20 0xFFFFFFFFFFFFFFFFFFFFFFFFFFFFFFFFFFFFFFFF AND DUP2 MSTORE PUSH1 0x20 ADD SWAP1 DUP2 MSTORE PUSH1 0x20 ADD PUSH1 0x0 KECCAK256 DUP2 SWAP1 SSTORE POP PUSH2 0x802 DUP3 PUSH1 0x0 ADD MLOAD DUP4 PUSH1 0x60 ADD MLOAD DUP5 PUSH1 0x20 ADD MLOAD DUP6 PUSH1 0x80 ADD MLOAD PUSH2 0x124D JUMP JUMPDEST PUSH2 0x80A PUSH2 0x13F4 JUMP JUMPDEST POP POP JUMP JUMPDEST PUSH2 0x816 PUSH2 0x13FE JUMP JUMPDEST DUP1 PUSH1 0x9 DUP4 PUSH1 0x40 MLOAD PUSH2 0x827 SWAP2 SWAP1 PUSH2 0x2906 JUMP JUMPDEST SWAP1 DUP2 MSTORE PUSH1 0x20 ADD PUSH1 0x40 MLOAD DUP1 SWAP2 SUB SWAP1 KECCAK256 PUSH1 0x0 PUSH2 0x100 EXP DUP2 SLOAD DUP2 PUSH20 0xFFFFFFFFFFFFFFFFFFFFFFFFFFFFFFFFFFFFFFFF MUL NOT AND SWAP1 DUP4 PUSH20 0xFFFFFFFFFFFFFFFFFFFFFFFFFFFFFFFFFFFFFFFF AND MUL OR SWAP1 SSTORE POP POP POP JUMP JUMPDEST PUSH2 0x87F PUSH2 0x13FE JUMP JUMPDEST DUP1 PUSH1 0x8 PUSH1 0x0 PUSH2 0x100 EXP DUP2 SLOAD DUP2 PUSH20 0xFFFFFFFFFFFFFFFFFFFFFFFFFFFFFFFFFFFFFFFF MUL NOT AND SWAP1 DUP4 PUSH20 0xFFFFFFFFFFFFFFFFFFFFFFFFFFFFFFFFFFFFFFFF AND MUL OR SWAP1 SSTORE POP POP JUMP JUMPDEST PUSH1 0x0 CHAINID SWAP1 POP SWAP1 JUMP JUMPDEST PUSH2 0x8D3 PUSH2 0x1117 JUMP JUMPDEST DUP4 PUSH1 0x0 PUSH20 0xFFFFFFFFFFFFFFFFFFFFFFFFFFFFFFFFFFFFFFFF AND PUSH1 0x9 DUP3 PUSH1 0x40 MLOAD PUSH2 0x8FC SWAP2 SWAP1 PUSH2 0x2906 JUMP JUMPDEST SWAP1 DUP2 MSTORE PUSH1 0x20 ADD PUSH1 0x40 MLOAD DUP1 SWAP2 SUB SWAP1 KECCAK256 PUSH1 0x0 SWAP1 SLOAD SWAP1 PUSH2 0x100 EXP SWAP1 DIV PUSH20 0xFFFFFFFFFFFFFFFFFFFFFFFFFFFFFFFFFFFFFFFF AND PUSH20 0xFFFFFFFFFFFFFFFFFFFFFFFFFFFFFFFFFFFFFFFF AND EQ ISZERO DUP1 ISZERO PUSH2 0x9B9 JUMPI POP PUSH1 0x9 DUP2 PUSH1 0x40 MLOAD PUSH2 0x95A SWAP2 SWAP1 PUSH2 0x2906 JUMP JUMPDEST SWAP1 DUP2 MSTORE PUSH1 0x20 ADD PUSH1 0x40 MLOAD DUP1 SWAP2 SUB SWAP1 KECCAK256 PUSH1 0x0 SWAP1 SLOAD SWAP1 PUSH2 0x100 EXP SWAP1 DIV PUSH20 0xFFFFFFFFFFFFFFFFFFFFFFFFFFFFFFFFFFFFFFFF AND PUSH20 0xFFFFFFFFFFFFFFFFFFFFFFFFFFFFFFFFFFFFFFFF AND CALLER PUSH20 0xFFFFFFFFFFFFFFFFFFFFFFFFFFFFFFFFFFFFFFFF AND EQ ISZERO JUMPDEST ISZERO PUSH2 0x9F0 JUMPI PUSH1 0x40 MLOAD PUSH32 0x8062D7400000000000000000000000000000000000000000000000000000000 DUP2 MSTORE PUSH1 0x4 ADD PUSH1 0x40 MLOAD DUP1 SWAP2 SUB SWAP1 REVERT JUMPDEST PUSH2 0x9FC DUP6 DUP6 DUP6 DUP6 PUSH2 0x124D JUMP JUMPDEST POP PUSH2 0xA05 PUSH2 0x13F4 JUMP JUMPDEST POP POP POP POP JUMP JUMPDEST PUSH2 0xA13 PUSH2 0x13FE JUMP JUMPDEST PUSH2 0xA1D PUSH1 0x0 PUSH2 0x1485 JUMP JUMPDEST JUMP JUMPDEST PUSH1 0x0 PUSH2 0xA29 PUSH2 0x14B6 JUMP JUMPDEST SWAP1 POP DUP1 PUSH20 0xFFFFFFFFFFFFFFFFFFFFFFFFFFFFFFFFFFFFFFFF AND PUSH2 0xA4A PUSH2 0xF48 JUMP JUMPDEST PUSH20 0xFFFFFFFFFFFFFFFFFFFFFFFFFFFFFFFFFFFFFFFF AND EQ PUSH2 0xAA2 JUMPI DUP1 PUSH1 0x40 MLOAD PUSH32 0x118CDAA700000000000000000000000000000000000000000000000000000000 DUP2 MSTORE PUSH1 0x4 ADD PUSH2 0xA99 SWAP2 SWAP1 PUSH2 0x258C JUMP JUMPDEST PUSH1 0x40 MLOAD DUP1 SWAP2 SUB SWAP1 REVERT JUMPDEST PUSH2 0xAAB DUP2 PUSH2 0x1485 JUMP JUMPDEST POP JUMP JUMPDEST PUSH1 0x0 PUSH1 0x60 DUP1 PUSH1 0x0 DUP1 PUSH1 0x0 PUSH1 0x60 PUSH2 0xAC2 PUSH2 0x14BE JUMP JUMPDEST PUSH2 0xACA PUSH2 0x14F9 JUMP JUMPDEST CHAINID ADDRESS PUSH1 0x0 DUP1 SHL PUSH1 0x0 PUSH8 0xFFFFFFFFFFFFFFFF DUP2 GT ISZERO PUSH2 0xAEB JUMPI PUSH2 0xAEA PUSH2 0x1F3C JUMP JUMPDEST JUMPDEST PUSH1 0x40 MLOAD SWAP1 DUP1 DUP3 MSTORE DUP1 PUSH1 0x20 MUL PUSH1 0x20 ADD DUP3 ADD PUSH1 0x40 MSTORE DUP1 ISZERO PUSH2 0xB19 JUMPI DUP2 PUSH1 0x20 ADD PUSH1 0x20 DUP3 MUL DUP1 CALLDATASIZE DUP4 CALLDATACOPY DUP1 DUP3 ADD SWAP2 POP POP SWAP1 POP JUMPDEST POP PUSH32 0xF00000000000000000000000000000000000000000000000000000000000000 SWAP6 SWAP5 SWAP4 SWAP3 SWAP2 SWAP1 SWAP7 POP SWAP7 POP SWAP7 POP SWAP7 POP SWAP7 POP SWAP7 POP SWAP7 POP SWAP1 SWAP2 SWAP3 SWAP4 SWAP5 SWAP6 SWAP7 JUMP JUMPDEST PUSH1 0x0 DUP1 PUSH1 0x0 SWAP1 SLOAD SWAP1 PUSH2 0x100 EXP SWAP1 DIV PUSH20 0xFFFFFFFFFFFFFFFFFFFFFFFFFFFFFFFFFFFFFFFF AND SWAP1 POP SWAP1 JUMP JUMPDEST PUSH1 0x0 PUSH4 0xBC197C81 PUSH1 0xE0 SHL SWAP1 POP SWAP9 SWAP8 POP POP POP POP POP POP POP POP JUMP JUMPDEST PUSH2 0xBA1 PUSH2 0x1117 JUMP JUMPDEST DUP4 PUSH1 0x0 PUSH20 0xFFFFFFFFFFFFFFFFFFFFFFFFFFFFFFFFFFFFFFFF AND PUSH1 0x9 DUP3 PUSH1 0x40 MLOAD PUSH2 0xBCA SWAP2 SWAP1 PUSH2 0x2906 JUMP JUMPDEST SWAP1 DUP2 MSTORE PUSH1 0x20 ADD PUSH1 0x40 MLOAD DUP1 SWAP2 SUB SWAP1 KECCAK256 PUSH1 0x0 SWAP1 SLOAD SWAP1 PUSH2 0x100 EXP SWAP1 DIV PUSH20 0xFFFFFFFFFFFFFFFFFFFFFFFFFFFFFFFFFFFFFFFF AND PUSH20 0xFFFFFFFFFFFFFFFFFFFFFFFFFFFFFFFFFFFFFFFF AND EQ ISZERO DUP1 ISZERO PUSH2 0xC87 JUMPI POP PUSH1 0x9 DUP2 PUSH1 0x40 MLOAD PUSH2 0xC28 SWAP2 SWAP1 PUSH2 0x2906 JUMP JUMPDEST SWAP1 DUP2 MSTORE PUSH1 0x20 ADD PUSH1 0x40 MLOAD DUP1 SWAP2 SUB SWAP1 KECCAK256 PUSH1 0x0 SWAP1 SLOAD SWAP1 PUSH2 0x100 EXP SWAP1 DIV PUSH20 0xFFFFFFFFFFFFFFFFFFFFFFFFFFFFFFFFFFFFFFFF AND PUSH20 0xFFFFFFFFFFFFFFFFFFFFFFFFFFFFFFFFFFFFFFFF AND CALLER PUSH20 0xFFFFFFFFFFFFFFFFFFFFFFFFFFFFFFFFFFFFFFFF AND EQ ISZERO JUMPDEST ISZERO PUSH2 0xCBE JUMPI PUSH1 0x40 MLOAD PUSH32 0x8062D7400000000000000000000000000000000000000000000000000000000 DUP2 MSTORE PUSH1 0x4 ADD PUSH1 0x40 MLOAD DUP1 SWAP2 SUB SWAP1 REVERT JUMPDEST DUP4 DUP1 PUSH20 0xFFFFFFFFFFFFFFFFFFFFFFFFFFFFFFFFFFFFFFFF AND CALLER PUSH20 0xFFFFFFFFFFFFFFFFFFFFFFFFFFFFFFFFFFFFFFFF AND EQ PUSH2 0xD24 JUMPI PUSH1 0x40 MLOAD PUSH32 0xCDF1F8F900000000000000000000000000000000000000000000000000000000 DUP2 MSTORE PUSH1 0x4 ADD PUSH1 0x40 MLOAD DUP1 SWAP2 SUB SWAP1 REVERT JUMPDEST PUSH1 0x0 PUSH20 0xFFFFFFFFFFFFFFFFFFFFFFFFFFFFFFFFFFFFFFFF AND PUSH1 0x9 DUP8 PUSH1 0x40 MLOAD PUSH2 0xD4C SWAP2 SWAP1 PUSH2 0x2906 JUMP JUMPDEST SWAP1 DUP2 MSTORE PUSH1 0x20 ADD PUSH1 0x40 MLOAD DUP1 SWAP2 SUB SWAP1 KECCAK256 PUSH1 0x0 SWAP1 SLOAD SWAP1 PUSH2 0x100 EXP SWAP1 DIV PUSH20 0xFFFFFFFFFFFFFFFFFFFFFFFFFFFFFFFFFFFFFFFF AND PUSH20 0xFFFFFFFFFFFFFFFFFFFFFFFFFFFFFFFFFFFFFFFF AND SUB PUSH2 0xDF4 JUMPI DUP5 PUSH1 0x9 DUP8 PUSH1 0x40 MLOAD PUSH2 0xDA7 SWAP2 SWAP1 PUSH2 0x2906 JUMP JUMPDEST SWAP1 DUP2 MSTORE PUSH1 0x20 ADD PUSH1 0x40 MLOAD DUP1 SWAP2 SUB SWAP1 KECCAK256 PUSH1 0x0 PUSH2 0x100 EXP DUP2 SLOAD DUP2 PUSH20 0xFFFFFFFFFFFFFFFFFFFFFFFFFFFFFFFFFFFFFFFF MUL NOT AND SWAP1 DUP4 PUSH20 0xFFFFFFFFFFFFFFFFFFFFFFFFFFFFFFFFFFFFFFFF AND MUL OR SWAP1 SSTORE POP JUMPDEST DUP4 PUSH20 0xFFFFFFFFFFFFFFFFFFFFFFFFFFFFFFFFFFFFFFFF AND PUSH4 0x23B872DD DUP7 ADDRESS DUP7 PUSH1 0x40 MLOAD DUP5 PUSH4 0xFFFFFFFF AND PUSH1 0xE0 SHL DUP2 MSTORE PUSH1 0x4 ADD PUSH2 0xE31 SWAP4 SWAP3 SWAP2 SWAP1 PUSH2 0x291D JUMP JUMPDEST PUSH1 0x20 PUSH1 0x40 MLOAD DUP1 DUP4 SUB DUP2 PUSH1 0x0 DUP8 GAS CALL ISZERO DUP1 ISZERO PUSH2 0xE50 JUMPI RETURNDATASIZE PUSH1 0x0 DUP1 RETURNDATACOPY RETURNDATASIZE PUSH1 0x0 REVERT JUMPDEST POP POP POP POP PUSH1 0x40 MLOAD RETURNDATASIZE PUSH1 0x1F NOT PUSH1 0x1F DUP3 ADD AND DUP3 ADD DUP1 PUSH1 0x40 MSTORE POP DUP2 ADD SWAP1 PUSH2 0xE74 SWAP2 SWAP1 PUSH2 0x2980 JUMP JUMPDEST POP PUSH2 0xE81 DUP7 DUP7 DUP7 DUP7 PUSH2 0x1534 JUMP JUMPDEST POP POP PUSH2 0xE8B PUSH2 0x13F4 JUMP JUMPDEST POP POP POP POP JUMP JUMPDEST PUSH2 0xE99 PUSH2 0x13FE JUMP JUMPDEST PUSH1 0x0 SELFBALANCE SWAP1 POP PUSH1 0x0 DUP3 PUSH20 0xFFFFFFFFFFFFFFFFFFFFFFFFFFFFFFFFFFFFFFFF AND DUP3 PUSH1 0x40 MLOAD PUSH2 0xEC4 SWAP1 PUSH2 0x29DE JUMP JUMPDEST PUSH1 0x0 PUSH1 0x40 MLOAD DUP1 DUP4 SUB DUP2 DUP6 DUP8 GAS CALL SWAP3 POP POP POP RETURNDATASIZE DUP1 PUSH1 0x0 DUP2 EQ PUSH2 0xF01 JUMPI PUSH1 0x40 MLOAD SWAP2 POP PUSH1 0x1F NOT PUSH1 0x3F RETURNDATASIZE ADD AND DUP3 ADD PUSH1 0x40 MSTORE RETURNDATASIZE DUP3 MSTORE RETURNDATASIZE PUSH1 0x0 PUSH1 0x20 DUP5 ADD RETURNDATACOPY PUSH2 0xF06 JUMP JUMPDEST PUSH1 0x60 SWAP2 POP JUMPDEST POP POP SWAP1 POP DUP1 PUSH2 0xF41 JUMPI PUSH1 0x40 MLOAD PUSH32 0x90B8EC1800000000000000000000000000000000000000000000000000000000 DUP2 MSTORE PUSH1 0x4 ADD PUSH1 0x40 MLOAD DUP1 SWAP2 SUB SWAP1 REVERT JUMPDEST POP POP POP JUMP JUMPDEST JUMP JUMPDEST PUSH1 0x0 PUSH1 0x1 PUSH1 0x0 SWAP1 SLOAD SWAP1 PUSH2 0x100 EXP SWAP1 DIV PUSH20 0xFFFFFFFFFFFFFFFFFFFFFFFFFFFFFFFFFFFFFFFF AND SWAP1 POP SWAP1 JUMP JUMPDEST PUSH1 0x9 DUP2 DUP1 MLOAD PUSH1 0x20 DUP2 ADD DUP3 ADD DUP1 MLOAD DUP5 DUP3 MSTORE PUSH1 0x20 DUP4 ADD PUSH1 0x20 DUP6 ADD KECCAK256 DUP2 DUP4 MSTORE DUP1 SWAP6 POP POP POP POP POP POP PUSH1 0x0 SWAP2 POP SLOAD SWAP1 PUSH2 0x100 EXP SWAP1 DIV PUSH20 0xFFFFFFFFFFFFFFFFFFFFFFFFFFFFFFFFFFFFFFFF AND DUP2 JUMP JUMPDEST PUSH1 0xA DUP3 DUP1 MLOAD PUSH1 0x20 DUP2 ADD DUP3 ADD DUP1 MLOAD DUP5 DUP3 MSTORE PUSH1 0x20 DUP4 ADD PUSH1 0x20 DUP6 ADD KECCAK256 DUP2 DUP4 MSTORE DUP1 SWAP6 POP POP POP POP POP POP PUSH1 0x20 MSTORE DUP1 PUSH1 0x0 MSTORE PUSH1 0x40 PUSH1 0x0 KECCAK256 PUSH1 0x0 SWAP2 POP SWAP2 POP POP SLOAD DUP2 JUMP JUMPDEST PUSH1 0x0 PUSH4 0xF23A6E61 PUSH1 0xE0 SHL SWAP1 POP SWAP7 SWAP6 POP POP POP POP POP POP JUMP JUMPDEST PUSH2 0x1014 PUSH2 0x13FE JUMP JUMPDEST DUP1 PUSH1 0x1 PUSH1 0x0 PUSH2 0x100 EXP DUP2 SLOAD DUP2 PUSH20 0xFFFFFFFFFFFFFFFFFFFFFFFFFFFFFFFFFFFFFFFF MUL NOT AND SWAP1 DUP4 PUSH20 0xFFFFFFFFFFFFFFFFFFFFFFFFFFFFFFFFFFFFFFFF AND MUL OR SWAP1 SSTORE POP DUP1 PUSH20 0xFFFFFFFFFFFFFFFFFFFFFFFFFFFFFFFFFFFFFFFF AND PUSH2 0x1074 PUSH2 0xB58 JUMP JUMPDEST PUSH20 0xFFFFFFFFFFFFFFFFFFFFFFFFFFFFFFFFFFFFFFFF AND PUSH32 0x38D16B8CAC22D99FC7C124B9CD0DE2D3FA1FAEF420BFE791D8C362D765E22700 PUSH1 0x40 MLOAD PUSH1 0x40 MLOAD DUP1 SWAP2 SUB SWAP1 LOG3 POP JUMP JUMPDEST PUSH2 0x10C4 DUP4 DUP4 DUP4 PUSH2 0x115B JUMP JUMPDEST POP POP POP JUMP JUMPDEST PUSH2 0x10D1 PUSH2 0x13FE JUMP JUMPDEST PUSH2 0x10DD DUP4 DUP6 DUP5 DUP5 PUSH2 0x124D JUMP JUMPDEST POP POP POP POP JUMP JUMPDEST PUSH1 0x6 DUP2 DUP1 MLOAD PUSH1 0x20 DUP2 ADD DUP3 ADD DUP1 MLOAD DUP5 DUP3 MSTORE PUSH1 0x20 DUP4 ADD PUSH1 0x20 DUP6 ADD KECCAK256 DUP2 DUP4 MSTORE DUP1 SWAP6 POP POP POP POP POP POP PUSH1 0x0 SWAP2 POP SWAP1 POP DUP1 PUSH1 0x0 ADD SLOAD SWAP1 POP DUP2 JUMP JUMPDEST PUSH1 0x2 DUP1 SLOAD SUB PUSH2 0x1152 JUMPI PUSH1 0x40 MLOAD PUSH32 0x3EE5AEB500000000000000000000000000000000000000000000000000000000 DUP2 MSTORE PUSH1 0x4 ADD PUSH1 0x40 MLOAD DUP1 SWAP2 SUB SWAP1 REVERT JUMPDEST PUSH1 0x2 DUP1 DUP2 SWAP1 SSTORE POP JUMP JUMPDEST PUSH1 0x0 PUSH2 0x11D1 PUSH32 0xA3B140137DDE1EC8F85DA0FADAC4C5D6C5410186CA811CBE1E3D5FB737DFB2F6 DUP4 PUSH1 0x0 ADD MLOAD DUP1 MLOAD SWAP1 PUSH1 0x20 ADD KECCAK256 DUP5 PUSH1 0x20 ADD MLOAD DUP6 PUSH1 0x40 ADD MLOAD DUP7 PUSH1 0x60 ADD MLOAD DUP8 PUSH1 0x80 ADD MLOAD PUSH1 0x40 MLOAD PUSH1 0x20 ADD PUSH2 0x11B6 SWAP7 SWAP6 SWAP5 SWAP4 SWAP3 SWAP2 SWAP1 PUSH2 0x29F3 JUMP JUMPDEST PUSH1 0x40 MLOAD PUSH1 0x20 DUP2 DUP4 SUB SUB DUP2 MSTORE SWAP1 PUSH1 0x40 MSTORE DUP1 MLOAD SWAP1 PUSH1 0x20 ADD KECCAK256 PUSH2 0x15EC JUMP JUMPDEST SWAP1 POP PUSH1 0x0 PUSH2 0x11DF DUP3 DUP7 PUSH2 0x1606 JUMP JUMPDEST SWAP1 POP DUP4 PUSH20 0xFFFFFFFFFFFFFFFFFFFFFFFFFFFFFFFFFFFFFFFF AND DUP2 PUSH20 0xFFFFFFFFFFFFFFFFFFFFFFFFFFFFFFFFFFFFFFFF AND EQ PUSH2 0x1246 JUMPI PUSH1 0x40 MLOAD PUSH32 0x815E1D6400000000000000000000000000000000000000000000000000000000 DUP2 MSTORE PUSH1 0x4 ADD PUSH1 0x40 MLOAD DUP1 SWAP2 SUB SWAP1 REVERT JUMPDEST POP POP POP POP POP JUMP JUMPDEST DUP1 PUSH1 0x6 DUP6 PUSH1 0x40 MLOAD PUSH2 0x125E SWAP2 SWAP1 PUSH2 0x2906 JUMP JUMPDEST SWAP1 DUP2 MSTORE PUSH1 0x20 ADD PUSH1 0x40 MLOAD DUP1 SWAP2 SUB SWAP1 KECCAK256 PUSH1 0x1 ADD PUSH1 0x0 DUP5 PUSH20 0xFFFFFFFFFFFFFFFFFFFFFFFFFFFFFFFFFFFFFFFF AND PUSH20 0xFFFFFFFFFFFFFFFFFFFFFFFFFFFFFFFFFFFFFFFF AND DUP2 MSTORE PUSH1 0x20 ADD SWAP1 DUP2 MSTORE PUSH1 0x20 ADD PUSH1 0x0 KECCAK256 SLOAD LT ISZERO PUSH2 0x12FA JUMPI DUP4 PUSH1 0x2 DUP4 PUSH1 0x0 DUP5 PUSH1 0x40 MLOAD PUSH32 0x3FF3E6F200000000000000000000000000000000000000000000000000000000 DUP2 MSTORE PUSH1 0x4 ADD PUSH2 0x12F1 SWAP6 SWAP5 SWAP4 SWAP3 SWAP2 SWAP1 PUSH2 0x2B10 JUMP JUMPDEST PUSH1 0x40 MLOAD DUP1 SWAP2 SUB SWAP1 REVERT JUMPDEST DUP1 PUSH1 0x6 DUP6 PUSH1 0x40 MLOAD PUSH2 0x130B SWAP2 SWAP1 PUSH2 0x2906 JUMP JUMPDEST SWAP1 DUP2 MSTORE PUSH1 0x20 ADD PUSH1 0x40 MLOAD DUP1 SWAP2 SUB SWAP1 KECCAK256 PUSH1 0x1 ADD PUSH1 0x0 DUP5 PUSH20 0xFFFFFFFFFFFFFFFFFFFFFFFFFFFFFFFFFFFFFFFF AND PUSH20 0xFFFFFFFFFFFFFFFFFFFFFFFFFFFFFFFFFFFFFFFF AND DUP2 MSTORE PUSH1 0x20 ADD SWAP1 DUP2 MSTORE PUSH1 0x20 ADD PUSH1 0x0 KECCAK256 PUSH1 0x0 DUP3 DUP3 SLOAD PUSH2 0x1368 SWAP2 SWAP1 PUSH2 0x2B99 JUMP JUMPDEST SWAP3 POP POP DUP2 SWAP1 SSTORE POP DUP2 PUSH20 0xFFFFFFFFFFFFFFFFFFFFFFFFFFFFFFFFFFFFFFFF AND PUSH4 0xA9059CBB DUP5 DUP4 PUSH1 0x40 MLOAD DUP4 PUSH4 0xFFFFFFFF AND PUSH1 0xE0 SHL DUP2 MSTORE PUSH1 0x4 ADD PUSH2 0x13AA SWAP3 SWAP2 SWAP1 PUSH2 0x2BCD JUMP JUMPDEST PUSH1 0x20 PUSH1 0x40 MLOAD DUP1 DUP4 SUB DUP2 PUSH1 0x0 DUP8 GAS CALL ISZERO DUP1 ISZERO PUSH2 0x13C9 JUMPI RETURNDATASIZE PUSH1 0x0 DUP1 RETURNDATACOPY RETURNDATASIZE PUSH1 0x0 REVERT JUMPDEST POP POP POP POP PUSH1 0x40 MLOAD RETURNDATASIZE PUSH1 0x1F NOT PUSH1 0x1F DUP3 ADD AND DUP3 ADD DUP1 PUSH1 0x40 MSTORE POP DUP2 ADD SWAP1 PUSH2 0x13ED SWAP2 SWAP1 PUSH2 0x2980 JUMP JUMPDEST POP POP POP POP POP JUMP JUMPDEST PUSH1 0x1 PUSH1 0x2 DUP2 SWAP1 SSTORE POP JUMP JUMPDEST PUSH2 0x1406 PUSH2 0x14B6 JUMP JUMPDEST PUSH20 0xFFFFFFFFFFFFFFFFFFFFFFFFFFFFFFFFFFFFFFFF AND PUSH2 0x1424 PUSH2 0xB58 JUMP JUMPDEST PUSH20 0xFFFFFFFFFFFFFFFFFFFFFFFFFFFFFFFFFFFFFFFF AND EQ PUSH2 0x1483 JUMPI PUSH2 0x1447 PUSH2 0x14B6 JUMP JUMPDEST PUSH1 0x40 MLOAD PUSH32 0x118CDAA700000000000000000000000000000000000000000000000000000000 DUP2 MSTORE PUSH1 0x4 ADD PUSH2 0x147A SWAP2 SWAP1 PUSH2 0x258C JUMP JUMPDEST PUSH1 0x40 MLOAD DUP1 SWAP2 SUB SWAP1 REVERT JUMPDEST JUMP JUMPDEST PUSH1 0x1 PUSH1 0x0 PUSH2 0x100 EXP DUP2 SLOAD SWAP1 PUSH20 0xFFFFFFFFFFFFFFFFFFFFFFFFFFFFFFFFFFFFFFFF MUL NOT AND SWAP1 SSTORE PUSH2 0x14B3 DUP2 PUSH2 0x1632 JUMP JUMPDEST POP JUMP JUMPDEST PUSH1 0x0 CALLER SWAP1 POP SWAP1 JUMP JUMPDEST PUSH1 0x60 PUSH2 0x14F4 PUSH1 0x3 PUSH32 0x0 PUSH2 0x16F6 SWAP1 SWAP2 SWAP1 PUSH4 0xFFFFFFFF AND JUMP JUMPDEST SWAP1 POP SWAP1 JUMP JUMPDEST PUSH1 0x60 PUSH2 0x152F PUSH1 0x4 PUSH32 0x0 PUSH2 0x16F6 SWAP1 SWAP2 SWAP1 PUSH4 0xFFFFFFFF AND JUMP JUMPDEST SWAP1 POP SWAP1 JUMP JUMPDEST DUP1 PUSH1 0x6 DUP6 PUSH1 0x40 MLOAD PUSH2 0x1545 SWAP2 SWAP1 PUSH2 0x2906 JUMP JUMPDEST SWAP1 DUP2 MSTORE PUSH1 0x20 ADD PUSH1 0x40 MLOAD DUP1 SWAP2 SUB SWAP1 KECCAK256 PUSH1 0x1 ADD PUSH1 0x0 DUP5 PUSH20 0xFFFFFFFFFFFFFFFFFFFFFFFFFFFFFFFFFFFFFFFF AND PUSH20 0xFFFFFFFFFFFFFFFFFFFFFFFFFFFFFFFFFFFFFFFF AND DUP2 MSTORE PUSH1 0x20 ADD SWAP1 DUP2 MSTORE PUSH1 0x20 ADD PUSH1 0x0 KECCAK256 PUSH1 0x0 DUP3 DUP3 SLOAD PUSH2 0x15A2 SWAP2 SWAP1 PUSH2 0x2BF6 JUMP JUMPDEST SWAP3 POP POP DUP2 SWAP1 SSTORE POP PUSH32 0x80B0529195F12DF0318651D4B36FFC81B7B3CB429033916C20D71E8D2E219AE3 DUP5 DUP5 DUP5 DUP5 PUSH1 0x40 MLOAD PUSH2 0x15DE SWAP5 SWAP4 SWAP3 SWAP2 SWAP1 PUSH2 0x2C2A JUMP JUMPDEST PUSH1 0x40 MLOAD DUP1 SWAP2 SUB SWAP1 LOG1 POP POP POP POP JUMP JUMPDEST PUSH1 0x0 PUSH2 0x15FF PUSH2 0x15F9 PUSH2 0x17A6 JUMP JUMPDEST DUP4 PUSH2 0x185D JUMP JUMPDEST SWAP1 POP SWAP2 SWAP1 POP JUMP JUMPDEST PUSH1 0x0 DUP1 PUSH1 0x0 DUP1 PUSH2 0x1616 DUP7 DUP7 PUSH2 0x189E JUMP JUMPDEST SWAP3 POP SWAP3 POP SWAP3 POP PUSH2 0x1626 DUP3 DUP3 PUSH2 0x18FA JUMP JUMPDEST DUP3 SWAP4 POP POP POP POP SWAP3 SWAP2 POP POP JUMP JUMPDEST PUSH1 0x0 DUP1 PUSH1 0x0 SWAP1 SLOAD SWAP1 PUSH2 0x100 EXP SWAP1 DIV PUSH20 0xFFFFFFFFFFFFFFFFFFFFFFFFFFFFFFFFFFFFFFFF AND SWAP1 POP DUP2 PUSH1 0x0 DUP1 PUSH2 0x100 EXP DUP2 SLOAD DUP2 PUSH20 0xFFFFFFFFFFFFFFFFFFFFFFFFFFFFFFFFFFFFFFFF MUL NOT AND SWAP1 DUP4 PUSH20 0xFFFFFFFFFFFFFFFFFFFFFFFFFFFFFFFFFFFFFFFF AND MUL OR SWAP1 SSTORE POP DUP2 PUSH20 0xFFFFFFFFFFFFFFFFFFFFFFFFFFFFFFFFFFFFFFFF AND DUP2 PUSH20 0xFFFFFFFFFFFFFFFFFFFFFFFFFFFFFFFFFFFFFFFF AND PUSH32 0x8BE0079C531659141344CD1FD0A4F28419497F9722A3DAAFE3B4186F6B6457E0 PUSH1 0x40 MLOAD PUSH1 0x40 MLOAD DUP1 SWAP2 SUB SWAP1 LOG3 POP POP JUMP JUMPDEST PUSH1 0x60 PUSH1 0xFF PUSH1 0x0 SHL DUP4 EQ PUSH2 0x1713 JUMPI PUSH2 0x170C DUP4 PUSH2 0x1A5E JUMP JUMPDEST SWAP1 POP PUSH2 0x17A0 JUMP JUMPDEST DUP2 DUP1 SLOAD PUSH2 0x171F SWAP1 PUSH2 0x2CA5 JUMP JUMPDEST DUP1 PUSH1 0x1F ADD PUSH1 0x20 DUP1 SWAP2 DIV MUL PUSH1 0x20 ADD PUSH1 0x40 MLOAD SWAP1 DUP2 ADD PUSH1 0x40 MSTORE DUP1 SWAP3 SWAP2 SWAP1 DUP2 DUP2 MSTORE PUSH1 0x20 ADD DUP3 DUP1 SLOAD PUSH2 0x174B SWAP1 PUSH2 0x2CA5 JUMP JUMPDEST DUP1 ISZERO PUSH2 0x1798 JUMPI DUP1 PUSH1 0x1F LT PUSH2 0x176D JUMPI PUSH2 0x100 DUP1 DUP4 SLOAD DIV MUL DUP4 MSTORE SWAP2 PUSH1 0x20 ADD SWAP2 PUSH2 0x1798 JUMP JUMPDEST DUP3 ADD SWAP2 SWAP1 PUSH1 0x0 MSTORE PUSH1 0x20 PUSH1 0x0 KECCAK256 SWAP1 JUMPDEST DUP2 SLOAD DUP2 MSTORE SWAP1 PUSH1 0x1 ADD SWAP1 PUSH1 0x20 ADD DUP1 DUP4 GT PUSH2 0x177B JUMPI DUP3 SWAP1 SUB PUSH1 0x1F AND DUP3 ADD SWAP2 JUMPDEST POP POP POP POP POP SWAP1 POP JUMPDEST SWAP3 SWAP2 POP POP JUMP JUMPDEST PUSH1 0x0 PUSH32 0x0 PUSH20 0xFFFFFFFFFFFFFFFFFFFFFFFFFFFFFFFFFFFFFFFF AND ADDRESS PUSH20 0xFFFFFFFFFFFFFFFFFFFFFFFFFFFFFFFFFFFFFFFF AND EQ DUP1 ISZERO PUSH2 0x1822 JUMPI POP PUSH32 0x0 CHAINID EQ JUMPDEST ISZERO PUSH2 0x184F JUMPI PUSH32 0x0 SWAP1 POP PUSH2 0x185A JUMP JUMPDEST PUSH2 0x1857 PUSH2 0x1AD2 JUMP JUMPDEST SWAP1 POP JUMPDEST SWAP1 JUMP JUMPDEST PUSH1 0x0 PUSH1 0x40 MLOAD PUSH32 0x1901000000000000000000000000000000000000000000000000000000000000 DUP2 MSTORE DUP4 PUSH1 0x2 DUP3 ADD MSTORE DUP3 PUSH1 0x22 DUP3 ADD MSTORE PUSH1 0x42 DUP2 KECCAK256 SWAP2 POP POP SWAP3 SWAP2 POP POP JUMP JUMPDEST PUSH1 0x0 DUP1 PUSH1 0x0 PUSH1 0x41 DUP5 MLOAD SUB PUSH2 0x18E3 JUMPI PUSH1 0x0 DUP1 PUSH1 0x0 PUSH1 0x20 DUP8 ADD MLOAD SWAP3 POP PUSH1 0x40 DUP8 ADD MLOAD SWAP2 POP PUSH1 0x60 DUP8 ADD MLOAD PUSH1 0x0 BYTE SWAP1 POP PUSH2 0x18D5 DUP9 DUP3 DUP6 DUP6 PUSH2 0x1B68 JUMP JUMPDEST SWAP6 POP SWAP6 POP SWAP6 POP POP POP POP PUSH2 0x18F3 JUMP JUMPDEST PUSH1 0x0 PUSH1 0x2 DUP6 MLOAD PUSH1 0x0 SHL SWAP3 POP SWAP3 POP SWAP3 POP JUMPDEST SWAP3 POP SWAP3 POP SWAP3 JUMP JUMPDEST PUSH1 0x0 PUSH1 0x3 DUP2 GT ISZERO PUSH2 0x190E JUMPI PUSH2 0x190D PUSH2 0x2A54 JUMP JUMPDEST JUMPDEST DUP3 PUSH1 0x3 DUP2 GT ISZERO PUSH2 0x1921 JUMPI PUSH2 0x1920 PUSH2 0x2A54 JUMP JUMPDEST JUMPDEST SUB ISZERO PUSH2 0x1A5A JUMPI PUSH1 0x1 PUSH1 0x3 DUP2 GT ISZERO PUSH2 0x193B JUMPI PUSH2 0x193A PUSH2 0x2A54 JUMP JUMPDEST JUMPDEST DUP3 PUSH1 0x3 DUP2 GT ISZERO PUSH2 0x194E JUMPI PUSH2 0x194D PUSH2 0x2A54 JUMP JUMPDEST JUMPDEST SUB PUSH2 0x1985 JUMPI PUSH1 0x40 MLOAD PUSH32 0xF645EEDF00000000000000000000000000000000000000000000000000000000 DUP2 MSTORE PUSH1 0x4 ADD PUSH1 0x40 MLOAD DUP1 SWAP2 SUB SWAP1 REVERT JUMPDEST PUSH1 0x2 PUSH1 0x3 DUP2 GT ISZERO PUSH2 0x1999 JUMPI PUSH2 0x1998 PUSH2 0x2A54 JUMP JUMPDEST JUMPDEST DUP3 PUSH1 0x3 DUP2 GT ISZERO PUSH2 0x19AC JUMPI PUSH2 0x19AB PUSH2 0x2A54 JUMP JUMPDEST JUMPDEST SUB PUSH2 0x19F1 JUMPI DUP1 PUSH1 0x0 SHR PUSH1 0x40 MLOAD PUSH32 0xFCE698F700000000000000000000000000000000000000000000000000000000 DUP2 MSTORE PUSH1 0x4 ADD PUSH2 0x19E8 SWAP2 SWAP1 PUSH2 0x22CA JUMP JUMPDEST PUSH1 0x40 MLOAD DUP1 SWAP2 SUB SWAP1 REVERT JUMPDEST PUSH1 0x3 DUP1 DUP2 GT ISZERO PUSH2 0x1A04 JUMPI PUSH2 0x1A03 PUSH2 0x2A54 JUMP JUMPDEST JUMPDEST DUP3 PUSH1 0x3 DUP2 GT ISZERO PUSH2 0x1A17 JUMPI PUSH2 0x1A16 PUSH2 0x2A54 JUMP JUMPDEST JUMPDEST SUB PUSH2 0x1A59 JUMPI DUP1 PUSH1 0x40 MLOAD PUSH32 0xD78BCE0C00000000000000000000000000000000000000000000000000000000 DUP2 MSTORE PUSH1 0x4 ADD PUSH2 0x1A50 SWAP2 SWAP1 PUSH2 0x2CD6 JUMP JUMPDEST PUSH1 0x40 MLOAD DUP1 SWAP2 SUB SWAP1 REVERT JUMPDEST JUMPDEST POP POP JUMP JUMPDEST PUSH1 0x60 PUSH1 0x0 PUSH2 0x1A6B DUP4 PUSH2 0x1C5C JUMP JUMPDEST SWAP1 POP PUSH1 0x0 PUSH1 0x20 PUSH8 0xFFFFFFFFFFFFFFFF DUP2 GT ISZERO PUSH2 0x1A8A JUMPI PUSH2 0x1A89 PUSH2 0x1F3C JUMP JUMPDEST JUMPDEST PUSH1 0x40 MLOAD SWAP1 DUP1 DUP3 MSTORE DUP1 PUSH1 0x1F ADD PUSH1 0x1F NOT AND PUSH1 0x20 ADD DUP3 ADD PUSH1 0x40 MSTORE DUP1 ISZERO PUSH2 0x1ABC JUMPI DUP2 PUSH1 0x20 ADD PUSH1 0x1 DUP3 MUL DUP1 CALLDATASIZE DUP4 CALLDATACOPY DUP1 DUP3 ADD SWAP2 POP POP SWAP1 POP JUMPDEST POP SWAP1 POP DUP2 DUP2 MSTORE DUP4 PUSH1 0x20 DUP3 ADD MSTORE DUP1 SWAP3 POP POP POP SWAP2 SWAP1 POP JUMP JUMPDEST PUSH1 0x0 PUSH32 0x8B73C3C69BB8FE3D512ECC4CF759CC79239F7B179B0FFACAA9A75D522B39400F PUSH32 0x0 PUSH32 0x0 CHAINID ADDRESS PUSH1 0x40 MLOAD PUSH1 0x20 ADD PUSH2 0x1B4D SWAP6 SWAP5 SWAP4 SWAP3 SWAP2 SWAP1 PUSH2 0x2CF1 JUMP JUMPDEST PUSH1 0x40 MLOAD PUSH1 0x20 DUP2 DUP4 SUB SUB DUP2 MSTORE SWAP1 PUSH1 0x40 MSTORE DUP1 MLOAD SWAP1 PUSH1 0x20 ADD KECCAK256 SWAP1 POP SWAP1 JUMP JUMPDEST PUSH1 0x0 DUP1 PUSH1 0x0 PUSH32 0x7FFFFFFFFFFFFFFFFFFFFFFFFFFFFFFF5D576E7357A4501DDFE92F46681B20A0 DUP5 PUSH1 0x0 SHR GT ISZERO PUSH2 0x1BA8 JUMPI PUSH1 0x0 PUSH1 0x3 DUP6 SWAP3 POP SWAP3 POP SWAP3 POP PUSH2 0x1C52 JUMP JUMPDEST PUSH1 0x0 PUSH1 0x1 DUP9 DUP9 DUP9 DUP9 PUSH1 0x40 MLOAD PUSH1 0x0 DUP2 MSTORE PUSH1 0x20 ADD PUSH1 0x40 MSTORE PUSH1 0x40 MLOAD PUSH2 0x1BCD SWAP5 SWAP4 SWAP3 SWAP2 SWAP1 PUSH2 0x2D60 JUMP JUMPDEST PUSH1 0x20 PUSH1 0x40 MLOAD PUSH1 0x20 DUP2 SUB SWAP1 DUP1 DUP5 SUB SWAP1 DUP6 GAS STATICCALL ISZERO DUP1 ISZERO PUSH2 0x1BEF JUMPI RETURNDATASIZE PUSH1 0x0 DUP1 RETURNDATACOPY RETURNDATASIZE PUSH1 0x0 REVERT JUMPDEST POP POP POP PUSH1 0x20 PUSH1 0x40 MLOAD SUB MLOAD SWAP1 POP PUSH1 0x0 PUSH20 0xFFFFFFFFFFFFFFFFFFFFFFFFFFFFFFFFFFFFFFFF AND DUP2 PUSH20 0xFFFFFFFFFFFFFFFFFFFFFFFFFFFFFFFFFFFFFFFF AND SUB PUSH2 0x1C43 JUMPI PUSH1 0x0 PUSH1 0x1 PUSH1 0x0 DUP1 SHL SWAP4 POP SWAP4 POP SWAP4 POP POP PUSH2 0x1C52 JUMP JUMPDEST DUP1 PUSH1 0x0 DUP1 PUSH1 0x0 SHL SWAP4 POP SWAP4 POP SWAP4 POP POP JUMPDEST SWAP5 POP SWAP5 POP SWAP5 SWAP2 POP POP JUMP JUMPDEST PUSH1 0x0 DUP1 PUSH1 0xFF DUP4 PUSH1 0x0 SHR AND SWAP1 POP PUSH1 0x1F DUP2 GT ISZERO PUSH2 0x1CA3 JUMPI PUSH1 0x40 MLOAD PUSH32 0xB3512B0C00000000000000000000000000000000000000000000000000000000 DUP2 MSTORE PUSH1 0x4 ADD PUSH1 0x40 MLOAD DUP1 SWAP2 SUB SWAP1 REVERT JUMPDEST DUP1 SWAP2 POP POP SWAP2 SWAP1 POP JUMP JUMPDEST PUSH1 0x0 PUSH1 0x40 MLOAD SWAP1 POP SWAP1 JUMP JUMPDEST PUSH1 0x0 DUP1 REVERT JUMPDEST PUSH1 0x0 DUP1 REVERT JUMPDEST PUSH1 0x0 PUSH32 0xFFFFFFFF00000000000000000000000000000000000000000000000000000000 DUP3 AND SWAP1 POP SWAP2 SWAP1 POP JUMP JUMPDEST PUSH2 0x1CF5 DUP2 PUSH2 0x1CC0 JUMP JUMPDEST DUP2 EQ PUSH2 0x1D00 JUMPI PUSH1 0x0 DUP1 REVERT JUMPDEST POP JUMP JUMPDEST PUSH1 0x0 DUP2 CALLDATALOAD SWAP1 POP PUSH2 0x1D12 DUP2 PUSH2 0x1CEC JUMP JUMPDEST SWAP3 SWAP2 POP POP JUMP JUMPDEST PUSH1 0x0 PUSH1 0x20 DUP3 DUP5 SUB SLT ISZERO PUSH2 0x1D2E JUMPI PUSH2 0x1D2D PUSH2 0x1CB6 JUMP JUMPDEST JUMPDEST PUSH1 0x0 PUSH2 0x1D3C DUP5 DUP3 DUP6 ADD PUSH2 0x1D03 JUMP JUMPDEST SWAP2 POP POP SWAP3 SWAP2 POP POP JUMP JUMPDEST PUSH1 0x0 DUP2 ISZERO ISZERO SWAP1 POP SWAP2 SWAP1 POP JUMP JUMPDEST PUSH2 0x1D5A DUP2 PUSH2 0x1D45 JUMP JUMPDEST DUP3 MSTORE POP POP JUMP JUMPDEST PUSH1 0x0 PUSH1 0x20 DUP3 ADD SWAP1 POP PUSH2 0x1D75 PUSH1 0x0 DUP4 ADD DUP5 PUSH2 0x1D51 JUMP JUMPDEST SWAP3 SWAP2 POP POP JUMP JUMPDEST PUSH1 0x0 PUSH20 0xFFFFFFFFFFFFFFFFFFFFFFFFFFFFFFFFFFFFFFFF DUP3 AND SWAP1 POP SWAP2 SWAP1 POP JUMP JUMPDEST PUSH1 0x0 PUSH2 0x1DA6 DUP3 PUSH2 0x1D7B JUMP JUMPDEST SWAP1 POP SWAP2 SWAP1 POP JUMP JUMPDEST PUSH2 0x1DB6 DUP2 PUSH2 0x1D9B JUMP JUMPDEST DUP2 EQ PUSH2 0x1DC1 JUMPI PUSH1 0x0 DUP1 REVERT JUMPDEST POP JUMP JUMPDEST PUSH1 0x0 DUP2 CALLDATALOAD SWAP1 POP PUSH2 0x1DD3 DUP2 PUSH2 0x1DAD JUMP JUMPDEST SWAP3 SWAP2 POP POP JUMP JUMPDEST PUSH1 0x0 DUP2 SWAP1 POP SWAP2 SWAP1 POP JUMP JUMPDEST PUSH2 0x1DEC DUP2 PUSH2 0x1DD9 JUMP JUMPDEST DUP2 EQ PUSH2 0x1DF7 JUMPI PUSH1 0x0 DUP1 REVERT JUMPDEST POP JUMP JUMPDEST PUSH1 0x0 DUP2 CALLDATALOAD SWAP1 POP PUSH2 0x1E09 DUP2 PUSH2 0x1DE3 JUMP JUMPDEST SWAP3 SWAP2 POP POP JUMP JUMPDEST PUSH1 0x0 DUP1 REVERT JUMPDEST PUSH1 0x0 DUP1 REVERT JUMPDEST PUSH1 0x0 DUP1 REVERT JUMPDEST PUSH1 0x0 DUP1 DUP4 PUSH1 0x1F DUP5 ADD SLT PUSH2 0x1E34 JUMPI PUSH2 0x1E33 PUSH2 0x1E0F JUMP JUMPDEST JUMPDEST DUP3 CALLDATALOAD SWAP1 POP PUSH8 0xFFFFFFFFFFFFFFFF DUP2 GT ISZERO PUSH2 0x1E51 JUMPI PUSH2 0x1E50 PUSH2 0x1E14 JUMP JUMPDEST JUMPDEST PUSH1 0x20 DUP4 ADD SWAP2 POP DUP4 PUSH1 0x1 DUP3 MUL DUP4 ADD GT ISZERO PUSH2 0x1E6D JUMPI PUSH2 0x1E6C PUSH2 0x1E19 JUMP JUMPDEST JUMPDEST SWAP3 POP SWAP3 SWAP1 POP JUMP JUMPDEST PUSH1 0x0 DUP1 PUSH1 0x0 DUP1 PUSH1 0x0 PUSH1 0x80 DUP7 DUP9 SUB SLT ISZERO PUSH2 0x1E90 JUMPI PUSH2 0x1E8F PUSH2 0x1CB6 JUMP JUMPDEST JUMPDEST PUSH1 0x0 PUSH2 0x1E9E DUP9 DUP3 DUP10 ADD PUSH2 0x1DC4 JUMP JUMPDEST SWAP6 POP POP PUSH1 0x20 PUSH2 0x1EAF DUP9 DUP3 DUP10 ADD PUSH2 0x1DC4 JUMP JUMPDEST SWAP5 POP POP PUSH1 0x40 PUSH2 0x1EC0 DUP9 DUP3 DUP10 ADD PUSH2 0x1DFA JUMP JUMPDEST SWAP4 POP POP PUSH1 0x60 DUP7 ADD CALLDATALOAD PUSH8 0xFFFFFFFFFFFFFFFF DUP2 GT ISZERO PUSH2 0x1EE1 JUMPI PUSH2 0x1EE0 PUSH2 0x1CBB JUMP JUMPDEST JUMPDEST PUSH2 0x1EED DUP9 DUP3 DUP10 ADD PUSH2 0x1E1E JUMP JUMPDEST SWAP3 POP SWAP3 POP POP SWAP3 SWAP6 POP SWAP3 SWAP6 SWAP1 SWAP4 POP JUMP JUMPDEST PUSH2 0x1F05 DUP2 PUSH2 0x1CC0 JUMP JUMPDEST DUP3 MSTORE POP POP JUMP JUMPDEST PUSH1 0x0 PUSH1 0x20 DUP3 ADD SWAP1 POP PUSH2 0x1F20 PUSH1 0x0 DUP4 ADD DUP5 PUSH2 0x1EFC JUMP JUMPDEST SWAP3 SWAP2 POP POP JUMP JUMPDEST PUSH1 0x0 DUP1 REVERT JUMPDEST PUSH1 0x0 PUSH1 0x1F NOT PUSH1 0x1F DUP4 ADD AND SWAP1 POP SWAP2 SWAP1 POP JUMP JUMPDEST PUSH32 0x4E487B7100000000000000000000000000000000000000000000000000000000 PUSH1 0x0 MSTORE PUSH1 0x41 PUSH1 0x4 MSTORE PUSH1 0x24 PUSH1 0x0 REVERT JUMPDEST PUSH2 0x1F74 DUP3 PUSH2 0x1F2B JUMP JUMPDEST DUP2 ADD DUP2 DUP2 LT PUSH8 0xFFFFFFFFFFFFFFFF DUP3 GT OR ISZERO PUSH2 0x1F93 JUMPI PUSH2 0x1F92 PUSH2 0x1F3C JUMP JUMPDEST JUMPDEST DUP1 PUSH1 0x40 MSTORE POP POP POP JUMP JUMPDEST PUSH1 0x0 PUSH2 0x1FA6 PUSH2 0x1CAC JUMP JUMPDEST SWAP1 POP PUSH2 0x1FB2 DUP3 DUP3 PUSH2 0x1F6B JUMP JUMPDEST SWAP2 SWAP1 POP JUMP JUMPDEST PUSH1 0x0 DUP1 REVERT JUMPDEST PUSH1 0x0 DUP1 REVERT JUMPDEST PUSH1 0x0 PUSH8 0xFFFFFFFFFFFFFFFF DUP3 GT ISZERO PUSH2 0x1FDC JUMPI PUSH2 0x1FDB PUSH2 0x1F3C JUMP JUMPDEST JUMPDEST PUSH2 0x1FE5 DUP3 PUSH2 0x1F2B JUMP JUMPDEST SWAP1 POP PUSH1 0x20 DUP2 ADD SWAP1 POP SWAP2 SWAP1 POP JUMP JUMPDEST DUP3 DUP2 DUP4 CALLDATACOPY PUSH1 0x0 DUP4 DUP4 ADD MSTORE POP POP POP JUMP JUMPDEST PUSH1 0x0 PUSH2 0x2014 PUSH2 0x200F DUP5 PUSH2 0x1FC1 JUMP JUMPDEST PUSH2 0x1F9C JUMP JUMPDEST SWAP1 POP DUP3 DUP2 MSTORE PUSH1 0x20 DUP2 ADD DUP5 DUP5 DUP5 ADD GT ISZERO PUSH2 0x2030 JUMPI PUSH2 0x202F PUSH2 0x1FBC JUMP JUMPDEST JUMPDEST PUSH2 0x203B DUP5 DUP3 DUP6 PUSH2 0x1FF2 JUMP JUMPDEST POP SWAP4 SWAP3 POP POP POP JUMP JUMPDEST PUSH1 0x0 DUP3 PUSH1 0x1F DUP4 ADD SLT PUSH2 0x2058 JUMPI PUSH2 0x2057 PUSH2 0x1E0F JUMP JUMPDEST JUMPDEST DUP2 CALLDATALOAD PUSH2 0x2068 DUP5 DUP3 PUSH1 0x20 DUP7 ADD PUSH2 0x2001 JUMP JUMPDEST SWAP2 POP POP SWAP3 SWAP2 POP POP JUMP JUMPDEST PUSH1 0x0 PUSH1 0xA0 DUP3 DUP5 SUB SLT ISZERO PUSH2 0x2087 JUMPI PUSH2 0x2086 PUSH2 0x1F26 JUMP JUMPDEST JUMPDEST PUSH2 0x2091 PUSH1 0xA0 PUSH2 0x1F9C JUMP JUMPDEST SWAP1 POP PUSH1 0x0 DUP3 ADD CALLDATALOAD PUSH8 0xFFFFFFFFFFFFFFFF DUP2 GT ISZERO PUSH2 0x20B1 JUMPI PUSH2 0x20B0 PUSH2 0x1FB7 JUMP JUMPDEST JUMPDEST PUSH2 0x20BD DUP5 DUP3 DUP6 ADD PUSH2 0x2043 JUMP JUMPDEST PUSH1 0x0 DUP4 ADD MSTORE POP PUSH1 0x20 PUSH2 0x20D1 DUP5 DUP3 DUP6 ADD PUSH2 0x1DC4 JUMP JUMPDEST PUSH1 0x20 DUP4 ADD MSTORE POP PUSH1 0x40 PUSH2 0x20E5 DUP5 DUP3 DUP6 ADD PUSH2 0x1DC4 JUMP JUMPDEST PUSH1 0x40 DUP4 ADD MSTORE POP PUSH1 0x60 PUSH2 0x20F9 DUP5 DUP3 DUP6 ADD PUSH2 0x1DC4 JUMP JUMPDEST PUSH1 0x60 DUP4 ADD MSTORE POP PUSH1 0x80 PUSH2 0x210D DUP5 DUP3 DUP6 ADD PUSH2 0x1DFA JUMP JUMPDEST PUSH1 0x80 DUP4 ADD MSTORE POP SWAP3 SWAP2 POP POP JUMP JUMPDEST PUSH1 0x0 PUSH8 0xFFFFFFFFFFFFFFFF DUP3 GT ISZERO PUSH2 0x2134 JUMPI PUSH2 0x2133 PUSH2 0x1F3C JUMP JUMPDEST JUMPDEST PUSH2 0x213D DUP3 PUSH2 0x1F2B JUMP JUMPDEST SWAP1 POP PUSH1 0x20 DUP2 ADD SWAP1 POP SWAP2 SWAP1 POP JUMP JUMPDEST PUSH1 0x0 PUSH2 0x215D PUSH2 0x2158 DUP5 PUSH2 0x2119 JUMP JUMPDEST PUSH2 0x1F9C JUMP JUMPDEST SWAP1 POP DUP3 DUP2 MSTORE PUSH1 0x20 DUP2 ADD DUP5 DUP5 DUP5 ADD GT ISZERO PUSH2 0x2179 JUMPI PUSH2 0x2178 PUSH2 0x1FBC JUMP JUMPDEST JUMPDEST PUSH2 0x2184 DUP5 DUP3 DUP6 PUSH2 0x1FF2 JUMP JUMPDEST POP SWAP4 SWAP3 POP POP POP JUMP JUMPDEST PUSH1 0x0 DUP3 PUSH1 0x1F DUP4 ADD SLT PUSH2 0x21A1 JUMPI PUSH2 0x21A0 PUSH2 0x1E0F JUMP JUMPDEST JUMPDEST DUP2 CALLDATALOAD PUSH2 0x21B1 DUP5 DUP3 PUSH1 0x20 DUP7 ADD PUSH2 0x214A JUMP JUMPDEST SWAP2 POP POP SWAP3 SWAP2 POP POP JUMP JUMPDEST PUSH1 0x0 DUP1 PUSH1 0x40 DUP4 DUP6 SUB SLT ISZERO PUSH2 0x21D1 JUMPI PUSH2 0x21D0 PUSH2 0x1CB6 JUMP JUMPDEST JUMPDEST PUSH1 0x0 DUP4 ADD CALLDATALOAD PUSH8 0xFFFFFFFFFFFFFFFF DUP2 GT ISZERO PUSH2 0x21EF JUMPI PUSH2 0x21EE PUSH2 0x1CBB JUMP JUMPDEST JUMPDEST PUSH2 0x21FB DUP6 DUP3 DUP7 ADD PUSH2 0x2071 JUMP JUMPDEST SWAP3 POP POP PUSH1 0x20 DUP4 ADD CALLDATALOAD PUSH8 0xFFFFFFFFFFFFFFFF DUP2 GT ISZERO PUSH2 0x221C JUMPI PUSH2 0x221B PUSH2 0x1CBB JUMP JUMPDEST JUMPDEST PUSH2 0x2228 DUP6 DUP3 DUP7 ADD PUSH2 0x218C JUMP JUMPDEST SWAP2 POP POP SWAP3 POP SWAP3 SWAP1 POP JUMP JUMPDEST PUSH1 0x0 DUP1 PUSH1 0x40 DUP4 DUP6 SUB SLT ISZERO PUSH2 0x2249 JUMPI PUSH2 0x2248 PUSH2 0x1CB6 JUMP JUMPDEST JUMPDEST PUSH1 0x0 DUP4 ADD CALLDATALOAD PUSH8 0xFFFFFFFFFFFFFFFF DUP2 GT ISZERO PUSH2 0x2267 JUMPI PUSH2 0x2266 PUSH2 0x1CBB JUMP JUMPDEST JUMPDEST PUSH2 0x2273 DUP6 DUP3 DUP7 ADD PUSH2 0x2043 JUMP JUMPDEST SWAP3 POP POP PUSH1 0x20 PUSH2 0x2284 DUP6 DUP3 DUP7 ADD PUSH2 0x1DC4 JUMP JUMPDEST SWAP2 POP POP SWAP3 POP SWAP3 SWAP1 POP JUMP JUMPDEST PUSH1 0x0 PUSH1 0x20 DUP3 DUP5 SUB SLT ISZERO PUSH2 0x22A4 JUMPI PUSH2 0x22A3 PUSH2 0x1CB6 JUMP JUMPDEST JUMPDEST PUSH1 0x0 PUSH2 0x22B2 DUP5 DUP3 DUP6 ADD PUSH2 0x1DC4 JUMP JUMPDEST SWAP2 POP POP SWAP3 SWAP2 POP POP JUMP JUMPDEST PUSH2 0x22C4 DUP2 PUSH2 0x1DD9 JUMP JUMPDEST DUP3 MSTORE POP POP JUMP JUMPDEST PUSH1 0x0 PUSH1 0x20 DUP3 ADD SWAP1 POP PUSH2 0x22DF PUSH1 0x0 DUP4 ADD DUP5 PUSH2 0x22BB JUMP JUMPDEST SWAP3 SWAP2 POP POP JUMP JUMPDEST PUSH1 0x0 DUP1 PUSH1 0x0 DUP1 PUSH1 0x80 DUP6 DUP8 SUB SLT ISZERO PUSH2 0x22FF JUMPI PUSH2 0x22FE PUSH2 0x1CB6 JUMP JUMPDEST JUMPDEST PUSH1 0x0 DUP6 ADD CALLDATALOAD PUSH8 0xFFFFFFFFFFFFFFFF DUP2 GT ISZERO PUSH2 0x231D JUMPI PUSH2 0x231C PUSH2 0x1CBB JUMP JUMPDEST JUMPDEST PUSH2 0x2329 DUP8 DUP3 DUP9 ADD PUSH2 0x2043 JUMP JUMPDEST SWAP5 POP POP PUSH1 0x20 PUSH2 0x233A DUP8 DUP3 DUP9 ADD PUSH2 0x1DC4 JUMP JUMPDEST SWAP4 POP POP PUSH1 0x40 PUSH2 0x234B DUP8 DUP3 DUP9 ADD PUSH2 0x1DC4 JUMP JUMPDEST SWAP3 POP POP PUSH1 0x60 PUSH2 0x235C DUP8 DUP3 DUP9 ADD PUSH2 0x1DFA JUMP JUMPDEST SWAP2 POP POP SWAP3 SWAP6 SWAP2 SWAP5 POP SWAP3 POP JUMP JUMPDEST PUSH1 0x0 PUSH32 0xFF00000000000000000000000000000000000000000000000000000000000000 DUP3 AND SWAP1 POP SWAP2 SWAP1 POP JUMP JUMPDEST PUSH2 0x239D DUP2 PUSH2 0x2368 JUMP JUMPDEST DUP3 MSTORE POP POP JUMP JUMPDEST PUSH1 0x0 DUP2 MLOAD SWAP1 POP SWAP2 SWAP1 POP JUMP JUMPDEST PUSH1 0x0 DUP3 DUP3 MSTORE PUSH1 0x20 DUP3 ADD SWAP1 POP SWAP3 SWAP2 POP POP JUMP JUMPDEST PUSH1 0x0 JUMPDEST DUP4 DUP2 LT ISZERO PUSH2 0x23DD JUMPI DUP1 DUP3 ADD MLOAD DUP2 DUP5 ADD MSTORE PUSH1 0x20 DUP2 ADD SWAP1 POP PUSH2 0x23C2 JUMP JUMPDEST PUSH1 0x0 DUP5 DUP5 ADD MSTORE POP POP POP POP JUMP JUMPDEST PUSH1 0x0 PUSH2 0x23F4 DUP3 PUSH2 0x23A3 JUMP JUMPDEST PUSH2 0x23FE DUP2 DUP6 PUSH2 0x23AE JUMP JUMPDEST SWAP4 POP PUSH2 0x240E DUP2 DUP6 PUSH1 0x20 DUP7 ADD PUSH2 0x23BF JUMP JUMPDEST PUSH2 0x2417 DUP2 PUSH2 0x1F2B JUMP JUMPDEST DUP5 ADD SWAP2 POP POP SWAP3 SWAP2 POP POP JUMP JUMPDEST PUSH2 0x242B DUP2 PUSH2 0x1D9B JUMP JUMPDEST DUP3 MSTORE POP POP JUMP JUMPDEST PUSH1 0x0 DUP2 SWAP1 POP SWAP2 SWAP1 POP JUMP JUMPDEST PUSH2 0x2444 DUP2 PUSH2 0x2431 JUMP JUMPDEST DUP3 MSTORE POP POP JUMP JUMPDEST PUSH1 0x0 DUP2 MLOAD SWAP1 POP SWAP2 SWAP1 POP JUMP JUMPDEST PUSH1 0x0 DUP3 DUP3 MSTORE PUSH1 0x20 DUP3 ADD SWAP1 POP SWAP3 SWAP2 POP POP JUMP JUMPDEST PUSH1 0x0 DUP2 SWAP1 POP PUSH1 0x20 DUP3 ADD SWAP1 POP SWAP2 SWAP1 POP JUMP JUMPDEST PUSH2 0x247F DUP2 PUSH2 0x1DD9 JUMP JUMPDEST DUP3 MSTORE POP POP JUMP JUMPDEST PUSH1 0x0 PUSH2 0x2491 DUP4 DUP4 PUSH2 0x2476 JUMP JUMPDEST PUSH1 0x20 DUP4 ADD SWAP1 POP SWAP3 SWAP2 POP POP JUMP JUMPDEST PUSH1 0x0 PUSH1 0x20 DUP3 ADD SWAP1 POP SWAP2 SWAP1 POP JUMP JUMPDEST PUSH1 0x0 PUSH2 0x24B5 DUP3 PUSH2 0x244A JUMP JUMPDEST PUSH2 0x24BF DUP2 DUP6 PUSH2 0x2455 JUMP JUMPDEST SWAP4 POP PUSH2 0x24CA DUP4 PUSH2 0x2466 JUMP JUMPDEST DUP1 PUSH1 0x0 JUMPDEST DUP4 DUP2 LT ISZERO PUSH2 0x24FB JUMPI DUP2 MLOAD PUSH2 0x24E2 DUP9 DUP3 PUSH2 0x2485 JUMP JUMPDEST SWAP8 POP PUSH2 0x24ED DUP4 PUSH2 0x249D JUMP JUMPDEST SWAP3 POP POP PUSH1 0x1 DUP2 ADD SWAP1 POP PUSH2 0x24CE JUMP JUMPDEST POP DUP6 SWAP4 POP POP POP POP SWAP3 SWAP2 POP POP JUMP JUMPDEST PUSH1 0x0 PUSH1 0xE0 DUP3 ADD SWAP1 POP PUSH2 0x251D PUSH1 0x0 DUP4 ADD DUP11 PUSH2 0x2394 JUMP JUMPDEST DUP2 DUP2 SUB PUSH1 0x20 DUP4 ADD MSTORE PUSH2 0x252F DUP2 DUP10 PUSH2 0x23E9 JUMP JUMPDEST SWAP1 POP DUP2 DUP2 SUB PUSH1 0x40 DUP4 ADD MSTORE PUSH2 0x2543 DUP2 DUP9 PUSH2 0x23E9 JUMP JUMPDEST SWAP1 POP PUSH2 0x2552 PUSH1 0x60 DUP4 ADD DUP8 PUSH2 0x22BB JUMP JUMPDEST PUSH2 0x255F PUSH1 0x80 DUP4 ADD DUP7 PUSH2 0x2422 JUMP JUMPDEST PUSH2 0x256C PUSH1 0xA0 DUP4 ADD DUP6 PUSH2 0x243B JUMP JUMPDEST DUP2 DUP2 SUB PUSH1 0xC0 DUP4 ADD MSTORE PUSH2 0x257E DUP2 DUP5 PUSH2 0x24AA JUMP JUMPDEST SWAP1 POP SWAP9 SWAP8 POP POP POP POP POP POP POP POP JUMP JUMPDEST PUSH1 0x0 PUSH1 0x20 DUP3 ADD SWAP1 POP PUSH2 0x25A1 PUSH1 0x0 DUP4 ADD DUP5 PUSH2 0x2422 JUMP JUMPDEST SWAP3 SWAP2 POP POP JUMP JUMPDEST PUSH1 0x0 DUP1 DUP4 PUSH1 0x1F DUP5 ADD SLT PUSH2 0x25BD JUMPI PUSH2 0x25BC PUSH2 0x1E0F JUMP JUMPDEST JUMPDEST DUP3 CALLDATALOAD SWAP1 POP PUSH8 0xFFFFFFFFFFFFFFFF DUP2 GT ISZERO PUSH2 0x25DA JUMPI PUSH2 0x25D9 PUSH2 0x1E14 JUMP JUMPDEST JUMPDEST PUSH1 0x20 DUP4 ADD SWAP2 POP DUP4 PUSH1 0x20 DUP3 MUL DUP4 ADD GT ISZERO PUSH2 0x25F6 JUMPI PUSH2 0x25F5 PUSH2 0x1E19 JUMP JUMPDEST JUMPDEST SWAP3 POP SWAP3 SWAP1 POP JUMP JUMPDEST PUSH1 0x0 DUP1 PUSH1 0x0 DUP1 PUSH1 0x0 DUP1 PUSH1 0x0 DUP1 PUSH1 0xA0 DUP10 DUP12 SUB SLT ISZERO PUSH2 0x261D JUMPI PUSH2 0x261C PUSH2 0x1CB6 JUMP JUMPDEST JUMPDEST PUSH1 0x0 PUSH2 0x262B DUP12 DUP3 DUP13 ADD PUSH2 0x1DC4 JUMP JUMPDEST SWAP9 POP POP PUSH1 0x20 PUSH2 0x263C DUP12 DUP3 DUP13 ADD PUSH2 0x1DC4 JUMP JUMPDEST SWAP8 POP POP PUSH1 0x40 DUP10 ADD CALLDATALOAD PUSH8 0xFFFFFFFFFFFFFFFF DUP2 GT ISZERO PUSH2 0x265D JUMPI PUSH2 0x265C PUSH2 0x1CBB JUMP JUMPDEST JUMPDEST PUSH2 0x2669 DUP12 DUP3 DUP13 ADD PUSH2 0x25A7 JUMP JUMPDEST SWAP7 POP SWAP7 POP POP PUSH1 0x60 DUP10 ADD CALLDATALOAD PUSH8 0xFFFFFFFFFFFFFFFF DUP2 GT ISZERO PUSH2 0x268C JUMPI PUSH2 0x268B PUSH2 0x1CBB JUMP JUMPDEST JUMPDEST PUSH2 0x2698 DUP12 DUP3 DUP13 ADD PUSH2 0x25A7 JUMP JUMPDEST SWAP5 POP SWAP5 POP POP PUSH1 0x80 DUP10 ADD CALLDATALOAD PUSH8 0xFFFFFFFFFFFFFFFF DUP2 GT ISZERO PUSH2 0x26BB JUMPI PUSH2 0x26BA PUSH2 0x1CBB JUMP JUMPDEST JUMPDEST PUSH2 0x26C7 DUP12 DUP3 DUP13 ADD PUSH2 0x1E1E JUMP JUMPDEST SWAP3 POP SWAP3 POP POP SWAP3 SWAP6 SWAP9 POP SWAP3 SWAP6 SWAP9 SWAP1 SWAP4 SWAP7 POP JUMP JUMPDEST PUSH1 0x0 PUSH1 0x20 DUP3 DUP5 SUB SLT ISZERO PUSH2 0x26EF JUMPI PUSH2 0x26EE PUSH2 0x1CB6 JUMP JUMPDEST JUMPDEST PUSH1 0x0 DUP3 ADD CALLDATALOAD PUSH8 0xFFFFFFFFFFFFFFFF DUP2 GT ISZERO PUSH2 0x270D JUMPI PUSH2 0x270C PUSH2 0x1CBB JUMP JUMPDEST JUMPDEST PUSH2 0x2719 DUP5 DUP3 DUP6 ADD PUSH2 0x2043 JUMP JUMPDEST SWAP2 POP POP SWAP3 SWAP2 POP POP JUMP JUMPDEST PUSH1 0x0 DUP1 PUSH1 0x0 DUP1 PUSH1 0x0 DUP1 PUSH1 0xA0 DUP8 DUP10 SUB SLT ISZERO PUSH2 0x273F JUMPI PUSH2 0x273E PUSH2 0x1CB6 JUMP JUMPDEST JUMPDEST PUSH1 0x0 PUSH2 0x274D DUP10 DUP3 DUP11 ADD PUSH2 0x1DC4 JUMP JUMPDEST SWAP7 POP POP PUSH1 0x20 PUSH2 0x275E DUP10 DUP3 DUP11 ADD PUSH2 0x1DC4 JUMP JUMPDEST SWAP6 POP POP PUSH1 0x40 PUSH2 0x276F DUP10 DUP3 DUP11 ADD PUSH2 0x1DFA JUMP JUMPDEST SWAP5 POP POP PUSH1 0x60 PUSH2 0x2780 DUP10 DUP3 DUP11 ADD PUSH2 0x1DFA JUMP JUMPDEST SWAP4 POP POP PUSH1 0x80 DUP8 ADD CALLDATALOAD PUSH8 0xFFFFFFFFFFFFFFFF DUP2 GT ISZERO PUSH2 0x27A1 JUMPI PUSH2 0x27A0 PUSH2 0x1CBB JUMP JUMPDEST JUMPDEST PUSH2 0x27AD DUP10 DUP3 DUP11 ADD PUSH2 0x1E1E JUMP JUMPDEST SWAP3 POP SWAP3 POP POP SWAP3 SWAP6 POP SWAP3 SWAP6 POP SWAP3 SWAP6 JUMP JUMPDEST PUSH1 0x0 DUP1 PUSH1 0x0 PUSH1 0x60 DUP5 DUP7 SUB SLT ISZERO PUSH2 0x27D5 JUMPI PUSH2 0x27D4 PUSH2 0x1CB6 JUMP JUMPDEST JUMPDEST PUSH1 0x0 DUP5 ADD CALLDATALOAD PUSH8 0xFFFFFFFFFFFFFFFF DUP2 GT ISZERO PUSH2 0x27F3 JUMPI PUSH2 0x27F2 PUSH2 0x1CBB JUMP JUMPDEST JUMPDEST PUSH2 0x27FF DUP7 DUP3 DUP8 ADD PUSH2 0x218C JUMP JUMPDEST SWAP4 POP POP PUSH1 0x20 PUSH2 0x2810 DUP7 DUP3 DUP8 ADD PUSH2 0x1DC4 JUMP JUMPDEST SWAP3 POP POP PUSH1 0x40 DUP5 ADD CALLDATALOAD PUSH8 0xFFFFFFFFFFFFFFFF DUP2 GT ISZERO PUSH2 0x2831 JUMPI PUSH2 0x2830 PUSH2 0x1CBB JUMP JUMPDEST JUMPDEST PUSH2 0x283D DUP7 DUP3 DUP8 ADD PUSH2 0x2071 JUMP JUMPDEST SWAP2 POP POP SWAP3 POP SWAP3 POP SWAP3 JUMP JUMPDEST PUSH1 0x0 DUP1 PUSH1 0x0 DUP1 PUSH1 0x80 DUP6 DUP8 SUB SLT ISZERO PUSH2 0x2861 JUMPI PUSH2 0x2860 PUSH2 0x1CB6 JUMP JUMPDEST JUMPDEST PUSH1 0x0 PUSH2 0x286F DUP8 DUP3 DUP9 ADD PUSH2 0x1DC4 JUMP JUMPDEST SWAP5 POP POP PUSH1 0x20 DUP6 ADD CALLDATALOAD PUSH8 0xFFFFFFFFFFFFFFFF DUP2 GT ISZERO PUSH2 0x2890 JUMPI PUSH2 0x288F PUSH2 0x1CBB JUMP JUMPDEST JUMPDEST PUSH2 0x289C DUP8 DUP3 DUP9 ADD PUSH2 0x2043 JUMP JUMPDEST SWAP4 POP POP PUSH1 0x40 PUSH2 0x28AD DUP8 DUP3 DUP9 ADD PUSH2 0x1DC4 JUMP JUMPDEST SWAP3 POP POP PUSH1 0x60 PUSH2 0x28BE DUP8 DUP3 DUP9 ADD PUSH2 0x1DFA JUMP JUMPDEST SWAP2 POP POP SWAP3 SWAP6 SWAP2 SWAP5 POP SWAP3 POP JUMP JUMPDEST PUSH1 0x0 DUP2 SWAP1 POP SWAP3 SWAP2 POP POP JUMP JUMPDEST PUSH1 0x0 PUSH2 0x28E0 DUP3 PUSH2 0x23A3 JUMP JUMPDEST PUSH2 0x28EA DUP2 DUP6 PUSH2 0x28CA JUMP JUMPDEST SWAP4 POP PUSH2 0x28FA DUP2 DUP6 PUSH1 0x20 DUP7 ADD PUSH2 0x23BF JUMP JUMPDEST DUP1 DUP5 ADD SWAP2 POP POP SWAP3 SWAP2 POP POP JUMP JUMPDEST PUSH1 0x0 PUSH2 0x2912 DUP3 DUP5 PUSH2 0x28D5 JUMP JUMPDEST SWAP2 POP DUP2 SWAP1 POP SWAP3 SWAP2 POP POP JUMP JUMPDEST PUSH1 0x0 PUSH1 0x60 DUP3 ADD SWAP1 POP PUSH2 0x2932 PUSH1 0x0 DUP4 ADD DUP7 PUSH2 0x2422 JUMP JUMPDEST PUSH2 0x293F PUSH1 0x20 DUP4 ADD DUP6 PUSH2 0x2422 JUMP JUMPDEST PUSH2 0x294C PUSH1 0x40 DUP4 ADD DUP5 PUSH2 0x22BB JUMP JUMPDEST SWAP5 SWAP4 POP POP POP POP JUMP JUMPDEST PUSH2 0x295D DUP2 PUSH2 0x1D45 JUMP JUMPDEST DUP2 EQ PUSH2 0x2968 JUMPI PUSH1 0x0 DUP1 REVERT JUMPDEST POP JUMP JUMPDEST PUSH1 0x0 DUP2 MLOAD SWAP1 POP PUSH2 0x297A DUP2 PUSH2 0x2954 JUMP JUMPDEST SWAP3 SWAP2 POP POP JUMP JUMPDEST PUSH1 0x0 PUSH1 0x20 DUP3 DUP5 SUB SLT ISZERO PUSH2 0x2996 JUMPI PUSH2 0x2995 PUSH2 0x1CB6 JUMP JUMPDEST JUMPDEST PUSH1 0x0 PUSH2 0x29A4 DUP5 DUP3 DUP6 ADD PUSH2 0x296B JUMP JUMPDEST SWAP2 POP POP SWAP3 SWAP2 POP POP JUMP JUMPDEST PUSH1 0x0 DUP2 SWAP1 POP SWAP3 SWAP2 POP POP JUMP JUMPDEST POP JUMP JUMPDEST PUSH1 0x0 PUSH2 0x29C8 PUSH1 0x0 DUP4 PUSH2 0x29AD JUMP JUMPDEST SWAP2 POP PUSH2 0x29D3 DUP3 PUSH2 0x29B8 JUMP JUMPDEST PUSH1 0x0 DUP3 ADD SWAP1 POP SWAP2 SWAP1 POP JUMP JUMPDEST PUSH1 0x0 PUSH2 0x29E9 DUP3 PUSH2 0x29BB JUMP JUMPDEST SWAP2 POP DUP2 SWAP1 POP SWAP2 SWAP1 POP JUMP JUMPDEST PUSH1 0x0 PUSH1 0xC0 DUP3 ADD SWAP1 POP PUSH2 0x2A08 PUSH1 0x0 DUP4 ADD DUP10 PUSH2 0x243B JUMP JUMPDEST PUSH2 0x2A15 PUSH1 0x20 DUP4 ADD DUP9 PUSH2 0x243B JUMP JUMPDEST PUSH2 0x2A22 PUSH1 0x40 DUP4 ADD DUP8 PUSH2 0x2422 JUMP JUMPDEST PUSH2 0x2A2F PUSH1 0x60 DUP4 ADD DUP7 PUSH2 0x2422 JUMP JUMPDEST PUSH2 0x2A3C PUSH1 0x80 DUP4 ADD DUP6 PUSH2 0x2422 JUMP JUMPDEST PUSH2 0x2A49 PUSH1 0xA0 DUP4 ADD DUP5 PUSH2 0x22BB JUMP JUMPDEST SWAP8 SWAP7 POP POP POP POP POP POP POP JUMP JUMPDEST PUSH32 0x4E487B7100000000000000000000000000000000000000000000000000000000 PUSH1 0x0 MSTORE PUSH1 0x21 PUSH1 0x4 MSTORE PUSH1 0x24 PUSH1 0x0 REVERT JUMPDEST PUSH1 0x5 DUP2 LT PUSH2 0x2A94 JUMPI PUSH2 0x2A93 PUSH2 0x2A54 JUMP JUMPDEST JUMPDEST POP JUMP JUMPDEST PUSH1 0x0 DUP2 SWAP1 POP PUSH2 0x2AA5 DUP3 PUSH2 0x2A83 JUMP JUMPDEST SWAP2 SWAP1 POP JUMP JUMPDEST PUSH1 0x0 PUSH2 0x2AB5 DUP3 PUSH2 0x2A97 JUMP JUMPDEST SWAP1 POP SWAP2 SWAP1 POP JUMP JUMPDEST PUSH2 0x2AC5 DUP2 PUSH2 0x2AAA JUMP JUMPDEST DUP3 MSTORE POP POP JUMP JUMPDEST PUSH1 0x0 DUP2 SWAP1 POP SWAP2 SWAP1 POP JUMP JUMPDEST PUSH1 0x0 DUP2 SWAP1 POP SWAP2 SWAP1 POP JUMP JUMPDEST PUSH1 0x0 PUSH2 0x2AFA PUSH2 0x2AF5 PUSH2 0x2AF0 DUP5 PUSH2 0x2ACB JUMP JUMPDEST PUSH2 0x2AD5 JUMP JUMPDEST PUSH2 0x1DD9 JUMP JUMPDEST SWAP1 POP SWAP2 SWAP1 POP JUMP JUMPDEST PUSH2 0x2B0A DUP2 PUSH2 0x2ADF JUMP JUMPDEST DUP3 MSTORE POP POP JUMP JUMPDEST PUSH1 0x0 PUSH1 0xA0 DUP3 ADD SWAP1 POP DUP2 DUP2 SUB PUSH1 0x0 DUP4 ADD MSTORE PUSH2 0x2B2A DUP2 DUP9 PUSH2 0x23E9 JUMP JUMPDEST SWAP1 POP PUSH2 0x2B39 PUSH1 0x20 DUP4 ADD DUP8 PUSH2 0x2ABC JUMP JUMPDEST PUSH2 0x2B46 PUSH1 0x40 DUP4 ADD DUP7 PUSH2 0x2422 JUMP JUMPDEST PUSH2 0x2B53 PUSH1 0x60 DUP4 ADD DUP6 PUSH2 0x2B01 JUMP JUMPDEST PUSH2 0x2B60 PUSH1 0x80 DUP4 ADD DUP5 PUSH2 0x22BB JUMP JUMPDEST SWAP7 SWAP6 POP POP POP POP POP POP JUMP JUMPDEST PUSH32 0x4E487B7100000000000000000000000000000000000000000000000000000000 PUSH1 0x0 MSTORE PUSH1 0x11 PUSH1 0x4 MSTORE PUSH1 0x24 PUSH1 0x0 REVERT JUMPDEST PUSH1 0x0 PUSH2 0x2BA4 DUP3 PUSH2 0x1DD9 JUMP JUMPDEST SWAP2 POP PUSH2 0x2BAF DUP4 PUSH2 0x1DD9 JUMP JUMPDEST SWAP3 POP DUP3 DUP3 SUB SWAP1 POP DUP2 DUP2 GT ISZERO PUSH2 0x2BC7 JUMPI PUSH2 0x2BC6 PUSH2 0x2B6A JUMP JUMPDEST JUMPDEST SWAP3 SWAP2 POP POP JUMP JUMPDEST PUSH1 0x0 PUSH1 0x40 DUP3 ADD SWAP1 POP PUSH2 0x2BE2 PUSH1 0x0 DUP4 ADD DUP6 PUSH2 0x2422 JUMP JUMPDEST PUSH2 0x2BEF PUSH1 0x20 DUP4 ADD DUP5 PUSH2 0x22BB JUMP JUMPDEST SWAP4 SWAP3 POP POP POP JUMP JUMPDEST PUSH1 0x0 PUSH2 0x2C01 DUP3 PUSH2 0x1DD9 JUMP JUMPDEST SWAP2 POP PUSH2 0x2C0C DUP4 PUSH2 0x1DD9 JUMP JUMPDEST SWAP3 POP DUP3 DUP3 ADD SWAP1 POP DUP1 DUP3 GT ISZERO PUSH2 0x2C24 JUMPI PUSH2 0x2C23 PUSH2 0x2B6A JUMP JUMPDEST JUMPDEST SWAP3 SWAP2 POP POP JUMP JUMPDEST PUSH1 0x0 PUSH1 0x80 DUP3 ADD SWAP1 POP DUP2 DUP2 SUB PUSH1 0x0 DUP4 ADD MSTORE PUSH2 0x2C44 DUP2 DUP8 PUSH2 0x23E9 JUMP JUMPDEST SWAP1 POP PUSH2 0x2C53 PUSH1 0x20 DUP4 ADD DUP7 PUSH2 0x2422 JUMP JUMPDEST PUSH2 0x2C60 PUSH1 0x40 DUP4 ADD DUP6 PUSH2 0x2422 JUMP JUMPDEST PUSH2 0x2C6D PUSH1 0x60 DUP4 ADD DUP5 PUSH2 0x22BB JUMP JUMPDEST SWAP6 SWAP5 POP POP POP POP POP JUMP JUMPDEST PUSH32 0x4E487B7100000000000000000000000000000000000000000000000000000000 PUSH1 0x0 MSTORE PUSH1 0x22 PUSH1 0x4 MSTORE PUSH1 0x24 PUSH1 0x0 REVERT JUMPDEST PUSH1 0x0 PUSH1 0x2 DUP3 DIV SWAP1 POP PUSH1 0x1 DUP3 AND DUP1 PUSH2 0x2CBD JUMPI PUSH1 0x7F DUP3 AND SWAP2 POP JUMPDEST PUSH1 0x20 DUP3 LT DUP2 SUB PUSH2 0x2CD0 JUMPI PUSH2 0x2CCF PUSH2 0x2C76 JUMP JUMPDEST JUMPDEST POP SWAP2 SWAP1 POP JUMP JUMPDEST PUSH1 0x0 PUSH1 0x20 DUP3 ADD SWAP1 POP PUSH2 0x2CEB PUSH1 0x0 DUP4 ADD DUP5 PUSH2 0x243B JUMP JUMPDEST SWAP3 SWAP2 POP POP JUMP JUMPDEST PUSH1 0x0 PUSH1 0xA0 DUP3 ADD SWAP1 POP PUSH2 0x2D06 PUSH1 0x0 DUP4 ADD DUP9 PUSH2 0x243B JUMP JUMPDEST PUSH2 0x2D13 PUSH1 0x20 DUP4 ADD DUP8 PUSH2 0x243B JUMP JUMPDEST PUSH2 0x2D20 PUSH1 0x40 DUP4 ADD DUP7 PUSH2 0x243B JUMP JUMPDEST PUSH2 0x2D2D PUSH1 0x60 DUP4 ADD DUP6 PUSH2 0x22BB JUMP JUMPDEST PUSH2 0x2D3A PUSH1 0x80 DUP4 ADD DUP5 PUSH2 0x2422 JUMP JUMPDEST SWAP7 SWAP6 POP POP POP POP POP POP JUMP JUMPDEST PUSH1 0x0 PUSH1 0xFF DUP3 AND SWAP1 POP SWAP2 SWAP1 POP JUMP JUMPDEST PUSH2 0x2D5A DUP2 PUSH2 0x2D44 JUMP JUMPDEST DUP3 MSTORE POP POP JUMP JUMPDEST PUSH1 0x0 PUSH1 0x80 DUP3 ADD SWAP1 POP PUSH2 0x2D75 PUSH1 0x0 DUP4 ADD DUP8 PUSH2 0x243B JUMP JUMPDEST PUSH2 0x2D82 PUSH1 0x20 DUP4 ADD DUP7 PUSH2 0x2D51 JUMP JUMPDEST PUSH2 0x2D8F PUSH1 0x40 DUP4 ADD DUP6 PUSH2 0x243B JUMP JUMPDEST PUSH2 0x2D9C PUSH1 0x60 DUP4 ADD DUP5 PUSH2 0x243B JUMP JUMPDEST SWAP6 SWAP5 POP POP POP POP POP JUMP INVALID LOG2 PUSH5 0x6970667358 0x22 SLT KECCAK256 0xC4 PUSH24 0x2B10630B0EC695FE69646656BE2B4A8635E3D14733B5B33 0xAA 0x23 0xB4 SWAP16 PUSH22 0xE964736F6C6343000818003300000000000000000000 "},"gasEstimates":{"creation":{"codeDepositCost":"2347800","executionCost":"infinite","totalCost":"infinite"},"external":{"acceptOwnership()":"54747","adminTransferAirdropOwnership(string,address)":"infinite","adminWithdrawERC20(address,string,address,uint256)":"infinite","adminWithdrawNative(address)":"infinite","airdropClaimedAmounts(string,address)":"infinite","airdropOwners(string)":"infinite","claimAirdrop((string,address,address,address,uint256),bytes)":"infinite","contractBalance(string)":"infinite","eip712Domain()":"infinite","fundERC20(string,address,address,uint256)":"infinite","fundNative()":"209","getChainId()":"359","onERC1155BatchReceived(address,address,uint256[],uint256[],bytes)":"infinite","onERC1155Received(address,address,uint256,uint256,bytes)":"infinite","onERC721Received(address,address,uint256,bytes)":"infinite","owner()":"2655","pendingOwner()":"2633","renounceOwnership()":"infinite","setAdminAddress(address)":"infinite","supportsInterface(bytes4)":"754","transferOwnership(address)":"infinite","verify(bytes,address,(string,address,address,address,uint256))":"infinite","withdrawERC20(string,address,address,uint256)":"infinite"},"internal":{"_verify(bytes memory,address,struct Payfluence.AirdropMessage memory)":"infinite"}},"methodIdentifiers":{"acceptOwnership()":"79ba5097","adminTransferAirdropOwnership(string,address)":"2394c348","adminWithdrawERC20(address,string,address,uint256)":"fe1fddaa","adminWithdrawNative(address)":"c8b5773d","airdropClaimedAmounts(string,address)":"eb47e011","airdropOwners(string)":"ea13689f","claimAirdrop((string,address,address,address,uint256),bytes)":"1dcd3af9","contractBalance(string)":"ffb1500e","eip712Domain()":"84b0196e","fundERC20(string,address,address,uint256)":"c4385d76","fundNative()":"c9c61eab","getChainId()":"3408e470","onERC1155BatchReceived(address,address,uint256[],uint256[],bytes)":"bc197c81","onERC1155Received(address,address,uint256,uint256,bytes)":"f23a6e61","onERC721Received(address,address,uint256,bytes)":"150b7a02","owner()":"8da5cb5b","pendingOwner()":"e30c3978","renounceOwnership()":"715018a6","setAdminAddress(address)":"2c1e816d","supportsInterface(bytes4)":"01ffc9a7","transferOwnership(address)":"f2fde38b","verify(bytes,address,(string,address,address,address,uint256))":"f4fb1849","withdrawERC20(string,address,address,uint256)":"4f18868a"}},"storageLayout":{"storage":[{"astId":8,"contract":"contracts/Payfluence.sol:Payfluence","label":"_owner","offset":0,"slot":"0","type":"t_address"},{"astId":156,"contract":"contracts/Payfluence.sol:Payfluence","label":"_pendingOwner","offset":0,"slot":"1","type":"t_address"},{"astId":794,"contract":"contracts/Payfluence.sol:Payfluence","label":"_status","offset":0,"slot":"2","type":"t_uint256"},{"astId":1819,"contract":"contracts/Payfluence.sol:Payfluence","label":"_nameFallback","offset":0,"slot":"3","type":"t_string_storage"},{"astId":1821,"contract":"contracts/Payfluence.sol:Payfluence","label":"_versionFallback","offset":0,"slot":"4","type":"t_string_storage"},{"astId":5427,"contract":"contracts/Payfluence.sol:Payfluence","label":"totalNativeBalance","offset":0,"slot":"5","type":"t_uint256"},{"astId":5451,"contract":"contracts/Payfluence.sol:Payfluence","label":"contractBalance","offset":0,"slot":"6","type":"t_mapping(t_string_memory_ptr,t_struct(AssetBalance)5446_storage)"},{"astId":5456,"contract":"contracts/Payfluence.sol:Payfluence","label":"assetTypeMap","offset":0,"slot":"7","type":"t_mapping(t_address,t_enum(AssetType)5424)"},{"astId":5025,"contract":"contracts/Payfluence.sol:Payfluence","label":"adminAddress","offset":0,"slot":"8","type":"t_address"},{"astId":5029,"contract":"contracts/Payfluence.sol:Payfluence","label":"airdropOwners","offset":0,"slot":"9","type":"t_mapping(t_string_memory_ptr,t_address)"},{"astId":5035,"contract":"contracts/Payfluence.sol:Payfluence","label":"airdropClaimedAmounts","offset":0,"slot":"10","type":"t_mapping(t_string_memory_ptr,t_mapping(t_address,t_uint256))"}],"types":{"t_address":{"encoding":"inplace","label":"address","numberOfBytes":"20"},"t_bool":{"encoding":"inplace","label":"bool","numberOfBytes":"1"},"t_enum(AssetType)5424":{"encoding":"inplace","label":"enum TokenReceiver.AssetType","numberOfBytes":"1"},"t_mapping(t_address,t_enum(AssetType)5424)":{"encoding":"mapping","key":"t_address","label":"mapping(address => enum TokenReceiver.AssetType)","numberOfBytes":"32","value":"t_enum(AssetType)5424"},"t_mapping(t_address,t_mapping(t_uint256,t_bool))":{"encoding":"mapping","key":"t_address","label":"mapping(address => mapping(uint256 => bool))","numberOfBytes":"32","value":"t_mapping(t_uint256,t_bool)"},"t_mapping(t_address,t_mapping(t_uint256,t_uint256))":{"encoding":"mapping","key":"t_address","label":"mapping(address => mapping(uint256 => uint256))","numberOfBytes":"32","value":"t_mapping(t_uint256,t_uint256)"},"t_mapping(t_address,t_uint256)":{"encoding":"mapping","key":"t_address","label":"mapping(address => uint256)","numberOfBytes":"32","value":"t_uint256"},"t_mapping(t_string_memory_ptr,t_address)":{"encoding":"mapping","key":"t_string_memory_ptr","label":"mapping(string => address)","numberOfBytes":"32","value":"t_address"},"t_mapping(t_string_memory_ptr,t_mapping(t_address,t_uint256))":{"encoding":"mapping","key":"t_string_memory_ptr","label":"mapping(string => mapping(address => uint256))","numberOfBytes":"32","value":"t_mapping(t_address,t_uint256)"},"t_mapping(t_string_memory_ptr,t_struct(AssetBalance)5446_storage)":{"encoding":"mapping","key":"t_string_memory_ptr","label":"mapping(string => struct TokenReceiver.AssetBalance)","numberOfBytes":"32","value":"t_struct(AssetBalance)5446_storage"},"t_mapping(t_uint256,t_bool)":{"encoding":"mapping","key":"t_uint256","label":"mapping(uint256 => bool)","numberOfBytes":"32","value":"t_bool"},"t_mapping(t_uint256,t_uint256)":{"encoding":"mapping","key":"t_uint256","label":"mapping(uint256 => uint256)","numberOfBytes":"32","value":"t_uint256"},"t_string_memory_ptr":{"encoding":"bytes","label":"string","numberOfBytes":"32"},"t_string_storage":{"encoding":"bytes","label":"string","numberOfBytes":"32"},"t_struct(AssetBalance)5446_storage":{"encoding":"inplace","label":"struct TokenReceiver.AssetBalance","members":[{"astId":5429,"contract":"contracts/Payfluence.sol:Payfluence","label":"native","offset":0,"slot":"0","type":"t_uint256"},{"astId":5433,"contract":"contracts/Payfluence.sol:Payfluence","label":"erc20","offset":0,"slot":"1","type":"t_mapping(t_address,t_uint256)"},{"astId":5439,"contract":"contracts/Payfluence.sol:Payfluence","label":"erc721","offset":0,"slot":"2","type":"t_mapping(t_address,t_mapping(t_uint256,t_bool))"},{"astId":5445,"contract":"contracts/Payfluence.sol:Payfluence","label":"erc1155","offset":0,"slot":"3","type":"t_mapping(t_address,t_mapping(t_uint256,t_uint256))"}],"numberOfBytes":"128"},"t_uint256":{"encoding":"inplace","label":"uint256","numberOfBytes":"32"}}},"userdoc":{"kind":"user","methods":{},"version":1}}}}