{"contracts/Payfluence.sol":{"Payfluence":{"abi":[{"inputs":[{"internalType":"address","name":"_adminAddress","type":"address"}],"stateMutability":"nonpayable","type":"constructor"},{"inputs":[],"name":"AirdropAlreadyClaimed","type":"error"},{"inputs":[{"internalType":"string","name":"id","type":"string"},{"internalType":"address","name":"token","type":"address"}],"name":"AssetNotFound","type":"error"},{"inputs":[{"internalType":"address","name":"token","type":"address"}],"name":"AssetTypeNotFoundForToken","type":"error"},{"inputs":[],"name":"ECDSAInvalidSignature","type":"error"},{"inputs":[{"internalType":"uint256","name":"length","type":"uint256"}],"name":"ECDSAInvalidSignatureLength","type":"error"},{"inputs":[{"internalType":"bytes32","name":"s","type":"bytes32"}],"name":"ECDSAInvalidSignatureS","type":"error"},{"inputs":[{"internalType":"enum TokenReceiver.AssetType","name":"assetType","type":"uint8"}],"name":"InvalidAssetType","type":"error"},{"inputs":[],"name":"InvalidShortString","type":"error"},{"inputs":[],"name":"InvalidSigner","type":"error"},{"inputs":[{"internalType":"string","name":"id","type":"string"},{"internalType":"enum TokenReceiver.AssetType","name":"assetType","type":"uint8"},{"internalType":"address","name":"token","type":"address"},{"internalType":"uint256","name":"tokenId","type":"uint256"},{"internalType":"uint256","name":"amount","type":"uint256"}],"name":"NotEnoughFunds","type":"error"},{"inputs":[],"name":"OnlyAirdropOwner","type":"error"},{"inputs":[],"name":"OnlyTokenOwner","type":"error"},{"inputs":[{"internalType":"address","name":"owner","type":"address"}],"name":"OwnableInvalidOwner","type":"error"},{"inputs":[{"internalType":"address","name":"account","type":"address"}],"name":"OwnableUnauthorizedAccount","type":"error"},{"inputs":[],"name":"ReentrancyGuardReentrantCall","type":"error"},{"inputs":[{"internalType":"string","name":"str","type":"string"}],"name":"StringTooLong","type":"error"},{"inputs":[],"name":"TransferFailed","type":"error"},{"inputs":[{"internalType":"string","name":"id","type":"string"},{"internalType":"address","name":"to","type":"address"},{"internalType":"uint256","name":"amount","type":"uint256"}],"name":"TransferNativeFailed","type":"error"},{"anonymous":false,"inputs":[],"name":"EIP712DomainChanged","type":"event"},{"anonymous":false,"inputs":[{"indexed":false,"internalType":"string","name":"id","type":"string"},{"indexed":false,"internalType":"address","name":"operator","type":"address"},{"indexed":false,"internalType":"address","name":"from","type":"address"},{"indexed":false,"internalType":"uint256[]","name":"tokenIds","type":"uint256[]"},{"indexed":false,"internalType":"uint256[]","name":"amounts","type":"uint256[]"}],"name":"ERC1155BatchReceived","type":"event"},{"anonymous":false,"inputs":[{"indexed":false,"internalType":"string","name":"id","type":"string"},{"indexed":false,"internalType":"address","name":"operator","type":"address"},{"indexed":false,"internalType":"address","name":"from","type":"address"},{"indexed":false,"internalType":"uint256","name":"tokenIds","type":"uint256"},{"indexed":false,"internalType":"uint256","name":"amounts","type":"uint256"}],"name":"ERC1155Received","type":"event"},{"anonymous":false,"inputs":[{"indexed":false,"internalType":"string","name":"id","type":"string"},{"indexed":false,"internalType":"address","name":"from","type":"address"},{"indexed":false,"internalType":"address","name":"token","type":"address"},{"indexed":false,"internalType":"uint256","name":"amount","type":"uint256"}],"name":"ERC20Received","type":"event"},{"anonymous":false,"inputs":[{"indexed":false,"internalType":"string","name":"id","type":"string"},{"indexed":false,"internalType":"address","name":"operator","type":"address"},{"indexed":false,"internalType":"address","name":"from","type":"address"},{"indexed":false,"internalType":"uint256","name":"tokenId","type":"uint256"}],"name":"ERC721Received","type":"event"},{"anonymous":false,"inputs":[{"indexed":false,"internalType":"string","name":"id","type":"string"},{"indexed":false,"internalType":"address","name":"from","type":"address"},{"indexed":false,"internalType":"uint256","name":"amount","type":"uint256"}],"name":"NativeReceived","type":"event"},{"anonymous":false,"inputs":[{"indexed":true,"internalType":"address","name":"previousOwner","type":"address"},{"indexed":true,"internalType":"address","name":"newOwner","type":"address"}],"name":"OwnershipTransferStarted","type":"event"},{"anonymous":false,"inputs":[{"indexed":true,"internalType":"address","name":"previousOwner","type":"address"},{"indexed":true,"internalType":"address","name":"newOwner","type":"address"}],"name":"OwnershipTransferred","type":"event"},{"inputs":[],"name":"acceptOwnership","outputs":[],"stateMutability":"nonpayable","type":"function"},{"inputs":[{"internalType":"string","name":"_airdropId","type":"string"},{"internalType":"address","name":"_newOwner","type":"address"}],"name":"adminTransferAirdropOwnership","outputs":[],"stateMutability":"nonpayable","type":"function"},{"inputs":[{"internalType":"address","name":"_to","type":"address"},{"internalType":"string","name":"_airdropId","type":"string"},{"internalType":"address","name":"_token","type":"address"},{"internalType":"uint256","name":"_amount","type":"uint256"}],"name":"adminWithdrawERC20","outputs":[],"stateMutability":"nonpayable","type":"function"},{"inputs":[{"internalType":"address","name":"_to","type":"address"}],"name":"adminWithdrawNative","outputs":[],"stateMutability":"nonpayable","type":"function"},{"inputs":[{"internalType":"string","name":"airdropId","type":"string"},{"internalType":"address","name":"recipient","type":"address"}],"name":"airdropClaimedAmounts","outputs":[{"internalType":"uint256","name":"amountClaimed","type":"uint256"}],"stateMutability":"view","type":"function"},{"inputs":[{"internalType":"string","name":"airdropId","type":"string"}],"name":"airdropOwners","outputs":[{"internalType":"address","name":"owner","type":"address"}],"stateMutability":"view","type":"function"},{"inputs":[{"internalType":"bytes","name":"signature","type":"bytes"},{"components":[{"internalType":"string","name":"airdropId","type":"string"},{"internalType":"address","name":"token","type":"address"},{"internalType":"address","name":"owner","type":"address"},{"internalType":"address","name":"recipient","type":"address"},{"internalType":"uint256","name":"amountClaimable","type":"uint256"}],"internalType":"struct Payfluence.AirdropMessage","name":"airdropMessage","type":"tuple"}],"name":"claimAirdrop","outputs":[],"stateMutability":"nonpayable","type":"function"},{"inputs":[{"internalType":"string","name":"id","type":"string"}],"name":"contractBalance","outputs":[{"internalType":"uint256","name":"native","type":"uint256"}],"stateMutability":"view","type":"function"},{"inputs":[],"name":"eip712Domain","outputs":[{"internalType":"bytes1","name":"fields","type":"bytes1"},{"internalType":"string","name":"name","type":"string"},{"internalType":"string","name":"version","type":"string"},{"internalType":"uint256","name":"chainId","type":"uint256"},{"internalType":"address","name":"verifyingContract","type":"address"},{"internalType":"bytes32","name":"salt","type":"bytes32"},{"internalType":"uint256[]","name":"extensions","type":"uint256[]"}],"stateMutability":"view","type":"function"},{"inputs":[{"internalType":"string","name":"_airdropId","type":"string"},{"internalType":"address","name":"_owner","type":"address"},{"internalType":"address","name":"_token","type":"address"},{"internalType":"uint256","name":"_amount","type":"uint256"}],"name":"fundERC20","outputs":[],"stateMutability":"nonpayable","type":"function"},{"inputs":[],"name":"fundNative","outputs":[],"stateMutability":"payable","type":"function"},{"inputs":[{"internalType":"string","name":"id","type":"string"},{"internalType":"address","name":"token","type":"address"}],"name":"getBalance","outputs":[{"internalType":"uint256","name":"","type":"uint256"}],"stateMutability":"view","type":"function"},{"inputs":[],"name":"getChainId","outputs":[{"internalType":"uint256","name":"","type":"uint256"}],"stateMutability":"view","type":"function"},{"inputs":[{"internalType":"address","name":"","type":"address"},{"internalType":"address","name":"","type":"address"},{"internalType":"uint256[]","name":"","type":"uint256[]"},{"internalType":"uint256[]","name":"","type":"uint256[]"},{"internalType":"bytes","name":"","type":"bytes"}],"name":"onERC1155BatchReceived","outputs":[{"internalType":"bytes4","name":"","type":"bytes4"}],"stateMutability":"nonpayable","type":"function"},{"inputs":[{"internalType":"address","name":"","type":"address"},{"internalType":"address","name":"","type":"address"},{"internalType":"uint256","name":"","type":"uint256"},{"internalType":"uint256","name":"","type":"uint256"},{"internalType":"bytes","name":"","type":"bytes"}],"name":"onERC1155Received","outputs":[{"internalType":"bytes4","name":"","type":"bytes4"}],"stateMutability":"nonpayable","type":"function"},{"inputs":[{"internalType":"address","name":"","type":"address"},{"internalType":"address","name":"","type":"address"},{"internalType":"uint256","name":"","type":"uint256"},{"internalType":"bytes","name":"","type":"bytes"}],"name":"onERC721Received","outputs":[{"internalType":"bytes4","name":"","type":"bytes4"}],"stateMutability":"nonpayable","type":"function"},{"inputs":[],"name":"owner","outputs":[{"internalType":"address","name":"","type":"address"}],"stateMutability":"view","type":"function"},{"inputs":[],"name":"pendingOwner","outputs":[{"internalType":"address","name":"","type":"address"}],"stateMutability":"view","type":"function"},{"inputs":[],"name":"renounceOwnership","outputs":[],"stateMutability":"nonpayable","type":"function"},{"inputs":[{"internalType":"address","name":"_adminAddress","type":"address"}],"name":"setAdminAddress","outputs":[],"stateMutability":"nonpayable","type":"function"},{"inputs":[{"internalType":"bytes4","name":"interfaceId","type":"bytes4"}],"name":"supportsInterface","outputs":[{"internalType":"bool","name":"","type":"bool"}],"stateMutability":"view","type":"function"},{"inputs":[{"internalType":"address","name":"newOwner","type":"address"}],"name":"transferOwnership","outputs":[],"stateMutability":"nonpayable","type":"function"},{"inputs":[{"internalType":"bytes","name":"signature","type":"bytes"},{"components":[{"internalType":"string","name":"airdropId","type":"string"},{"internalType":"address","name":"token","type":"address"},{"internalType":"address","name":"owner","type":"address"},{"internalType":"address","name":"recipient","type":"address"},{"internalType":"uint256","name":"amountClaimable","type":"uint256"}],"internalType":"struct Payfluence.AirdropMessage","name":"airdropMessage","type":"tuple"}],"name":"verify","outputs":[{"internalType":"bool","name":"","type":"bool"}],"stateMutability":"view","type":"function"},{"inputs":[{"internalType":"string","name":"_airdropId","type":"string"},{"internalType":"address","name":"_to","type":"address"},{"internalType":"address","name":"_token","type":"address"},{"internalType":"uint256","name":"_amount","type":"uint256"}],"name":"withdrawERC20","outputs":[],"stateMutability":"nonpayable","type":"function"},{"stateMutability":"payable","type":"receive"}],"devdoc":{"errors":{"ECDSAInvalidSignature()":[{"details":"The signature derives the `address(0)`."}],"ECDSAInvalidSignatureLength(uint256)":[{"details":"The signature has an invalid length."}],"ECDSAInvalidSignatureS(bytes32)":[{"details":"The signature has an S value that is in the upper half order."}],"OwnableInvalidOwner(address)":[{"details":"The owner is not a valid owner account. (eg. `address(0)`)"}],"OwnableUnauthorizedAccount(address)":[{"details":"The caller account is not authorized to perform an operation."}],"ReentrancyGuardReentrantCall()":[{"details":"Unauthorized reentrant call."}]},"events":{"EIP712DomainChanged()":{"details":"MAY be emitted to signal that the domain could have changed."}},"kind":"dev","methods":{"acceptOwnership()":{"details":"The new owner accepts the ownership transfer."},"eip712Domain()":{"details":"See {IERC-5267}."},"owner()":{"details":"Returns the address of the current owner."},"pendingOwner()":{"details":"Returns the address of the pending owner."},"renounceOwnership()":{"details":"Leaves the contract without owner. It will not be possible to call `onlyOwner` functions. Can only be called by the current owner. NOTE: Renouncing ownership will leave the contract without an owner, thereby disabling any functionality that is only available to the owner."},"supportsInterface(bytes4)":{"details":"Returns true if this contract implements the interface defined by `interfaceId`. See the corresponding https://eips.ethereum.org/EIPS/eip-165#how-interfaces-are-identified[EIP section] to learn more about how these ids are created. This function call must use less than 30 000 gas."},"transferOwnership(address)":{"details":"Starts the ownership transfer of the contract to a new account. Replaces the pending transfer if there is one. Can only be called by the current owner."}},"version":1},"evm":{"bytecode":{"linkReferences":{},"object":"61016060405260006005553480156200001757600080fd5b50604051620038d7380380620038d783398181016040528101906200003d9190620004c4565b6040518060400160405280600a81526020017f506179666c75656e6365000000000000000000000000000000000000000000008152506040518060400160405280600181526020017f310000000000000000000000000000000000000000000000000000000000000081525033600073ffffffffffffffffffffffffffffffffffffffff168173ffffffffffffffffffffffffffffffffffffffff16036200011f5760006040517f1e4fbdf700000000000000000000000000000000000000000000000000000000815260040162000116919062000507565b60405180910390fd5b62000130816200023160201b60201c565b5060016002819055506200014f6003836200026a60201b90919060201c565b61012081815250506200016d6004826200026a60201b90919060201c565b6101408181525050818051906020012060e08181525050808051906020012061010081815250504660a08181525050620001ac620002c260201b60201c565b608081815250503073ffffffffffffffffffffffffffffffffffffffff1660c08173ffffffffffffffffffffffffffffffffffffffff1681525050505080600860006101000a81548173ffffffffffffffffffffffffffffffffffffffff021916908373ffffffffffffffffffffffffffffffffffffffff1602179055505062000a63565b600160006101000a81549073ffffffffffffffffffffffffffffffffffffffff021916905562000267816200031f60201b60201c565b50565b600060208351101562000290576200028883620003e360201b60201c565b9050620002bc565b82620002a2836200045060201b60201c565b6000019081620002b391906200079e565b5060ff60001b90505b92915050565b60007f8b73c3c69bb8fe3d512ecc4cf759cc79239f7b179b0ffacaa9a75d522b39400f60e05161010051463060405160200162000304959493929190620008b1565b60405160208183030381529060405280519060200120905090565b60008060009054906101000a900473ffffffffffffffffffffffffffffffffffffffff169050816000806101000a81548173ffffffffffffffffffffffffffffffffffffffff021916908373ffffffffffffffffffffffffffffffffffffffff1602179055508173ffffffffffffffffffffffffffffffffffffffff168173ffffffffffffffffffffffffffffffffffffffff167f8be0079c531659141344cd1fd0a4f28419497f9722a3daafe3b4186f6b6457e060405160405180910390a35050565b600080829050601f815111156200043357826040517f305a27a90000000000000000000000000000000000000000000000000000000081526004016200042a91906200099d565b60405180910390fd5b8051816200044190620009f3565b60001c1760001b915050919050565b6000819050919050565b600080fd5b600073ffffffffffffffffffffffffffffffffffffffff82169050919050565b60006200048c826200045f565b9050919050565b6200049e816200047f565b8114620004aa57600080fd5b50565b600081519050620004be8162000493565b92915050565b600060208284031215620004dd57620004dc6200045a565b5b6000620004ed84828501620004ad565b91505092915050565b62000501816200047f565b82525050565b60006020820190506200051e6000830184620004f6565b92915050565b600081519050919050565b7f4e487b7100000000000000000000000000000000000000000000000000000000600052604160045260246000fd5b7f4e487b7100000000000000000000000000000000000000000000000000000000600052602260045260246000fd5b60006002820490506001821680620005a657607f821691505b602082108103620005bc57620005bb6200055e565b5b50919050565b60008190508160005260206000209050919050565b60006020601f8301049050919050565b600082821b905092915050565b600060088302620006267fffffffffffffffffffffffffffffffffffffffffffffffffffffffffffffffff82620005e7565b620006328683620005e7565b95508019841693508086168417925050509392505050565b6000819050919050565b6000819050919050565b60006200067f6200067962000673846200064a565b62000654565b6200064a565b9050919050565b6000819050919050565b6200069b836200065e565b620006b3620006aa8262000686565b848454620005f4565b825550505050565b600090565b620006ca620006bb565b620006d781848462000690565b505050565b5b81811015620006ff57620006f3600082620006c0565b600181019050620006dd565b5050565b601f8211156200074e576200071881620005c2565b6200072384620005d7565b8101602085101562000733578190505b6200074b6200074285620005d7565b830182620006dc565b50505b505050565b600082821c905092915050565b6000620007736000198460080262000753565b1980831691505092915050565b60006200078e838362000760565b9150826002028217905092915050565b620007a98262000524565b67ffffffffffffffff811115620007c557620007c46200052f565b5b620007d182546200058d565b620007de82828562000703565b600060209050601f83116001811462000816576000841562000801578287015190505b6200080d858262000780565b8655506200087d565b601f1984166200082686620005c2565b60005b82811015620008505784890151825560018201915060208501945060208101905062000829565b868310156200087057848901516200086c601f89168262000760565b8355505b6001600288020188555050505b505050505050565b6000819050919050565b6200089a8162000885565b82525050565b620008ab816200064a565b82525050565b600060a082019050620008c860008301886200088f565b620008d760208301876200088f565b620008e660408301866200088f565b620008f56060830185620008a0565b620009046080830184620004f6565b9695505050505050565b600082825260208201905092915050565b60005b838110156200093f57808201518184015260208101905062000922565b60008484015250505050565b6000601f19601f8301169050919050565b6000620009698262000524565b6200097581856200090e565b9350620009878185602086016200091f565b62000992816200094b565b840191505092915050565b60006020820190508181036000830152620009b981846200095c565b905092915050565b600081519050919050565b6000819050602082019050919050565b6000620009ea825162000885565b80915050919050565b600062000a0082620009c1565b8262000a0c84620009cc565b905062000a1981620009dc565b9250602082101562000a5c5762000a577fffffffffffffffffffffffffffffffffffffffffffffffffffffffffffffffff83602003600802620005e7565b831692505b5050919050565b60805160a05160c05160e051610100516101205161014051612e1962000abe60003960006115cb0152600061159001526000611be101526000611bc001526000611873015260006118c9015260006118f20152612e196000f3fe60806040526004361061014f5760003560e01c80638da5cb5b116100b6578063ea13689f1161006f578063ea13689f1461046c578063eb47e011146104a9578063f23a6e61146104e6578063f2fde38b14610523578063fe1fddaa1461054c578063ffb1500e1461057557610156565b80638da5cb5b1461037d578063bc197c81146103a8578063c4385d76146103e5578063c8b5773d1461040e578063c9c61eab14610437578063e30c39781461044157610156565b80634f18868a116101085780634f18868a1461028f578063715018a6146102b857806379ba5097146102cf57806380c4020c146102e657806384b0196e1461030f57806389f4b3171461034057610156565b806301ffc9a71461015b5780631090bafa14610198578063150b7a02146101d55780632394c348146102125780632c1e816d1461023b5780633408e4701461026457610156565b3661015657005b600080fd5b34801561016757600080fd5b50610182600480360381019061017d9190611de1565b6105b2565b60405161018f9190611e29565b60405180910390f35b3480156101a457600080fd5b506101bf60048036038101906101ba9190612171565b6106ec565b6040516101cc9190611e29565b60405180910390f35b3480156101e157600080fd5b506101fc60048036038101906101f79190612249565b610702565b60405161020991906122e0565b60405180910390f35b34801561021e57600080fd5b50610239600480360381019061023491906122fb565b610717565b005b34801561024757600080fd5b50610262600480360381019061025d9190612357565b610780565b005b34801561027057600080fd5b506102796107cc565b6040516102869190612393565b60405180910390f35b34801561029b57600080fd5b506102b660048036038101906102b191906123ae565b6107d4565b005b3480156102c457600080fd5b506102cd610914565b005b3480156102db57600080fd5b506102e4610928565b005b3480156102f257600080fd5b5061030d60048036038101906103089190612171565b6109b7565b005b34801561031b57600080fd5b50610324610afd565b60405161033797969594939291906125d1565b60405180910390f35b34801561034c57600080fd5b50610367600480360381019061036291906122fb565b610ba7565b6040516103749190612393565b60405180910390f35b34801561038957600080fd5b50610392610c10565b60405161039f9190612655565b60405180910390f35b3480156103b457600080fd5b506103cf60048036038101906103ca91906126c6565b610c39565b6040516103dc91906122e0565b60405180910390f35b3480156103f157600080fd5b5061040c600480360381019061040791906123ae565b610c51565b005b34801561041a57600080fd5b5061043560048036038101906104309190612357565b610f49565b005b61043f610ffe565b005b34801561044d57600080fd5b50610456611000565b6040516104639190612655565b60405180910390f35b34801561047857600080fd5b50610493600480360381019061048e91906127a2565b61102a565b6040516104a09190612655565b60405180910390f35b3480156104b557600080fd5b506104d060048036038101906104cb91906122fb565b611073565b6040516104dd9190612393565b60405180910390f35b3480156104f257600080fd5b5061050d600480360381019061050891906127eb565b6110ae565b60405161051a91906122e0565b60405180910390f35b34801561052f57600080fd5b5061054a60048036038101906105459190612357565b6110c4565b005b34801561055857600080fd5b50610573600480360381019061056e9190612885565b611171565b005b34801561058157600080fd5b5061059c600480360381019061059791906127a2565b61118b565b6040516105a99190612393565b60405180910390f35b60007f4e2312e0000000000000000000000000000000000000000000000000000000007bffffffffffffffffffffffffffffffffffffffffffffffffffffffff1916827bffffffffffffffffffffffffffffffffffffffffffffffffffffffff1916148061067d57507f150b7a02000000000000000000000000000000000000000000000000000000007bffffffffffffffffffffffffffffffffffffffffffffffffffffffff1916827bffffffffffffffffffffffffffffffffffffffffffffffffffffffff1916145b806106e557507f01ffc9a7000000000000000000000000000000000000000000000000000000007bffffffffffffffffffffffffffffffffffffffffffffffffffffffff1916827bffffffffffffffffffffffffffffffffffffffffffffffffffffffff1916145b9050919050565b60006106f883836111bf565b6001905092915050565b600063150b7a0260e01b905095945050505050565b61071f6112d2565b806009836040516107309190612944565b908152602001604051809103902060006101000a81548173ffffffffffffffffffffffffffffffffffffffff021916908373ffffffffffffffffffffffffffffffffffffffff1602179055505050565b6107886112d2565b80600860006101000a81548173ffffffffffffffffffffffffffffffffffffffff021916908373ffffffffffffffffffffffffffffffffffffffff16021790555050565b600046905090565b6107dc611359565b83600073ffffffffffffffffffffffffffffffffffffffff166009826040516108059190612944565b908152602001604051809103902060009054906101000a900473ffffffffffffffffffffffffffffffffffffffff1673ffffffffffffffffffffffffffffffffffffffff16141580156108c257506009816040516108639190612944565b908152602001604051809103902060009054906101000a900473ffffffffffffffffffffffffffffffffffffffff1673ffffffffffffffffffffffffffffffffffffffff163373ffffffffffffffffffffffffffffffffffffffff1614155b156108f9576040517f08062d7400000000000000000000000000000000000000000000000000000000815260040160405180910390fd5b6109058585858561139d565b5061090e611544565b50505050565b61091c6112d2565b610926600061154e565b565b600061093261157f565b90508073ffffffffffffffffffffffffffffffffffffffff16610953611000565b73ffffffffffffffffffffffffffffffffffffffff16146109ab57806040517f118cdaa70000000000000000000000000000000000000000000000000000000081526004016109a29190612655565b60405180910390fd5b6109b48161154e565b50565b6109bf611359565b6109c982826111bf565b8060800151600a82600001516040516109e29190612944565b90815260200160405180910390206000836060015173ffffffffffffffffffffffffffffffffffffffff1673ffffffffffffffffffffffffffffffffffffffff1681526020019081526020016000205410610a69576040517fe4ca4c0b00000000000000000000000000000000000000000000000000000000815260040160405180910390fd5b8060800151600a8260000151604051610a829190612944565b90815260200160405180910390206000836060015173ffffffffffffffffffffffffffffffffffffffff1673ffffffffffffffffffffffffffffffffffffffff16815260200190815260200160002081905550610af1816000015182606001518360200151846080015161139d565b610af9611544565b5050565b600060608060008060006060610b11611587565b610b196115c2565b46306000801b600067ffffffffffffffff811115610b3a57610b39611e5f565b5b604051908082528060200260200182016040528015610b685781602001602082028036833780820191505090505b507f0f00000000000000000000000000000000000000000000000000000000000000959493929190965096509650965096509650965090919293949596565b6000600683604051610bb99190612944565b908152602001604051809103902060010160008373ffffffffffffffffffffffffffffffffffffffff1673ffffffffffffffffffffffffffffffffffffffff16815260200190815260200160002054905092915050565b60008060009054906101000a900473ffffffffffffffffffffffffffffffffffffffff16905090565b600063bc197c8160e01b905098975050505050505050565b610c59611359565b83600073ffffffffffffffffffffffffffffffffffffffff16600982604051610c829190612944565b908152602001604051809103902060009054906101000a900473ffffffffffffffffffffffffffffffffffffffff1673ffffffffffffffffffffffffffffffffffffffff1614158015610d3f5750600981604051610ce09190612944565b908152602001604051809103902060009054906101000a900473ffffffffffffffffffffffffffffffffffffffff1673ffffffffffffffffffffffffffffffffffffffff163373ffffffffffffffffffffffffffffffffffffffff1614155b15610d76576040517f08062d7400000000000000000000000000000000000000000000000000000000815260040160405180910390fd5b838073ffffffffffffffffffffffffffffffffffffffff163373ffffffffffffffffffffffffffffffffffffffff1614610ddc576040517fcdf1f8f900000000000000000000000000000000000000000000000000000000815260040160405180910390fd5b600073ffffffffffffffffffffffffffffffffffffffff16600987604051610e049190612944565b908152602001604051809103902060009054906101000a900473ffffffffffffffffffffffffffffffffffffffff1673ffffffffffffffffffffffffffffffffffffffff1603610eac5784600987604051610e5f9190612944565b908152602001604051809103902060006101000a81548173ffffffffffffffffffffffffffffffffffffffff021916908373ffffffffffffffffffffffffffffffffffffffff1602179055505b8373ffffffffffffffffffffffffffffffffffffffff166323b872dd8630866040518463ffffffff1660e01b8152600401610ee99392919061295b565b6020604051808303816000875af1158015610f08573d6000803e3d6000fd5b505050506040513d601f19601f82011682018060405250810190610f2c91906129be565b50610f39868686866115fd565b5050610f43611544565b50505050565b610f516112d2565b600047905060008273ffffffffffffffffffffffffffffffffffffffff1682604051610f7c90612a1c565b60006040518083038185875af1925050503d8060008114610fb9576040519150601f19603f3d011682016040523d82523d6000602084013e610fbe565b606091505b5050905080610ff9576040517f90b8ec1800000000000000000000000000000000000000000000000000000000815260040160405180910390fd5b505050565b565b6000600160009054906101000a900473ffffffffffffffffffffffffffffffffffffffff16905090565b6009818051602081018201805184825260208301602085012081835280955050505050506000915054906101000a900473ffffffffffffffffffffffffffffffffffffffff1681565b600a82805160208101820180518482526020830160208501208183528095505050505050602052806000526040600020600091509150505481565b600063f23a6e6160e01b90509695505050505050565b6110cc6112d2565b80600160006101000a81548173ffffffffffffffffffffffffffffffffffffffff021916908373ffffffffffffffffffffffffffffffffffffffff1602179055508073ffffffffffffffffffffffffffffffffffffffff1661112c610c10565b73ffffffffffffffffffffffffffffffffffffffff167f38d16b8cac22d99fc7c124b9cd0de2d3fa1faef420bfe791d8c362d765e2270060405160405180910390a350565b6111796112d2565b6111858385848461139d565b50505050565b6006818051602081018201805184825260208301602085012081835280955050505050506000915090508060000154905081565b60006112357fa3b140137dde1ec8f85da0fadac4c5d6c5410186ca811cbe1e3d5fb737dfb2f6836000015180519060200120846020015185604001518660600151876080015160405160200161121a96959493929190612a31565b604051602081830303815290604052805190602001206116b5565b9050600061124382856116cf565b9050600860009054906101000a900473ffffffffffffffffffffffffffffffffffffffff1673ffffffffffffffffffffffffffffffffffffffff168173ffffffffffffffffffffffffffffffffffffffff16146112cc576040517f815e1d6400000000000000000000000000000000000000000000000000000000815260040160405180910390fd5b50505050565b6112da61157f565b73ffffffffffffffffffffffffffffffffffffffff166112f8610c10565b73ffffffffffffffffffffffffffffffffffffffff16146113575761131b61157f565b6040517f118cdaa700000000000000000000000000000000000000000000000000000000815260040161134e9190612655565b60405180910390fd5b565b6002805403611394576040517f3ee5aeb500000000000000000000000000000000000000000000000000000000815260040160405180910390fd5b60028081905550565b806006856040516113ae9190612944565b908152602001604051809103902060010160008473ffffffffffffffffffffffffffffffffffffffff1673ffffffffffffffffffffffffffffffffffffffff16815260200190815260200160002054101561144a57836002836000846040517f3ff3e6f2000000000000000000000000000000000000000000000000000000008152600401611441959493929190612b4e565b60405180910390fd5b8060068560405161145b9190612944565b908152602001604051809103902060010160008473ffffffffffffffffffffffffffffffffffffffff1673ffffffffffffffffffffffffffffffffffffffff16815260200190815260200160002060008282546114b89190612bd7565b925050819055508173ffffffffffffffffffffffffffffffffffffffff1663a9059cbb84836040518363ffffffff1660e01b81526004016114fa929190612c0b565b6020604051808303816000875af1158015611519573d6000803e3d6000fd5b505050506040513d601f19601f8201168201806040525081019061153d91906129be565b5050505050565b6001600281905550565b600160006101000a81549073ffffffffffffffffffffffffffffffffffffffff021916905561157c816116fb565b50565b600033905090565b60606115bd60037f00000000000000000000000000000000000000000000000000000000000000006117bf90919063ffffffff16565b905090565b60606115f860047f00000000000000000000000000000000000000000000000000000000000000006117bf90919063ffffffff16565b905090565b8060068560405161160e9190612944565b908152602001604051809103902060010160008473ffffffffffffffffffffffffffffffffffffffff1673ffffffffffffffffffffffffffffffffffffffff168152602001908152602001600020600082825461166b9190612c34565b925050819055507f80b0529195f12df0318651d4b36ffc81b7b3cb429033916c20d71e8d2e219ae3848484846040516116a79493929190612c68565b60405180910390a150505050565b60006116c86116c261186f565b83611926565b9050919050565b6000806000806116df8686611967565b9250925092506116ef82826119c3565b82935050505092915050565b60008060009054906101000a900473ffffffffffffffffffffffffffffffffffffffff169050816000806101000a81548173ffffffffffffffffffffffffffffffffffffffff021916908373ffffffffffffffffffffffffffffffffffffffff1602179055508173ffffffffffffffffffffffffffffffffffffffff168173ffffffffffffffffffffffffffffffffffffffff167f8be0079c531659141344cd1fd0a4f28419497f9722a3daafe3b4186f6b6457e060405160405180910390a35050565b606060ff60001b83146117dc576117d583611b27565b9050611869565b8180546117e890612ce3565b80601f016020809104026020016040519081016040528092919081815260200182805461181490612ce3565b80156118615780601f1061183657610100808354040283529160200191611861565b820191906000526020600020905b81548152906001019060200180831161184457829003601f168201915b505050505090505b92915050565b60007f000000000000000000000000000000000000000000000000000000000000000073ffffffffffffffffffffffffffffffffffffffff163073ffffffffffffffffffffffffffffffffffffffff161480156118eb57507f000000000000000000000000000000000000000000000000000000000000000046145b15611918577f00000000000000000000000000000000000000000000000000000000000000009050611923565b611920611b9b565b90505b90565b60006040517f190100000000000000000000000000000000000000000000000000000000000081528360028201528260228201526042812091505092915050565b600080600060418451036119ac5760008060006020870151925060408701519150606087015160001a905061199e88828585611c31565b9550955095505050506119bc565b60006002855160001b9250925092505b9250925092565b600060038111156119d7576119d6612a92565b5b8260038111156119ea576119e9612a92565b5b0315611b235760016003811115611a0457611a03612a92565b5b826003811115611a1757611a16612a92565b5b03611a4e576040517ff645eedf00000000000000000000000000000000000000000000000000000000815260040160405180910390fd5b60026003811115611a6257611a61612a92565b5b826003811115611a7557611a74612a92565b5b03611aba578060001c6040517ffce698f7000000000000000000000000000000000000000000000000000000008152600401611ab19190612393565b60405180910390fd5b600380811115611acd57611acc612a92565b5b826003811115611ae057611adf612a92565b5b03611b2257806040517fd78bce0c000000000000000000000000000000000000000000000000000000008152600401611b199190612d14565b60405180910390fd5b5b5050565b60606000611b3483611d25565b90506000602067ffffffffffffffff811115611b5357611b52611e5f565b5b6040519080825280601f01601f191660200182016040528015611b855781602001600182028036833780820191505090505b5090508181528360208201528092505050919050565b60007f8b73c3c69bb8fe3d512ecc4cf759cc79239f7b179b0ffacaa9a75d522b39400f7f00000000000000000000000000000000000000000000000000000000000000007f00000000000000000000000000000000000000000000000000000000000000004630604051602001611c16959493929190612d2f565b60405160208183030381529060405280519060200120905090565b60008060007f7fffffffffffffffffffffffffffffff5d576e7357a4501ddfe92f46681b20a08460001c1115611c71576000600385925092509250611d1b565b600060018888888860405160008152602001604052604051611c969493929190612d9e565b6020604051602081039080840390855afa158015611cb8573d6000803e3d6000fd5b505050602060405103519050600073ffffffffffffffffffffffffffffffffffffffff168173ffffffffffffffffffffffffffffffffffffffff1603611d0c57600060016000801b93509350935050611d1b565b8060008060001b935093509350505b9450945094915050565b60008060ff8360001c169050601f811115611d6c576040517fb3512b0c00000000000000000000000000000000000000000000000000000000815260040160405180910390fd5b80915050919050565b6000604051905090565b600080fd5b600080fd5b60007fffffffff0000000000000000000000000000000000000000000000000000000082169050919050565b611dbe81611d89565b8114611dc957600080fd5b50565b600081359050611ddb81611db5565b92915050565b600060208284031215611df757611df6611d7f565b5b6000611e0584828501611dcc565b91505092915050565b60008115159050919050565b611e2381611e0e565b82525050565b6000602082019050611e3e6000830184611e1a565b92915050565b600080fd5b600080fd5b6000601f19601f8301169050919050565b7f4e487b7100000000000000000000000000000000000000000000000000000000600052604160045260246000fd5b611e9782611e4e565b810181811067ffffffffffffffff82111715611eb657611eb5611e5f565b5b80604052505050565b6000611ec9611d75565b9050611ed58282611e8e565b919050565b600067ffffffffffffffff821115611ef557611ef4611e5f565b5b611efe82611e4e565b9050602081019050919050565b82818337600083830152505050565b6000611f2d611f2884611eda565b611ebf565b905082815260208101848484011115611f4957611f48611e49565b5b611f54848285611f0b565b509392505050565b600082601f830112611f7157611f70611e44565b5b8135611f81848260208601611f1a565b91505092915050565b600080fd5b600080fd5b600067ffffffffffffffff821115611faf57611fae611e5f565b5b611fb882611e4e565b9050602081019050919050565b6000611fd8611fd384611f94565b611ebf565b905082815260208101848484011115611ff457611ff3611e49565b5b611fff848285611f0b565b509392505050565b600082601f83011261201c5761201b611e44565b5b813561202c848260208601611fc5565b91505092915050565b600073ffffffffffffffffffffffffffffffffffffffff82169050919050565b600061206082612035565b9050919050565b61207081612055565b811461207b57600080fd5b50565b60008135905061208d81612067565b92915050565b6000819050919050565b6120a681612093565b81146120b157600080fd5b50565b6000813590506120c38161209d565b92915050565b600060a082840312156120df576120de611f8a565b5b6120e960a0611ebf565b9050600082013567ffffffffffffffff81111561210957612108611f8f565b5b61211584828501612007565b60008301525060206121298482850161207e565b602083015250604061213d8482850161207e565b60408301525060606121518482850161207e565b6060830152506080612165848285016120b4565b60808301525092915050565b6000806040838503121561218857612187611d7f565b5b600083013567ffffffffffffffff8111156121a6576121a5611d84565b5b6121b285828601611f5c565b925050602083013567ffffffffffffffff8111156121d3576121d2611d84565b5b6121df858286016120c9565b9150509250929050565b600080fd5b600080fd5b60008083601f84011261220957612208611e44565b5b8235905067ffffffffffffffff811115612226576122256121e9565b5b602083019150836001820283011115612242576122416121ee565b5b9250929050565b60008060008060006080868803121561226557612264611d7f565b5b60006122738882890161207e565b95505060206122848882890161207e565b9450506040612295888289016120b4565b935050606086013567ffffffffffffffff8111156122b6576122b5611d84565b5b6122c2888289016121f3565b92509250509295509295909350565b6122da81611d89565b82525050565b60006020820190506122f560008301846122d1565b92915050565b6000806040838503121561231257612311611d7f565b5b600083013567ffffffffffffffff8111156123305761232f611d84565b5b61233c85828601612007565b925050602061234d8582860161207e565b9150509250929050565b60006020828403121561236d5761236c611d7f565b5b600061237b8482850161207e565b91505092915050565b61238d81612093565b82525050565b60006020820190506123a86000830184612384565b92915050565b600080600080608085870312156123c8576123c7611d7f565b5b600085013567ffffffffffffffff8111156123e6576123e5611d84565b5b6123f287828801612007565b94505060206124038782880161207e565b93505060406124148782880161207e565b9250506060612425878288016120b4565b91505092959194509250565b60007fff0000000000000000000000000000000000000000000000000000000000000082169050919050565b61246681612431565b82525050565b600081519050919050565b600082825260208201905092915050565b60005b838110156124a657808201518184015260208101905061248b565b60008484015250505050565b60006124bd8261246c565b6124c78185612477565b93506124d7818560208601612488565b6124e081611e4e565b840191505092915050565b6124f481612055565b82525050565b6000819050919050565b61250d816124fa565b82525050565b600081519050919050565b600082825260208201905092915050565b6000819050602082019050919050565b61254881612093565b82525050565b600061255a838361253f565b60208301905092915050565b6000602082019050919050565b600061257e82612513565b612588818561251e565b93506125938361252f565b8060005b838110156125c45781516125ab888261254e565b97506125b683612566565b925050600181019050612597565b5085935050505092915050565b600060e0820190506125e6600083018a61245d565b81810360208301526125f881896124b2565b9050818103604083015261260c81886124b2565b905061261b6060830187612384565b61262860808301866124eb565b61263560a0830185612504565b81810360c08301526126478184612573565b905098975050505050505050565b600060208201905061266a60008301846124eb565b92915050565b60008083601f84011261268657612685611e44565b5b8235905067ffffffffffffffff8111156126a3576126a26121e9565b5b6020830191508360208202830111156126bf576126be6121ee565b5b9250929050565b60008060008060008060008060a0898b0312156126e6576126e5611d7f565b5b60006126f48b828c0161207e565b98505060206127058b828c0161207e565b975050604089013567ffffffffffffffff81111561272657612725611d84565b5b6127328b828c01612670565b9650965050606089013567ffffffffffffffff81111561275557612754611d84565b5b6127618b828c01612670565b9450945050608089013567ffffffffffffffff81111561278457612783611d84565b5b6127908b828c016121f3565b92509250509295985092959890939650565b6000602082840312156127b8576127b7611d7f565b5b600082013567ffffffffffffffff8111156127d6576127d5611d84565b5b6127e284828501612007565b91505092915050565b60008060008060008060a0878903121561280857612807611d7f565b5b600061281689828a0161207e565b965050602061282789828a0161207e565b955050604061283889828a016120b4565b945050606061284989828a016120b4565b935050608087013567ffffffffffffffff81111561286a57612869611d84565b5b61287689828a016121f3565b92509250509295509295509295565b6000806000806080858703121561289f5761289e611d7f565b5b60006128ad8782880161207e565b945050602085013567ffffffffffffffff8111156128ce576128cd611d84565b5b6128da87828801612007565b93505060406128eb8782880161207e565b92505060606128fc878288016120b4565b91505092959194509250565b600081905092915050565b600061291e8261246c565b6129288185612908565b9350612938818560208601612488565b80840191505092915050565b60006129508284612913565b915081905092915050565b600060608201905061297060008301866124eb565b61297d60208301856124eb565b61298a6040830184612384565b949350505050565b61299b81611e0e565b81146129a657600080fd5b50565b6000815190506129b881612992565b92915050565b6000602082840312156129d4576129d3611d7f565b5b60006129e2848285016129a9565b91505092915050565b600081905092915050565b50565b6000612a066000836129eb565b9150612a11826129f6565b600082019050919050565b6000612a27826129f9565b9150819050919050565b600060c082019050612a466000830189612504565b612a536020830188612504565b612a6060408301876124eb565b612a6d60608301866124eb565b612a7a60808301856124eb565b612a8760a0830184612384565b979650505050505050565b7f4e487b7100000000000000000000000000000000000000000000000000000000600052602160045260246000fd5b60058110612ad257612ad1612a92565b5b50565b6000819050612ae382612ac1565b919050565b6000612af382612ad5565b9050919050565b612b0381612ae8565b82525050565b6000819050919050565b6000819050919050565b6000612b38612b33612b2e84612b09565b612b13565b612093565b9050919050565b612b4881612b1d565b82525050565b600060a0820190508181036000830152612b6881886124b2565b9050612b776020830187612afa565b612b8460408301866124eb565b612b916060830185612b3f565b612b9e6080830184612384565b9695505050505050565b7f4e487b7100000000000000000000000000000000000000000000000000000000600052601160045260246000fd5b6000612be282612093565b9150612bed83612093565b9250828203905081811115612c0557612c04612ba8565b5b92915050565b6000604082019050612c2060008301856124eb565b612c2d6020830184612384565b9392505050565b6000612c3f82612093565b9150612c4a83612093565b9250828201905080821115612c6257612c61612ba8565b5b92915050565b60006080820190508181036000830152612c8281876124b2565b9050612c9160208301866124eb565b612c9e60408301856124eb565b612cab6060830184612384565b95945050505050565b7f4e487b7100000000000000000000000000000000000000000000000000000000600052602260045260246000fd5b60006002820490506001821680612cfb57607f821691505b602082108103612d0e57612d0d612cb4565b5b50919050565b6000602082019050612d296000830184612504565b92915050565b600060a082019050612d446000830188612504565b612d516020830187612504565b612d5e6040830186612504565b612d6b6060830185612384565b612d7860808301846124eb565b9695505050505050565b600060ff82169050919050565b612d9881612d82565b82525050565b6000608082019050612db36000830187612504565b612dc06020830186612d8f565b612dcd6040830185612504565b612dda6060830184612504565b9594505050505056fea264697066735822122006a78e87c396c9486ef43fd0da495c3c4ed4ca9b8e2c03db9501f17f1d94a53a64736f6c63430008180033","opcodes":"PUSH2 0x160 PUSH1 0x40 MSTORE PUSH1 0x0 PUSH1 0x5 SSTORE CALLVALUE DUP1 ISZERO PUSH3 0x17 JUMPI PUSH1 0x0 DUP1 REVERT JUMPDEST POP PUSH1 0x40 MLOAD PUSH3 0x38D7 CODESIZE SUB DUP1 PUSH3 0x38D7 DUP4 CODECOPY DUP2 DUP2 ADD PUSH1 0x40 MSTORE DUP2 ADD SWAP1 PUSH3 0x3D SWAP2 SWAP1 PUSH3 0x4C4 JUMP JUMPDEST PUSH1 0x40 MLOAD DUP1 PUSH1 0x40 ADD PUSH1 0x40 MSTORE DUP1 PUSH1 0xA DUP2 MSTORE PUSH1 0x20 ADD PUSH32 0x506179666C75656E636500000000000000000000000000000000000000000000 DUP2 MSTORE POP PUSH1 0x40 MLOAD DUP1 PUSH1 0x40 ADD PUSH1 0x40 MSTORE DUP1 PUSH1 0x1 DUP2 MSTORE PUSH1 0x20 ADD PUSH32 0x3100000000000000000000000000000000000000000000000000000000000000 DUP2 MSTORE POP CALLER PUSH1 0x0 PUSH20 0xFFFFFFFFFFFFFFFFFFFFFFFFFFFFFFFFFFFFFFFF AND DUP2 PUSH20 0xFFFFFFFFFFFFFFFFFFFFFFFFFFFFFFFFFFFFFFFF AND SUB PUSH3 0x11F JUMPI PUSH1 0x0 PUSH1 0x40 MLOAD PUSH32 0x1E4FBDF700000000000000000000000000000000000000000000000000000000 DUP2 MSTORE PUSH1 0x4 ADD PUSH3 0x116 SWAP2 SWAP1 PUSH3 0x507 JUMP JUMPDEST PUSH1 0x40 MLOAD DUP1 SWAP2 SUB SWAP1 REVERT JUMPDEST PUSH3 0x130 DUP2 PUSH3 0x231 PUSH1 0x20 SHL PUSH1 0x20 SHR JUMP JUMPDEST POP PUSH1 0x1 PUSH1 0x2 DUP2 SWAP1 SSTORE POP PUSH3 0x14F PUSH1 0x3 DUP4 PUSH3 0x26A PUSH1 0x20 SHL SWAP1 SWAP2 SWAP1 PUSH1 0x20 SHR JUMP JUMPDEST PUSH2 0x120 DUP2 DUP2 MSTORE POP POP PUSH3 0x16D PUSH1 0x4 DUP3 PUSH3 0x26A PUSH1 0x20 SHL SWAP1 SWAP2 SWAP1 PUSH1 0x20 SHR JUMP JUMPDEST PUSH2 0x140 DUP2 DUP2 MSTORE POP POP DUP2 DUP1 MLOAD SWAP1 PUSH1 0x20 ADD KECCAK256 PUSH1 0xE0 DUP2 DUP2 MSTORE POP POP DUP1 DUP1 MLOAD SWAP1 PUSH1 0x20 ADD KECCAK256 PUSH2 0x100 DUP2 DUP2 MSTORE POP POP CHAINID PUSH1 0xA0 DUP2 DUP2 MSTORE POP POP PUSH3 0x1AC PUSH3 0x2C2 PUSH1 0x20 SHL PUSH1 0x20 SHR JUMP JUMPDEST PUSH1 0x80 DUP2 DUP2 MSTORE POP POP ADDRESS PUSH20 0xFFFFFFFFFFFFFFFFFFFFFFFFFFFFFFFFFFFFFFFF AND PUSH1 0xC0 DUP2 PUSH20 0xFFFFFFFFFFFFFFFFFFFFFFFFFFFFFFFFFFFFFFFF AND DUP2 MSTORE POP POP POP POP DUP1 PUSH1 0x8 PUSH1 0x0 PUSH2 0x100 EXP DUP2 SLOAD DUP2 PUSH20 0xFFFFFFFFFFFFFFFFFFFFFFFFFFFFFFFFFFFFFFFF MUL NOT AND SWAP1 DUP4 PUSH20 0xFFFFFFFFFFFFFFFFFFFFFFFFFFFFFFFFFFFFFFFF AND MUL OR SWAP1 SSTORE POP POP PUSH3 0xA63 JUMP JUMPDEST PUSH1 0x1 PUSH1 0x0 PUSH2 0x100 EXP DUP2 SLOAD SWAP1 PUSH20 0xFFFFFFFFFFFFFFFFFFFFFFFFFFFFFFFFFFFFFFFF MUL NOT AND SWAP1 SSTORE PUSH3 0x267 DUP2 PUSH3 0x31F PUSH1 0x20 SHL PUSH1 0x20 SHR JUMP JUMPDEST POP JUMP JUMPDEST PUSH1 0x0 PUSH1 0x20 DUP4 MLOAD LT ISZERO PUSH3 0x290 JUMPI PUSH3 0x288 DUP4 PUSH3 0x3E3 PUSH1 0x20 SHL PUSH1 0x20 SHR JUMP JUMPDEST SWAP1 POP PUSH3 0x2BC JUMP JUMPDEST DUP3 PUSH3 0x2A2 DUP4 PUSH3 0x450 PUSH1 0x20 SHL PUSH1 0x20 SHR JUMP JUMPDEST PUSH1 0x0 ADD SWAP1 DUP2 PUSH3 0x2B3 SWAP2 SWAP1 PUSH3 0x79E JUMP JUMPDEST POP PUSH1 0xFF PUSH1 0x0 SHL SWAP1 POP JUMPDEST SWAP3 SWAP2 POP POP JUMP JUMPDEST PUSH1 0x0 PUSH32 0x8B73C3C69BB8FE3D512ECC4CF759CC79239F7B179B0FFACAA9A75D522B39400F PUSH1 0xE0 MLOAD PUSH2 0x100 MLOAD CHAINID ADDRESS PUSH1 0x40 MLOAD PUSH1 0x20 ADD PUSH3 0x304 SWAP6 SWAP5 SWAP4 SWAP3 SWAP2 SWAP1 PUSH3 0x8B1 JUMP JUMPDEST PUSH1 0x40 MLOAD PUSH1 0x20 DUP2 DUP4 SUB SUB DUP2 MSTORE SWAP1 PUSH1 0x40 MSTORE DUP1 MLOAD SWAP1 PUSH1 0x20 ADD KECCAK256 SWAP1 POP SWAP1 JUMP JUMPDEST PUSH1 0x0 DUP1 PUSH1 0x0 SWAP1 SLOAD SWAP1 PUSH2 0x100 EXP SWAP1 DIV PUSH20 0xFFFFFFFFFFFFFFFFFFFFFFFFFFFFFFFFFFFFFFFF AND SWAP1 POP DUP2 PUSH1 0x0 DUP1 PUSH2 0x100 EXP DUP2 SLOAD DUP2 PUSH20 0xFFFFFFFFFFFFFFFFFFFFFFFFFFFFFFFFFFFFFFFF MUL NOT AND SWAP1 DUP4 PUSH20 0xFFFFFFFFFFFFFFFFFFFFFFFFFFFFFFFFFFFFFFFF AND MUL OR SWAP1 SSTORE POP DUP2 PUSH20 0xFFFFFFFFFFFFFFFFFFFFFFFFFFFFFFFFFFFFFFFF AND DUP2 PUSH20 0xFFFFFFFFFFFFFFFFFFFFFFFFFFFFFFFFFFFFFFFF AND PUSH32 0x8BE0079C531659141344CD1FD0A4F28419497F9722A3DAAFE3B4186F6B6457E0 PUSH1 0x40 MLOAD PUSH1 0x40 MLOAD DUP1 SWAP2 SUB SWAP1 LOG3 POP POP JUMP JUMPDEST PUSH1 0x0 DUP1 DUP3 SWAP1 POP PUSH1 0x1F DUP2 MLOAD GT ISZERO PUSH3 0x433 JUMPI DUP3 PUSH1 0x40 MLOAD PUSH32 0x305A27A900000000000000000000000000000000000000000000000000000000 DUP2 MSTORE PUSH1 0x4 ADD PUSH3 0x42A SWAP2 SWAP1 PUSH3 0x99D JUMP JUMPDEST PUSH1 0x40 MLOAD DUP1 SWAP2 SUB SWAP1 REVERT JUMPDEST DUP1 MLOAD DUP2 PUSH3 0x441 SWAP1 PUSH3 0x9F3 JUMP JUMPDEST PUSH1 0x0 SHR OR PUSH1 0x0 SHL SWAP2 POP POP SWAP2 SWAP1 POP JUMP JUMPDEST PUSH1 0x0 DUP2 SWAP1 POP SWAP2 SWAP1 POP JUMP JUMPDEST PUSH1 0x0 DUP1 REVERT JUMPDEST PUSH1 0x0 PUSH20 0xFFFFFFFFFFFFFFFFFFFFFFFFFFFFFFFFFFFFFFFF DUP3 AND SWAP1 POP SWAP2 SWAP1 POP JUMP JUMPDEST PUSH1 0x0 PUSH3 0x48C DUP3 PUSH3 0x45F JUMP JUMPDEST SWAP1 POP SWAP2 SWAP1 POP JUMP JUMPDEST PUSH3 0x49E DUP2 PUSH3 0x47F JUMP JUMPDEST DUP2 EQ PUSH3 0x4AA JUMPI PUSH1 0x0 DUP1 REVERT JUMPDEST POP JUMP JUMPDEST PUSH1 0x0 DUP2 MLOAD SWAP1 POP PUSH3 0x4BE DUP2 PUSH3 0x493 JUMP JUMPDEST SWAP3 SWAP2 POP POP JUMP JUMPDEST PUSH1 0x0 PUSH1 0x20 DUP3 DUP5 SUB SLT ISZERO PUSH3 0x4DD JUMPI PUSH3 0x4DC PUSH3 0x45A JUMP JUMPDEST JUMPDEST PUSH1 0x0 PUSH3 0x4ED DUP5 DUP3 DUP6 ADD PUSH3 0x4AD JUMP JUMPDEST SWAP2 POP POP SWAP3 SWAP2 POP POP JUMP JUMPDEST PUSH3 0x501 DUP2 PUSH3 0x47F JUMP JUMPDEST DUP3 MSTORE POP POP JUMP JUMPDEST PUSH1 0x0 PUSH1 0x20 DUP3 ADD SWAP1 POP PUSH3 0x51E PUSH1 0x0 DUP4 ADD DUP5 PUSH3 0x4F6 JUMP JUMPDEST SWAP3 SWAP2 POP POP JUMP JUMPDEST PUSH1 0x0 DUP2 MLOAD SWAP1 POP SWAP2 SWAP1 POP JUMP JUMPDEST PUSH32 0x4E487B7100000000000000000000000000000000000000000000000000000000 PUSH1 0x0 MSTORE PUSH1 0x41 PUSH1 0x4 MSTORE PUSH1 0x24 PUSH1 0x0 REVERT JUMPDEST PUSH32 0x4E487B7100000000000000000000000000000000000000000000000000000000 PUSH1 0x0 MSTORE PUSH1 0x22 PUSH1 0x4 MSTORE PUSH1 0x24 PUSH1 0x0 REVERT JUMPDEST PUSH1 0x0 PUSH1 0x2 DUP3 DIV SWAP1 POP PUSH1 0x1 DUP3 AND DUP1 PUSH3 0x5A6 JUMPI PUSH1 0x7F DUP3 AND SWAP2 POP JUMPDEST PUSH1 0x20 DUP3 LT DUP2 SUB PUSH3 0x5BC JUMPI PUSH3 0x5BB PUSH3 0x55E JUMP JUMPDEST JUMPDEST POP SWAP2 SWAP1 POP JUMP JUMPDEST PUSH1 0x0 DUP2 SWAP1 POP DUP2 PUSH1 0x0 MSTORE PUSH1 0x20 PUSH1 0x0 KECCAK256 SWAP1 POP SWAP2 SWAP1 POP JUMP JUMPDEST PUSH1 0x0 PUSH1 0x20 PUSH1 0x1F DUP4 ADD DIV SWAP1 POP SWAP2 SWAP1 POP JUMP JUMPDEST PUSH1 0x0 DUP3 DUP3 SHL SWAP1 POP SWAP3 SWAP2 POP POP JUMP JUMPDEST PUSH1 0x0 PUSH1 0x8 DUP4 MUL PUSH3 0x626 PUSH32 0xFFFFFFFFFFFFFFFFFFFFFFFFFFFFFFFFFFFFFFFFFFFFFFFFFFFFFFFFFFFFFFFF DUP3 PUSH3 0x5E7 JUMP JUMPDEST PUSH3 0x632 DUP7 DUP4 PUSH3 0x5E7 JUMP JUMPDEST SWAP6 POP DUP1 NOT DUP5 AND SWAP4 POP DUP1 DUP7 AND DUP5 OR SWAP3 POP POP POP SWAP4 SWAP3 POP POP POP JUMP JUMPDEST PUSH1 0x0 DUP2 SWAP1 POP SWAP2 SWAP1 POP JUMP JUMPDEST PUSH1 0x0 DUP2 SWAP1 POP SWAP2 SWAP1 POP JUMP JUMPDEST PUSH1 0x0 PUSH3 0x67F PUSH3 0x679 PUSH3 0x673 DUP5 PUSH3 0x64A JUMP JUMPDEST PUSH3 0x654 JUMP JUMPDEST PUSH3 0x64A JUMP JUMPDEST SWAP1 POP SWAP2 SWAP1 POP JUMP JUMPDEST PUSH1 0x0 DUP2 SWAP1 POP SWAP2 SWAP1 POP JUMP JUMPDEST PUSH3 0x69B DUP4 PUSH3 0x65E JUMP JUMPDEST PUSH3 0x6B3 PUSH3 0x6AA DUP3 PUSH3 0x686 JUMP JUMPDEST DUP5 DUP5 SLOAD PUSH3 0x5F4 JUMP JUMPDEST DUP3 SSTORE POP POP POP POP JUMP JUMPDEST PUSH1 0x0 SWAP1 JUMP JUMPDEST PUSH3 0x6CA PUSH3 0x6BB JUMP JUMPDEST PUSH3 0x6D7 DUP2 DUP5 DUP5 PUSH3 0x690 JUMP JUMPDEST POP POP POP JUMP JUMPDEST JUMPDEST DUP2 DUP2 LT ISZERO PUSH3 0x6FF JUMPI PUSH3 0x6F3 PUSH1 0x0 DUP3 PUSH3 0x6C0 JUMP JUMPDEST PUSH1 0x1 DUP2 ADD SWAP1 POP PUSH3 0x6DD JUMP JUMPDEST POP POP JUMP JUMPDEST PUSH1 0x1F DUP3 GT ISZERO PUSH3 0x74E JUMPI PUSH3 0x718 DUP2 PUSH3 0x5C2 JUMP JUMPDEST PUSH3 0x723 DUP5 PUSH3 0x5D7 JUMP JUMPDEST DUP2 ADD PUSH1 0x20 DUP6 LT ISZERO PUSH3 0x733 JUMPI DUP2 SWAP1 POP JUMPDEST PUSH3 0x74B PUSH3 0x742 DUP6 PUSH3 0x5D7 JUMP JUMPDEST DUP4 ADD DUP3 PUSH3 0x6DC JUMP JUMPDEST POP POP JUMPDEST POP POP POP JUMP JUMPDEST PUSH1 0x0 DUP3 DUP3 SHR SWAP1 POP SWAP3 SWAP2 POP POP JUMP JUMPDEST PUSH1 0x0 PUSH3 0x773 PUSH1 0x0 NOT DUP5 PUSH1 0x8 MUL PUSH3 0x753 JUMP JUMPDEST NOT DUP1 DUP4 AND SWAP2 POP POP SWAP3 SWAP2 POP POP JUMP JUMPDEST PUSH1 0x0 PUSH3 0x78E DUP4 DUP4 PUSH3 0x760 JUMP JUMPDEST SWAP2 POP DUP3 PUSH1 0x2 MUL DUP3 OR SWAP1 POP SWAP3 SWAP2 POP POP JUMP JUMPDEST PUSH3 0x7A9 DUP3 PUSH3 0x524 JUMP JUMPDEST PUSH8 0xFFFFFFFFFFFFFFFF DUP2 GT ISZERO PUSH3 0x7C5 JUMPI PUSH3 0x7C4 PUSH3 0x52F JUMP JUMPDEST JUMPDEST PUSH3 0x7D1 DUP3 SLOAD PUSH3 0x58D JUMP JUMPDEST PUSH3 0x7DE DUP3 DUP3 DUP6 PUSH3 0x703 JUMP JUMPDEST PUSH1 0x0 PUSH1 0x20 SWAP1 POP PUSH1 0x1F DUP4 GT PUSH1 0x1 DUP2 EQ PUSH3 0x816 JUMPI PUSH1 0x0 DUP5 ISZERO PUSH3 0x801 JUMPI DUP3 DUP8 ADD MLOAD SWAP1 POP JUMPDEST PUSH3 0x80D DUP6 DUP3 PUSH3 0x780 JUMP JUMPDEST DUP7 SSTORE POP PUSH3 0x87D JUMP JUMPDEST PUSH1 0x1F NOT DUP5 AND PUSH3 0x826 DUP7 PUSH3 0x5C2 JUMP JUMPDEST PUSH1 0x0 JUMPDEST DUP3 DUP2 LT ISZERO PUSH3 0x850 JUMPI DUP5 DUP10 ADD MLOAD DUP3 SSTORE PUSH1 0x1 DUP3 ADD SWAP2 POP PUSH1 0x20 DUP6 ADD SWAP5 POP PUSH1 0x20 DUP2 ADD SWAP1 POP PUSH3 0x829 JUMP JUMPDEST DUP7 DUP4 LT ISZERO PUSH3 0x870 JUMPI DUP5 DUP10 ADD MLOAD PUSH3 0x86C PUSH1 0x1F DUP10 AND DUP3 PUSH3 0x760 JUMP JUMPDEST DUP4 SSTORE POP JUMPDEST PUSH1 0x1 PUSH1 0x2 DUP9 MUL ADD DUP9 SSTORE POP POP POP JUMPDEST POP POP POP POP POP POP JUMP JUMPDEST PUSH1 0x0 DUP2 SWAP1 POP SWAP2 SWAP1 POP JUMP JUMPDEST PUSH3 0x89A DUP2 PUSH3 0x885 JUMP JUMPDEST DUP3 MSTORE POP POP JUMP JUMPDEST PUSH3 0x8AB DUP2 PUSH3 0x64A JUMP JUMPDEST DUP3 MSTORE POP POP JUMP JUMPDEST PUSH1 0x0 PUSH1 0xA0 DUP3 ADD SWAP1 POP PUSH3 0x8C8 PUSH1 0x0 DUP4 ADD DUP9 PUSH3 0x88F JUMP JUMPDEST PUSH3 0x8D7 PUSH1 0x20 DUP4 ADD DUP8 PUSH3 0x88F JUMP JUMPDEST PUSH3 0x8E6 PUSH1 0x40 DUP4 ADD DUP7 PUSH3 0x88F JUMP JUMPDEST PUSH3 0x8F5 PUSH1 0x60 DUP4 ADD DUP6 PUSH3 0x8A0 JUMP JUMPDEST PUSH3 0x904 PUSH1 0x80 DUP4 ADD DUP5 PUSH3 0x4F6 JUMP JUMPDEST SWAP7 SWAP6 POP POP POP POP POP POP JUMP JUMPDEST PUSH1 0x0 DUP3 DUP3 MSTORE PUSH1 0x20 DUP3 ADD SWAP1 POP SWAP3 SWAP2 POP POP JUMP JUMPDEST PUSH1 0x0 JUMPDEST DUP4 DUP2 LT ISZERO PUSH3 0x93F JUMPI DUP1 DUP3 ADD MLOAD DUP2 DUP5 ADD MSTORE PUSH1 0x20 DUP2 ADD SWAP1 POP PUSH3 0x922 JUMP JUMPDEST PUSH1 0x0 DUP5 DUP5 ADD MSTORE POP POP POP POP JUMP JUMPDEST PUSH1 0x0 PUSH1 0x1F NOT PUSH1 0x1F DUP4 ADD AND SWAP1 POP SWAP2 SWAP1 POP JUMP JUMPDEST PUSH1 0x0 PUSH3 0x969 DUP3 PUSH3 0x524 JUMP JUMPDEST PUSH3 0x975 DUP2 DUP6 PUSH3 0x90E JUMP JUMPDEST SWAP4 POP PUSH3 0x987 DUP2 DUP6 PUSH1 0x20 DUP7 ADD PUSH3 0x91F JUMP JUMPDEST PUSH3 0x992 DUP2 PUSH3 0x94B JUMP JUMPDEST DUP5 ADD SWAP2 POP POP SWAP3 SWAP2 POP POP JUMP JUMPDEST PUSH1 0x0 PUSH1 0x20 DUP3 ADD SWAP1 POP DUP2 DUP2 SUB PUSH1 0x0 DUP4 ADD MSTORE PUSH3 0x9B9 DUP2 DUP5 PUSH3 0x95C JUMP JUMPDEST SWAP1 POP SWAP3 SWAP2 POP POP JUMP JUMPDEST PUSH1 0x0 DUP2 MLOAD SWAP1 POP SWAP2 SWAP1 POP JUMP JUMPDEST PUSH1 0x0 DUP2 SWAP1 POP PUSH1 0x20 DUP3 ADD SWAP1 POP SWAP2 SWAP1 POP JUMP JUMPDEST PUSH1 0x0 PUSH3 0x9EA DUP3 MLOAD PUSH3 0x885 JUMP JUMPDEST DUP1 SWAP2 POP POP SWAP2 SWAP1 POP JUMP JUMPDEST PUSH1 0x0 PUSH3 0xA00 DUP3 PUSH3 0x9C1 JUMP JUMPDEST DUP3 PUSH3 0xA0C DUP5 PUSH3 0x9CC JUMP JUMPDEST SWAP1 POP PUSH3 0xA19 DUP2 PUSH3 0x9DC JUMP JUMPDEST SWAP3 POP PUSH1 0x20 DUP3 LT ISZERO PUSH3 0xA5C JUMPI PUSH3 0xA57 PUSH32 0xFFFFFFFFFFFFFFFFFFFFFFFFFFFFFFFFFFFFFFFFFFFFFFFFFFFFFFFFFFFFFFFF DUP4 PUSH1 0x20 SUB PUSH1 0x8 MUL PUSH3 0x5E7 JUMP JUMPDEST DUP4 AND SWAP3 POP JUMPDEST POP POP SWAP2 SWAP1 POP JUMP JUMPDEST PUSH1 0x80 MLOAD PUSH1 0xA0 MLOAD PUSH1 0xC0 MLOAD PUSH1 0xE0 MLOAD PUSH2 0x100 MLOAD PUSH2 0x120 MLOAD PUSH2 0x140 MLOAD PUSH2 0x2E19 PUSH3 0xABE PUSH1 0x0 CODECOPY PUSH1 0x0 PUSH2 0x15CB ADD MSTORE PUSH1 0x0 PUSH2 0x1590 ADD MSTORE PUSH1 0x0 PUSH2 0x1BE1 ADD MSTORE PUSH1 0x0 PUSH2 0x1BC0 ADD MSTORE PUSH1 0x0 PUSH2 0x1873 ADD MSTORE PUSH1 0x0 PUSH2 0x18C9 ADD MSTORE PUSH1 0x0 PUSH2 0x18F2 ADD MSTORE PUSH2 0x2E19 PUSH1 0x0 RETURN INVALID PUSH1 0x80 PUSH1 0x40 MSTORE PUSH1 0x4 CALLDATASIZE LT PUSH2 0x14F JUMPI PUSH1 0x0 CALLDATALOAD PUSH1 0xE0 SHR DUP1 PUSH4 0x8DA5CB5B GT PUSH2 0xB6 JUMPI DUP1 PUSH4 0xEA13689F GT PUSH2 0x6F JUMPI DUP1 PUSH4 0xEA13689F EQ PUSH2 0x46C JUMPI DUP1 PUSH4 0xEB47E011 EQ PUSH2 0x4A9 JUMPI DUP1 PUSH4 0xF23A6E61 EQ PUSH2 0x4E6 JUMPI DUP1 PUSH4 0xF2FDE38B EQ PUSH2 0x523 JUMPI DUP1 PUSH4 0xFE1FDDAA EQ PUSH2 0x54C JUMPI DUP1 PUSH4 0xFFB1500E EQ PUSH2 0x575 JUMPI PUSH2 0x156 JUMP JUMPDEST DUP1 PUSH4 0x8DA5CB5B EQ PUSH2 0x37D JUMPI DUP1 PUSH4 0xBC197C81 EQ PUSH2 0x3A8 JUMPI DUP1 PUSH4 0xC4385D76 EQ PUSH2 0x3E5 JUMPI DUP1 PUSH4 0xC8B5773D EQ PUSH2 0x40E JUMPI DUP1 PUSH4 0xC9C61EAB EQ PUSH2 0x437 JUMPI DUP1 PUSH4 0xE30C3978 EQ PUSH2 0x441 JUMPI PUSH2 0x156 JUMP JUMPDEST DUP1 PUSH4 0x4F18868A GT PUSH2 0x108 JUMPI DUP1 PUSH4 0x4F18868A EQ PUSH2 0x28F JUMPI DUP1 PUSH4 0x715018A6 EQ PUSH2 0x2B8 JUMPI DUP1 PUSH4 0x79BA5097 EQ PUSH2 0x2CF JUMPI DUP1 PUSH4 0x80C4020C EQ PUSH2 0x2E6 JUMPI DUP1 PUSH4 0x84B0196E EQ PUSH2 0x30F JUMPI DUP1 PUSH4 0x89F4B317 EQ PUSH2 0x340 JUMPI PUSH2 0x156 JUMP JUMPDEST DUP1 PUSH4 0x1FFC9A7 EQ PUSH2 0x15B JUMPI DUP1 PUSH4 0x1090BAFA EQ PUSH2 0x198 JUMPI DUP1 PUSH4 0x150B7A02 EQ PUSH2 0x1D5 JUMPI DUP1 PUSH4 0x2394C348 EQ PUSH2 0x212 JUMPI DUP1 PUSH4 0x2C1E816D EQ PUSH2 0x23B JUMPI DUP1 PUSH4 0x3408E470 EQ PUSH2 0x264 JUMPI PUSH2 0x156 JUMP JUMPDEST CALLDATASIZE PUSH2 0x156 JUMPI STOP JUMPDEST PUSH1 0x0 DUP1 REVERT JUMPDEST CALLVALUE DUP1 ISZERO PUSH2 0x167 JUMPI PUSH1 0x0 DUP1 REVERT JUMPDEST POP PUSH2 0x182 PUSH1 0x4 DUP1 CALLDATASIZE SUB DUP2 ADD SWAP1 PUSH2 0x17D SWAP2 SWAP1 PUSH2 0x1DE1 JUMP JUMPDEST PUSH2 0x5B2 JUMP JUMPDEST PUSH1 0x40 MLOAD PUSH2 0x18F SWAP2 SWAP1 PUSH2 0x1E29 JUMP JUMPDEST PUSH1 0x40 MLOAD DUP1 SWAP2 SUB SWAP1 RETURN JUMPDEST CALLVALUE DUP1 ISZERO PUSH2 0x1A4 JUMPI PUSH1 0x0 DUP1 REVERT JUMPDEST POP PUSH2 0x1BF PUSH1 0x4 DUP1 CALLDATASIZE SUB DUP2 ADD SWAP1 PUSH2 0x1BA SWAP2 SWAP1 PUSH2 0x2171 JUMP JUMPDEST PUSH2 0x6EC JUMP JUMPDEST PUSH1 0x40 MLOAD PUSH2 0x1CC SWAP2 SWAP1 PUSH2 0x1E29 JUMP JUMPDEST PUSH1 0x40 MLOAD DUP1 SWAP2 SUB SWAP1 RETURN JUMPDEST CALLVALUE DUP1 ISZERO PUSH2 0x1E1 JUMPI PUSH1 0x0 DUP1 REVERT JUMPDEST POP PUSH2 0x1FC PUSH1 0x4 DUP1 CALLDATASIZE SUB DUP2 ADD SWAP1 PUSH2 0x1F7 SWAP2 SWAP1 PUSH2 0x2249 JUMP JUMPDEST PUSH2 0x702 JUMP JUMPDEST PUSH1 0x40 MLOAD PUSH2 0x209 SWAP2 SWAP1 PUSH2 0x22E0 JUMP JUMPDEST PUSH1 0x40 MLOAD DUP1 SWAP2 SUB SWAP1 RETURN JUMPDEST CALLVALUE DUP1 ISZERO PUSH2 0x21E JUMPI PUSH1 0x0 DUP1 REVERT JUMPDEST POP PUSH2 0x239 PUSH1 0x4 DUP1 CALLDATASIZE SUB DUP2 ADD SWAP1 PUSH2 0x234 SWAP2 SWAP1 PUSH2 0x22FB JUMP JUMPDEST PUSH2 0x717 JUMP JUMPDEST STOP JUMPDEST CALLVALUE DUP1 ISZERO PUSH2 0x247 JUMPI PUSH1 0x0 DUP1 REVERT JUMPDEST POP PUSH2 0x262 PUSH1 0x4 DUP1 CALLDATASIZE SUB DUP2 ADD SWAP1 PUSH2 0x25D SWAP2 SWAP1 PUSH2 0x2357 JUMP JUMPDEST PUSH2 0x780 JUMP JUMPDEST STOP JUMPDEST CALLVALUE DUP1 ISZERO PUSH2 0x270 JUMPI PUSH1 0x0 DUP1 REVERT JUMPDEST POP PUSH2 0x279 PUSH2 0x7CC JUMP JUMPDEST PUSH1 0x40 MLOAD PUSH2 0x286 SWAP2 SWAP1 PUSH2 0x2393 JUMP JUMPDEST PUSH1 0x40 MLOAD DUP1 SWAP2 SUB SWAP1 RETURN JUMPDEST CALLVALUE DUP1 ISZERO PUSH2 0x29B JUMPI PUSH1 0x0 DUP1 REVERT JUMPDEST POP PUSH2 0x2B6 PUSH1 0x4 DUP1 CALLDATASIZE SUB DUP2 ADD SWAP1 PUSH2 0x2B1 SWAP2 SWAP1 PUSH2 0x23AE JUMP JUMPDEST PUSH2 0x7D4 JUMP JUMPDEST STOP JUMPDEST CALLVALUE DUP1 ISZERO PUSH2 0x2C4 JUMPI PUSH1 0x0 DUP1 REVERT JUMPDEST POP PUSH2 0x2CD PUSH2 0x914 JUMP JUMPDEST STOP JUMPDEST CALLVALUE DUP1 ISZERO PUSH2 0x2DB JUMPI PUSH1 0x0 DUP1 REVERT JUMPDEST POP PUSH2 0x2E4 PUSH2 0x928 JUMP JUMPDEST STOP JUMPDEST CALLVALUE DUP1 ISZERO PUSH2 0x2F2 JUMPI PUSH1 0x0 DUP1 REVERT JUMPDEST POP PUSH2 0x30D PUSH1 0x4 DUP1 CALLDATASIZE SUB DUP2 ADD SWAP1 PUSH2 0x308 SWAP2 SWAP1 PUSH2 0x2171 JUMP JUMPDEST PUSH2 0x9B7 JUMP JUMPDEST STOP JUMPDEST CALLVALUE DUP1 ISZERO PUSH2 0x31B JUMPI PUSH1 0x0 DUP1 REVERT JUMPDEST POP PUSH2 0x324 PUSH2 0xAFD JUMP JUMPDEST PUSH1 0x40 MLOAD PUSH2 0x337 SWAP8 SWAP7 SWAP6 SWAP5 SWAP4 SWAP3 SWAP2 SWAP1 PUSH2 0x25D1 JUMP JUMPDEST PUSH1 0x40 MLOAD DUP1 SWAP2 SUB SWAP1 RETURN JUMPDEST CALLVALUE DUP1 ISZERO PUSH2 0x34C JUMPI PUSH1 0x0 DUP1 REVERT JUMPDEST POP PUSH2 0x367 PUSH1 0x4 DUP1 CALLDATASIZE SUB DUP2 ADD SWAP1 PUSH2 0x362 SWAP2 SWAP1 PUSH2 0x22FB JUMP JUMPDEST PUSH2 0xBA7 JUMP JUMPDEST PUSH1 0x40 MLOAD PUSH2 0x374 SWAP2 SWAP1 PUSH2 0x2393 JUMP JUMPDEST PUSH1 0x40 MLOAD DUP1 SWAP2 SUB SWAP1 RETURN JUMPDEST CALLVALUE DUP1 ISZERO PUSH2 0x389 JUMPI PUSH1 0x0 DUP1 REVERT JUMPDEST POP PUSH2 0x392 PUSH2 0xC10 JUMP JUMPDEST PUSH1 0x40 MLOAD PUSH2 0x39F SWAP2 SWAP1 PUSH2 0x2655 JUMP JUMPDEST PUSH1 0x40 MLOAD DUP1 SWAP2 SUB SWAP1 RETURN JUMPDEST CALLVALUE DUP1 ISZERO PUSH2 0x3B4 JUMPI PUSH1 0x0 DUP1 REVERT JUMPDEST POP PUSH2 0x3CF PUSH1 0x4 DUP1 CALLDATASIZE SUB DUP2 ADD SWAP1 PUSH2 0x3CA SWAP2 SWAP1 PUSH2 0x26C6 JUMP JUMPDEST PUSH2 0xC39 JUMP JUMPDEST PUSH1 0x40 MLOAD PUSH2 0x3DC SWAP2 SWAP1 PUSH2 0x22E0 JUMP JUMPDEST PUSH1 0x40 MLOAD DUP1 SWAP2 SUB SWAP1 RETURN JUMPDEST CALLVALUE DUP1 ISZERO PUSH2 0x3F1 JUMPI PUSH1 0x0 DUP1 REVERT JUMPDEST POP PUSH2 0x40C PUSH1 0x4 DUP1 CALLDATASIZE SUB DUP2 ADD SWAP1 PUSH2 0x407 SWAP2 SWAP1 PUSH2 0x23AE JUMP JUMPDEST PUSH2 0xC51 JUMP JUMPDEST STOP JUMPDEST CALLVALUE DUP1 ISZERO PUSH2 0x41A JUMPI PUSH1 0x0 DUP1 REVERT JUMPDEST POP PUSH2 0x435 PUSH1 0x4 DUP1 CALLDATASIZE SUB DUP2 ADD SWAP1 PUSH2 0x430 SWAP2 SWAP1 PUSH2 0x2357 JUMP JUMPDEST PUSH2 0xF49 JUMP JUMPDEST STOP JUMPDEST PUSH2 0x43F PUSH2 0xFFE JUMP JUMPDEST STOP JUMPDEST CALLVALUE DUP1 ISZERO PUSH2 0x44D JUMPI PUSH1 0x0 DUP1 REVERT JUMPDEST POP PUSH2 0x456 PUSH2 0x1000 JUMP JUMPDEST PUSH1 0x40 MLOAD PUSH2 0x463 SWAP2 SWAP1 PUSH2 0x2655 JUMP JUMPDEST PUSH1 0x40 MLOAD DUP1 SWAP2 SUB SWAP1 RETURN JUMPDEST CALLVALUE DUP1 ISZERO PUSH2 0x478 JUMPI PUSH1 0x0 DUP1 REVERT JUMPDEST POP PUSH2 0x493 PUSH1 0x4 DUP1 CALLDATASIZE SUB DUP2 ADD SWAP1 PUSH2 0x48E SWAP2 SWAP1 PUSH2 0x27A2 JUMP JUMPDEST PUSH2 0x102A JUMP JUMPDEST PUSH1 0x40 MLOAD PUSH2 0x4A0 SWAP2 SWAP1 PUSH2 0x2655 JUMP JUMPDEST PUSH1 0x40 MLOAD DUP1 SWAP2 SUB SWAP1 RETURN JUMPDEST CALLVALUE DUP1 ISZERO PUSH2 0x4B5 JUMPI PUSH1 0x0 DUP1 REVERT JUMPDEST POP PUSH2 0x4D0 PUSH1 0x4 DUP1 CALLDATASIZE SUB DUP2 ADD SWAP1 PUSH2 0x4CB SWAP2 SWAP1 PUSH2 0x22FB JUMP JUMPDEST PUSH2 0x1073 JUMP JUMPDEST PUSH1 0x40 MLOAD PUSH2 0x4DD SWAP2 SWAP1 PUSH2 0x2393 JUMP JUMPDEST PUSH1 0x40 MLOAD DUP1 SWAP2 SUB SWAP1 RETURN JUMPDEST CALLVALUE DUP1 ISZERO PUSH2 0x4F2 JUMPI PUSH1 0x0 DUP1 REVERT JUMPDEST POP PUSH2 0x50D PUSH1 0x4 DUP1 CALLDATASIZE SUB DUP2 ADD SWAP1 PUSH2 0x508 SWAP2 SWAP1 PUSH2 0x27EB JUMP JUMPDEST PUSH2 0x10AE JUMP JUMPDEST PUSH1 0x40 MLOAD PUSH2 0x51A SWAP2 SWAP1 PUSH2 0x22E0 JUMP JUMPDEST PUSH1 0x40 MLOAD DUP1 SWAP2 SUB SWAP1 RETURN JUMPDEST CALLVALUE DUP1 ISZERO PUSH2 0x52F JUMPI PUSH1 0x0 DUP1 REVERT JUMPDEST POP PUSH2 0x54A PUSH1 0x4 DUP1 CALLDATASIZE SUB DUP2 ADD SWAP1 PUSH2 0x545 SWAP2 SWAP1 PUSH2 0x2357 JUMP JUMPDEST PUSH2 0x10C4 JUMP JUMPDEST STOP JUMPDEST CALLVALUE DUP1 ISZERO PUSH2 0x558 JUMPI PUSH1 0x0 DUP1 REVERT JUMPDEST POP PUSH2 0x573 PUSH1 0x4 DUP1 CALLDATASIZE SUB DUP2 ADD SWAP1 PUSH2 0x56E SWAP2 SWAP1 PUSH2 0x2885 JUMP JUMPDEST PUSH2 0x1171 JUMP JUMPDEST STOP JUMPDEST CALLVALUE DUP1 ISZERO PUSH2 0x581 JUMPI PUSH1 0x0 DUP1 REVERT JUMPDEST POP PUSH2 0x59C PUSH1 0x4 DUP1 CALLDATASIZE SUB DUP2 ADD SWAP1 PUSH2 0x597 SWAP2 SWAP1 PUSH2 0x27A2 JUMP JUMPDEST PUSH2 0x118B JUMP JUMPDEST PUSH1 0x40 MLOAD PUSH2 0x5A9 SWAP2 SWAP1 PUSH2 0x2393 JUMP JUMPDEST PUSH1 0x40 MLOAD DUP1 SWAP2 SUB SWAP1 RETURN JUMPDEST PUSH1 0x0 PUSH32 0x4E2312E000000000000000000000000000000000000000000000000000000000 PUSH28 0xFFFFFFFFFFFFFFFFFFFFFFFFFFFFFFFFFFFFFFFFFFFFFFFFFFFFFFFF NOT AND DUP3 PUSH28 0xFFFFFFFFFFFFFFFFFFFFFFFFFFFFFFFFFFFFFFFFFFFFFFFFFFFFFFFF NOT AND EQ DUP1 PUSH2 0x67D JUMPI POP PUSH32 0x150B7A0200000000000000000000000000000000000000000000000000000000 PUSH28 0xFFFFFFFFFFFFFFFFFFFFFFFFFFFFFFFFFFFFFFFFFFFFFFFFFFFFFFFF NOT AND DUP3 PUSH28 0xFFFFFFFFFFFFFFFFFFFFFFFFFFFFFFFFFFFFFFFFFFFFFFFFFFFFFFFF NOT AND EQ JUMPDEST DUP1 PUSH2 0x6E5 JUMPI POP PUSH32 0x1FFC9A700000000000000000000000000000000000000000000000000000000 PUSH28 0xFFFFFFFFFFFFFFFFFFFFFFFFFFFFFFFFFFFFFFFFFFFFFFFFFFFFFFFF NOT AND DUP3 PUSH28 0xFFFFFFFFFFFFFFFFFFFFFFFFFFFFFFFFFFFFFFFFFFFFFFFFFFFFFFFF NOT AND EQ JUMPDEST SWAP1 POP SWAP2 SWAP1 POP JUMP JUMPDEST PUSH1 0x0 PUSH2 0x6F8 DUP4 DUP4 PUSH2 0x11BF JUMP JUMPDEST PUSH1 0x1 SWAP1 POP SWAP3 SWAP2 POP POP JUMP JUMPDEST PUSH1 0x0 PUSH4 0x150B7A02 PUSH1 0xE0 SHL SWAP1 POP SWAP6 SWAP5 POP POP POP POP POP JUMP JUMPDEST PUSH2 0x71F PUSH2 0x12D2 JUMP JUMPDEST DUP1 PUSH1 0x9 DUP4 PUSH1 0x40 MLOAD PUSH2 0x730 SWAP2 SWAP1 PUSH2 0x2944 JUMP JUMPDEST SWAP1 DUP2 MSTORE PUSH1 0x20 ADD PUSH1 0x40 MLOAD DUP1 SWAP2 SUB SWAP1 KECCAK256 PUSH1 0x0 PUSH2 0x100 EXP DUP2 SLOAD DUP2 PUSH20 0xFFFFFFFFFFFFFFFFFFFFFFFFFFFFFFFFFFFFFFFF MUL NOT AND SWAP1 DUP4 PUSH20 0xFFFFFFFFFFFFFFFFFFFFFFFFFFFFFFFFFFFFFFFF AND MUL OR SWAP1 SSTORE POP POP POP JUMP JUMPDEST PUSH2 0x788 PUSH2 0x12D2 JUMP JUMPDEST DUP1 PUSH1 0x8 PUSH1 0x0 PUSH2 0x100 EXP DUP2 SLOAD DUP2 PUSH20 0xFFFFFFFFFFFFFFFFFFFFFFFFFFFFFFFFFFFFFFFF MUL NOT AND SWAP1 DUP4 PUSH20 0xFFFFFFFFFFFFFFFFFFFFFFFFFFFFFFFFFFFFFFFF AND MUL OR SWAP1 SSTORE POP POP JUMP JUMPDEST PUSH1 0x0 CHAINID SWAP1 POP SWAP1 JUMP JUMPDEST PUSH2 0x7DC PUSH2 0x1359 JUMP JUMPDEST DUP4 PUSH1 0x0 PUSH20 0xFFFFFFFFFFFFFFFFFFFFFFFFFFFFFFFFFFFFFFFF AND PUSH1 0x9 DUP3 PUSH1 0x40 MLOAD PUSH2 0x805 SWAP2 SWAP1 PUSH2 0x2944 JUMP JUMPDEST SWAP1 DUP2 MSTORE PUSH1 0x20 ADD PUSH1 0x40 MLOAD DUP1 SWAP2 SUB SWAP1 KECCAK256 PUSH1 0x0 SWAP1 SLOAD SWAP1 PUSH2 0x100 EXP SWAP1 DIV PUSH20 0xFFFFFFFFFFFFFFFFFFFFFFFFFFFFFFFFFFFFFFFF AND PUSH20 0xFFFFFFFFFFFFFFFFFFFFFFFFFFFFFFFFFFFFFFFF AND EQ ISZERO DUP1 ISZERO PUSH2 0x8C2 JUMPI POP PUSH1 0x9 DUP2 PUSH1 0x40 MLOAD PUSH2 0x863 SWAP2 SWAP1 PUSH2 0x2944 JUMP JUMPDEST SWAP1 DUP2 MSTORE PUSH1 0x20 ADD PUSH1 0x40 MLOAD DUP1 SWAP2 SUB SWAP1 KECCAK256 PUSH1 0x0 SWAP1 SLOAD SWAP1 PUSH2 0x100 EXP SWAP1 DIV PUSH20 0xFFFFFFFFFFFFFFFFFFFFFFFFFFFFFFFFFFFFFFFF AND PUSH20 0xFFFFFFFFFFFFFFFFFFFFFFFFFFFFFFFFFFFFFFFF AND CALLER PUSH20 0xFFFFFFFFFFFFFFFFFFFFFFFFFFFFFFFFFFFFFFFF AND EQ ISZERO JUMPDEST ISZERO PUSH2 0x8F9 JUMPI PUSH1 0x40 MLOAD PUSH32 0x8062D7400000000000000000000000000000000000000000000000000000000 DUP2 MSTORE PUSH1 0x4 ADD PUSH1 0x40 MLOAD DUP1 SWAP2 SUB SWAP1 REVERT JUMPDEST PUSH2 0x905 DUP6 DUP6 DUP6 DUP6 PUSH2 0x139D JUMP JUMPDEST POP PUSH2 0x90E PUSH2 0x1544 JUMP JUMPDEST POP POP POP POP JUMP JUMPDEST PUSH2 0x91C PUSH2 0x12D2 JUMP JUMPDEST PUSH2 0x926 PUSH1 0x0 PUSH2 0x154E JUMP JUMPDEST JUMP JUMPDEST PUSH1 0x0 PUSH2 0x932 PUSH2 0x157F JUMP JUMPDEST SWAP1 POP DUP1 PUSH20 0xFFFFFFFFFFFFFFFFFFFFFFFFFFFFFFFFFFFFFFFF AND PUSH2 0x953 PUSH2 0x1000 JUMP JUMPDEST PUSH20 0xFFFFFFFFFFFFFFFFFFFFFFFFFFFFFFFFFFFFFFFF AND EQ PUSH2 0x9AB JUMPI DUP1 PUSH1 0x40 MLOAD PUSH32 0x118CDAA700000000000000000000000000000000000000000000000000000000 DUP2 MSTORE PUSH1 0x4 ADD PUSH2 0x9A2 SWAP2 SWAP1 PUSH2 0x2655 JUMP JUMPDEST PUSH1 0x40 MLOAD DUP1 SWAP2 SUB SWAP1 REVERT JUMPDEST PUSH2 0x9B4 DUP2 PUSH2 0x154E JUMP JUMPDEST POP JUMP JUMPDEST PUSH2 0x9BF PUSH2 0x1359 JUMP JUMPDEST PUSH2 0x9C9 DUP3 DUP3 PUSH2 0x11BF JUMP JUMPDEST DUP1 PUSH1 0x80 ADD MLOAD PUSH1 0xA DUP3 PUSH1 0x0 ADD MLOAD PUSH1 0x40 MLOAD PUSH2 0x9E2 SWAP2 SWAP1 PUSH2 0x2944 JUMP JUMPDEST SWAP1 DUP2 MSTORE PUSH1 0x20 ADD PUSH1 0x40 MLOAD DUP1 SWAP2 SUB SWAP1 KECCAK256 PUSH1 0x0 DUP4 PUSH1 0x60 ADD MLOAD PUSH20 0xFFFFFFFFFFFFFFFFFFFFFFFFFFFFFFFFFFFFFFFF AND PUSH20 0xFFFFFFFFFFFFFFFFFFFFFFFFFFFFFFFFFFFFFFFF AND DUP2 MSTORE PUSH1 0x20 ADD SWAP1 DUP2 MSTORE PUSH1 0x20 ADD PUSH1 0x0 KECCAK256 SLOAD LT PUSH2 0xA69 JUMPI PUSH1 0x40 MLOAD PUSH32 0xE4CA4C0B00000000000000000000000000000000000000000000000000000000 DUP2 MSTORE PUSH1 0x4 ADD PUSH1 0x40 MLOAD DUP1 SWAP2 SUB SWAP1 REVERT JUMPDEST DUP1 PUSH1 0x80 ADD MLOAD PUSH1 0xA DUP3 PUSH1 0x0 ADD MLOAD PUSH1 0x40 MLOAD PUSH2 0xA82 SWAP2 SWAP1 PUSH2 0x2944 JUMP JUMPDEST SWAP1 DUP2 MSTORE PUSH1 0x20 ADD PUSH1 0x40 MLOAD DUP1 SWAP2 SUB SWAP1 KECCAK256 PUSH1 0x0 DUP4 PUSH1 0x60 ADD MLOAD PUSH20 0xFFFFFFFFFFFFFFFFFFFFFFFFFFFFFFFFFFFFFFFF AND PUSH20 0xFFFFFFFFFFFFFFFFFFFFFFFFFFFFFFFFFFFFFFFF AND DUP2 MSTORE PUSH1 0x20 ADD SWAP1 DUP2 MSTORE PUSH1 0x20 ADD PUSH1 0x0 KECCAK256 DUP2 SWAP1 SSTORE POP PUSH2 0xAF1 DUP2 PUSH1 0x0 ADD MLOAD DUP3 PUSH1 0x60 ADD MLOAD DUP4 PUSH1 0x20 ADD MLOAD DUP5 PUSH1 0x80 ADD MLOAD PUSH2 0x139D JUMP JUMPDEST PUSH2 0xAF9 PUSH2 0x1544 JUMP JUMPDEST POP POP JUMP JUMPDEST PUSH1 0x0 PUSH1 0x60 DUP1 PUSH1 0x0 DUP1 PUSH1 0x0 PUSH1 0x60 PUSH2 0xB11 PUSH2 0x1587 JUMP JUMPDEST PUSH2 0xB19 PUSH2 0x15C2 JUMP JUMPDEST CHAINID ADDRESS PUSH1 0x0 DUP1 SHL PUSH1 0x0 PUSH8 0xFFFFFFFFFFFFFFFF DUP2 GT ISZERO PUSH2 0xB3A JUMPI PUSH2 0xB39 PUSH2 0x1E5F JUMP JUMPDEST JUMPDEST PUSH1 0x40 MLOAD SWAP1 DUP1 DUP3 MSTORE DUP1 PUSH1 0x20 MUL PUSH1 0x20 ADD DUP3 ADD PUSH1 0x40 MSTORE DUP1 ISZERO PUSH2 0xB68 JUMPI DUP2 PUSH1 0x20 ADD PUSH1 0x20 DUP3 MUL DUP1 CALLDATASIZE DUP4 CALLDATACOPY DUP1 DUP3 ADD SWAP2 POP POP SWAP1 POP JUMPDEST POP PUSH32 0xF00000000000000000000000000000000000000000000000000000000000000 SWAP6 SWAP5 SWAP4 SWAP3 SWAP2 SWAP1 SWAP7 POP SWAP7 POP SWAP7 POP SWAP7 POP SWAP7 POP SWAP7 POP SWAP7 POP SWAP1 SWAP2 SWAP3 SWAP4 SWAP5 SWAP6 SWAP7 JUMP JUMPDEST PUSH1 0x0 PUSH1 0x6 DUP4 PUSH1 0x40 MLOAD PUSH2 0xBB9 SWAP2 SWAP1 PUSH2 0x2944 JUMP JUMPDEST SWAP1 DUP2 MSTORE PUSH1 0x20 ADD PUSH1 0x40 MLOAD DUP1 SWAP2 SUB SWAP1 KECCAK256 PUSH1 0x1 ADD PUSH1 0x0 DUP4 PUSH20 0xFFFFFFFFFFFFFFFFFFFFFFFFFFFFFFFFFFFFFFFF AND PUSH20 0xFFFFFFFFFFFFFFFFFFFFFFFFFFFFFFFFFFFFFFFF AND DUP2 MSTORE PUSH1 0x20 ADD SWAP1 DUP2 MSTORE PUSH1 0x20 ADD PUSH1 0x0 KECCAK256 SLOAD SWAP1 POP SWAP3 SWAP2 POP POP JUMP JUMPDEST PUSH1 0x0 DUP1 PUSH1 0x0 SWAP1 SLOAD SWAP1 PUSH2 0x100 EXP SWAP1 DIV PUSH20 0xFFFFFFFFFFFFFFFFFFFFFFFFFFFFFFFFFFFFFFFF AND SWAP1 POP SWAP1 JUMP JUMPDEST PUSH1 0x0 PUSH4 0xBC197C81 PUSH1 0xE0 SHL SWAP1 POP SWAP9 SWAP8 POP POP POP POP POP POP POP POP JUMP JUMPDEST PUSH2 0xC59 PUSH2 0x1359 JUMP JUMPDEST DUP4 PUSH1 0x0 PUSH20 0xFFFFFFFFFFFFFFFFFFFFFFFFFFFFFFFFFFFFFFFF AND PUSH1 0x9 DUP3 PUSH1 0x40 MLOAD PUSH2 0xC82 SWAP2 SWAP1 PUSH2 0x2944 JUMP JUMPDEST SWAP1 DUP2 MSTORE PUSH1 0x20 ADD PUSH1 0x40 MLOAD DUP1 SWAP2 SUB SWAP1 KECCAK256 PUSH1 0x0 SWAP1 SLOAD SWAP1 PUSH2 0x100 EXP SWAP1 DIV PUSH20 0xFFFFFFFFFFFFFFFFFFFFFFFFFFFFFFFFFFFFFFFF AND PUSH20 0xFFFFFFFFFFFFFFFFFFFFFFFFFFFFFFFFFFFFFFFF AND EQ ISZERO DUP1 ISZERO PUSH2 0xD3F JUMPI POP PUSH1 0x9 DUP2 PUSH1 0x40 MLOAD PUSH2 0xCE0 SWAP2 SWAP1 PUSH2 0x2944 JUMP JUMPDEST SWAP1 DUP2 MSTORE PUSH1 0x20 ADD PUSH1 0x40 MLOAD DUP1 SWAP2 SUB SWAP1 KECCAK256 PUSH1 0x0 SWAP1 SLOAD SWAP1 PUSH2 0x100 EXP SWAP1 DIV PUSH20 0xFFFFFFFFFFFFFFFFFFFFFFFFFFFFFFFFFFFFFFFF AND PUSH20 0xFFFFFFFFFFFFFFFFFFFFFFFFFFFFFFFFFFFFFFFF AND CALLER PUSH20 0xFFFFFFFFFFFFFFFFFFFFFFFFFFFFFFFFFFFFFFFF AND EQ ISZERO JUMPDEST ISZERO PUSH2 0xD76 JUMPI PUSH1 0x40 MLOAD PUSH32 0x8062D7400000000000000000000000000000000000000000000000000000000 DUP2 MSTORE PUSH1 0x4 ADD PUSH1 0x40 MLOAD DUP1 SWAP2 SUB SWAP1 REVERT JUMPDEST DUP4 DUP1 PUSH20 0xFFFFFFFFFFFFFFFFFFFFFFFFFFFFFFFFFFFFFFFF AND CALLER PUSH20 0xFFFFFFFFFFFFFFFFFFFFFFFFFFFFFFFFFFFFFFFF AND EQ PUSH2 0xDDC JUMPI PUSH1 0x40 MLOAD PUSH32 0xCDF1F8F900000000000000000000000000000000000000000000000000000000 DUP2 MSTORE PUSH1 0x4 ADD PUSH1 0x40 MLOAD DUP1 SWAP2 SUB SWAP1 REVERT JUMPDEST PUSH1 0x0 PUSH20 0xFFFFFFFFFFFFFFFFFFFFFFFFFFFFFFFFFFFFFFFF AND PUSH1 0x9 DUP8 PUSH1 0x40 MLOAD PUSH2 0xE04 SWAP2 SWAP1 PUSH2 0x2944 JUMP JUMPDEST SWAP1 DUP2 MSTORE PUSH1 0x20 ADD PUSH1 0x40 MLOAD DUP1 SWAP2 SUB SWAP1 KECCAK256 PUSH1 0x0 SWAP1 SLOAD SWAP1 PUSH2 0x100 EXP SWAP1 DIV PUSH20 0xFFFFFFFFFFFFFFFFFFFFFFFFFFFFFFFFFFFFFFFF AND PUSH20 0xFFFFFFFFFFFFFFFFFFFFFFFFFFFFFFFFFFFFFFFF AND SUB PUSH2 0xEAC JUMPI DUP5 PUSH1 0x9 DUP8 PUSH1 0x40 MLOAD PUSH2 0xE5F SWAP2 SWAP1 PUSH2 0x2944 JUMP JUMPDEST SWAP1 DUP2 MSTORE PUSH1 0x20 ADD PUSH1 0x40 MLOAD DUP1 SWAP2 SUB SWAP1 KECCAK256 PUSH1 0x0 PUSH2 0x100 EXP DUP2 SLOAD DUP2 PUSH20 0xFFFFFFFFFFFFFFFFFFFFFFFFFFFFFFFFFFFFFFFF MUL NOT AND SWAP1 DUP4 PUSH20 0xFFFFFFFFFFFFFFFFFFFFFFFFFFFFFFFFFFFFFFFF AND MUL OR SWAP1 SSTORE POP JUMPDEST DUP4 PUSH20 0xFFFFFFFFFFFFFFFFFFFFFFFFFFFFFFFFFFFFFFFF AND PUSH4 0x23B872DD DUP7 ADDRESS DUP7 PUSH1 0x40 MLOAD DUP5 PUSH4 0xFFFFFFFF AND PUSH1 0xE0 SHL DUP2 MSTORE PUSH1 0x4 ADD PUSH2 0xEE9 SWAP4 SWAP3 SWAP2 SWAP1 PUSH2 0x295B JUMP JUMPDEST PUSH1 0x20 PUSH1 0x40 MLOAD DUP1 DUP4 SUB DUP2 PUSH1 0x0 DUP8 GAS CALL ISZERO DUP1 ISZERO PUSH2 0xF08 JUMPI RETURNDATASIZE PUSH1 0x0 DUP1 RETURNDATACOPY RETURNDATASIZE PUSH1 0x0 REVERT JUMPDEST POP POP POP POP PUSH1 0x40 MLOAD RETURNDATASIZE PUSH1 0x1F NOT PUSH1 0x1F DUP3 ADD AND DUP3 ADD DUP1 PUSH1 0x40 MSTORE POP DUP2 ADD SWAP1 PUSH2 0xF2C SWAP2 SWAP1 PUSH2 0x29BE JUMP JUMPDEST POP PUSH2 0xF39 DUP7 DUP7 DUP7 DUP7 PUSH2 0x15FD JUMP JUMPDEST POP POP PUSH2 0xF43 PUSH2 0x1544 JUMP JUMPDEST POP POP POP POP JUMP JUMPDEST PUSH2 0xF51 PUSH2 0x12D2 JUMP JUMPDEST PUSH1 0x0 SELFBALANCE SWAP1 POP PUSH1 0x0 DUP3 PUSH20 0xFFFFFFFFFFFFFFFFFFFFFFFFFFFFFFFFFFFFFFFF AND DUP3 PUSH1 0x40 MLOAD PUSH2 0xF7C SWAP1 PUSH2 0x2A1C JUMP JUMPDEST PUSH1 0x0 PUSH1 0x40 MLOAD DUP1 DUP4 SUB DUP2 DUP6 DUP8 GAS CALL SWAP3 POP POP POP RETURNDATASIZE DUP1 PUSH1 0x0 DUP2 EQ PUSH2 0xFB9 JUMPI PUSH1 0x40 MLOAD SWAP2 POP PUSH1 0x1F NOT PUSH1 0x3F RETURNDATASIZE ADD AND DUP3 ADD PUSH1 0x40 MSTORE RETURNDATASIZE DUP3 MSTORE RETURNDATASIZE PUSH1 0x0 PUSH1 0x20 DUP5 ADD RETURNDATACOPY PUSH2 0xFBE JUMP JUMPDEST PUSH1 0x60 SWAP2 POP JUMPDEST POP POP SWAP1 POP DUP1 PUSH2 0xFF9 JUMPI PUSH1 0x40 MLOAD PUSH32 0x90B8EC1800000000000000000000000000000000000000000000000000000000 DUP2 MSTORE PUSH1 0x4 ADD PUSH1 0x40 MLOAD DUP1 SWAP2 SUB SWAP1 REVERT JUMPDEST POP POP POP JUMP JUMPDEST JUMP JUMPDEST PUSH1 0x0 PUSH1 0x1 PUSH1 0x0 SWAP1 SLOAD SWAP1 PUSH2 0x100 EXP SWAP1 DIV PUSH20 0xFFFFFFFFFFFFFFFFFFFFFFFFFFFFFFFFFFFFFFFF AND SWAP1 POP SWAP1 JUMP JUMPDEST PUSH1 0x9 DUP2 DUP1 MLOAD PUSH1 0x20 DUP2 ADD DUP3 ADD DUP1 MLOAD DUP5 DUP3 MSTORE PUSH1 0x20 DUP4 ADD PUSH1 0x20 DUP6 ADD KECCAK256 DUP2 DUP4 MSTORE DUP1 SWAP6 POP POP POP POP POP POP PUSH1 0x0 SWAP2 POP SLOAD SWAP1 PUSH2 0x100 EXP SWAP1 DIV PUSH20 0xFFFFFFFFFFFFFFFFFFFFFFFFFFFFFFFFFFFFFFFF AND DUP2 JUMP JUMPDEST PUSH1 0xA DUP3 DUP1 MLOAD PUSH1 0x20 DUP2 ADD DUP3 ADD DUP1 MLOAD DUP5 DUP3 MSTORE PUSH1 0x20 DUP4 ADD PUSH1 0x20 DUP6 ADD KECCAK256 DUP2 DUP4 MSTORE DUP1 SWAP6 POP POP POP POP POP POP PUSH1 0x20 MSTORE DUP1 PUSH1 0x0 MSTORE PUSH1 0x40 PUSH1 0x0 KECCAK256 PUSH1 0x0 SWAP2 POP SWAP2 POP POP SLOAD DUP2 JUMP JUMPDEST PUSH1 0x0 PUSH4 0xF23A6E61 PUSH1 0xE0 SHL SWAP1 POP SWAP7 SWAP6 POP POP POP POP POP POP JUMP JUMPDEST PUSH2 0x10CC PUSH2 0x12D2 JUMP JUMPDEST DUP1 PUSH1 0x1 PUSH1 0x0 PUSH2 0x100 EXP DUP2 SLOAD DUP2 PUSH20 0xFFFFFFFFFFFFFFFFFFFFFFFFFFFFFFFFFFFFFFFF MUL NOT AND SWAP1 DUP4 PUSH20 0xFFFFFFFFFFFFFFFFFFFFFFFFFFFFFFFFFFFFFFFF AND MUL OR SWAP1 SSTORE POP DUP1 PUSH20 0xFFFFFFFFFFFFFFFFFFFFFFFFFFFFFFFFFFFFFFFF AND PUSH2 0x112C PUSH2 0xC10 JUMP JUMPDEST PUSH20 0xFFFFFFFFFFFFFFFFFFFFFFFFFFFFFFFFFFFFFFFF AND PUSH32 0x38D16B8CAC22D99FC7C124B9CD0DE2D3FA1FAEF420BFE791D8C362D765E22700 PUSH1 0x40 MLOAD PUSH1 0x40 MLOAD DUP1 SWAP2 SUB SWAP1 LOG3 POP JUMP JUMPDEST PUSH2 0x1179 PUSH2 0x12D2 JUMP JUMPDEST PUSH2 0x1185 DUP4 DUP6 DUP5 DUP5 PUSH2 0x139D JUMP JUMPDEST POP POP POP POP JUMP JUMPDEST PUSH1 0x6 DUP2 DUP1 MLOAD PUSH1 0x20 DUP2 ADD DUP3 ADD DUP1 MLOAD DUP5 DUP3 MSTORE PUSH1 0x20 DUP4 ADD PUSH1 0x20 DUP6 ADD KECCAK256 DUP2 DUP4 MSTORE DUP1 SWAP6 POP POP POP POP POP POP PUSH1 0x0 SWAP2 POP SWAP1 POP DUP1 PUSH1 0x0 ADD SLOAD SWAP1 POP DUP2 JUMP JUMPDEST PUSH1 0x0 PUSH2 0x1235 PUSH32 0xA3B140137DDE1EC8F85DA0FADAC4C5D6C5410186CA811CBE1E3D5FB737DFB2F6 DUP4 PUSH1 0x0 ADD MLOAD DUP1 MLOAD SWAP1 PUSH1 0x20 ADD KECCAK256 DUP5 PUSH1 0x20 ADD MLOAD DUP6 PUSH1 0x40 ADD MLOAD DUP7 PUSH1 0x60 ADD MLOAD DUP8 PUSH1 0x80 ADD MLOAD PUSH1 0x40 MLOAD PUSH1 0x20 ADD PUSH2 0x121A SWAP7 SWAP6 SWAP5 SWAP4 SWAP3 SWAP2 SWAP1 PUSH2 0x2A31 JUMP JUMPDEST PUSH1 0x40 MLOAD PUSH1 0x20 DUP2 DUP4 SUB SUB DUP2 MSTORE SWAP1 PUSH1 0x40 MSTORE DUP1 MLOAD SWAP1 PUSH1 0x20 ADD KECCAK256 PUSH2 0x16B5 JUMP JUMPDEST SWAP1 POP PUSH1 0x0 PUSH2 0x1243 DUP3 DUP6 PUSH2 0x16CF JUMP JUMPDEST SWAP1 POP PUSH1 0x8 PUSH1 0x0 SWAP1 SLOAD SWAP1 PUSH2 0x100 EXP SWAP1 DIV PUSH20 0xFFFFFFFFFFFFFFFFFFFFFFFFFFFFFFFFFFFFFFFF AND PUSH20 0xFFFFFFFFFFFFFFFFFFFFFFFFFFFFFFFFFFFFFFFF AND DUP2 PUSH20 0xFFFFFFFFFFFFFFFFFFFFFFFFFFFFFFFFFFFFFFFF AND EQ PUSH2 0x12CC JUMPI PUSH1 0x40 MLOAD PUSH32 0x815E1D6400000000000000000000000000000000000000000000000000000000 DUP2 MSTORE PUSH1 0x4 ADD PUSH1 0x40 MLOAD DUP1 SWAP2 SUB SWAP1 REVERT JUMPDEST POP POP POP POP JUMP JUMPDEST PUSH2 0x12DA PUSH2 0x157F JUMP JUMPDEST PUSH20 0xFFFFFFFFFFFFFFFFFFFFFFFFFFFFFFFFFFFFFFFF AND PUSH2 0x12F8 PUSH2 0xC10 JUMP JUMPDEST PUSH20 0xFFFFFFFFFFFFFFFFFFFFFFFFFFFFFFFFFFFFFFFF AND EQ PUSH2 0x1357 JUMPI PUSH2 0x131B PUSH2 0x157F JUMP JUMPDEST PUSH1 0x40 MLOAD PUSH32 0x118CDAA700000000000000000000000000000000000000000000000000000000 DUP2 MSTORE PUSH1 0x4 ADD PUSH2 0x134E SWAP2 SWAP1 PUSH2 0x2655 JUMP JUMPDEST PUSH1 0x40 MLOAD DUP1 SWAP2 SUB SWAP1 REVERT JUMPDEST JUMP JUMPDEST PUSH1 0x2 DUP1 SLOAD SUB PUSH2 0x1394 JUMPI PUSH1 0x40 MLOAD PUSH32 0x3EE5AEB500000000000000000000000000000000000000000000000000000000 DUP2 MSTORE PUSH1 0x4 ADD PUSH1 0x40 MLOAD DUP1 SWAP2 SUB SWAP1 REVERT JUMPDEST PUSH1 0x2 DUP1 DUP2 SWAP1 SSTORE POP JUMP JUMPDEST DUP1 PUSH1 0x6 DUP6 PUSH1 0x40 MLOAD PUSH2 0x13AE SWAP2 SWAP1 PUSH2 0x2944 JUMP JUMPDEST SWAP1 DUP2 MSTORE PUSH1 0x20 ADD PUSH1 0x40 MLOAD DUP1 SWAP2 SUB SWAP1 KECCAK256 PUSH1 0x1 ADD PUSH1 0x0 DUP5 PUSH20 0xFFFFFFFFFFFFFFFFFFFFFFFFFFFFFFFFFFFFFFFF AND PUSH20 0xFFFFFFFFFFFFFFFFFFFFFFFFFFFFFFFFFFFFFFFF AND DUP2 MSTORE PUSH1 0x20 ADD SWAP1 DUP2 MSTORE PUSH1 0x20 ADD PUSH1 0x0 KECCAK256 SLOAD LT ISZERO PUSH2 0x144A JUMPI DUP4 PUSH1 0x2 DUP4 PUSH1 0x0 DUP5 PUSH1 0x40 MLOAD PUSH32 0x3FF3E6F200000000000000000000000000000000000000000000000000000000 DUP2 MSTORE PUSH1 0x4 ADD PUSH2 0x1441 SWAP6 SWAP5 SWAP4 SWAP3 SWAP2 SWAP1 PUSH2 0x2B4E JUMP JUMPDEST PUSH1 0x40 MLOAD DUP1 SWAP2 SUB SWAP1 REVERT JUMPDEST DUP1 PUSH1 0x6 DUP6 PUSH1 0x40 MLOAD PUSH2 0x145B SWAP2 SWAP1 PUSH2 0x2944 JUMP JUMPDEST SWAP1 DUP2 MSTORE PUSH1 0x20 ADD PUSH1 0x40 MLOAD DUP1 SWAP2 SUB SWAP1 KECCAK256 PUSH1 0x1 ADD PUSH1 0x0 DUP5 PUSH20 0xFFFFFFFFFFFFFFFFFFFFFFFFFFFFFFFFFFFFFFFF AND PUSH20 0xFFFFFFFFFFFFFFFFFFFFFFFFFFFFFFFFFFFFFFFF AND DUP2 MSTORE PUSH1 0x20 ADD SWAP1 DUP2 MSTORE PUSH1 0x20 ADD PUSH1 0x0 KECCAK256 PUSH1 0x0 DUP3 DUP3 SLOAD PUSH2 0x14B8 SWAP2 SWAP1 PUSH2 0x2BD7 JUMP JUMPDEST SWAP3 POP POP DUP2 SWAP1 SSTORE POP DUP2 PUSH20 0xFFFFFFFFFFFFFFFFFFFFFFFFFFFFFFFFFFFFFFFF AND PUSH4 0xA9059CBB DUP5 DUP4 PUSH1 0x40 MLOAD DUP4 PUSH4 0xFFFFFFFF AND PUSH1 0xE0 SHL DUP2 MSTORE PUSH1 0x4 ADD PUSH2 0x14FA SWAP3 SWAP2 SWAP1 PUSH2 0x2C0B JUMP JUMPDEST PUSH1 0x20 PUSH1 0x40 MLOAD DUP1 DUP4 SUB DUP2 PUSH1 0x0 DUP8 GAS CALL ISZERO DUP1 ISZERO PUSH2 0x1519 JUMPI RETURNDATASIZE PUSH1 0x0 DUP1 RETURNDATACOPY RETURNDATASIZE PUSH1 0x0 REVERT JUMPDEST POP POP POP POP PUSH1 0x40 MLOAD RETURNDATASIZE PUSH1 0x1F NOT PUSH1 0x1F DUP3 ADD AND DUP3 ADD DUP1 PUSH1 0x40 MSTORE POP DUP2 ADD SWAP1 PUSH2 0x153D SWAP2 SWAP1 PUSH2 0x29BE JUMP JUMPDEST POP POP POP POP POP JUMP JUMPDEST PUSH1 0x1 PUSH1 0x2 DUP2 SWAP1 SSTORE POP JUMP JUMPDEST PUSH1 0x1 PUSH1 0x0 PUSH2 0x100 EXP DUP2 SLOAD SWAP1 PUSH20 0xFFFFFFFFFFFFFFFFFFFFFFFFFFFFFFFFFFFFFFFF MUL NOT AND SWAP1 SSTORE PUSH2 0x157C DUP2 PUSH2 0x16FB JUMP JUMPDEST POP JUMP JUMPDEST PUSH1 0x0 CALLER SWAP1 POP SWAP1 JUMP JUMPDEST PUSH1 0x60 PUSH2 0x15BD PUSH1 0x3 PUSH32 0x0 PUSH2 0x17BF SWAP1 SWAP2 SWAP1 PUSH4 0xFFFFFFFF AND JUMP JUMPDEST SWAP1 POP SWAP1 JUMP JUMPDEST PUSH1 0x60 PUSH2 0x15F8 PUSH1 0x4 PUSH32 0x0 PUSH2 0x17BF SWAP1 SWAP2 SWAP1 PUSH4 0xFFFFFFFF AND JUMP JUMPDEST SWAP1 POP SWAP1 JUMP JUMPDEST DUP1 PUSH1 0x6 DUP6 PUSH1 0x40 MLOAD PUSH2 0x160E SWAP2 SWAP1 PUSH2 0x2944 JUMP JUMPDEST SWAP1 DUP2 MSTORE PUSH1 0x20 ADD PUSH1 0x40 MLOAD DUP1 SWAP2 SUB SWAP1 KECCAK256 PUSH1 0x1 ADD PUSH1 0x0 DUP5 PUSH20 0xFFFFFFFFFFFFFFFFFFFFFFFFFFFFFFFFFFFFFFFF AND PUSH20 0xFFFFFFFFFFFFFFFFFFFFFFFFFFFFFFFFFFFFFFFF AND DUP2 MSTORE PUSH1 0x20 ADD SWAP1 DUP2 MSTORE PUSH1 0x20 ADD PUSH1 0x0 KECCAK256 PUSH1 0x0 DUP3 DUP3 SLOAD PUSH2 0x166B SWAP2 SWAP1 PUSH2 0x2C34 JUMP JUMPDEST SWAP3 POP POP DUP2 SWAP1 SSTORE POP PUSH32 0x80B0529195F12DF0318651D4B36FFC81B7B3CB429033916C20D71E8D2E219AE3 DUP5 DUP5 DUP5 DUP5 PUSH1 0x40 MLOAD PUSH2 0x16A7 SWAP5 SWAP4 SWAP3 SWAP2 SWAP1 PUSH2 0x2C68 JUMP JUMPDEST PUSH1 0x40 MLOAD DUP1 SWAP2 SUB SWAP1 LOG1 POP POP POP POP JUMP JUMPDEST PUSH1 0x0 PUSH2 0x16C8 PUSH2 0x16C2 PUSH2 0x186F JUMP JUMPDEST DUP4 PUSH2 0x1926 JUMP JUMPDEST SWAP1 POP SWAP2 SWAP1 POP JUMP JUMPDEST PUSH1 0x0 DUP1 PUSH1 0x0 DUP1 PUSH2 0x16DF DUP7 DUP7 PUSH2 0x1967 JUMP JUMPDEST SWAP3 POP SWAP3 POP SWAP3 POP PUSH2 0x16EF DUP3 DUP3 PUSH2 0x19C3 JUMP JUMPDEST DUP3 SWAP4 POP POP POP POP SWAP3 SWAP2 POP POP JUMP JUMPDEST PUSH1 0x0 DUP1 PUSH1 0x0 SWAP1 SLOAD SWAP1 PUSH2 0x100 EXP SWAP1 DIV PUSH20 0xFFFFFFFFFFFFFFFFFFFFFFFFFFFFFFFFFFFFFFFF AND SWAP1 POP DUP2 PUSH1 0x0 DUP1 PUSH2 0x100 EXP DUP2 SLOAD DUP2 PUSH20 0xFFFFFFFFFFFFFFFFFFFFFFFFFFFFFFFFFFFFFFFF MUL NOT AND SWAP1 DUP4 PUSH20 0xFFFFFFFFFFFFFFFFFFFFFFFFFFFFFFFFFFFFFFFF AND MUL OR SWAP1 SSTORE POP DUP2 PUSH20 0xFFFFFFFFFFFFFFFFFFFFFFFFFFFFFFFFFFFFFFFF AND DUP2 PUSH20 0xFFFFFFFFFFFFFFFFFFFFFFFFFFFFFFFFFFFFFFFF AND PUSH32 0x8BE0079C531659141344CD1FD0A4F28419497F9722A3DAAFE3B4186F6B6457E0 PUSH1 0x40 MLOAD PUSH1 0x40 MLOAD DUP1 SWAP2 SUB SWAP1 LOG3 POP POP JUMP JUMPDEST PUSH1 0x60 PUSH1 0xFF PUSH1 0x0 SHL DUP4 EQ PUSH2 0x17DC JUMPI PUSH2 0x17D5 DUP4 PUSH2 0x1B27 JUMP JUMPDEST SWAP1 POP PUSH2 0x1869 JUMP JUMPDEST DUP2 DUP1 SLOAD PUSH2 0x17E8 SWAP1 PUSH2 0x2CE3 JUMP JUMPDEST DUP1 PUSH1 0x1F ADD PUSH1 0x20 DUP1 SWAP2 DIV MUL PUSH1 0x20 ADD PUSH1 0x40 MLOAD SWAP1 DUP2 ADD PUSH1 0x40 MSTORE DUP1 SWAP3 SWAP2 SWAP1 DUP2 DUP2 MSTORE PUSH1 0x20 ADD DUP3 DUP1 SLOAD PUSH2 0x1814 SWAP1 PUSH2 0x2CE3 JUMP JUMPDEST DUP1 ISZERO PUSH2 0x1861 JUMPI DUP1 PUSH1 0x1F LT PUSH2 0x1836 JUMPI PUSH2 0x100 DUP1 DUP4 SLOAD DIV MUL DUP4 MSTORE SWAP2 PUSH1 0x20 ADD SWAP2 PUSH2 0x1861 JUMP JUMPDEST DUP3 ADD SWAP2 SWAP1 PUSH1 0x0 MSTORE PUSH1 0x20 PUSH1 0x0 KECCAK256 SWAP1 JUMPDEST DUP2 SLOAD DUP2 MSTORE SWAP1 PUSH1 0x1 ADD SWAP1 PUSH1 0x20 ADD DUP1 DUP4 GT PUSH2 0x1844 JUMPI DUP3 SWAP1 SUB PUSH1 0x1F AND DUP3 ADD SWAP2 JUMPDEST POP POP POP POP POP SWAP1 POP JUMPDEST SWAP3 SWAP2 POP POP JUMP JUMPDEST PUSH1 0x0 PUSH32 0x0 PUSH20 0xFFFFFFFFFFFFFFFFFFFFFFFFFFFFFFFFFFFFFFFF AND ADDRESS PUSH20 0xFFFFFFFFFFFFFFFFFFFFFFFFFFFFFFFFFFFFFFFF AND EQ DUP1 ISZERO PUSH2 0x18EB JUMPI POP PUSH32 0x0 CHAINID EQ JUMPDEST ISZERO PUSH2 0x1918 JUMPI PUSH32 0x0 SWAP1 POP PUSH2 0x1923 JUMP JUMPDEST PUSH2 0x1920 PUSH2 0x1B9B JUMP JUMPDEST SWAP1 POP JUMPDEST SWAP1 JUMP JUMPDEST PUSH1 0x0 PUSH1 0x40 MLOAD PUSH32 0x1901000000000000000000000000000000000000000000000000000000000000 DUP2 MSTORE DUP4 PUSH1 0x2 DUP3 ADD MSTORE DUP3 PUSH1 0x22 DUP3 ADD MSTORE PUSH1 0x42 DUP2 KECCAK256 SWAP2 POP POP SWAP3 SWAP2 POP POP JUMP JUMPDEST PUSH1 0x0 DUP1 PUSH1 0x0 PUSH1 0x41 DUP5 MLOAD SUB PUSH2 0x19AC JUMPI PUSH1 0x0 DUP1 PUSH1 0x0 PUSH1 0x20 DUP8 ADD MLOAD SWAP3 POP PUSH1 0x40 DUP8 ADD MLOAD SWAP2 POP PUSH1 0x60 DUP8 ADD MLOAD PUSH1 0x0 BYTE SWAP1 POP PUSH2 0x199E DUP9 DUP3 DUP6 DUP6 PUSH2 0x1C31 JUMP JUMPDEST SWAP6 POP SWAP6 POP SWAP6 POP POP POP POP PUSH2 0x19BC JUMP JUMPDEST PUSH1 0x0 PUSH1 0x2 DUP6 MLOAD PUSH1 0x0 SHL SWAP3 POP SWAP3 POP SWAP3 POP JUMPDEST SWAP3 POP SWAP3 POP SWAP3 JUMP JUMPDEST PUSH1 0x0 PUSH1 0x3 DUP2 GT ISZERO PUSH2 0x19D7 JUMPI PUSH2 0x19D6 PUSH2 0x2A92 JUMP JUMPDEST JUMPDEST DUP3 PUSH1 0x3 DUP2 GT ISZERO PUSH2 0x19EA JUMPI PUSH2 0x19E9 PUSH2 0x2A92 JUMP JUMPDEST JUMPDEST SUB ISZERO PUSH2 0x1B23 JUMPI PUSH1 0x1 PUSH1 0x3 DUP2 GT ISZERO PUSH2 0x1A04 JUMPI PUSH2 0x1A03 PUSH2 0x2A92 JUMP JUMPDEST JUMPDEST DUP3 PUSH1 0x3 DUP2 GT ISZERO PUSH2 0x1A17 JUMPI PUSH2 0x1A16 PUSH2 0x2A92 JUMP JUMPDEST JUMPDEST SUB PUSH2 0x1A4E JUMPI PUSH1 0x40 MLOAD PUSH32 0xF645EEDF00000000000000000000000000000000000000000000000000000000 DUP2 MSTORE PUSH1 0x4 ADD PUSH1 0x40 MLOAD DUP1 SWAP2 SUB SWAP1 REVERT JUMPDEST PUSH1 0x2 PUSH1 0x3 DUP2 GT ISZERO PUSH2 0x1A62 JUMPI PUSH2 0x1A61 PUSH2 0x2A92 JUMP JUMPDEST JUMPDEST DUP3 PUSH1 0x3 DUP2 GT ISZERO PUSH2 0x1A75 JUMPI PUSH2 0x1A74 PUSH2 0x2A92 JUMP JUMPDEST JUMPDEST SUB PUSH2 0x1ABA JUMPI DUP1 PUSH1 0x0 SHR PUSH1 0x40 MLOAD PUSH32 0xFCE698F700000000000000000000000000000000000000000000000000000000 DUP2 MSTORE PUSH1 0x4 ADD PUSH2 0x1AB1 SWAP2 SWAP1 PUSH2 0x2393 JUMP JUMPDEST PUSH1 0x40 MLOAD DUP1 SWAP2 SUB SWAP1 REVERT JUMPDEST PUSH1 0x3 DUP1 DUP2 GT ISZERO PUSH2 0x1ACD JUMPI PUSH2 0x1ACC PUSH2 0x2A92 JUMP JUMPDEST JUMPDEST DUP3 PUSH1 0x3 DUP2 GT ISZERO PUSH2 0x1AE0 JUMPI PUSH2 0x1ADF PUSH2 0x2A92 JUMP JUMPDEST JUMPDEST SUB PUSH2 0x1B22 JUMPI DUP1 PUSH1 0x40 MLOAD PUSH32 0xD78BCE0C00000000000000000000000000000000000000000000000000000000 DUP2 MSTORE PUSH1 0x4 ADD PUSH2 0x1B19 SWAP2 SWAP1 PUSH2 0x2D14 JUMP JUMPDEST PUSH1 0x40 MLOAD DUP1 SWAP2 SUB SWAP1 REVERT JUMPDEST JUMPDEST POP POP JUMP JUMPDEST PUSH1 0x60 PUSH1 0x0 PUSH2 0x1B34 DUP4 PUSH2 0x1D25 JUMP JUMPDEST SWAP1 POP PUSH1 0x0 PUSH1 0x20 PUSH8 0xFFFFFFFFFFFFFFFF DUP2 GT ISZERO PUSH2 0x1B53 JUMPI PUSH2 0x1B52 PUSH2 0x1E5F JUMP JUMPDEST JUMPDEST PUSH1 0x40 MLOAD SWAP1 DUP1 DUP3 MSTORE DUP1 PUSH1 0x1F ADD PUSH1 0x1F NOT AND PUSH1 0x20 ADD DUP3 ADD PUSH1 0x40 MSTORE DUP1 ISZERO PUSH2 0x1B85 JUMPI DUP2 PUSH1 0x20 ADD PUSH1 0x1 DUP3 MUL DUP1 CALLDATASIZE DUP4 CALLDATACOPY DUP1 DUP3 ADD SWAP2 POP POP SWAP1 POP JUMPDEST POP SWAP1 POP DUP2 DUP2 MSTORE DUP4 PUSH1 0x20 DUP3 ADD MSTORE DUP1 SWAP3 POP POP POP SWAP2 SWAP1 POP JUMP JUMPDEST PUSH1 0x0 PUSH32 0x8B73C3C69BB8FE3D512ECC4CF759CC79239F7B179B0FFACAA9A75D522B39400F PUSH32 0x0 PUSH32 0x0 CHAINID ADDRESS PUSH1 0x40 MLOAD PUSH1 0x20 ADD PUSH2 0x1C16 SWAP6 SWAP5 SWAP4 SWAP3 SWAP2 SWAP1 PUSH2 0x2D2F JUMP JUMPDEST PUSH1 0x40 MLOAD PUSH1 0x20 DUP2 DUP4 SUB SUB DUP2 MSTORE SWAP1 PUSH1 0x40 MSTORE DUP1 MLOAD SWAP1 PUSH1 0x20 ADD KECCAK256 SWAP1 POP SWAP1 JUMP JUMPDEST PUSH1 0x0 DUP1 PUSH1 0x0 PUSH32 0x7FFFFFFFFFFFFFFFFFFFFFFFFFFFFFFF5D576E7357A4501DDFE92F46681B20A0 DUP5 PUSH1 0x0 SHR GT ISZERO PUSH2 0x1C71 JUMPI PUSH1 0x0 PUSH1 0x3 DUP6 SWAP3 POP SWAP3 POP SWAP3 POP PUSH2 0x1D1B JUMP JUMPDEST PUSH1 0x0 PUSH1 0x1 DUP9 DUP9 DUP9 DUP9 PUSH1 0x40 MLOAD PUSH1 0x0 DUP2 MSTORE PUSH1 0x20 ADD PUSH1 0x40 MSTORE PUSH1 0x40 MLOAD PUSH2 0x1C96 SWAP5 SWAP4 SWAP3 SWAP2 SWAP1 PUSH2 0x2D9E JUMP JUMPDEST PUSH1 0x20 PUSH1 0x40 MLOAD PUSH1 0x20 DUP2 SUB SWAP1 DUP1 DUP5 SUB SWAP1 DUP6 GAS STATICCALL ISZERO DUP1 ISZERO PUSH2 0x1CB8 JUMPI RETURNDATASIZE PUSH1 0x0 DUP1 RETURNDATACOPY RETURNDATASIZE PUSH1 0x0 REVERT JUMPDEST POP POP POP PUSH1 0x20 PUSH1 0x40 MLOAD SUB MLOAD SWAP1 POP PUSH1 0x0 PUSH20 0xFFFFFFFFFFFFFFFFFFFFFFFFFFFFFFFFFFFFFFFF AND DUP2 PUSH20 0xFFFFFFFFFFFFFFFFFFFFFFFFFFFFFFFFFFFFFFFF AND SUB PUSH2 0x1D0C JUMPI PUSH1 0x0 PUSH1 0x1 PUSH1 0x0 DUP1 SHL SWAP4 POP SWAP4 POP SWAP4 POP POP PUSH2 0x1D1B JUMP JUMPDEST DUP1 PUSH1 0x0 DUP1 PUSH1 0x0 SHL SWAP4 POP SWAP4 POP SWAP4 POP POP JUMPDEST SWAP5 POP SWAP5 POP SWAP5 SWAP2 POP POP JUMP JUMPDEST PUSH1 0x0 DUP1 PUSH1 0xFF DUP4 PUSH1 0x0 SHR AND SWAP1 POP PUSH1 0x1F DUP2 GT ISZERO PUSH2 0x1D6C JUMPI PUSH1 0x40 MLOAD PUSH32 0xB3512B0C00000000000000000000000000000000000000000000000000000000 DUP2 MSTORE PUSH1 0x4 ADD PUSH1 0x40 MLOAD DUP1 SWAP2 SUB SWAP1 REVERT JUMPDEST DUP1 SWAP2 POP POP SWAP2 SWAP1 POP JUMP JUMPDEST PUSH1 0x0 PUSH1 0x40 MLOAD SWAP1 POP SWAP1 JUMP JUMPDEST PUSH1 0x0 DUP1 REVERT JUMPDEST PUSH1 0x0 DUP1 REVERT JUMPDEST PUSH1 0x0 PUSH32 0xFFFFFFFF00000000000000000000000000000000000000000000000000000000 DUP3 AND SWAP1 POP SWAP2 SWAP1 POP JUMP JUMPDEST PUSH2 0x1DBE DUP2 PUSH2 0x1D89 JUMP JUMPDEST DUP2 EQ PUSH2 0x1DC9 JUMPI PUSH1 0x0 DUP1 REVERT JUMPDEST POP JUMP JUMPDEST PUSH1 0x0 DUP2 CALLDATALOAD SWAP1 POP PUSH2 0x1DDB DUP2 PUSH2 0x1DB5 JUMP JUMPDEST SWAP3 SWAP2 POP POP JUMP JUMPDEST PUSH1 0x0 PUSH1 0x20 DUP3 DUP5 SUB SLT ISZERO PUSH2 0x1DF7 JUMPI PUSH2 0x1DF6 PUSH2 0x1D7F JUMP JUMPDEST JUMPDEST PUSH1 0x0 PUSH2 0x1E05 DUP5 DUP3 DUP6 ADD PUSH2 0x1DCC JUMP JUMPDEST SWAP2 POP POP SWAP3 SWAP2 POP POP JUMP JUMPDEST PUSH1 0x0 DUP2 ISZERO ISZERO SWAP1 POP SWAP2 SWAP1 POP JUMP JUMPDEST PUSH2 0x1E23 DUP2 PUSH2 0x1E0E JUMP JUMPDEST DUP3 MSTORE POP POP JUMP JUMPDEST PUSH1 0x0 PUSH1 0x20 DUP3 ADD SWAP1 POP PUSH2 0x1E3E PUSH1 0x0 DUP4 ADD DUP5 PUSH2 0x1E1A JUMP JUMPDEST SWAP3 SWAP2 POP POP JUMP JUMPDEST PUSH1 0x0 DUP1 REVERT JUMPDEST PUSH1 0x0 DUP1 REVERT JUMPDEST PUSH1 0x0 PUSH1 0x1F NOT PUSH1 0x1F DUP4 ADD AND SWAP1 POP SWAP2 SWAP1 POP JUMP JUMPDEST PUSH32 0x4E487B7100000000000000000000000000000000000000000000000000000000 PUSH1 0x0 MSTORE PUSH1 0x41 PUSH1 0x4 MSTORE PUSH1 0x24 PUSH1 0x0 REVERT JUMPDEST PUSH2 0x1E97 DUP3 PUSH2 0x1E4E JUMP JUMPDEST DUP2 ADD DUP2 DUP2 LT PUSH8 0xFFFFFFFFFFFFFFFF DUP3 GT OR ISZERO PUSH2 0x1EB6 JUMPI PUSH2 0x1EB5 PUSH2 0x1E5F JUMP JUMPDEST JUMPDEST DUP1 PUSH1 0x40 MSTORE POP POP POP JUMP JUMPDEST PUSH1 0x0 PUSH2 0x1EC9 PUSH2 0x1D75 JUMP JUMPDEST SWAP1 POP PUSH2 0x1ED5 DUP3 DUP3 PUSH2 0x1E8E JUMP JUMPDEST SWAP2 SWAP1 POP JUMP JUMPDEST PUSH1 0x0 PUSH8 0xFFFFFFFFFFFFFFFF DUP3 GT ISZERO PUSH2 0x1EF5 JUMPI PUSH2 0x1EF4 PUSH2 0x1E5F JUMP JUMPDEST JUMPDEST PUSH2 0x1EFE DUP3 PUSH2 0x1E4E JUMP JUMPDEST SWAP1 POP PUSH1 0x20 DUP2 ADD SWAP1 POP SWAP2 SWAP1 POP JUMP JUMPDEST DUP3 DUP2 DUP4 CALLDATACOPY PUSH1 0x0 DUP4 DUP4 ADD MSTORE POP POP POP JUMP JUMPDEST PUSH1 0x0 PUSH2 0x1F2D PUSH2 0x1F28 DUP5 PUSH2 0x1EDA JUMP JUMPDEST PUSH2 0x1EBF JUMP JUMPDEST SWAP1 POP DUP3 DUP2 MSTORE PUSH1 0x20 DUP2 ADD DUP5 DUP5 DUP5 ADD GT ISZERO PUSH2 0x1F49 JUMPI PUSH2 0x1F48 PUSH2 0x1E49 JUMP JUMPDEST JUMPDEST PUSH2 0x1F54 DUP5 DUP3 DUP6 PUSH2 0x1F0B JUMP JUMPDEST POP SWAP4 SWAP3 POP POP POP JUMP JUMPDEST PUSH1 0x0 DUP3 PUSH1 0x1F DUP4 ADD SLT PUSH2 0x1F71 JUMPI PUSH2 0x1F70 PUSH2 0x1E44 JUMP JUMPDEST JUMPDEST DUP2 CALLDATALOAD PUSH2 0x1F81 DUP5 DUP3 PUSH1 0x20 DUP7 ADD PUSH2 0x1F1A JUMP JUMPDEST SWAP2 POP POP SWAP3 SWAP2 POP POP JUMP JUMPDEST PUSH1 0x0 DUP1 REVERT JUMPDEST PUSH1 0x0 DUP1 REVERT JUMPDEST PUSH1 0x0 PUSH8 0xFFFFFFFFFFFFFFFF DUP3 GT ISZERO PUSH2 0x1FAF JUMPI PUSH2 0x1FAE PUSH2 0x1E5F JUMP JUMPDEST JUMPDEST PUSH2 0x1FB8 DUP3 PUSH2 0x1E4E JUMP JUMPDEST SWAP1 POP PUSH1 0x20 DUP2 ADD SWAP1 POP SWAP2 SWAP1 POP JUMP JUMPDEST PUSH1 0x0 PUSH2 0x1FD8 PUSH2 0x1FD3 DUP5 PUSH2 0x1F94 JUMP JUMPDEST PUSH2 0x1EBF JUMP JUMPDEST SWAP1 POP DUP3 DUP2 MSTORE PUSH1 0x20 DUP2 ADD DUP5 DUP5 DUP5 ADD GT ISZERO PUSH2 0x1FF4 JUMPI PUSH2 0x1FF3 PUSH2 0x1E49 JUMP JUMPDEST JUMPDEST PUSH2 0x1FFF DUP5 DUP3 DUP6 PUSH2 0x1F0B JUMP JUMPDEST POP SWAP4 SWAP3 POP POP POP JUMP JUMPDEST PUSH1 0x0 DUP3 PUSH1 0x1F DUP4 ADD SLT PUSH2 0x201C JUMPI PUSH2 0x201B PUSH2 0x1E44 JUMP JUMPDEST JUMPDEST DUP2 CALLDATALOAD PUSH2 0x202C DUP5 DUP3 PUSH1 0x20 DUP7 ADD PUSH2 0x1FC5 JUMP JUMPDEST SWAP2 POP POP SWAP3 SWAP2 POP POP JUMP JUMPDEST PUSH1 0x0 PUSH20 0xFFFFFFFFFFFFFFFFFFFFFFFFFFFFFFFFFFFFFFFF DUP3 AND SWAP1 POP SWAP2 SWAP1 POP JUMP JUMPDEST PUSH1 0x0 PUSH2 0x2060 DUP3 PUSH2 0x2035 JUMP JUMPDEST SWAP1 POP SWAP2 SWAP1 POP JUMP JUMPDEST PUSH2 0x2070 DUP2 PUSH2 0x2055 JUMP JUMPDEST DUP2 EQ PUSH2 0x207B JUMPI PUSH1 0x0 DUP1 REVERT JUMPDEST POP JUMP JUMPDEST PUSH1 0x0 DUP2 CALLDATALOAD SWAP1 POP PUSH2 0x208D DUP2 PUSH2 0x2067 JUMP JUMPDEST SWAP3 SWAP2 POP POP JUMP JUMPDEST PUSH1 0x0 DUP2 SWAP1 POP SWAP2 SWAP1 POP JUMP JUMPDEST PUSH2 0x20A6 DUP2 PUSH2 0x2093 JUMP JUMPDEST DUP2 EQ PUSH2 0x20B1 JUMPI PUSH1 0x0 DUP1 REVERT JUMPDEST POP JUMP JUMPDEST PUSH1 0x0 DUP2 CALLDATALOAD SWAP1 POP PUSH2 0x20C3 DUP2 PUSH2 0x209D JUMP JUMPDEST SWAP3 SWAP2 POP POP JUMP JUMPDEST PUSH1 0x0 PUSH1 0xA0 DUP3 DUP5 SUB SLT ISZERO PUSH2 0x20DF JUMPI PUSH2 0x20DE PUSH2 0x1F8A JUMP JUMPDEST JUMPDEST PUSH2 0x20E9 PUSH1 0xA0 PUSH2 0x1EBF JUMP JUMPDEST SWAP1 POP PUSH1 0x0 DUP3 ADD CALLDATALOAD PUSH8 0xFFFFFFFFFFFFFFFF DUP2 GT ISZERO PUSH2 0x2109 JUMPI PUSH2 0x2108 PUSH2 0x1F8F JUMP JUMPDEST JUMPDEST PUSH2 0x2115 DUP5 DUP3 DUP6 ADD PUSH2 0x2007 JUMP JUMPDEST PUSH1 0x0 DUP4 ADD MSTORE POP PUSH1 0x20 PUSH2 0x2129 DUP5 DUP3 DUP6 ADD PUSH2 0x207E JUMP JUMPDEST PUSH1 0x20 DUP4 ADD MSTORE POP PUSH1 0x40 PUSH2 0x213D DUP5 DUP3 DUP6 ADD PUSH2 0x207E JUMP JUMPDEST PUSH1 0x40 DUP4 ADD MSTORE POP PUSH1 0x60 PUSH2 0x2151 DUP5 DUP3 DUP6 ADD PUSH2 0x207E JUMP JUMPDEST PUSH1 0x60 DUP4 ADD MSTORE POP PUSH1 0x80 PUSH2 0x2165 DUP5 DUP3 DUP6 ADD PUSH2 0x20B4 JUMP JUMPDEST PUSH1 0x80 DUP4 ADD MSTORE POP SWAP3 SWAP2 POP POP JUMP JUMPDEST PUSH1 0x0 DUP1 PUSH1 0x40 DUP4 DUP6 SUB SLT ISZERO PUSH2 0x2188 JUMPI PUSH2 0x2187 PUSH2 0x1D7F JUMP JUMPDEST JUMPDEST PUSH1 0x0 DUP4 ADD CALLDATALOAD PUSH8 0xFFFFFFFFFFFFFFFF DUP2 GT ISZERO PUSH2 0x21A6 JUMPI PUSH2 0x21A5 PUSH2 0x1D84 JUMP JUMPDEST JUMPDEST PUSH2 0x21B2 DUP6 DUP3 DUP7 ADD PUSH2 0x1F5C JUMP JUMPDEST SWAP3 POP POP PUSH1 0x20 DUP4 ADD CALLDATALOAD PUSH8 0xFFFFFFFFFFFFFFFF DUP2 GT ISZERO PUSH2 0x21D3 JUMPI PUSH2 0x21D2 PUSH2 0x1D84 JUMP JUMPDEST JUMPDEST PUSH2 0x21DF DUP6 DUP3 DUP7 ADD PUSH2 0x20C9 JUMP JUMPDEST SWAP2 POP POP SWAP3 POP SWAP3 SWAP1 POP JUMP JUMPDEST PUSH1 0x0 DUP1 REVERT JUMPDEST PUSH1 0x0 DUP1 REVERT JUMPDEST PUSH1 0x0 DUP1 DUP4 PUSH1 0x1F DUP5 ADD SLT PUSH2 0x2209 JUMPI PUSH2 0x2208 PUSH2 0x1E44 JUMP JUMPDEST JUMPDEST DUP3 CALLDATALOAD SWAP1 POP PUSH8 0xFFFFFFFFFFFFFFFF DUP2 GT ISZERO PUSH2 0x2226 JUMPI PUSH2 0x2225 PUSH2 0x21E9 JUMP JUMPDEST JUMPDEST PUSH1 0x20 DUP4 ADD SWAP2 POP DUP4 PUSH1 0x1 DUP3 MUL DUP4 ADD GT ISZERO PUSH2 0x2242 JUMPI PUSH2 0x2241 PUSH2 0x21EE JUMP JUMPDEST JUMPDEST SWAP3 POP SWAP3 SWAP1 POP JUMP JUMPDEST PUSH1 0x0 DUP1 PUSH1 0x0 DUP1 PUSH1 0x0 PUSH1 0x80 DUP7 DUP9 SUB SLT ISZERO PUSH2 0x2265 JUMPI PUSH2 0x2264 PUSH2 0x1D7F JUMP JUMPDEST JUMPDEST PUSH1 0x0 PUSH2 0x2273 DUP9 DUP3 DUP10 ADD PUSH2 0x207E JUMP JUMPDEST SWAP6 POP POP PUSH1 0x20 PUSH2 0x2284 DUP9 DUP3 DUP10 ADD PUSH2 0x207E JUMP JUMPDEST SWAP5 POP POP PUSH1 0x40 PUSH2 0x2295 DUP9 DUP3 DUP10 ADD PUSH2 0x20B4 JUMP JUMPDEST SWAP4 POP POP PUSH1 0x60 DUP7 ADD CALLDATALOAD PUSH8 0xFFFFFFFFFFFFFFFF DUP2 GT ISZERO PUSH2 0x22B6 JUMPI PUSH2 0x22B5 PUSH2 0x1D84 JUMP JUMPDEST JUMPDEST PUSH2 0x22C2 DUP9 DUP3 DUP10 ADD PUSH2 0x21F3 JUMP JUMPDEST SWAP3 POP SWAP3 POP POP SWAP3 SWAP6 POP SWAP3 SWAP6 SWAP1 SWAP4 POP JUMP JUMPDEST PUSH2 0x22DA DUP2 PUSH2 0x1D89 JUMP JUMPDEST DUP3 MSTORE POP POP JUMP JUMPDEST PUSH1 0x0 PUSH1 0x20 DUP3 ADD SWAP1 POP PUSH2 0x22F5 PUSH1 0x0 DUP4 ADD DUP5 PUSH2 0x22D1 JUMP JUMPDEST SWAP3 SWAP2 POP POP JUMP JUMPDEST PUSH1 0x0 DUP1 PUSH1 0x40 DUP4 DUP6 SUB SLT ISZERO PUSH2 0x2312 JUMPI PUSH2 0x2311 PUSH2 0x1D7F JUMP JUMPDEST JUMPDEST PUSH1 0x0 DUP4 ADD CALLDATALOAD PUSH8 0xFFFFFFFFFFFFFFFF DUP2 GT ISZERO PUSH2 0x2330 JUMPI PUSH2 0x232F PUSH2 0x1D84 JUMP JUMPDEST JUMPDEST PUSH2 0x233C DUP6 DUP3 DUP7 ADD PUSH2 0x2007 JUMP JUMPDEST SWAP3 POP POP PUSH1 0x20 PUSH2 0x234D DUP6 DUP3 DUP7 ADD PUSH2 0x207E JUMP JUMPDEST SWAP2 POP POP SWAP3 POP SWAP3 SWAP1 POP JUMP JUMPDEST PUSH1 0x0 PUSH1 0x20 DUP3 DUP5 SUB SLT ISZERO PUSH2 0x236D JUMPI PUSH2 0x236C PUSH2 0x1D7F JUMP JUMPDEST JUMPDEST PUSH1 0x0 PUSH2 0x237B DUP5 DUP3 DUP6 ADD PUSH2 0x207E JUMP JUMPDEST SWAP2 POP POP SWAP3 SWAP2 POP POP JUMP JUMPDEST PUSH2 0x238D DUP2 PUSH2 0x2093 JUMP JUMPDEST DUP3 MSTORE POP POP JUMP JUMPDEST PUSH1 0x0 PUSH1 0x20 DUP3 ADD SWAP1 POP PUSH2 0x23A8 PUSH1 0x0 DUP4 ADD DUP5 PUSH2 0x2384 JUMP JUMPDEST SWAP3 SWAP2 POP POP JUMP JUMPDEST PUSH1 0x0 DUP1 PUSH1 0x0 DUP1 PUSH1 0x80 DUP6 DUP8 SUB SLT ISZERO PUSH2 0x23C8 JUMPI PUSH2 0x23C7 PUSH2 0x1D7F JUMP JUMPDEST JUMPDEST PUSH1 0x0 DUP6 ADD CALLDATALOAD PUSH8 0xFFFFFFFFFFFFFFFF DUP2 GT ISZERO PUSH2 0x23E6 JUMPI PUSH2 0x23E5 PUSH2 0x1D84 JUMP JUMPDEST JUMPDEST PUSH2 0x23F2 DUP8 DUP3 DUP9 ADD PUSH2 0x2007 JUMP JUMPDEST SWAP5 POP POP PUSH1 0x20 PUSH2 0x2403 DUP8 DUP3 DUP9 ADD PUSH2 0x207E JUMP JUMPDEST SWAP4 POP POP PUSH1 0x40 PUSH2 0x2414 DUP8 DUP3 DUP9 ADD PUSH2 0x207E JUMP JUMPDEST SWAP3 POP POP PUSH1 0x60 PUSH2 0x2425 DUP8 DUP3 DUP9 ADD PUSH2 0x20B4 JUMP JUMPDEST SWAP2 POP POP SWAP3 SWAP6 SWAP2 SWAP5 POP SWAP3 POP JUMP JUMPDEST PUSH1 0x0 PUSH32 0xFF00000000000000000000000000000000000000000000000000000000000000 DUP3 AND SWAP1 POP SWAP2 SWAP1 POP JUMP JUMPDEST PUSH2 0x2466 DUP2 PUSH2 0x2431 JUMP JUMPDEST DUP3 MSTORE POP POP JUMP JUMPDEST PUSH1 0x0 DUP2 MLOAD SWAP1 POP SWAP2 SWAP1 POP JUMP JUMPDEST PUSH1 0x0 DUP3 DUP3 MSTORE PUSH1 0x20 DUP3 ADD SWAP1 POP SWAP3 SWAP2 POP POP JUMP JUMPDEST PUSH1 0x0 JUMPDEST DUP4 DUP2 LT ISZERO PUSH2 0x24A6 JUMPI DUP1 DUP3 ADD MLOAD DUP2 DUP5 ADD MSTORE PUSH1 0x20 DUP2 ADD SWAP1 POP PUSH2 0x248B JUMP JUMPDEST PUSH1 0x0 DUP5 DUP5 ADD MSTORE POP POP POP POP JUMP JUMPDEST PUSH1 0x0 PUSH2 0x24BD DUP3 PUSH2 0x246C JUMP JUMPDEST PUSH2 0x24C7 DUP2 DUP6 PUSH2 0x2477 JUMP JUMPDEST SWAP4 POP PUSH2 0x24D7 DUP2 DUP6 PUSH1 0x20 DUP7 ADD PUSH2 0x2488 JUMP JUMPDEST PUSH2 0x24E0 DUP2 PUSH2 0x1E4E JUMP JUMPDEST DUP5 ADD SWAP2 POP POP SWAP3 SWAP2 POP POP JUMP JUMPDEST PUSH2 0x24F4 DUP2 PUSH2 0x2055 JUMP JUMPDEST DUP3 MSTORE POP POP JUMP JUMPDEST PUSH1 0x0 DUP2 SWAP1 POP SWAP2 SWAP1 POP JUMP JUMPDEST PUSH2 0x250D DUP2 PUSH2 0x24FA JUMP JUMPDEST DUP3 MSTORE POP POP JUMP JUMPDEST PUSH1 0x0 DUP2 MLOAD SWAP1 POP SWAP2 SWAP1 POP JUMP JUMPDEST PUSH1 0x0 DUP3 DUP3 MSTORE PUSH1 0x20 DUP3 ADD SWAP1 POP SWAP3 SWAP2 POP POP JUMP JUMPDEST PUSH1 0x0 DUP2 SWAP1 POP PUSH1 0x20 DUP3 ADD SWAP1 POP SWAP2 SWAP1 POP JUMP JUMPDEST PUSH2 0x2548 DUP2 PUSH2 0x2093 JUMP JUMPDEST DUP3 MSTORE POP POP JUMP JUMPDEST PUSH1 0x0 PUSH2 0x255A DUP4 DUP4 PUSH2 0x253F JUMP JUMPDEST PUSH1 0x20 DUP4 ADD SWAP1 POP SWAP3 SWAP2 POP POP JUMP JUMPDEST PUSH1 0x0 PUSH1 0x20 DUP3 ADD SWAP1 POP SWAP2 SWAP1 POP JUMP JUMPDEST PUSH1 0x0 PUSH2 0x257E DUP3 PUSH2 0x2513 JUMP JUMPDEST PUSH2 0x2588 DUP2 DUP6 PUSH2 0x251E JUMP JUMPDEST SWAP4 POP PUSH2 0x2593 DUP4 PUSH2 0x252F JUMP JUMPDEST DUP1 PUSH1 0x0 JUMPDEST DUP4 DUP2 LT ISZERO PUSH2 0x25C4 JUMPI DUP2 MLOAD PUSH2 0x25AB DUP9 DUP3 PUSH2 0x254E JUMP JUMPDEST SWAP8 POP PUSH2 0x25B6 DUP4 PUSH2 0x2566 JUMP JUMPDEST SWAP3 POP POP PUSH1 0x1 DUP2 ADD SWAP1 POP PUSH2 0x2597 JUMP JUMPDEST POP DUP6 SWAP4 POP POP POP POP SWAP3 SWAP2 POP POP JUMP JUMPDEST PUSH1 0x0 PUSH1 0xE0 DUP3 ADD SWAP1 POP PUSH2 0x25E6 PUSH1 0x0 DUP4 ADD DUP11 PUSH2 0x245D JUMP JUMPDEST DUP2 DUP2 SUB PUSH1 0x20 DUP4 ADD MSTORE PUSH2 0x25F8 DUP2 DUP10 PUSH2 0x24B2 JUMP JUMPDEST SWAP1 POP DUP2 DUP2 SUB PUSH1 0x40 DUP4 ADD MSTORE PUSH2 0x260C DUP2 DUP9 PUSH2 0x24B2 JUMP JUMPDEST SWAP1 POP PUSH2 0x261B PUSH1 0x60 DUP4 ADD DUP8 PUSH2 0x2384 JUMP JUMPDEST PUSH2 0x2628 PUSH1 0x80 DUP4 ADD DUP7 PUSH2 0x24EB JUMP JUMPDEST PUSH2 0x2635 PUSH1 0xA0 DUP4 ADD DUP6 PUSH2 0x2504 JUMP JUMPDEST DUP2 DUP2 SUB PUSH1 0xC0 DUP4 ADD MSTORE PUSH2 0x2647 DUP2 DUP5 PUSH2 0x2573 JUMP JUMPDEST SWAP1 POP SWAP9 SWAP8 POP POP POP POP POP POP POP POP JUMP JUMPDEST PUSH1 0x0 PUSH1 0x20 DUP3 ADD SWAP1 POP PUSH2 0x266A PUSH1 0x0 DUP4 ADD DUP5 PUSH2 0x24EB JUMP JUMPDEST SWAP3 SWAP2 POP POP JUMP JUMPDEST PUSH1 0x0 DUP1 DUP4 PUSH1 0x1F DUP5 ADD SLT PUSH2 0x2686 JUMPI PUSH2 0x2685 PUSH2 0x1E44 JUMP JUMPDEST JUMPDEST DUP3 CALLDATALOAD SWAP1 POP PUSH8 0xFFFFFFFFFFFFFFFF DUP2 GT ISZERO PUSH2 0x26A3 JUMPI PUSH2 0x26A2 PUSH2 0x21E9 JUMP JUMPDEST JUMPDEST PUSH1 0x20 DUP4 ADD SWAP2 POP DUP4 PUSH1 0x20 DUP3 MUL DUP4 ADD GT ISZERO PUSH2 0x26BF JUMPI PUSH2 0x26BE PUSH2 0x21EE JUMP JUMPDEST JUMPDEST SWAP3 POP SWAP3 SWAP1 POP JUMP JUMPDEST PUSH1 0x0 DUP1 PUSH1 0x0 DUP1 PUSH1 0x0 DUP1 PUSH1 0x0 DUP1 PUSH1 0xA0 DUP10 DUP12 SUB SLT ISZERO PUSH2 0x26E6 JUMPI PUSH2 0x26E5 PUSH2 0x1D7F JUMP JUMPDEST JUMPDEST PUSH1 0x0 PUSH2 0x26F4 DUP12 DUP3 DUP13 ADD PUSH2 0x207E JUMP JUMPDEST SWAP9 POP POP PUSH1 0x20 PUSH2 0x2705 DUP12 DUP3 DUP13 ADD PUSH2 0x207E JUMP JUMPDEST SWAP8 POP POP PUSH1 0x40 DUP10 ADD CALLDATALOAD PUSH8 0xFFFFFFFFFFFFFFFF DUP2 GT ISZERO PUSH2 0x2726 JUMPI PUSH2 0x2725 PUSH2 0x1D84 JUMP JUMPDEST JUMPDEST PUSH2 0x2732 DUP12 DUP3 DUP13 ADD PUSH2 0x2670 JUMP JUMPDEST SWAP7 POP SWAP7 POP POP PUSH1 0x60 DUP10 ADD CALLDATALOAD PUSH8 0xFFFFFFFFFFFFFFFF DUP2 GT ISZERO PUSH2 0x2755 JUMPI PUSH2 0x2754 PUSH2 0x1D84 JUMP JUMPDEST JUMPDEST PUSH2 0x2761 DUP12 DUP3 DUP13 ADD PUSH2 0x2670 JUMP JUMPDEST SWAP5 POP SWAP5 POP POP PUSH1 0x80 DUP10 ADD CALLDATALOAD PUSH8 0xFFFFFFFFFFFFFFFF DUP2 GT ISZERO PUSH2 0x2784 JUMPI PUSH2 0x2783 PUSH2 0x1D84 JUMP JUMPDEST JUMPDEST PUSH2 0x2790 DUP12 DUP3 DUP13 ADD PUSH2 0x21F3 JUMP JUMPDEST SWAP3 POP SWAP3 POP POP SWAP3 SWAP6 SWAP9 POP SWAP3 SWAP6 SWAP9 SWAP1 SWAP4 SWAP7 POP JUMP JUMPDEST PUSH1 0x0 PUSH1 0x20 DUP3 DUP5 SUB SLT ISZERO PUSH2 0x27B8 JUMPI PUSH2 0x27B7 PUSH2 0x1D7F JUMP JUMPDEST JUMPDEST PUSH1 0x0 DUP3 ADD CALLDATALOAD PUSH8 0xFFFFFFFFFFFFFFFF DUP2 GT ISZERO PUSH2 0x27D6 JUMPI PUSH2 0x27D5 PUSH2 0x1D84 JUMP JUMPDEST JUMPDEST PUSH2 0x27E2 DUP5 DUP3 DUP6 ADD PUSH2 0x2007 JUMP JUMPDEST SWAP2 POP POP SWAP3 SWAP2 POP POP JUMP JUMPDEST PUSH1 0x0 DUP1 PUSH1 0x0 DUP1 PUSH1 0x0 DUP1 PUSH1 0xA0 DUP8 DUP10 SUB SLT ISZERO PUSH2 0x2808 JUMPI PUSH2 0x2807 PUSH2 0x1D7F JUMP JUMPDEST JUMPDEST PUSH1 0x0 PUSH2 0x2816 DUP10 DUP3 DUP11 ADD PUSH2 0x207E JUMP JUMPDEST SWAP7 POP POP PUSH1 0x20 PUSH2 0x2827 DUP10 DUP3 DUP11 ADD PUSH2 0x207E JUMP JUMPDEST SWAP6 POP POP PUSH1 0x40 PUSH2 0x2838 DUP10 DUP3 DUP11 ADD PUSH2 0x20B4 JUMP JUMPDEST SWAP5 POP POP PUSH1 0x60 PUSH2 0x2849 DUP10 DUP3 DUP11 ADD PUSH2 0x20B4 JUMP JUMPDEST SWAP4 POP POP PUSH1 0x80 DUP8 ADD CALLDATALOAD PUSH8 0xFFFFFFFFFFFFFFFF DUP2 GT ISZERO PUSH2 0x286A JUMPI PUSH2 0x2869 PUSH2 0x1D84 JUMP JUMPDEST JUMPDEST PUSH2 0x2876 DUP10 DUP3 DUP11 ADD PUSH2 0x21F3 JUMP JUMPDEST SWAP3 POP SWAP3 POP POP SWAP3 SWAP6 POP SWAP3 SWAP6 POP SWAP3 SWAP6 JUMP JUMPDEST PUSH1 0x0 DUP1 PUSH1 0x0 DUP1 PUSH1 0x80 DUP6 DUP8 SUB SLT ISZERO PUSH2 0x289F JUMPI PUSH2 0x289E PUSH2 0x1D7F JUMP JUMPDEST JUMPDEST PUSH1 0x0 PUSH2 0x28AD DUP8 DUP3 DUP9 ADD PUSH2 0x207E JUMP JUMPDEST SWAP5 POP POP PUSH1 0x20 DUP6 ADD CALLDATALOAD PUSH8 0xFFFFFFFFFFFFFFFF DUP2 GT ISZERO PUSH2 0x28CE JUMPI PUSH2 0x28CD PUSH2 0x1D84 JUMP JUMPDEST JUMPDEST PUSH2 0x28DA DUP8 DUP3 DUP9 ADD PUSH2 0x2007 JUMP JUMPDEST SWAP4 POP POP PUSH1 0x40 PUSH2 0x28EB DUP8 DUP3 DUP9 ADD PUSH2 0x207E JUMP JUMPDEST SWAP3 POP POP PUSH1 0x60 PUSH2 0x28FC DUP8 DUP3 DUP9 ADD PUSH2 0x20B4 JUMP JUMPDEST SWAP2 POP POP SWAP3 SWAP6 SWAP2 SWAP5 POP SWAP3 POP JUMP JUMPDEST PUSH1 0x0 DUP2 SWAP1 POP SWAP3 SWAP2 POP POP JUMP JUMPDEST PUSH1 0x0 PUSH2 0x291E DUP3 PUSH2 0x246C JUMP JUMPDEST PUSH2 0x2928 DUP2 DUP6 PUSH2 0x2908 JUMP JUMPDEST SWAP4 POP PUSH2 0x2938 DUP2 DUP6 PUSH1 0x20 DUP7 ADD PUSH2 0x2488 JUMP JUMPDEST DUP1 DUP5 ADD SWAP2 POP POP SWAP3 SWAP2 POP POP JUMP JUMPDEST PUSH1 0x0 PUSH2 0x2950 DUP3 DUP5 PUSH2 0x2913 JUMP JUMPDEST SWAP2 POP DUP2 SWAP1 POP SWAP3 SWAP2 POP POP JUMP JUMPDEST PUSH1 0x0 PUSH1 0x60 DUP3 ADD SWAP1 POP PUSH2 0x2970 PUSH1 0x0 DUP4 ADD DUP7 PUSH2 0x24EB JUMP JUMPDEST PUSH2 0x297D PUSH1 0x20 DUP4 ADD DUP6 PUSH2 0x24EB JUMP JUMPDEST PUSH2 0x298A PUSH1 0x40 DUP4 ADD DUP5 PUSH2 0x2384 JUMP JUMPDEST SWAP5 SWAP4 POP POP POP POP JUMP JUMPDEST PUSH2 0x299B DUP2 PUSH2 0x1E0E JUMP JUMPDEST DUP2 EQ PUSH2 0x29A6 JUMPI PUSH1 0x0 DUP1 REVERT JUMPDEST POP JUMP JUMPDEST PUSH1 0x0 DUP2 MLOAD SWAP1 POP PUSH2 0x29B8 DUP2 PUSH2 0x2992 JUMP JUMPDEST SWAP3 SWAP2 POP POP JUMP JUMPDEST PUSH1 0x0 PUSH1 0x20 DUP3 DUP5 SUB SLT ISZERO PUSH2 0x29D4 JUMPI PUSH2 0x29D3 PUSH2 0x1D7F JUMP JUMPDEST JUMPDEST PUSH1 0x0 PUSH2 0x29E2 DUP5 DUP3 DUP6 ADD PUSH2 0x29A9 JUMP JUMPDEST SWAP2 POP POP SWAP3 SWAP2 POP POP JUMP JUMPDEST PUSH1 0x0 DUP2 SWAP1 POP SWAP3 SWAP2 POP POP JUMP JUMPDEST POP JUMP JUMPDEST PUSH1 0x0 PUSH2 0x2A06 PUSH1 0x0 DUP4 PUSH2 0x29EB JUMP JUMPDEST SWAP2 POP PUSH2 0x2A11 DUP3 PUSH2 0x29F6 JUMP JUMPDEST PUSH1 0x0 DUP3 ADD SWAP1 POP SWAP2 SWAP1 POP JUMP JUMPDEST PUSH1 0x0 PUSH2 0x2A27 DUP3 PUSH2 0x29F9 JUMP JUMPDEST SWAP2 POP DUP2 SWAP1 POP SWAP2 SWAP1 POP JUMP JUMPDEST PUSH1 0x0 PUSH1 0xC0 DUP3 ADD SWAP1 POP PUSH2 0x2A46 PUSH1 0x0 DUP4 ADD DUP10 PUSH2 0x2504 JUMP JUMPDEST PUSH2 0x2A53 PUSH1 0x20 DUP4 ADD DUP9 PUSH2 0x2504 JUMP JUMPDEST PUSH2 0x2A60 PUSH1 0x40 DUP4 ADD DUP8 PUSH2 0x24EB JUMP JUMPDEST PUSH2 0x2A6D PUSH1 0x60 DUP4 ADD DUP7 PUSH2 0x24EB JUMP JUMPDEST PUSH2 0x2A7A PUSH1 0x80 DUP4 ADD DUP6 PUSH2 0x24EB JUMP JUMPDEST PUSH2 0x2A87 PUSH1 0xA0 DUP4 ADD DUP5 PUSH2 0x2384 JUMP JUMPDEST SWAP8 SWAP7 POP POP POP POP POP POP POP JUMP JUMPDEST PUSH32 0x4E487B7100000000000000000000000000000000000000000000000000000000 PUSH1 0x0 MSTORE PUSH1 0x21 PUSH1 0x4 MSTORE PUSH1 0x24 PUSH1 0x0 REVERT JUMPDEST PUSH1 0x5 DUP2 LT PUSH2 0x2AD2 JUMPI PUSH2 0x2AD1 PUSH2 0x2A92 JUMP JUMPDEST JUMPDEST POP JUMP JUMPDEST PUSH1 0x0 DUP2 SWAP1 POP PUSH2 0x2AE3 DUP3 PUSH2 0x2AC1 JUMP JUMPDEST SWAP2 SWAP1 POP JUMP JUMPDEST PUSH1 0x0 PUSH2 0x2AF3 DUP3 PUSH2 0x2AD5 JUMP JUMPDEST SWAP1 POP SWAP2 SWAP1 POP JUMP JUMPDEST PUSH2 0x2B03 DUP2 PUSH2 0x2AE8 JUMP JUMPDEST DUP3 MSTORE POP POP JUMP JUMPDEST PUSH1 0x0 DUP2 SWAP1 POP SWAP2 SWAP1 POP JUMP JUMPDEST PUSH1 0x0 DUP2 SWAP1 POP SWAP2 SWAP1 POP JUMP JUMPDEST PUSH1 0x0 PUSH2 0x2B38 PUSH2 0x2B33 PUSH2 0x2B2E DUP5 PUSH2 0x2B09 JUMP JUMPDEST PUSH2 0x2B13 JUMP JUMPDEST PUSH2 0x2093 JUMP JUMPDEST SWAP1 POP SWAP2 SWAP1 POP JUMP JUMPDEST PUSH2 0x2B48 DUP2 PUSH2 0x2B1D JUMP JUMPDEST DUP3 MSTORE POP POP JUMP JUMPDEST PUSH1 0x0 PUSH1 0xA0 DUP3 ADD SWAP1 POP DUP2 DUP2 SUB PUSH1 0x0 DUP4 ADD MSTORE PUSH2 0x2B68 DUP2 DUP9 PUSH2 0x24B2 JUMP JUMPDEST SWAP1 POP PUSH2 0x2B77 PUSH1 0x20 DUP4 ADD DUP8 PUSH2 0x2AFA JUMP JUMPDEST PUSH2 0x2B84 PUSH1 0x40 DUP4 ADD DUP7 PUSH2 0x24EB JUMP JUMPDEST PUSH2 0x2B91 PUSH1 0x60 DUP4 ADD DUP6 PUSH2 0x2B3F JUMP JUMPDEST PUSH2 0x2B9E PUSH1 0x80 DUP4 ADD DUP5 PUSH2 0x2384 JUMP JUMPDEST SWAP7 SWAP6 POP POP POP POP POP POP JUMP JUMPDEST PUSH32 0x4E487B7100000000000000000000000000000000000000000000000000000000 PUSH1 0x0 MSTORE PUSH1 0x11 PUSH1 0x4 MSTORE PUSH1 0x24 PUSH1 0x0 REVERT JUMPDEST PUSH1 0x0 PUSH2 0x2BE2 DUP3 PUSH2 0x2093 JUMP JUMPDEST SWAP2 POP PUSH2 0x2BED DUP4 PUSH2 0x2093 JUMP JUMPDEST SWAP3 POP DUP3 DUP3 SUB SWAP1 POP DUP2 DUP2 GT ISZERO PUSH2 0x2C05 JUMPI PUSH2 0x2C04 PUSH2 0x2BA8 JUMP JUMPDEST JUMPDEST SWAP3 SWAP2 POP POP JUMP JUMPDEST PUSH1 0x0 PUSH1 0x40 DUP3 ADD SWAP1 POP PUSH2 0x2C20 PUSH1 0x0 DUP4 ADD DUP6 PUSH2 0x24EB JUMP JUMPDEST PUSH2 0x2C2D PUSH1 0x20 DUP4 ADD DUP5 PUSH2 0x2384 JUMP JUMPDEST SWAP4 SWAP3 POP POP POP JUMP JUMPDEST PUSH1 0x0 PUSH2 0x2C3F DUP3 PUSH2 0x2093 JUMP JUMPDEST SWAP2 POP PUSH2 0x2C4A DUP4 PUSH2 0x2093 JUMP JUMPDEST SWAP3 POP DUP3 DUP3 ADD SWAP1 POP DUP1 DUP3 GT ISZERO PUSH2 0x2C62 JUMPI PUSH2 0x2C61 PUSH2 0x2BA8 JUMP JUMPDEST JUMPDEST SWAP3 SWAP2 POP POP JUMP JUMPDEST PUSH1 0x0 PUSH1 0x80 DUP3 ADD SWAP1 POP DUP2 DUP2 SUB PUSH1 0x0 DUP4 ADD MSTORE PUSH2 0x2C82 DUP2 DUP8 PUSH2 0x24B2 JUMP JUMPDEST SWAP1 POP PUSH2 0x2C91 PUSH1 0x20 DUP4 ADD DUP7 PUSH2 0x24EB JUMP JUMPDEST PUSH2 0x2C9E PUSH1 0x40 DUP4 ADD DUP6 PUSH2 0x24EB JUMP JUMPDEST PUSH2 0x2CAB PUSH1 0x60 DUP4 ADD DUP5 PUSH2 0x2384 JUMP JUMPDEST SWAP6 SWAP5 POP POP POP POP POP JUMP JUMPDEST PUSH32 0x4E487B7100000000000000000000000000000000000000000000000000000000 PUSH1 0x0 MSTORE PUSH1 0x22 PUSH1 0x4 MSTORE PUSH1 0x24 PUSH1 0x0 REVERT JUMPDEST PUSH1 0x0 PUSH1 0x2 DUP3 DIV SWAP1 POP PUSH1 0x1 DUP3 AND DUP1 PUSH2 0x2CFB JUMPI PUSH1 0x7F DUP3 AND SWAP2 POP JUMPDEST PUSH1 0x20 DUP3 LT DUP2 SUB PUSH2 0x2D0E JUMPI PUSH2 0x2D0D PUSH2 0x2CB4 JUMP JUMPDEST JUMPDEST POP SWAP2 SWAP1 POP JUMP JUMPDEST PUSH1 0x0 PUSH1 0x20 DUP3 ADD SWAP1 POP PUSH2 0x2D29 PUSH1 0x0 DUP4 ADD DUP5 PUSH2 0x2504 JUMP JUMPDEST SWAP3 SWAP2 POP POP JUMP JUMPDEST PUSH1 0x0 PUSH1 0xA0 DUP3 ADD SWAP1 POP PUSH2 0x2D44 PUSH1 0x0 DUP4 ADD DUP9 PUSH2 0x2504 JUMP JUMPDEST PUSH2 0x2D51 PUSH1 0x20 DUP4 ADD DUP8 PUSH2 0x2504 JUMP JUMPDEST PUSH2 0x2D5E PUSH1 0x40 DUP4 ADD DUP7 PUSH2 0x2504 JUMP JUMPDEST PUSH2 0x2D6B PUSH1 0x60 DUP4 ADD DUP6 PUSH2 0x2384 JUMP JUMPDEST PUSH2 0x2D78 PUSH1 0x80 DUP4 ADD DUP5 PUSH2 0x24EB JUMP JUMPDEST SWAP7 SWAP6 POP POP POP POP POP POP JUMP JUMPDEST PUSH1 0x0 PUSH1 0xFF DUP3 AND SWAP1 POP SWAP2 SWAP1 POP JUMP JUMPDEST PUSH2 0x2D98 DUP2 PUSH2 0x2D82 JUMP JUMPDEST DUP3 MSTORE POP POP JUMP JUMPDEST PUSH1 0x0 PUSH1 0x80 DUP3 ADD SWAP1 POP PUSH2 0x2DB3 PUSH1 0x0 DUP4 ADD DUP8 PUSH2 0x2504 JUMP JUMPDEST PUSH2 0x2DC0 PUSH1 0x20 DUP4 ADD DUP7 PUSH2 0x2D8F JUMP JUMPDEST PUSH2 0x2DCD PUSH1 0x40 DUP4 ADD DUP6 PUSH2 0x2504 JUMP JUMPDEST PUSH2 0x2DDA PUSH1 0x60 DUP4 ADD DUP5 PUSH2 0x2504 JUMP JUMPDEST SWAP6 SWAP5 POP POP POP POP POP JUMP INVALID LOG2 PUSH5 0x6970667358 0x22 SLT KECCAK256 MOD 0xA7 DUP15 DUP8 0xC3 SWAP7 0xC9 BASEFEE PUSH15 0xF43FD0DA495C3C4ED4CA9B8E2C03DB SWAP6 ADD CALL PUSH32 0x1D94A53A64736F6C634300081800330000000000000000000000000000000000 "},"gasEstimates":{"creation":{"codeDepositCost":"2360200","executionCost":"infinite","totalCost":"infinite"},"external":{"acceptOwnership()":"54725","adminTransferAirdropOwnership(string,address)":"infinite","adminWithdrawERC20(address,string,address,uint256)":"infinite","adminWithdrawNative(address)":"infinite","airdropClaimedAmounts(string,address)":"infinite","airdropOwners(string)":"infinite","claimAirdrop(bytes,(string,address,address,address,uint256))":"infinite","contractBalance(string)":"infinite","eip712Domain()":"infinite","fundERC20(string,address,address,uint256)":"infinite","fundNative()":"231","getBalance(string,address)":"infinite","getChainId()":"470","onERC1155BatchReceived(address,address,uint256[],uint256[],bytes)":"infinite","onERC1155Received(address,address,uint256,uint256,bytes)":"infinite","onERC721Received(address,address,uint256,bytes)":"infinite","owner()":"2545","pendingOwner()":"2655","renounceOwnership()":"infinite","setAdminAddress(address)":"infinite","supportsInterface(bytes4)":"754","transferOwnership(address)":"infinite","verify(bytes,(string,address,address,address,uint256))":"infinite","withdrawERC20(string,address,address,uint256)":"infinite"},"internal":{"_verify(bytes memory,struct Payfluence.AirdropMessage memory)":"infinite"}},"methodIdentifiers":{"acceptOwnership()":"79ba5097","adminTransferAirdropOwnership(string,address)":"2394c348","adminWithdrawERC20(address,string,address,uint256)":"fe1fddaa","adminWithdrawNative(address)":"c8b5773d","airdropClaimedAmounts(string,address)":"eb47e011","airdropOwners(string)":"ea13689f","claimAirdrop(bytes,(string,address,address,address,uint256))":"80c4020c","contractBalance(string)":"ffb1500e","eip712Domain()":"84b0196e","fundERC20(string,address,address,uint256)":"c4385d76","fundNative()":"c9c61eab","getBalance(string,address)":"89f4b317","getChainId()":"3408e470","onERC1155BatchReceived(address,address,uint256[],uint256[],bytes)":"bc197c81","onERC1155Received(address,address,uint256,uint256,bytes)":"f23a6e61","onERC721Received(address,address,uint256,bytes)":"150b7a02","owner()":"8da5cb5b","pendingOwner()":"e30c3978","renounceOwnership()":"715018a6","setAdminAddress(address)":"2c1e816d","supportsInterface(bytes4)":"01ffc9a7","transferOwnership(address)":"f2fde38b","verify(bytes,(string,address,address,address,uint256))":"1090bafa","withdrawERC20(string,address,address,uint256)":"4f18868a"}},"storageLayout":{"storage":[{"astId":8,"contract":"contracts/Payfluence.sol:Payfluence","label":"_owner","offset":0,"slot":"0","type":"t_address"},{"astId":156,"contract":"contracts/Payfluence.sol:Payfluence","label":"_pendingOwner","offset":0,"slot":"1","type":"t_address"},{"astId":677,"contract":"contracts/Payfluence.sol:Payfluence","label":"_status","offset":0,"slot":"2","type":"t_uint256"},{"astId":1702,"contract":"contracts/Payfluence.sol:Payfluence","label":"_nameFallback","offset":0,"slot":"3","type":"t_string_storage"},{"astId":1704,"contract":"contracts/Payfluence.sol:Payfluence","label":"_versionFallback","offset":0,"slot":"4","type":"t_string_storage"},{"astId":3581,"contract":"contracts/Payfluence.sol:Payfluence","label":"totalNativeBalance","offset":0,"slot":"5","type":"t_uint256"},{"astId":3605,"contract":"contracts/Payfluence.sol:Payfluence","label":"contractBalance","offset":0,"slot":"6","type":"t_mapping(t_string_memory_ptr,t_struct(AssetBalance)3600_storage)"},{"astId":3610,"contract":"contracts/Payfluence.sol:Payfluence","label":"assetTypeMap","offset":0,"slot":"7","type":"t_mapping(t_address,t_enum(AssetType)3578)"},{"astId":3164,"contract":"contracts/Payfluence.sol:Payfluence","label":"adminAddress","offset":0,"slot":"8","type":"t_address"},{"astId":3168,"contract":"contracts/Payfluence.sol:Payfluence","label":"airdropOwners","offset":0,"slot":"9","type":"t_mapping(t_string_memory_ptr,t_address)"},{"astId":3174,"contract":"contracts/Payfluence.sol:Payfluence","label":"airdropClaimedAmounts","offset":0,"slot":"10","type":"t_mapping(t_string_memory_ptr,t_mapping(t_address,t_uint256))"}],"types":{"t_address":{"encoding":"inplace","label":"address","numberOfBytes":"20"},"t_bool":{"encoding":"inplace","label":"bool","numberOfBytes":"1"},"t_enum(AssetType)3578":{"encoding":"inplace","label":"enum TokenReceiver.AssetType","numberOfBytes":"1"},"t_mapping(t_address,t_enum(AssetType)3578)":{"encoding":"mapping","key":"t_address","label":"mapping(address => enum TokenReceiver.AssetType)","numberOfBytes":"32","value":"t_enum(AssetType)3578"},"t_mapping(t_address,t_mapping(t_uint256,t_bool))":{"encoding":"mapping","key":"t_address","label":"mapping(address => mapping(uint256 => bool))","numberOfBytes":"32","value":"t_mapping(t_uint256,t_bool)"},"t_mapping(t_address,t_mapping(t_uint256,t_uint256))":{"encoding":"mapping","key":"t_address","label":"mapping(address => mapping(uint256 => uint256))","numberOfBytes":"32","value":"t_mapping(t_uint256,t_uint256)"},"t_mapping(t_address,t_uint256)":{"encoding":"mapping","key":"t_address","label":"mapping(address => uint256)","numberOfBytes":"32","value":"t_uint256"},"t_mapping(t_string_memory_ptr,t_address)":{"encoding":"mapping","key":"t_string_memory_ptr","label":"mapping(string => address)","numberOfBytes":"32","value":"t_address"},"t_mapping(t_string_memory_ptr,t_mapping(t_address,t_uint256))":{"encoding":"mapping","key":"t_string_memory_ptr","label":"mapping(string => mapping(address => uint256))","numberOfBytes":"32","value":"t_mapping(t_address,t_uint256)"},"t_mapping(t_string_memory_ptr,t_struct(AssetBalance)3600_storage)":{"encoding":"mapping","key":"t_string_memory_ptr","label":"mapping(string => struct TokenReceiver.AssetBalance)","numberOfBytes":"32","value":"t_struct(AssetBalance)3600_storage"},"t_mapping(t_uint256,t_bool)":{"encoding":"mapping","key":"t_uint256","label":"mapping(uint256 => bool)","numberOfBytes":"32","value":"t_bool"},"t_mapping(t_uint256,t_uint256)":{"encoding":"mapping","key":"t_uint256","label":"mapping(uint256 => uint256)","numberOfBytes":"32","value":"t_uint256"},"t_string_memory_ptr":{"encoding":"bytes","label":"string","numberOfBytes":"32"},"t_string_storage":{"encoding":"bytes","label":"string","numberOfBytes":"32"},"t_struct(AssetBalance)3600_storage":{"encoding":"inplace","label":"struct TokenReceiver.AssetBalance","members":[{"astId":3583,"contract":"contracts/Payfluence.sol:Payfluence","label":"native","offset":0,"slot":"0","type":"t_uint256"},{"astId":3587,"contract":"contracts/Payfluence.sol:Payfluence","label":"erc20","offset":0,"slot":"1","type":"t_mapping(t_address,t_uint256)"},{"astId":3593,"contract":"contracts/Payfluence.sol:Payfluence","label":"erc721","offset":0,"slot":"2","type":"t_mapping(t_address,t_mapping(t_uint256,t_bool))"},{"astId":3599,"contract":"contracts/Payfluence.sol:Payfluence","label":"erc1155","offset":0,"slot":"3","type":"t_mapping(t_address,t_mapping(t_uint256,t_uint256))"}],"numberOfBytes":"128"},"t_uint256":{"encoding":"inplace","label":"uint256","numberOfBytes":"32"}}},"userdoc":{"kind":"user","methods":{},"version":1}}}}