{
  "_format": "hh-sol-artifact-1",
  "contractName": "EchoeCampaignsV1",
  "sourceName": "contracts/EchoeCampaignsV1.sol",
  "abi": [
    {
      "inputs": [],
      "stateMutability": "nonpayable",
      "type": "constructor"
    },
    {
      "inputs": [
        {
          "internalType": "string",
          "name": "id",
          "type": "string"
        },
        {
          "internalType": "address",
          "name": "token",
          "type": "address"
        }
      ],
      "name": "AssetNotFound",
      "type": "error"
    },
    {
      "inputs": [],
      "name": "AssetTypeCannotBeNone",
      "type": "error"
    },
    {
      "inputs": [
        {
          "internalType": "address",
          "name": "token",
          "type": "address"
        }
      ],
      "name": "AssetTypeNotFoundForToken",
      "type": "error"
    },
    {
      "inputs": [
        {
          "internalType": "string",
          "name": "id",
          "type": "string"
        }
      ],
      "name": "CampaignExistsAlready",
      "type": "error"
    },
    {
      "inputs": [
        {
          "internalType": "string",
          "name": "id",
          "type": "string"
        }
      ],
      "name": "CampaignNotActive",
      "type": "error"
    },
    {
      "inputs": [
        {
          "internalType": "string",
          "name": "id",
          "type": "string"
        }
      ],
      "name": "CampaignNotFound",
      "type": "error"
    },
    {
      "inputs": [
        {
          "internalType": "string",
          "name": "id",
          "type": "string"
        }
      ],
      "name": "CampaignNotPublished",
      "type": "error"
    },
    {
      "inputs": [],
      "name": "EnforcedPause",
      "type": "error"
    },
    {
      "inputs": [],
      "name": "ExpectedPause",
      "type": "error"
    },
    {
      "inputs": [
        {
          "internalType": "enum TokenReceiver.AssetType",
          "name": "assetType",
          "type": "uint8"
        }
      ],
      "name": "InvalidAssetType",
      "type": "error"
    },
    {
      "inputs": [],
      "name": "LiabilityTimeNotExpired",
      "type": "error"
    },
    {
      "inputs": [
        {
          "internalType": "string",
          "name": "id",
          "type": "string"
        },
        {
          "internalType": "address",
          "name": "creator",
          "type": "address"
        }
      ],
      "name": "NotCampaignOwner",
      "type": "error"
    },
    {
      "inputs": [
        {
          "internalType": "address",
          "name": "sender",
          "type": "address"
        }
      ],
      "name": "NotCreator",
      "type": "error"
    },
    {
      "inputs": [
        {
          "internalType": "string",
          "name": "id",
          "type": "string"
        },
        {
          "internalType": "enum TokenReceiver.AssetType",
          "name": "assetType",
          "type": "uint8"
        },
        {
          "internalType": "address",
          "name": "token",
          "type": "address"
        },
        {
          "internalType": "uint256",
          "name": "tokenId",
          "type": "uint256"
        },
        {
          "internalType": "uint256",
          "name": "amount",
          "type": "uint256"
        }
      ],
      "name": "NotEnoughFunds",
      "type": "error"
    },
    {
      "inputs": [
        {
          "internalType": "address",
          "name": "sender",
          "type": "address"
        }
      ],
      "name": "NotManager",
      "type": "error"
    },
    {
      "inputs": [
        {
          "internalType": "address",
          "name": "sender",
          "type": "address"
        }
      ],
      "name": "NotManagerOrCreator",
      "type": "error"
    },
    {
      "inputs": [
        {
          "internalType": "address",
          "name": "owner",
          "type": "address"
        }
      ],
      "name": "OwnableInvalidOwner",
      "type": "error"
    },
    {
      "inputs": [
        {
          "internalType": "address",
          "name": "account",
          "type": "address"
        }
      ],
      "name": "OwnableUnauthorizedAccount",
      "type": "error"
    },
    {
      "inputs": [
        {
          "internalType": "string",
          "name": "id",
          "type": "string"
        },
        {
          "internalType": "address",
          "name": "to",
          "type": "address"
        },
        {
          "internalType": "uint256",
          "name": "amount",
          "type": "uint256"
        }
      ],
      "name": "TransferNativeFailed",
      "type": "error"
    },
    {
      "inputs": [],
      "name": "ZeroAddress",
      "type": "error"
    },
    {
      "inputs": [],
      "name": "ZeroAmount",
      "type": "error"
    },
    {
      "anonymous": false,
      "inputs": [
        {
          "indexed": true,
          "internalType": "string",
          "name": "id",
          "type": "string"
        },
        {
          "indexed": true,
          "internalType": "address",
          "name": "creator",
          "type": "address"
        },
        {
          "indexed": false,
          "internalType": "uint256",
          "name": "startTime",
          "type": "uint256"
        },
        {
          "indexed": false,
          "internalType": "uint256",
          "name": "endTime",
          "type": "uint256"
        },
        {
          "indexed": false,
          "internalType": "bool",
          "name": "indexedpublished",
          "type": "bool"
        }
      ],
      "name": "CampaignCreated",
      "type": "event"
    },
    {
      "anonymous": false,
      "inputs": [
        {
          "indexed": false,
          "internalType": "string",
          "name": "id",
          "type": "string"
        },
        {
          "indexed": false,
          "internalType": "address",
          "name": "operator",
          "type": "address"
        },
        {
          "indexed": false,
          "internalType": "address",
          "name": "from",
          "type": "address"
        },
        {
          "indexed": false,
          "internalType": "uint256[]",
          "name": "tokenIds",
          "type": "uint256[]"
        },
        {
          "indexed": false,
          "internalType": "uint256[]",
          "name": "amounts",
          "type": "uint256[]"
        }
      ],
      "name": "ERC1155BatchReceived",
      "type": "event"
    },
    {
      "anonymous": false,
      "inputs": [
        {
          "indexed": false,
          "internalType": "string",
          "name": "id",
          "type": "string"
        },
        {
          "indexed": false,
          "internalType": "address",
          "name": "operator",
          "type": "address"
        },
        {
          "indexed": false,
          "internalType": "address",
          "name": "from",
          "type": "address"
        },
        {
          "indexed": false,
          "internalType": "uint256",
          "name": "tokenIds",
          "type": "uint256"
        },
        {
          "indexed": false,
          "internalType": "uint256",
          "name": "amounts",
          "type": "uint256"
        }
      ],
      "name": "ERC1155Received",
      "type": "event"
    },
    {
      "anonymous": false,
      "inputs": [
        {
          "indexed": false,
          "internalType": "string",
          "name": "id",
          "type": "string"
        },
        {
          "indexed": false,
          "internalType": "address",
          "name": "from",
          "type": "address"
        },
        {
          "indexed": false,
          "internalType": "address",
          "name": "token",
          "type": "address"
        },
        {
          "indexed": false,
          "internalType": "uint256",
          "name": "amount",
          "type": "uint256"
        }
      ],
      "name": "ERC20Received",
      "type": "event"
    },
    {
      "anonymous": false,
      "inputs": [
        {
          "indexed": false,
          "internalType": "string",
          "name": "id",
          "type": "string"
        },
        {
          "indexed": false,
          "internalType": "address",
          "name": "operator",
          "type": "address"
        },
        {
          "indexed": false,
          "internalType": "address",
          "name": "from",
          "type": "address"
        },
        {
          "indexed": false,
          "internalType": "uint256",
          "name": "tokenId",
          "type": "uint256"
        }
      ],
      "name": "ERC721Received",
      "type": "event"
    },
    {
      "anonymous": false,
      "inputs": [
        {
          "indexed": true,
          "internalType": "string",
          "name": "id",
          "type": "string"
        },
        {
          "indexed": true,
          "internalType": "uint256",
          "name": "lastPayoutAt",
          "type": "uint256"
        }
      ],
      "name": "LastPayoutAtUpdated",
      "type": "event"
    },
    {
      "anonymous": false,
      "inputs": [
        {
          "indexed": true,
          "internalType": "string",
          "name": "id",
          "type": "string"
        },
        {
          "indexed": true,
          "internalType": "uint256",
          "name": "lastUpdatedAt",
          "type": "uint256"
        }
      ],
      "name": "LastUpdatedAtUpdated",
      "type": "event"
    },
    {
      "anonymous": false,
      "inputs": [
        {
          "indexed": false,
          "internalType": "string",
          "name": "id",
          "type": "string"
        },
        {
          "indexed": false,
          "internalType": "address",
          "name": "from",
          "type": "address"
        },
        {
          "indexed": false,
          "internalType": "uint256",
          "name": "amount",
          "type": "uint256"
        }
      ],
      "name": "NativeReceived",
      "type": "event"
    },
    {
      "anonymous": false,
      "inputs": [
        {
          "indexed": true,
          "internalType": "address",
          "name": "previousOwner",
          "type": "address"
        },
        {
          "indexed": true,
          "internalType": "address",
          "name": "newOwner",
          "type": "address"
        }
      ],
      "name": "OwnershipTransferStarted",
      "type": "event"
    },
    {
      "anonymous": false,
      "inputs": [
        {
          "indexed": true,
          "internalType": "address",
          "name": "previousOwner",
          "type": "address"
        },
        {
          "indexed": true,
          "internalType": "address",
          "name": "newOwner",
          "type": "address"
        }
      ],
      "name": "OwnershipTransferred",
      "type": "event"
    },
    {
      "anonymous": false,
      "inputs": [
        {
          "indexed": false,
          "internalType": "address",
          "name": "account",
          "type": "address"
        }
      ],
      "name": "Paused",
      "type": "event"
    },
    {
      "anonymous": false,
      "inputs": [
        {
          "indexed": true,
          "internalType": "string",
          "name": "id",
          "type": "string"
        },
        {
          "indexed": true,
          "internalType": "bool",
          "name": "published",
          "type": "bool"
        }
      ],
      "name": "PublishedUpdated",
      "type": "event"
    },
    {
      "anonymous": false,
      "inputs": [
        {
          "indexed": true,
          "internalType": "string",
          "name": "id",
          "type": "string"
        },
        {
          "indexed": true,
          "internalType": "address",
          "name": "participant",
          "type": "address"
        },
        {
          "indexed": false,
          "internalType": "address[]",
          "name": "tokens",
          "type": "address[]"
        },
        {
          "indexed": false,
          "internalType": "enum TokenReceiver.AssetType[]",
          "name": "assetTypes",
          "type": "uint8[]"
        },
        {
          "indexed": false,
          "internalType": "uint256",
          "name": "amount",
          "type": "uint256"
        },
        {
          "indexed": false,
          "internalType": "uint256",
          "name": "tokenId",
          "type": "uint256"
        },
        {
          "indexed": false,
          "internalType": "uint256",
          "name": "platform",
          "type": "uint256"
        },
        {
          "indexed": false,
          "internalType": "bytes32",
          "name": "postId",
          "type": "bytes32"
        },
        {
          "indexed": false,
          "internalType": "uint256[]",
          "name": "metricIds",
          "type": "uint256[]"
        },
        {
          "indexed": false,
          "internalType": "uint256[]",
          "name": "values",
          "type": "uint256[]"
        }
      ],
      "name": "RewardParticipant",
      "type": "event"
    },
    {
      "anonymous": false,
      "inputs": [
        {
          "indexed": true,
          "internalType": "string",
          "name": "id",
          "type": "string"
        },
        {
          "indexed": true,
          "internalType": "uint256",
          "name": "startTime",
          "type": "uint256"
        },
        {
          "indexed": true,
          "internalType": "uint256",
          "name": "endTime",
          "type": "uint256"
        }
      ],
      "name": "TimeRangeUpdated",
      "type": "event"
    },
    {
      "anonymous": false,
      "inputs": [
        {
          "indexed": false,
          "internalType": "address",
          "name": "account",
          "type": "address"
        }
      ],
      "name": "Unpaused",
      "type": "event"
    },
    {
      "anonymous": false,
      "inputs": [
        {
          "indexed": true,
          "internalType": "string",
          "name": "id",
          "type": "string"
        },
        {
          "indexed": true,
          "internalType": "address",
          "name": "to",
          "type": "address"
        },
        {
          "indexed": true,
          "internalType": "address",
          "name": "token",
          "type": "address"
        },
        {
          "indexed": false,
          "internalType": "enum TokenReceiver.AssetType",
          "name": "assetType",
          "type": "uint8"
        },
        {
          "indexed": false,
          "internalType": "uint256",
          "name": "amount",
          "type": "uint256"
        },
        {
          "indexed": false,
          "internalType": "uint256",
          "name": "tokenId",
          "type": "uint256"
        },
        {
          "indexed": false,
          "internalType": "bool",
          "name": "liabilityEnvoked",
          "type": "bool"
        }
      ],
      "name": "WithdrawAsset",
      "type": "event"
    },
    {
      "inputs": [],
      "name": "acceptOwnership",
      "outputs": [],
      "stateMutability": "nonpayable",
      "type": "function"
    },
    {
      "inputs": [
        {
          "internalType": "string",
          "name": "id",
          "type": "string"
        },
        {
          "internalType": "bool",
          "name": "published",
          "type": "bool"
        }
      ],
      "name": "adminSetPublished",
      "outputs": [],
      "stateMutability": "nonpayable",
      "type": "function"
    },
    {
      "inputs": [
        {
          "internalType": "string",
          "name": "id",
          "type": "string"
        },
        {
          "internalType": "address payable",
          "name": "to",
          "type": "address"
        },
        {
          "internalType": "address",
          "name": "token",
          "type": "address"
        },
        {
          "internalType": "enum TokenReceiver.AssetType",
          "name": "assetType",
          "type": "uint8"
        },
        {
          "internalType": "uint256",
          "name": "amount",
          "type": "uint256"
        },
        {
          "internalType": "uint256",
          "name": "tokenId",
          "type": "uint256"
        },
        {
          "internalType": "bytes",
          "name": "data",
          "type": "bytes"
        }
      ],
      "name": "adminWithdraw",
      "outputs": [],
      "stateMutability": "nonpayable",
      "type": "function"
    },
    {
      "inputs": [
        {
          "internalType": "string",
          "name": "id",
          "type": "string"
        },
        {
          "internalType": "address payable",
          "name": "to",
          "type": "address"
        },
        {
          "internalType": "address[]",
          "name": "tokens",
          "type": "address[]"
        },
        {
          "internalType": "enum TokenReceiver.AssetType[]",
          "name": "assetTypes",
          "type": "uint8[]"
        },
        {
          "internalType": "uint256[]",
          "name": "amounts",
          "type": "uint256[]"
        },
        {
          "internalType": "uint256[]",
          "name": "tokenIds",
          "type": "uint256[]"
        }
      ],
      "name": "archiveAndWithdrawAllAssets",
      "outputs": [],
      "stateMutability": "nonpayable",
      "type": "function"
    },
    {
      "inputs": [],
      "name": "backendAdmin",
      "outputs": [
        {
          "internalType": "address",
          "name": "",
          "type": "address"
        }
      ],
      "stateMutability": "view",
      "type": "function"
    },
    {
      "inputs": [
        {
          "internalType": "string",
          "name": "id",
          "type": "string"
        }
      ],
      "name": "campaigns",
      "outputs": [
        {
          "internalType": "address",
          "name": "creator",
          "type": "address"
        },
        {
          "internalType": "uint256",
          "name": "startTime",
          "type": "uint256"
        },
        {
          "internalType": "uint256",
          "name": "endTime",
          "type": "uint256"
        },
        {
          "internalType": "uint256",
          "name": "lastUpdatedAt",
          "type": "uint256"
        },
        {
          "internalType": "uint256",
          "name": "lastPayoutAt",
          "type": "uint256"
        },
        {
          "internalType": "bool",
          "name": "published",
          "type": "bool"
        }
      ],
      "stateMutability": "view",
      "type": "function"
    },
    {
      "inputs": [
        {
          "internalType": "string",
          "name": "id",
          "type": "string"
        }
      ],
      "name": "contractBalance",
      "outputs": [
        {
          "internalType": "uint256",
          "name": "native",
          "type": "uint256"
        }
      ],
      "stateMutability": "view",
      "type": "function"
    },
    {
      "inputs": [
        {
          "internalType": "string",
          "name": "id",
          "type": "string"
        },
        {
          "internalType": "uint256",
          "name": "startTime",
          "type": "uint256"
        },
        {
          "internalType": "uint256",
          "name": "endTime",
          "type": "uint256"
        }
      ],
      "name": "createCampaign",
      "outputs": [],
      "stateMutability": "nonpayable",
      "type": "function"
    },
    {
      "inputs": [
        {
          "internalType": "uint256",
          "name": "platform",
          "type": "uint256"
        },
        {
          "internalType": "bytes32[]",
          "name": "postIds",
          "type": "bytes32[]"
        },
        {
          "internalType": "uint256[]",
          "name": "metricIds",
          "type": "uint256[]"
        }
      ],
      "name": "getPostMetrics",
      "outputs": [
        {
          "internalType": "uint256[]",
          "name": "",
          "type": "uint256[]"
        }
      ],
      "stateMutability": "view",
      "type": "function"
    },
    {
      "inputs": [
        {
          "internalType": "uint256",
          "name": "platform",
          "type": "uint256"
        },
        {
          "internalType": "bytes32[]",
          "name": "postIds",
          "type": "bytes32[]"
        },
        {
          "internalType": "uint256[]",
          "name": "metricIds",
          "type": "uint256[]"
        }
      ],
      "name": "getPostMetricsBatch",
      "outputs": [
        {
          "internalType": "uint256[]",
          "name": "",
          "type": "uint256[]"
        }
      ],
      "stateMutability": "view",
      "type": "function"
    },
    {
      "inputs": [
        {
          "internalType": "address",
          "name": "",
          "type": "address"
        },
        {
          "internalType": "address",
          "name": "from",
          "type": "address"
        },
        {
          "internalType": "uint256[]",
          "name": "ids",
          "type": "uint256[]"
        },
        {
          "internalType": "uint256[]",
          "name": "values",
          "type": "uint256[]"
        },
        {
          "internalType": "bytes",
          "name": "data",
          "type": "bytes"
        }
      ],
      "name": "onERC1155BatchReceived",
      "outputs": [
        {
          "internalType": "bytes4",
          "name": "",
          "type": "bytes4"
        }
      ],
      "stateMutability": "nonpayable",
      "type": "function"
    },
    {
      "inputs": [
        {
          "internalType": "address",
          "name": "",
          "type": "address"
        },
        {
          "internalType": "address",
          "name": "from",
          "type": "address"
        },
        {
          "internalType": "uint256",
          "name": "id",
          "type": "uint256"
        },
        {
          "internalType": "uint256",
          "name": "value",
          "type": "uint256"
        },
        {
          "internalType": "bytes",
          "name": "data",
          "type": "bytes"
        }
      ],
      "name": "onERC1155Received",
      "outputs": [
        {
          "internalType": "bytes4",
          "name": "",
          "type": "bytes4"
        }
      ],
      "stateMutability": "nonpayable",
      "type": "function"
    },
    {
      "inputs": [
        {
          "internalType": "address",
          "name": "",
          "type": "address"
        },
        {
          "internalType": "address",
          "name": "from",
          "type": "address"
        },
        {
          "internalType": "uint256",
          "name": "tokenId",
          "type": "uint256"
        },
        {
          "internalType": "bytes",
          "name": "data",
          "type": "bytes"
        }
      ],
      "name": "onERC721Received",
      "outputs": [
        {
          "internalType": "bytes4",
          "name": "",
          "type": "bytes4"
        }
      ],
      "stateMutability": "nonpayable",
      "type": "function"
    },
    {
      "inputs": [],
      "name": "owner",
      "outputs": [
        {
          "internalType": "address",
          "name": "",
          "type": "address"
        }
      ],
      "stateMutability": "view",
      "type": "function"
    },
    {
      "inputs": [
        {
          "internalType": "string",
          "name": "id",
          "type": "string"
        },
        {
          "internalType": "address",
          "name": "participant",
          "type": "address"
        }
      ],
      "name": "participantBalance",
      "outputs": [
        {
          "internalType": "uint256",
          "name": "native",
          "type": "uint256"
        }
      ],
      "stateMutability": "view",
      "type": "function"
    },
    {
      "inputs": [],
      "name": "paused",
      "outputs": [
        {
          "internalType": "bool",
          "name": "",
          "type": "bool"
        }
      ],
      "stateMutability": "view",
      "type": "function"
    },
    {
      "inputs": [],
      "name": "pendingOwner",
      "outputs": [
        {
          "internalType": "address",
          "name": "",
          "type": "address"
        }
      ],
      "stateMutability": "view",
      "type": "function"
    },
    {
      "inputs": [
        {
          "internalType": "uint256",
          "name": "platform",
          "type": "uint256"
        },
        {
          "internalType": "bytes32",
          "name": "postId",
          "type": "bytes32"
        },
        {
          "internalType": "uint256",
          "name": "metricId",
          "type": "uint256"
        }
      ],
      "name": "postMetrics",
      "outputs": [
        {
          "internalType": "uint256",
          "name": "value",
          "type": "uint256"
        }
      ],
      "stateMutability": "view",
      "type": "function"
    },
    {
      "inputs": [
        {
          "internalType": "string",
          "name": "id",
          "type": "string"
        },
        {
          "internalType": "uint256",
          "name": "startTime",
          "type": "uint256"
        },
        {
          "internalType": "uint256",
          "name": "endTime",
          "type": "uint256"
        }
      ],
      "name": "publishAndSetTimeRange",
      "outputs": [],
      "stateMutability": "nonpayable",
      "type": "function"
    },
    {
      "inputs": [],
      "name": "renounceOwnership",
      "outputs": [],
      "stateMutability": "nonpayable",
      "type": "function"
    },
    {
      "inputs": [
        {
          "internalType": "string",
          "name": "id",
          "type": "string"
        },
        {
          "components": [
            {
              "internalType": "address payable",
              "name": "participant",
              "type": "address"
            },
            {
              "components": [
                {
                  "internalType": "address[]",
                  "name": "tokens",
                  "type": "address[]"
                },
                {
                  "internalType": "enum TokenReceiver.AssetType[]",
                  "name": "assetTypes",
                  "type": "uint8[]"
                },
                {
                  "internalType": "uint256[]",
                  "name": "amounts",
                  "type": "uint256[]"
                },
                {
                  "internalType": "uint256[]",
                  "name": "tokenIds",
                  "type": "uint256[]"
                }
              ],
              "internalType": "struct EchoeCampaignsV1.RewardAssetsParams",
              "name": "assetsParams",
              "type": "tuple"
            },
            {
              "components": [
                {
                  "internalType": "uint256",
                  "name": "platform",
                  "type": "uint256"
                },
                {
                  "internalType": "bytes32",
                  "name": "postId",
                  "type": "bytes32"
                },
                {
                  "internalType": "uint256[]",
                  "name": "metricIds",
                  "type": "uint256[]"
                },
                {
                  "internalType": "uint256[]",
                  "name": "values",
                  "type": "uint256[]"
                }
              ],
              "internalType": "struct EchoeCampaignsV1.RewardMetricsParams",
              "name": "metricsParams",
              "type": "tuple"
            }
          ],
          "internalType": "struct EchoeCampaignsV1.RewardParams",
          "name": "params",
          "type": "tuple"
        }
      ],
      "name": "rewardParticipant",
      "outputs": [],
      "stateMutability": "nonpayable",
      "type": "function"
    },
    {
      "inputs": [
        {
          "internalType": "string",
          "name": "id",
          "type": "string"
        },
        {
          "components": [
            {
              "internalType": "address payable",
              "name": "participant",
              "type": "address"
            },
            {
              "components": [
                {
                  "internalType": "address[]",
                  "name": "tokens",
                  "type": "address[]"
                },
                {
                  "internalType": "enum TokenReceiver.AssetType[]",
                  "name": "assetTypes",
                  "type": "uint8[]"
                },
                {
                  "internalType": "uint256[]",
                  "name": "amounts",
                  "type": "uint256[]"
                },
                {
                  "internalType": "uint256[]",
                  "name": "tokenIds",
                  "type": "uint256[]"
                }
              ],
              "internalType": "struct EchoeCampaignsV1.RewardAssetsParams",
              "name": "assetsParams",
              "type": "tuple"
            },
            {
              "components": [
                {
                  "internalType": "uint256",
                  "name": "platform",
                  "type": "uint256"
                },
                {
                  "internalType": "bytes32",
                  "name": "postId",
                  "type": "bytes32"
                },
                {
                  "internalType": "uint256[]",
                  "name": "metricIds",
                  "type": "uint256[]"
                },
                {
                  "internalType": "uint256[]",
                  "name": "values",
                  "type": "uint256[]"
                }
              ],
              "internalType": "struct EchoeCampaignsV1.RewardMetricsParams",
              "name": "metricsParams",
              "type": "tuple"
            }
          ],
          "internalType": "struct EchoeCampaignsV1.RewardParams[]",
          "name": "params",
          "type": "tuple[]"
        }
      ],
      "name": "rewardParticipantBatch",
      "outputs": [],
      "stateMutability": "nonpayable",
      "type": "function"
    },
    {
      "inputs": [
        {
          "internalType": "address",
          "name": "manager",
          "type": "address"
        }
      ],
      "name": "setBackendAdmin",
      "outputs": [],
      "stateMutability": "nonpayable",
      "type": "function"
    },
    {
      "inputs": [
        {
          "internalType": "string",
          "name": "id",
          "type": "string"
        },
        {
          "internalType": "bool",
          "name": "published",
          "type": "bool"
        }
      ],
      "name": "setPublished",
      "outputs": [],
      "stateMutability": "nonpayable",
      "type": "function"
    },
    {
      "inputs": [
        {
          "internalType": "string",
          "name": "id",
          "type": "string"
        },
        {
          "internalType": "uint256",
          "name": "startTime",
          "type": "uint256"
        },
        {
          "internalType": "uint256",
          "name": "endTime",
          "type": "uint256"
        }
      ],
      "name": "setTimeRange",
      "outputs": [],
      "stateMutability": "nonpayable",
      "type": "function"
    },
    {
      "inputs": [
        {
          "internalType": "bytes4",
          "name": "interfaceId",
          "type": "bytes4"
        }
      ],
      "name": "supportsInterface",
      "outputs": [
        {
          "internalType": "bool",
          "name": "",
          "type": "bool"
        }
      ],
      "stateMutability": "view",
      "type": "function"
    },
    {
      "inputs": [
        {
          "internalType": "address",
          "name": "newOwner",
          "type": "address"
        }
      ],
      "name": "transferOwnership",
      "outputs": [],
      "stateMutability": "nonpayable",
      "type": "function"
    },
    {
      "inputs": [
        {
          "internalType": "string",
          "name": "id",
          "type": "string"
        },
        {
          "internalType": "address payable",
          "name": "to",
          "type": "address"
        },
        {
          "internalType": "address",
          "name": "token",
          "type": "address"
        },
        {
          "internalType": "enum TokenReceiver.AssetType",
          "name": "assetType",
          "type": "uint8"
        },
        {
          "internalType": "uint256",
          "name": "amount",
          "type": "uint256"
        },
        {
          "internalType": "uint256",
          "name": "tokenId",
          "type": "uint256"
        },
        {
          "internalType": "bytes",
          "name": "data",
          "type": "bytes"
        }
      ],
      "name": "withdrawAsset",
      "outputs": [],
      "stateMutability": "nonpayable",
      "type": "function"
    },
    {
      "stateMutability": "payable",
      "type": "receive"
    }
  ],
  "bytecode": "0x608060405260006002553480156200001657600080fd5b5033600073ffffffffffffffffffffffffffffffffffffffff168173ffffffffffffffffffffffffffffffffffffffff16036200008d5760006040517f1e4fbdf700000000000000000000000000000000000000000000000000000000815260040162000084919062000243565b60405180910390fd5b6200009e816200010160201b60201c565b506000600160146101000a81548160ff02191690831515021790555033600560006101000a81548173ffffffffffffffffffffffffffffffffffffffff021916908373ffffffffffffffffffffffffffffffffffffffff16021790555062000260565b600160006101000a81549073ffffffffffffffffffffffffffffffffffffffff021916905562000137816200013a60201b60201c565b50565b60008060009054906101000a900473ffffffffffffffffffffffffffffffffffffffff169050816000806101000a81548173ffffffffffffffffffffffffffffffffffffffff021916908373ffffffffffffffffffffffffffffffffffffffff1602179055508173ffffffffffffffffffffffffffffffffffffffff168173ffffffffffffffffffffffffffffffffffffffff167f8be0079c531659141344cd1fd0a4f28419497f9722a3daafe3b4186f6b6457e060405160405180910390a35050565b600073ffffffffffffffffffffffffffffffffffffffff82169050919050565b60006200022b82620001fe565b9050919050565b6200023d816200021e565b82525050565b60006020820190506200025a600083018462000232565b92915050565b614cdd80620002706000396000f3fe6080604052600436106101bb5760003560e01c80638da5cb5b116100ec578063d070e40c1161008a578063f23a6e6111610064578063f23a6e6114610614578063f2fde38b14610651578063f623d3ae1461067a578063ffb1500e146106b7576101c2565b8063d070e40c14610595578063e30c3978146105c0578063e4d930bc146105eb576101c2565b8063a22376f9116100c6578063a22376f9146104dd578063bc197c8114610506578063be7c3be014610543578063c85bc54a1461056c576101c2565b80638da5cb5b1461044c5780639ee667d614610477578063a10885e7146104a0576101c2565b80634bb9344b116101595780635c975abb116101335780635c975abb146103ca5780635da8737a146103f5578063715018a61461041e57806379ba509714610435576101c2565b80634bb9344b1461034f57806350232e4d14610378578063576abbc6146103a1576101c2565b80631d39e509116101955780631d39e5091461027e5780633020580b146102c05780633432870d146102e957806341ba0d1914610312576101c2565b806301ffc9a7146101c75780630e6b57a114610204578063150b7a0214610241576101c2565b366101c257005b600080fd5b3480156101d357600080fd5b506101ee60048036038101906101e991906130db565b6106f4565b6040516101fb9190613123565b60405180910390f35b34801561021057600080fd5b5061022b600480360381019061022691906132e2565b61082e565b6040516102389190613357565b60405180910390f35b34801561024d57600080fd5b50610268600480360381019061026391906133fe565b61086f565b6040516102759190613495565b60405180910390f35b34801561028a57600080fd5b506102a560048036038101906102a091906134b0565b6108b3565b6040516102b796959493929190613508565b60405180910390f35b3480156102cc57600080fd5b506102e760048036038101906102e29190613569565b610932565b005b3480156102f557600080fd5b50610310600480360381019061030b9190613569565b610aae565b005b34801561031e57600080fd5b506103396004803603810190610334919061360e565b610ada565b6040516103469190613357565b60405180910390f35b34801561035b57600080fd5b506103766004803603810190610371919061368d565b610b0c565b005b34801561038457600080fd5b5061039f600480360381019061039a91906137ed565b610b36565b005b3480156103ad57600080fd5b506103c860048036038101906103c39190613d4e565b610b62565b005b3480156103d657600080fd5b506103df6110c5565b6040516103ec9190613123565b60405180910390f35b34801561040157600080fd5b5061041c60048036038101906104179190613dc6565b6110dc565b005b34801561042a57600080fd5b506104336111ad565b005b34801561044157600080fd5b5061044a6111c1565b005b34801561045857600080fd5b50610461611250565b60405161046e9190613edf565b60405180910390f35b34801561048357600080fd5b5061049e60048036038101906104999190613efa565b611279565b005b3480156104ac57600080fd5b506104c760048036038101906104c29190613fea565b6112c5565b6040516104d49190614133565b60405180910390f35b3480156104e957600080fd5b5061050460048036038101906104ff91906137ed565b611400565b005b34801561051257600080fd5b5061052d600480360381019061052891906141ab565b61150b565b60405161053a9190613495565b60405180910390f35b34801561054f57600080fd5b5061056a60048036038101906105659190614368565b611555565b005b34801561057857600080fd5b50610593600480360381019061058e919061368d565b611af2565b005b3480156105a157600080fd5b506105aa611b11565b6040516105b79190613edf565b60405180910390f35b3480156105cc57600080fd5b506105d5611b37565b6040516105e29190613edf565b60405180910390f35b3480156105f757600080fd5b50610612600480360381019061060d9190613569565b611b61565b005b34801561062057600080fd5b5061063b600480360381019061063691906143e0565b611b98565b6040516106489190613495565b60405180910390f35b34801561065d57600080fd5b5061067860048036038101906106739190613efa565b611bde565b005b34801561068657600080fd5b506106a1600480360381019061069c9190613fea565b611c8b565b6040516106ae9190614133565b60405180910390f35b3480156106c357600080fd5b506106de60048036038101906106d991906134b0565b611d89565b6040516106eb9190613357565b60405180910390f35b60007f4e2312e0000000000000000000000000000000000000000000000000000000007bffffffffffffffffffffffffffffffffffffffffffffffffffffffff1916827bffffffffffffffffffffffffffffffffffffffffffffffffffffffff191614806107bf57507f150b7a02000000000000000000000000000000000000000000000000000000007bffffffffffffffffffffffffffffffffffffffffffffffffffffffff1916827bffffffffffffffffffffffffffffffffffffffffffffffffffffffff1916145b8061082757507f01ffc9a7000000000000000000000000000000000000000000000000000000007bffffffffffffffffffffffffffffffffffffffffffffffffffffffff1916827bffffffffffffffffffffffffffffffffffffffffffffffffffffffff1916145b9050919050565b600782805160208101820180518482526020830160208501208183528095505050505050602052806000526040600020600091509150508060000154905081565b6000803390506000848481019061088691906134b0565b90506108928188611dbd565b61089e81888489611e74565b63150b7a0260e01b9250505095945050505050565b6006818051602081018201805184825260208301602085012081835280955050505050506000915090508060000160009054906101000a900473ffffffffffffffffffffffffffffffffffffffff16908060010154908060020154908060030154908060040154908060050160009054906101000a900460ff16905086565b61093a611f3f565b61094383611fd3565b60006040518060c001604052803373ffffffffffffffffffffffffffffffffffffffff168152602001848152602001838152602001428152602001600081526020016000151581525090508060068560405161099f91906144eb565b908152602001604051809103902060008201518160000160006101000a81548173ffffffffffffffffffffffffffffffffffffffff021916908373ffffffffffffffffffffffffffffffffffffffff1602179055506020820151816001015560408201518160020155606082015181600301556080820151816004015560a08201518160050160006101000a81548160ff0219169083151502179055509050503373ffffffffffffffffffffffffffffffffffffffff1684604051610a6491906144eb565b60405180910390207fc9cbd59ad20e09b20603bd6dac7574686a1bbcb19e138c78262e207ab4ec3f6685856000604051610aa093929190614502565b60405180910390a350505050565b610ab783612088565b610ac083611fd3565b610acb83838361213c565b610ad583426121d1565b505050565b600860205282600052604060002060205281600052604060002060205280600052604060002060009250925050505481565b610b1582612088565b610b1e82611fd3565b610b28828261223e565b610b3282426121d1565b5050565b610b3f87612088565b610b4887611fd3565b610b598787878787878760006122c0565b50505050505050565b610b6a611f3f565b610b7382611fd3565b610b7c8261249d565b610b8582612510565b60008160000151905060008260200151905060008360400151905060005b82602001515181101561101757600083602001518281518110610bc957610bc8614539565b5b60200260200101519050610bdc816125a4565b600084604001518381518110610bf557610bf4614539565b5b60200260200101519050600085606001518481518110610c1857610c17614539565b5b60200260200101519050600086600001518581518110610c3b57610c3a614539565b5b6020026020010151905060016004811115610c5957610c58614568565b5b846004811115610c6c57610c6b614568565b5b03610cf657610c7c8a8985612605565b8260078b604051610c8d91906144eb565b908152602001604051809103902060008a73ffffffffffffffffffffffffffffffffffffffff1673ffffffffffffffffffffffffffffffffffffffff1681526020019081526020016000206000016000828254610cea91906145c6565b92505081905550611006565b60026004811115610d0a57610d09614568565b5b846004811115610d1d57610d1c614568565b5b03610de557610d2e8a898386612765565b8260078b604051610d3f91906144eb565b908152602001604051809103902060008a73ffffffffffffffffffffffffffffffffffffffff1673ffffffffffffffffffffffffffffffffffffffff16815260200190815260200160002060010160008373ffffffffffffffffffffffffffffffffffffffff1673ffffffffffffffffffffffffffffffffffffffff1681526020019081526020016000206000828254610dd991906145c6565b92505081905550611005565b60036004811115610df957610df8614568565b5b846004811115610e0c57610e0b614568565b5b03610ef757610e2d8a8983856040518060200160405280600081525061290c565b600160078b604051610e3f91906144eb565b908152602001604051809103902060008a73ffffffffffffffffffffffffffffffffffffffff1673ffffffffffffffffffffffffffffffffffffffff16815260200190815260200160002060020160008373ffffffffffffffffffffffffffffffffffffffff1673ffffffffffffffffffffffffffffffffffffffff168152602001908152602001600020600084815260200190815260200160002060006101000a81548160ff021916908315150217905550611004565b600480811115610f0a57610f09614568565b5b846004811115610f1d57610f1c614568565b5b0361100357610f3f8a8983858760405180602001604052806000815250612ad4565b8260078b604051610f5091906144eb565b908152602001604051809103902060008a73ffffffffffffffffffffffffffffffffffffffff1673ffffffffffffffffffffffffffffffffffffffff16815260200190815260200160002060030160008373ffffffffffffffffffffffffffffffffffffffff1673ffffffffffffffffffffffffffffffffffffffff16815260200190815260200160002060008481526020019081526020016000206000828254610ffb91906145c6565b925050819055505b5b5b5b505050508080600101915050610ba3565b5060005b8160400151518110156110b3578160600151818151811061103f5761103e614539565b5b6020026020010151600860008460000151815260200190815260200160002060008460200151815260200190815260200160002060008460400151848151811061108c5761108b614539565b5b6020026020010151815260200190815260200160002081905550808060010191505061101b565b506110be8542612c92565b5050505050565b6000600160149054906101000a900460ff16905090565b6110e586612088565b6110ee86611fd3565b60005b845181101561118f57611182878787848151811061111257611111614539565b5b602002602001015187858151811061112d5761112c614539565b5b602002602001015187868151811061114857611147614539565b5b602002602001015187878151811061116357611162614539565b5b60200260200101516040518060200160405280600081525060006122c0565b80806001019150506110f1565b5061119b86600061223e565b6111a586426121d1565b505050505050565b6111b5612cff565b6111bf6000612d86565b565b60006111cb612db7565b90508073ffffffffffffffffffffffffffffffffffffffff166111ec611b37565b73ffffffffffffffffffffffffffffffffffffffff161461124457806040517f118cdaa700000000000000000000000000000000000000000000000000000000815260040161123b9190613edf565b60405180910390fd5b61124d81612d86565b50565b60008060009054906101000a900473ffffffffffffffffffffffffffffffffffffffff16905090565b611281611f3f565b80600560006101000a81548173ffffffffffffffffffffffffffffffffffffffff021916908373ffffffffffffffffffffffffffffffffffffffff16021790555050565b60606000835183516112d791906145fa565b67ffffffffffffffff8111156112f0576112ef613159565b5b60405190808252806020026020018201604052801561131e5781602001602082028036833780820191505090505b50905060005b84518110156113f45760005b84518110156113e65760086000888152602001908152602001600020600087848151811061136157611360614539565b5b60200260200101518152602001908152602001600020600086838151811061138c5761138b614539565b5b602002602001015181526020019081526020016000205483828751856113b291906145fa565b6113bc91906145c6565b815181106113cd576113cc614539565b5b6020026020010181815250508080600101915050611330565b508080600101915050611324565b50809150509392505050565b611408611f3f565b61141187611fd3565b600060068860405161142391906144eb565b90815260200160405180910390206004015460068960405161144591906144eb565b908152602001604051809103902060030154116114835760068860405161146c91906144eb565b9081526020016040518091039020600401546114a6565b60068860405161149391906144eb565b9081526020016040518091039020600301545b905062278d0081426114b8919061463c565b10156114f0576040517f363bd5fb00000000000000000000000000000000000000000000000000000000815260040160405180910390fd5b6115018888888888888860016122c0565b5050505050505050565b6000803390506000848481019061152291906134b0565b905061152e818b611dbd565b61153d818b848c8c8c8c612dbf565b63bc197c8160e01b9250505098975050505050505050565b61155d611f3f565b61156682611fd3565b61156f8261249d565b61157882612510565b60005b8151811015611ae357600082828151811061159957611598614539565b5b6020026020010151905060008160000151905060008260200151905060008360400151905060005b826020015151811015611a35576000836020015182815181106115e7576115e6614539565b5b602002602001015190506115fa816125a4565b60008460400151838151811061161357611612614539565b5b6020026020010151905060008560600151848151811061163657611635614539565b5b6020026020010151905060008660000151858151811061165957611658614539565b5b602002602001015190506001600481111561167757611676614568565b5b84600481111561168a57611689614568565b5b036117145761169a8c8985612605565b8260078d6040516116ab91906144eb565b908152602001604051809103902060008a73ffffffffffffffffffffffffffffffffffffffff1673ffffffffffffffffffffffffffffffffffffffff168152602001908152602001600020600001600082825461170891906145c6565b92505081905550611a24565b6002600481111561172857611727614568565b5b84600481111561173b5761173a614568565b5b036118035761174c8c898386612765565b8260078d60405161175d91906144eb565b908152602001604051809103902060008a73ffffffffffffffffffffffffffffffffffffffff1673ffffffffffffffffffffffffffffffffffffffff16815260200190815260200160002060010160008373ffffffffffffffffffffffffffffffffffffffff1673ffffffffffffffffffffffffffffffffffffffff16815260200190815260200160002060008282546117f791906145c6565b92505081905550611a23565b6003600481111561181757611816614568565b5b84600481111561182a57611829614568565b5b036119155761184b8c8983856040518060200160405280600081525061290c565b600160078d60405161185d91906144eb565b908152602001604051809103902060008a73ffffffffffffffffffffffffffffffffffffffff1673ffffffffffffffffffffffffffffffffffffffff16815260200190815260200160002060020160008373ffffffffffffffffffffffffffffffffffffffff1673ffffffffffffffffffffffffffffffffffffffff168152602001908152602001600020600084815260200190815260200160002060006101000a81548160ff021916908315150217905550611a22565b60048081111561192857611927614568565b5b84600481111561193b5761193a614568565b5b03611a215761195d8c8983858760405180602001604052806000815250612ad4565b8260078d60405161196e91906144eb565b908152602001604051809103902060008a73ffffffffffffffffffffffffffffffffffffffff1673ffffffffffffffffffffffffffffffffffffffff16815260200190815260200160002060030160008373ffffffffffffffffffffffffffffffffffffffff1673ffffffffffffffffffffffffffffffffffffffff16815260200190815260200160002060008481526020019081526020016000206000828254611a1991906145c6565b925050819055505b5b5b5b5050505080806001019150506115c1565b5060005b816040015151811015611ad15781606001518181518110611a5d57611a5c614539565b5b60200260200101516008600084600001518152602001908152602001600020600084602001518152602001908152602001600020600084604001518481518110611aaa57611aa9614539565b5b60200260200101518152602001908152602001600020819055508080600101915050611a39565b5050505050808060010191505061157b565b50611aee8242612c92565b5050565b611afa611f3f565b611b0382611fd3565b611b0d828261223e565b5050565b600560009054906101000a900473ffffffffffffffffffffffffffffffffffffffff1681565b6000600160009054906101000a900473ffffffffffffffffffffffffffffffffffffffff16905090565b611b6a83612088565b611b7383611fd3565b611b7e83600161223e565b611b8983838361213c565b611b9383426121d1565b505050565b60008033905060008484810190611baf91906134b0565b9050611bbb8189611dbd565b611bc88189848a8a612edf565b63f23a6e6160e01b925050509695505050505050565b611be6612cff565b80600160006101000a81548173ffffffffffffffffffffffffffffffffffffffff021916908373ffffffffffffffffffffffffffffffffffffffff1602179055508073ffffffffffffffffffffffffffffffffffffffff16611c46611250565b73ffffffffffffffffffffffffffffffffffffffff167f38d16b8cac22d99fc7c124b9cd0de2d3fa1faef420bfe791d8c362d765e2270060405160405180910390a350565b60606000825167ffffffffffffffff811115611caa57611ca9613159565b5b604051908082528060200260200182016040528015611cd85781602001602082028036833780820191505090505b50905060005b8351811015611d7d57600860008781526020019081526020016000206000868381518110611d0f57611d0e614539565b5b602002602001015181526020019081526020016000206000858381518110611d3a57611d39614539565b5b6020026020010151815260200190815260200160002054828281518110611d6457611d63614539565b5b6020026020010181815250508080600101915050611cde565b50809150509392505050565b6003818051602081018201805184825260208301602085012081835280955050505050506000915090508060000154905081565b600682604051611dcd91906144eb565b908152602001604051809103902060000160009054906101000a900473ffffffffffffffffffffffffffffffffffffffff1673ffffffffffffffffffffffffffffffffffffffff168173ffffffffffffffffffffffffffffffffffffffff1614611e705781816040517fcd54af23000000000000000000000000000000000000000000000000000000008152600401611e679291906146ba565b60405180910390fd5b5050565b6001600385604051611e8691906144eb565b908152602001604051809103902060020160008473ffffffffffffffffffffffffffffffffffffffff1673ffffffffffffffffffffffffffffffffffffffff168152602001908152602001600020600083815260200190815260200160002060006101000a81548160ff0219169083151502179055507fa7468a675f5f557513c8fee1e26907c243ca55066d2ff56c68e0b6ff9300046484848484604051611f3194939291906146ea565b60405180910390a150505050565b600560009054906101000a900473ffffffffffffffffffffffffffffffffffffffff1673ffffffffffffffffffffffffffffffffffffffff163373ffffffffffffffffffffffffffffffffffffffff1614611fd157336040517f2a19e833000000000000000000000000000000000000000000000000000000008152600401611fc89190613edf565b60405180910390fd5b565b600073ffffffffffffffffffffffffffffffffffffffff16600682604051611ffb91906144eb565b908152602001604051809103902060000160009054906101000a900473ffffffffffffffffffffffffffffffffffffffff1673ffffffffffffffffffffffffffffffffffffffff160361208557806040517f23a4ba7e00000000000000000000000000000000000000000000000000000000815260040161207c9190614736565b60405180910390fd5b50565b60068160405161209891906144eb565b908152602001604051809103902060000160009054906101000a900473ffffffffffffffffffffffffffffffffffffffff1673ffffffffffffffffffffffffffffffffffffffff163373ffffffffffffffffffffffffffffffffffffffff161461213957336040517fc66f47bf0000000000000000000000000000000000000000000000000000000081526004016121309190613edf565b60405180910390fd5b50565b8160068460405161214d91906144eb565b9081526020016040518091039020600101819055508060068460405161217391906144eb565b90815260200160405180910390206002018190555080828460405161219891906144eb565b60405180910390207f3973b951ce85d45a39e2b85e5963fd178b9ce7e759f2ba1a834d5e93665589a060405160405180910390a4505050565b806006836040516121e291906144eb565b908152602001604051809103902060030181905550808260405161220691906144eb565b60405180910390207f199f31de995d0fbe1f9f10cd2b9c868922da900555e9454609190ed5f2c1141660405160405180910390a35050565b8060068360405161224f91906144eb565b908152602001604051809103902060050160006101000a81548160ff0219169083151502179055508015158260405161228891906144eb565b60405180910390207f6388b74899382439caba398b6347a3098c6eb7a606f44238febe3b8480a37b5b60405160405180910390a35050565b600060048111156122d4576122d3614568565b5b8560048111156122e7576122e6614568565b5b0361231e576040517f55ef22c800000000000000000000000000000000000000000000000000000000815260040160405180910390fd5b6001600481111561233257612331614568565b5b85600481111561234557612344614568565b5b0361235a57612355888886612605565b612412565b6002600481111561236e5761236d614568565b5b85600481111561238157612380614568565b5b036123975761239288888887612765565b612411565b600360048111156123ab576123aa614568565b5b8560048111156123be576123bd614568565b5b036123d5576123d0888888868661290c565b612410565b6004808111156123e8576123e7614568565b5b8560048111156123fb576123fa614568565b5b0361240f5761240e888888868887612ad4565b5b5b5b5b8573ffffffffffffffffffffffffffffffffffffffff168773ffffffffffffffffffffffffffffffffffffffff168960405161244e91906144eb565b60405180910390207ffa3884a923856884f139854bdae5eb347bce07d756fdc025cb0c29731015ad7d8888888760405161248b94939291906147a0565b60405180910390a45050505050505050565b6006816040516124ad91906144eb565b908152602001604051809103902060050160009054906101000a900460ff1661250d57806040517f235ae10f0000000000000000000000000000000000000000000000000000000081526004016125049190614736565b60405180910390fd5b50565b60068160405161252091906144eb565b90815260200160405180910390206001015442108061255f575060068160405161254a91906144eb565b90815260200160405180910390206002015442115b156125a157806040517fa10f113e0000000000000000000000000000000000000000000000000000000081526004016125989190614736565b60405180910390fd5b50565b600060048111156125b8576125b7614568565b5b8160048111156125cb576125ca614568565b5b03612602576040517f55ef22c800000000000000000000000000000000000000000000000000000000815260040160405180910390fd5b50565b8060038460405161261691906144eb565b908152602001604051809103902060000154101561267557826001600080846040517f3ff3e6f200000000000000000000000000000000000000000000000000000000815260040161266c95949392919061482a565b60405180910390fd5b8060038460405161268691906144eb565b908152602001604051809103902060000160008282546126a6919061463c565b9250508190555060008273ffffffffffffffffffffffffffffffffffffffff16826040516126d3906148b5565b60006040518083038185875af1925050503d8060008114612710576040519150601f19603f3d011682016040523d82523d6000602084013e612715565b606091505b505090508061275f578383836040517f4b04c9d70000000000000000000000000000000000000000000000000000000081526004016127569392919061491f565b60405180910390fd5b50505050565b8060038560405161277691906144eb565b908152602001604051809103902060010160008473ffffffffffffffffffffffffffffffffffffffff1673ffffffffffffffffffffffffffffffffffffffff16815260200190815260200160002054101561281257836002836000846040517f3ff3e6f200000000000000000000000000000000000000000000000000000000815260040161280995949392919061482a565b60405180910390fd5b8060038560405161282391906144eb565b908152602001604051809103902060010160008473ffffffffffffffffffffffffffffffffffffffff1673ffffffffffffffffffffffffffffffffffffffff1681526020019081526020016000206000828254612880919061463c565b925050819055508173ffffffffffffffffffffffffffffffffffffffff1663a9059cbb84836040518363ffffffff1660e01b81526004016128c292919061495d565b6020604051808303816000875af11580156128e1573d6000803e3d6000fd5b505050506040513d601f19601f82011682018060405250810190612905919061499b565b5050505050565b60038560405161291c91906144eb565b908152602001604051809103902060020160008473ffffffffffffffffffffffffffffffffffffffff1673ffffffffffffffffffffffffffffffffffffffff168152602001908152602001600020600083815260200190815260200160002060009054906101000a900460ff166129d457846003848460006040517f3ff3e6f20000000000000000000000000000000000000000000000000000000081526004016129cb9594939291906149c8565b60405180910390fd5b60006003866040516129e691906144eb565b908152602001604051809103902060020160008573ffffffffffffffffffffffffffffffffffffffff1673ffffffffffffffffffffffffffffffffffffffff168152602001908152602001600020600084815260200190815260200160002060006101000a81548160ff0219169083151502179055508273ffffffffffffffffffffffffffffffffffffffff1663b88d4fde308685856040518563ffffffff1660e01b8152600401612a9b9493929190614a77565b600060405180830381600087803b158015612ab557600080fd5b505af1158015612ac9573d6000803e3d6000fd5b505050505050505050565b81600387604051612ae591906144eb565b908152602001604051809103902060030160008673ffffffffffffffffffffffffffffffffffffffff1673ffffffffffffffffffffffffffffffffffffffff1681526020019081526020016000206000858152602001908152602001600020541015612b91578560048585856040517f3ff3e6f2000000000000000000000000000000000000000000000000000000008152600401612b88959493929190614ac3565b60405180910390fd5b81600387604051612ba291906144eb565b908152602001604051809103902060030160008673ffffffffffffffffffffffffffffffffffffffff1673ffffffffffffffffffffffffffffffffffffffff16815260200190815260200160002060008581526020019081526020016000206000828254612c10919061463c565b925050819055508373ffffffffffffffffffffffffffffffffffffffff1663f242432a30878686866040518663ffffffff1660e01b8152600401612c58959493929190614b1d565b600060405180830381600087803b158015612c7257600080fd5b505af1158015612c86573d6000803e3d6000fd5b50505050505050505050565b80600683604051612ca391906144eb565b9081526020016040518091039020600401819055508082604051612cc791906144eb565b60405180910390207f67e6d887e552e672ec87c7dc6cea665a2acbdc4a5841556d69c713812e0b401560405160405180910390a35050565b612d07612db7565b73ffffffffffffffffffffffffffffffffffffffff16612d25611250565b73ffffffffffffffffffffffffffffffffffffffff1614612d8457612d48612db7565b6040517f118cdaa7000000000000000000000000000000000000000000000000000000008152600401612d7b9190613edf565b60405180910390fd5b565b600160006101000a81549073ffffffffffffffffffffffffffffffffffffffff0219169055612db481612fab565b50565b600033905090565b60005b84849050811015612e9257828282818110612de057612ddf614539565b5b90506020020135600389604051612df791906144eb565b908152602001604051809103902060030160008873ffffffffffffffffffffffffffffffffffffffff1673ffffffffffffffffffffffffffffffffffffffff1681526020019081526020016000206000878785818110612e5a57612e59614539565b5b9050602002013581526020019081526020016000206000828254612e7e91906145c6565b925050819055508080600101915050612dc2565b507f1e9b2f0b5318e95abeafb82b7cac3bb5eea75fef85b4d6d7bfc961ba8f244f4787878787878787604051612ece9796959493929190614be1565b60405180910390a150505050505050565b80600386604051612ef091906144eb565b908152602001604051809103902060030160008573ffffffffffffffffffffffffffffffffffffffff1673ffffffffffffffffffffffffffffffffffffffff16815260200190815260200160002060008481526020019081526020016000206000828254612f5e91906145c6565b925050819055507fbe7db84854dd3e0df069ac0a150da03c819444fa894e00bd5902b3cf8152b21d8585858585604051612f9c959493929190614c4d565b60405180910390a15050505050565b60008060009054906101000a900473ffffffffffffffffffffffffffffffffffffffff169050816000806101000a81548173ffffffffffffffffffffffffffffffffffffffff021916908373ffffffffffffffffffffffffffffffffffffffff1602179055508173ffffffffffffffffffffffffffffffffffffffff168173ffffffffffffffffffffffffffffffffffffffff167f8be0079c531659141344cd1fd0a4f28419497f9722a3daafe3b4186f6b6457e060405160405180910390a35050565b6000604051905090565b600080fd5b600080fd5b60007fffffffff0000000000000000000000000000000000000000000000000000000082169050919050565b6130b881613083565b81146130c357600080fd5b50565b6000813590506130d5816130af565b92915050565b6000602082840312156130f1576130f0613079565b5b60006130ff848285016130c6565b91505092915050565b60008115159050919050565b61311d81613108565b82525050565b60006020820190506131386000830184613114565b92915050565b600080fd5b600080fd5b6000601f19601f8301169050919050565b7f4e487b7100000000000000000000000000000000000000000000000000000000600052604160045260246000fd5b61319182613148565b810181811067ffffffffffffffff821117156131b0576131af613159565b5b80604052505050565b60006131c361306f565b90506131cf8282613188565b919050565b600067ffffffffffffffff8211156131ef576131ee613159565b5b6131f882613148565b9050602081019050919050565b82818337600083830152505050565b6000613227613222846131d4565b6131b9565b90508281526020810184848401111561324357613242613143565b5b61324e848285613205565b509392505050565b600082601f83011261326b5761326a61313e565b5b813561327b848260208601613214565b91505092915050565b600073ffffffffffffffffffffffffffffffffffffffff82169050919050565b60006132af82613284565b9050919050565b6132bf816132a4565b81146132ca57600080fd5b50565b6000813590506132dc816132b6565b92915050565b600080604083850312156132f9576132f8613079565b5b600083013567ffffffffffffffff8111156133175761331661307e565b5b61332385828601613256565b9250506020613334858286016132cd565b9150509250929050565b6000819050919050565b6133518161333e565b82525050565b600060208201905061336c6000830184613348565b92915050565b61337b8161333e565b811461338657600080fd5b50565b60008135905061339881613372565b92915050565b600080fd5b600080fd5b60008083601f8401126133be576133bd61313e565b5b8235905067ffffffffffffffff8111156133db576133da61339e565b5b6020830191508360018202830111156133f7576133f66133a3565b5b9250929050565b60008060008060006080868803121561341a57613419613079565b5b6000613428888289016132cd565b9550506020613439888289016132cd565b945050604061344a88828901613389565b935050606086013567ffffffffffffffff81111561346b5761346a61307e565b5b613477888289016133a8565b92509250509295509295909350565b61348f81613083565b82525050565b60006020820190506134aa6000830184613486565b92915050565b6000602082840312156134c6576134c5613079565b5b600082013567ffffffffffffffff8111156134e4576134e361307e565b5b6134f084828501613256565b91505092915050565b613502816132a4565b82525050565b600060c08201905061351d60008301896134f9565b61352a6020830188613348565b6135376040830187613348565b6135446060830186613348565b6135516080830185613348565b61355e60a0830184613114565b979650505050505050565b60008060006060848603121561358257613581613079565b5b600084013567ffffffffffffffff8111156135a05761359f61307e565b5b6135ac86828701613256565b93505060206135bd86828701613389565b92505060406135ce86828701613389565b9150509250925092565b6000819050919050565b6135eb816135d8565b81146135f657600080fd5b50565b600081359050613608816135e2565b92915050565b60008060006060848603121561362757613626613079565b5b600061363586828701613389565b9350506020613646868287016135f9565b925050604061365786828701613389565b9150509250925092565b61366a81613108565b811461367557600080fd5b50565b60008135905061368781613661565b92915050565b600080604083850312156136a4576136a3613079565b5b600083013567ffffffffffffffff8111156136c2576136c161307e565b5b6136ce85828601613256565b92505060206136df85828601613678565b9150509250929050565b60006136f482613284565b9050919050565b613704816136e9565b811461370f57600080fd5b50565b600081359050613721816136fb565b92915050565b6005811061373457600080fd5b50565b60008135905061374681613727565b92915050565b600067ffffffffffffffff82111561376757613766613159565b5b61377082613148565b9050602081019050919050565b600061379061378b8461374c565b6131b9565b9050828152602081018484840111156137ac576137ab613143565b5b6137b7848285613205565b509392505050565b600082601f8301126137d4576137d361313e565b5b81356137e484826020860161377d565b91505092915050565b600080600080600080600060e0888a03121561380c5761380b613079565b5b600088013567ffffffffffffffff81111561382a5761382961307e565b5b6138368a828b01613256565b97505060206138478a828b01613712565b96505060406138588a828b016132cd565b95505060606138698a828b01613737565b945050608061387a8a828b01613389565b93505060a061388b8a828b01613389565b92505060c088013567ffffffffffffffff8111156138ac576138ab61307e565b5b6138b88a828b016137bf565b91505092959891949750929550565b600080fd5b600080fd5b600067ffffffffffffffff8211156138ec576138eb613159565b5b602082029050602081019050919050565b600061391061390b846138d1565b6131b9565b90508083825260208201905060208402830185811115613933576139326133a3565b5b835b8181101561395c578061394888826132cd565b845260208401935050602081019050613935565b5050509392505050565b600082601f83011261397b5761397a61313e565b5b813561398b8482602086016138fd565b91505092915050565b600067ffffffffffffffff8211156139af576139ae613159565b5b602082029050602081019050919050565b60006139d36139ce84613994565b6131b9565b905080838252602082019050602084028301858111156139f6576139f56133a3565b5b835b81811015613a1f5780613a0b8882613737565b8452602084019350506020810190506139f8565b5050509392505050565b600082601f830112613a3e57613a3d61313e565b5b8135613a4e8482602086016139c0565b91505092915050565b600067ffffffffffffffff821115613a7257613a71613159565b5b602082029050602081019050919050565b6000613a96613a9184613a57565b6131b9565b90508083825260208201905060208402830185811115613ab957613ab86133a3565b5b835b81811015613ae25780613ace8882613389565b845260208401935050602081019050613abb565b5050509392505050565b600082601f830112613b0157613b0061313e565b5b8135613b11848260208601613a83565b91505092915050565b600060808284031215613b3057613b2f6138c7565b5b613b3a60806131b9565b9050600082013567ffffffffffffffff811115613b5a57613b596138cc565b5b613b6684828501613966565b600083015250602082013567ffffffffffffffff811115613b8a57613b896138cc565b5b613b9684828501613a29565b602083015250604082013567ffffffffffffffff811115613bba57613bb96138cc565b5b613bc684828501613aec565b604083015250606082013567ffffffffffffffff811115613bea57613be96138cc565b5b613bf684828501613aec565b60608301525092915050565b600060808284031215613c1857613c176138c7565b5b613c2260806131b9565b90506000613c3284828501613389565b6000830152506020613c46848285016135f9565b602083015250604082013567ffffffffffffffff811115613c6a57613c696138cc565b5b613c7684828501613aec565b604083015250606082013567ffffffffffffffff811115613c9a57613c996138cc565b5b613ca684828501613aec565b60608301525092915050565b600060608284031215613cc857613cc76138c7565b5b613cd260606131b9565b90506000613ce284828501613712565b600083015250602082013567ffffffffffffffff811115613d0657613d056138cc565b5b613d1284828501613b1a565b602083015250604082013567ffffffffffffffff811115613d3657613d356138cc565b5b613d4284828501613c02565b60408301525092915050565b60008060408385031215613d6557613d64613079565b5b600083013567ffffffffffffffff811115613d8357613d8261307e565b5b613d8f85828601613256565b925050602083013567ffffffffffffffff811115613db057613daf61307e565b5b613dbc85828601613cb2565b9150509250929050565b60008060008060008060c08789031215613de357613de2613079565b5b600087013567ffffffffffffffff811115613e0157613e0061307e565b5b613e0d89828a01613256565b9650506020613e1e89828a01613712565b955050604087013567ffffffffffffffff811115613e3f57613e3e61307e565b5b613e4b89828a01613966565b945050606087013567ffffffffffffffff811115613e6c57613e6b61307e565b5b613e7889828a01613a29565b935050608087013567ffffffffffffffff811115613e9957613e9861307e565b5b613ea589828a01613aec565b92505060a087013567ffffffffffffffff811115613ec657613ec561307e565b5b613ed289828a01613aec565b9150509295509295509295565b6000602082019050613ef460008301846134f9565b92915050565b600060208284031215613f1057613f0f613079565b5b6000613f1e848285016132cd565b91505092915050565b600067ffffffffffffffff821115613f4257613f41613159565b5b602082029050602081019050919050565b6000613f66613f6184613f27565b6131b9565b90508083825260208201905060208402830185811115613f8957613f886133a3565b5b835b81811015613fb25780613f9e88826135f9565b845260208401935050602081019050613f8b565b5050509392505050565b600082601f830112613fd157613fd061313e565b5b8135613fe1848260208601613f53565b91505092915050565b60008060006060848603121561400357614002613079565b5b600061401186828701613389565b935050602084013567ffffffffffffffff8111156140325761403161307e565b5b61403e86828701613fbc565b925050604084013567ffffffffffffffff81111561405f5761405e61307e565b5b61406b86828701613aec565b9150509250925092565b600081519050919050565b600082825260208201905092915050565b6000819050602082019050919050565b6140aa8161333e565b82525050565b60006140bc83836140a1565b60208301905092915050565b6000602082019050919050565b60006140e082614075565b6140ea8185614080565b93506140f583614091565b8060005b8381101561412657815161410d88826140b0565b9750614118836140c8565b9250506001810190506140f9565b5085935050505092915050565b6000602082019050818103600083015261414d81846140d5565b905092915050565b60008083601f84011261416b5761416a61313e565b5b8235905067ffffffffffffffff8111156141885761418761339e565b5b6020830191508360208202830111156141a4576141a36133a3565b5b9250929050565b60008060008060008060008060a0898b0312156141cb576141ca613079565b5b60006141d98b828c016132cd565b98505060206141ea8b828c016132cd565b975050604089013567ffffffffffffffff81111561420b5761420a61307e565b5b6142178b828c01614155565b9650965050606089013567ffffffffffffffff81111561423a5761423961307e565b5b6142468b828c01614155565b9450945050608089013567ffffffffffffffff8111156142695761426861307e565b5b6142758b828c016133a8565b92509250509295985092959890939650565b600067ffffffffffffffff8211156142a2576142a1613159565b5b602082029050602081019050919050565b60006142c66142c184614287565b6131b9565b905080838252602082019050602084028301858111156142e9576142e86133a3565b5b835b8181101561433057803567ffffffffffffffff81111561430e5761430d61313e565b5b80860161431b8982613cb2565b855260208501945050506020810190506142eb565b5050509392505050565b600082601f83011261434f5761434e61313e565b5b813561435f8482602086016142b3565b91505092915050565b6000806040838503121561437f5761437e613079565b5b600083013567ffffffffffffffff81111561439d5761439c61307e565b5b6143a985828601613256565b925050602083013567ffffffffffffffff8111156143ca576143c961307e565b5b6143d68582860161433a565b9150509250929050565b60008060008060008060a087890312156143fd576143fc613079565b5b600061440b89828a016132cd565b965050602061441c89828a016132cd565b955050604061442d89828a01613389565b945050606061443e89828a01613389565b935050608087013567ffffffffffffffff81111561445f5761445e61307e565b5b61446b89828a016133a8565b92509250509295509295509295565b600081519050919050565b600081905092915050565b60005b838110156144ae578082015181840152602081019050614493565b60008484015250505050565b60006144c58261447a565b6144cf8185614485565b93506144df818560208601614490565b80840191505092915050565b60006144f782846144ba565b915081905092915050565b60006060820190506145176000830186613348565b6145246020830185613348565b6145316040830184613114565b949350505050565b7f4e487b7100000000000000000000000000000000000000000000000000000000600052603260045260246000fd5b7f4e487b7100000000000000000000000000000000000000000000000000000000600052602160045260246000fd5b7f4e487b7100000000000000000000000000000000000000000000000000000000600052601160045260246000fd5b60006145d18261333e565b91506145dc8361333e565b92508282019050808211156145f4576145f3614597565b5b92915050565b60006146058261333e565b91506146108361333e565b925082820261461e8161333e565b9150828204841483151761463557614634614597565b5b5092915050565b60006146478261333e565b91506146528361333e565b925082820390508181111561466a57614669614597565b5b92915050565b600082825260208201905092915050565b600061468c8261447a565b6146968185614670565b93506146a6818560208601614490565b6146af81613148565b840191505092915050565b600060408201905081810360008301526146d48185614681565b90506146e360208301846134f9565b9392505050565b600060808201905081810360008301526147048187614681565b905061471360208301866134f9565b61472060408301856134f9565b61472d6060830184613348565b95945050505050565b600060208201905081810360008301526147508184614681565b905092915050565b6005811061476957614768614568565b5b50565b600081905061477a82614758565b919050565b600061478a8261476c565b9050919050565b61479a8161477f565b82525050565b60006080820190506147b56000830187614791565b6147c26020830186613348565b6147cf6040830185613348565b6147dc6060830184613114565b95945050505050565b6000819050919050565b6000819050919050565b600061481461480f61480a846147e5565b6147ef565b61333e565b9050919050565b614824816147f9565b82525050565b600060a08201905081810360008301526148448188614681565b90506148536020830187614791565b61486060408301866134f9565b61486d606083018561481b565b61487a6080830184613348565b9695505050505050565b600081905092915050565b50565b600061489f600083614884565b91506148aa8261488f565b600082019050919050565b60006148c082614892565b9150819050919050565b60006148e56148e06148db84613284565b6147ef565b613284565b9050919050565b60006148f7826148ca565b9050919050565b6000614909826148ec565b9050919050565b614919816148fe565b82525050565b600060608201905081810360008301526149398186614681565b90506149486020830185614910565b6149556040830184613348565b949350505050565b600060408201905061497260008301856134f9565b61497f6020830184613348565b9392505050565b60008151905061499581613661565b92915050565b6000602082840312156149b1576149b0613079565b5b60006149bf84828501614986565b91505092915050565b600060a08201905081810360008301526149e28188614681565b90506149f16020830187614791565b6149fe60408301866134f9565b614a0b6060830185613348565b614a18608083018461481b565b9695505050505050565b600081519050919050565b600082825260208201905092915050565b6000614a4982614a22565b614a538185614a2d565b9350614a63818560208601614490565b614a6c81613148565b840191505092915050565b6000608082019050614a8c60008301876134f9565b614a9960208301866134f9565b614aa66040830185613348565b8181036060830152614ab88184614a3e565b905095945050505050565b600060a0820190508181036000830152614add8188614681565b9050614aec6020830187614791565b614af960408301866134f9565b614b066060830185613348565b614b136080830184613348565b9695505050505050565b600060a082019050614b3260008301886134f9565b614b3f60208301876134f9565b614b4c6040830186613348565b614b596060830185613348565b8181036080830152614b6b8184614a3e565b90509695505050505050565b600080fd5b82818337505050565b6000614b918385614080565b93507f07ffffffffffffffffffffffffffffffffffffffffffffffffffffffffffffff831115614bc457614bc3614b77565b5b602083029250614bd5838584614b7c565b82840190509392505050565b600060a0820190508181036000830152614bfb818a614681565b9050614c0a60208301896134f9565b614c1760408301886134f9565b8181036060830152614c2a818688614b85565b90508181036080830152614c3f818486614b85565b905098975050505050505050565b600060a0820190508181036000830152614c678188614681565b9050614c7660208301876134f9565b614c8360408301866134f9565b614c906060830185613348565b614c9d6080830184613348565b969550505050505056fea26469706673582212205f4d1ad088240e2584f276852586fe17eacb54514f66c11a415c39450dca245e64736f6c63430008180033",
  "linkReferences": {},
  "deployedLinkReferences": {}
}