{
  "_format": "hh-sol-artifact-1",
  "contractName": "PlatformRegistry",
  "sourceName": "contracts/PlatformRegistry.sol",
  "abi": [
    {
      "inputs": [],
      "stateMutability": "nonpayable",
      "type": "constructor"
    },
    {
      "inputs": [
        {
          "internalType": "uint256",
          "name": "platformId",
          "type": "uint256"
        },
        {
          "internalType": "uint256",
          "name": "metricId",
          "type": "uint256"
        }
      ],
      "name": "MetricNotRegistered",
      "type": "error"
    },
    {
      "inputs": [
        {
          "internalType": "address",
          "name": "owner",
          "type": "address"
        }
      ],
      "name": "OwnableInvalidOwner",
      "type": "error"
    },
    {
      "inputs": [
        {
          "internalType": "address",
          "name": "account",
          "type": "address"
        }
      ],
      "name": "OwnableUnauthorizedAccount",
      "type": "error"
    },
    {
      "inputs": [
        {
          "internalType": "uint256",
          "name": "platformId",
          "type": "uint256"
        }
      ],
      "name": "PlatformNotRegistered",
      "type": "error"
    },
    {
      "anonymous": false,
      "inputs": [
        {
          "indexed": true,
          "internalType": "address",
          "name": "previousOwner",
          "type": "address"
        },
        {
          "indexed": true,
          "internalType": "address",
          "name": "newOwner",
          "type": "address"
        }
      ],
      "name": "OwnershipTransferStarted",
      "type": "event"
    },
    {
      "anonymous": false,
      "inputs": [
        {
          "indexed": true,
          "internalType": "address",
          "name": "previousOwner",
          "type": "address"
        },
        {
          "indexed": true,
          "internalType": "address",
          "name": "newOwner",
          "type": "address"
        }
      ],
      "name": "OwnershipTransferred",
      "type": "event"
    },
    {
      "inputs": [],
      "name": "acceptOwnership",
      "outputs": [],
      "stateMutability": "nonpayable",
      "type": "function"
    },
    {
      "inputs": [
        {
          "internalType": "uint256",
          "name": "platform",
          "type": "uint256"
        },
        {
          "internalType": "uint256",
          "name": "metric",
          "type": "uint256"
        }
      ],
      "name": "metrics",
      "outputs": [
        {
          "internalType": "string",
          "name": "name",
          "type": "string"
        }
      ],
      "stateMutability": "view",
      "type": "function"
    },
    {
      "inputs": [],
      "name": "owner",
      "outputs": [
        {
          "internalType": "address",
          "name": "",
          "type": "address"
        }
      ],
      "stateMutability": "view",
      "type": "function"
    },
    {
      "inputs": [],
      "name": "pendingOwner",
      "outputs": [
        {
          "internalType": "address",
          "name": "",
          "type": "address"
        }
      ],
      "stateMutability": "view",
      "type": "function"
    },
    {
      "inputs": [
        {
          "internalType": "uint256",
          "name": "platform",
          "type": "uint256"
        }
      ],
      "name": "platforms",
      "outputs": [
        {
          "internalType": "string",
          "name": "name",
          "type": "string"
        }
      ],
      "stateMutability": "view",
      "type": "function"
    },
    {
      "inputs": [
        {
          "internalType": "uint256",
          "name": "platformId",
          "type": "uint256"
        },
        {
          "internalType": "uint256",
          "name": "metricId",
          "type": "uint256"
        },
        {
          "internalType": "string",
          "name": "metricName",
          "type": "string"
        }
      ],
      "name": "registerMetric",
      "outputs": [],
      "stateMutability": "nonpayable",
      "type": "function"
    },
    {
      "inputs": [
        {
          "internalType": "uint256",
          "name": "platformId",
          "type": "uint256"
        },
        {
          "internalType": "string",
          "name": "platformName",
          "type": "string"
        }
      ],
      "name": "registerPlatform",
      "outputs": [],
      "stateMutability": "nonpayable",
      "type": "function"
    },
    {
      "inputs": [],
      "name": "renounceOwnership",
      "outputs": [],
      "stateMutability": "nonpayable",
      "type": "function"
    },
    {
      "inputs": [
        {
          "internalType": "address",
          "name": "newOwner",
          "type": "address"
        }
      ],
      "name": "transferOwnership",
      "outputs": [],
      "stateMutability": "nonpayable",
      "type": "function"
    }
  ],
  "bytecode": "0x60806040523480156200001157600080fd5b5033600073ffffffffffffffffffffffffffffffffffffffff168173ffffffffffffffffffffffffffffffffffffffff1603620000885760006040517f1e4fbdf70000000000000000000000000000000000000000000000000000000081526004016200007f9190620005e7565b60405180910390fd5b6200009981620004a560201b60201c565b506040518060400160405280600981526020017f6661726361737465720000000000000000000000000000000000000000000000815250600260008081526020019081526020016000209081620000f191906200087e565b506040518060400160405280600481526020017f6c696b650000000000000000000000000000000000000000000000000000000081525060036000808152602001908152602001600020600080815260200190815260200160002090816200015a91906200087e565b506040518060400160405280600681526020017f7265636173740000000000000000000000000000000000000000000000000000815250600360008081526020019081526020016000206000600181526020019081526020016000209081620001c491906200087e565b506040518060400160405280600781526020017f7477697474657200000000000000000000000000000000000000000000000000815250600260006001815260200190815260200160002090816200021d91906200087e565b506040518060400160405280600481526020017f6c696b65000000000000000000000000000000000000000000000000000000008152506003600060018152602001908152602001600020600080815260200190815260200160002090816200028791906200087e565b506040518060400160405280600781526020017f726574776565740000000000000000000000000000000000000000000000000081525060036000600181526020019081526020016000206000600181526020019081526020016000209081620002f291906200087e565b506040518060400160405280600a81526020017f696d7072657373696f6e00000000000000000000000000000000000000000000815250600360006001815260200190815260200160002060006002815260200190815260200160002090816200035d91906200087e565b506040518060400160405280600581526020017f71756f746500000000000000000000000000000000000000000000000000000081525060036000600181526020019081526020016000206000600381526020019081526020016000209081620003c891906200087e565b506040518060400160405280600581526020017f7265706c79000000000000000000000000000000000000000000000000000000815250600360006001815260200190815260200160002060006004815260200190815260200160002090816200043391906200087e565b506040518060400160405280600881526020017f626f6f6b6d61726b000000000000000000000000000000000000000000000000815250600360006001815260200190815260200160002060006005815260200190815260200160002090816200049e91906200087e565b5062000965565b600160006101000a81549073ffffffffffffffffffffffffffffffffffffffff0219169055620004db81620004de60201b60201c565b50565b60008060009054906101000a900473ffffffffffffffffffffffffffffffffffffffff169050816000806101000a81548173ffffffffffffffffffffffffffffffffffffffff021916908373ffffffffffffffffffffffffffffffffffffffff1602179055508173ffffffffffffffffffffffffffffffffffffffff168173ffffffffffffffffffffffffffffffffffffffff167f8be0079c531659141344cd1fd0a4f28419497f9722a3daafe3b4186f6b6457e060405160405180910390a35050565b600073ffffffffffffffffffffffffffffffffffffffff82169050919050565b6000620005cf82620005a2565b9050919050565b620005e181620005c2565b82525050565b6000602082019050620005fe6000830184620005d6565b92915050565b600081519050919050565b7f4e487b7100000000000000000000000000000000000000000000000000000000600052604160045260246000fd5b7f4e487b7100000000000000000000000000000000000000000000000000000000600052602260045260246000fd5b600060028204905060018216806200068657607f821691505b6020821081036200069c576200069b6200063e565b5b50919050565b60008190508160005260206000209050919050565b60006020601f8301049050919050565b600082821b905092915050565b600060088302620007067fffffffffffffffffffffffffffffffffffffffffffffffffffffffffffffffff82620006c7565b620007128683620006c7565b95508019841693508086168417925050509392505050565b6000819050919050565b6000819050919050565b60006200075f6200075962000753846200072a565b62000734565b6200072a565b9050919050565b6000819050919050565b6200077b836200073e565b620007936200078a8262000766565b848454620006d4565b825550505050565b600090565b620007aa6200079b565b620007b781848462000770565b505050565b5b81811015620007df57620007d3600082620007a0565b600181019050620007bd565b5050565b601f8211156200082e57620007f881620006a2565b6200080384620006b7565b8101602085101562000813578190505b6200082b6200082285620006b7565b830182620007bc565b50505b505050565b600082821c905092915050565b6000620008536000198460080262000833565b1980831691505092915050565b60006200086e838362000840565b9150826002028217905092915050565b620008898262000604565b67ffffffffffffffff811115620008a557620008a46200060f565b5b620008b182546200066d565b620008be828285620007e3565b600060209050601f831160018114620008f65760008415620008e1578287015190505b620008ed858262000860565b8655506200095d565b601f1984166200090686620006a2565b60005b82811015620009305784890151825560018201915060208501945060208101905062000909565b868310156200095057848901516200094c601f89168262000840565b8355505b6001600288020188555050505b505050505050565b610dae80620009756000396000f3fe608060405234801561001057600080fd5b50600436106100935760003560e01c8063aa65877e11610066578063aa65877e146100e6578063e30c397814610116578063ee6f272614610134578063f2fde38b14610150578063faa992d31461016c57610093565b806350be4e7314610098578063715018a6146100b457806379ba5097146100be5780638da5cb5b146100c8575b600080fd5b6100b260048036038101906100ad919061080c565b61019c565b005b6100bc6101db565b005b6100c66101ef565b005b6100d061027e565b6040516100dd91906108bc565b60405180910390f35b61010060048036038101906100fb91906108d7565b6102a7565b60405161010d9190610996565b60405180910390f35b61011e610354565b60405161012b91906108bc565b60405180910390f35b61014e600480360381019061014991906109b8565b61037e565b005b61016a60048036038101906101659190610a40565b6103ab565b005b61018660048036038101906101819190610a6d565b610458565b6040516101939190610996565b60405180910390f35b6101a46104f8565b8060036000858152602001908152602001600020600084815260200190815260200160002090816101d59190610ca6565b50505050565b6101e36104f8565b6101ed600061057f565b565b60006101f96105b0565b90508073ffffffffffffffffffffffffffffffffffffffff1661021a610354565b73ffffffffffffffffffffffffffffffffffffffff161461027257806040517f118cdaa700000000000000000000000000000000000000000000000000000000815260040161026991906108bc565b60405180910390fd5b61027b8161057f565b50565b60008060009054906101000a900473ffffffffffffffffffffffffffffffffffffffff16905090565b60036020528160005260406000206020528060005260406000206000915091505080546102d390610ac9565b80601f01602080910402602001604051908101604052809291908181526020018280546102ff90610ac9565b801561034c5780601f106103215761010080835404028352916020019161034c565b820191906000526020600020905b81548152906001019060200180831161032f57829003601f168201915b505050505081565b6000600160009054906101000a900473ffffffffffffffffffffffffffffffffffffffff16905090565b6103866104f8565b806002600084815260200190815260200160002090816103a69190610ca6565b505050565b6103b36104f8565b80600160006101000a81548173ffffffffffffffffffffffffffffffffffffffff021916908373ffffffffffffffffffffffffffffffffffffffff1602179055508073ffffffffffffffffffffffffffffffffffffffff1661041361027e565b73ffffffffffffffffffffffffffffffffffffffff167f38d16b8cac22d99fc7c124b9cd0de2d3fa1faef420bfe791d8c362d765e2270060405160405180910390a350565b6002602052806000526040600020600091509050805461047790610ac9565b80601f01602080910402602001604051908101604052809291908181526020018280546104a390610ac9565b80156104f05780601f106104c5576101008083540402835291602001916104f0565b820191906000526020600020905b8154815290600101906020018083116104d357829003601f168201915b505050505081565b6105006105b0565b73ffffffffffffffffffffffffffffffffffffffff1661051e61027e565b73ffffffffffffffffffffffffffffffffffffffff161461057d576105416105b0565b6040517f118cdaa700000000000000000000000000000000000000000000000000000000815260040161057491906108bc565b60405180910390fd5b565b600160006101000a81549073ffffffffffffffffffffffffffffffffffffffff02191690556105ad816105b8565b50565b600033905090565b60008060009054906101000a900473ffffffffffffffffffffffffffffffffffffffff169050816000806101000a81548173ffffffffffffffffffffffffffffffffffffffff021916908373ffffffffffffffffffffffffffffffffffffffff1602179055508173ffffffffffffffffffffffffffffffffffffffff168173ffffffffffffffffffffffffffffffffffffffff167f8be0079c531659141344cd1fd0a4f28419497f9722a3daafe3b4186f6b6457e060405160405180910390a35050565b6000604051905090565b600080fd5b600080fd5b6000819050919050565b6106a381610690565b81146106ae57600080fd5b50565b6000813590506106c08161069a565b92915050565b600080fd5b600080fd5b6000601f19601f8301169050919050565b7f4e487b7100000000000000000000000000000000000000000000000000000000600052604160045260246000fd5b610719826106d0565b810181811067ffffffffffffffff82111715610738576107376106e1565b5b80604052505050565b600061074b61067c565b90506107578282610710565b919050565b600067ffffffffffffffff821115610777576107766106e1565b5b610780826106d0565b9050602081019050919050565b82818337600083830152505050565b60006107af6107aa8461075c565b610741565b9050828152602081018484840111156107cb576107ca6106cb565b5b6107d684828561078d565b509392505050565b600082601f8301126107f3576107f26106c6565b5b813561080384826020860161079c565b91505092915050565b60008060006060848603121561082557610824610686565b5b6000610833868287016106b1565b9350506020610844868287016106b1565b925050604084013567ffffffffffffffff8111156108655761086461068b565b5b610871868287016107de565b9150509250925092565b600073ffffffffffffffffffffffffffffffffffffffff82169050919050565b60006108a68261087b565b9050919050565b6108b68161089b565b82525050565b60006020820190506108d160008301846108ad565b92915050565b600080604083850312156108ee576108ed610686565b5b60006108fc858286016106b1565b925050602061090d858286016106b1565b9150509250929050565b600081519050919050565b600082825260208201905092915050565b60005b83811015610951578082015181840152602081019050610936565b60008484015250505050565b600061096882610917565b6109728185610922565b9350610982818560208601610933565b61098b816106d0565b840191505092915050565b600060208201905081810360008301526109b0818461095d565b905092915050565b600080604083850312156109cf576109ce610686565b5b60006109dd858286016106b1565b925050602083013567ffffffffffffffff8111156109fe576109fd61068b565b5b610a0a858286016107de565b9150509250929050565b610a1d8161089b565b8114610a2857600080fd5b50565b600081359050610a3a81610a14565b92915050565b600060208284031215610a5657610a55610686565b5b6000610a6484828501610a2b565b91505092915050565b600060208284031215610a8357610a82610686565b5b6000610a91848285016106b1565b91505092915050565b7f4e487b7100000000000000000000000000000000000000000000000000000000600052602260045260246000fd5b60006002820490506001821680610ae157607f821691505b602082108103610af457610af3610a9a565b5b50919050565b60008190508160005260206000209050919050565b60006020601f8301049050919050565b600082821b905092915050565b600060088302610b5c7fffffffffffffffffffffffffffffffffffffffffffffffffffffffffffffffff82610b1f565b610b668683610b1f565b95508019841693508086168417925050509392505050565b6000819050919050565b6000610ba3610b9e610b9984610690565b610b7e565b610690565b9050919050565b6000819050919050565b610bbd83610b88565b610bd1610bc982610baa565b848454610b2c565b825550505050565b600090565b610be6610bd9565b610bf1818484610bb4565b505050565b5b81811015610c1557610c0a600082610bde565b600181019050610bf7565b5050565b601f821115610c5a57610c2b81610afa565b610c3484610b0f565b81016020851015610c43578190505b610c57610c4f85610b0f565b830182610bf6565b50505b505050565b600082821c905092915050565b6000610c7d60001984600802610c5f565b1980831691505092915050565b6000610c968383610c6c565b9150826002028217905092915050565b610caf82610917565b67ffffffffffffffff811115610cc857610cc76106e1565b5b610cd28254610ac9565b610cdd828285610c19565b600060209050601f831160018114610d105760008415610cfe578287015190505b610d088582610c8a565b865550610d70565b601f198416610d1e86610afa565b60005b82811015610d4657848901518255600182019150602085019450602081019050610d21565b86831015610d635784890151610d5f601f891682610c6c565b8355505b6001600288020188555050505b50505050505056fea2646970667358221220b2d00b81e15b143e34e22d03d4cd6dc4cb4d29ddcb978a211f5efaaa32b25a2864736f6c63430008180033",
  "linkReferences": {},
  "deployedLinkReferences": {}
}